{
	"contracts/TwitterContract.sol": {
		"TwitterContract": {
			"abi": [
				{
					"inputs": [],
					"stateMutability": "nonpayable",
					"type": "constructor"
				},
				{
					"anonymous": false,
					"inputs": [
						{
							"indexed": false,
							"internalType": "address",
							"name": "liker",
							"type": "address"
						},
						{
							"indexed": false,
							"internalType": "uint256",
							"name": "tweetId",
							"type": "uint256"
						},
						{
							"indexed": false,
							"internalType": "address",
							"name": "tweetAuthor",
							"type": "address"
						},
						{
							"indexed": false,
							"internalType": "uint256",
							"name": "likesCount",
							"type": "uint256"
						}
					],
					"name": "LikeTweet",
					"type": "event"
				},
				{
					"anonymous": false,
					"inputs": [
						{
							"indexed": false,
							"internalType": "address",
							"name": "unliker",
							"type": "address"
						},
						{
							"indexed": false,
							"internalType": "uint256",
							"name": "tweetId",
							"type": "uint256"
						},
						{
							"indexed": false,
							"internalType": "address",
							"name": "tweetAuthor",
							"type": "address"
						},
						{
							"indexed": false,
							"internalType": "uint256",
							"name": "likesCount",
							"type": "uint256"
						}
					],
					"name": "UnlikeTweet",
					"type": "event"
				},
				{
					"anonymous": false,
					"inputs": [
						{
							"indexed": false,
							"internalType": "uint256",
							"name": "id",
							"type": "uint256"
						},
						{
							"indexed": false,
							"internalType": "address",
							"name": "author",
							"type": "address"
						},
						{
							"indexed": false,
							"internalType": "string",
							"name": "content",
							"type": "string"
						},
						{
							"indexed": false,
							"internalType": "uint256",
							"name": "datePublished",
							"type": "uint256"
						}
					],
					"name": "createTweetEvent",
					"type": "event"
				},
				{
					"inputs": [],
					"name": "MAX_TWEET_LENGTH",
					"outputs": [
						{
							"internalType": "uint16",
							"name": "",
							"type": "uint16"
						}
					],
					"stateMutability": "view",
					"type": "function"
				},
				{
					"inputs": [
						{
							"internalType": "uint16",
							"name": "_length",
							"type": "uint16"
						}
					],
					"name": "changeTweetLength",
					"outputs": [],
					"stateMutability": "nonpayable",
					"type": "function"
				},
				{
					"inputs": [
						{
							"internalType": "string",
							"name": "_tweet",
							"type": "string"
						}
					],
					"name": "createTweet",
					"outputs": [],
					"stateMutability": "nonpayable",
					"type": "function"
				},
				{
					"inputs": [
						{
							"internalType": "address",
							"name": "_author",
							"type": "address"
						}
					],
					"name": "getAllTweets",
					"outputs": [
						{
							"components": [
								{
									"internalType": "uint256",
									"name": "id",
									"type": "uint256"
								},
								{
									"internalType": "address",
									"name": "author",
									"type": "address"
								},
								{
									"internalType": "string",
									"name": "content",
									"type": "string"
								},
								{
									"internalType": "uint256",
									"name": "datePublished",
									"type": "uint256"
								},
								{
									"internalType": "uint256",
									"name": "likesCount",
									"type": "uint256"
								}
							],
							"internalType": "struct TwitterContract.Tweet[]",
							"name": "",
							"type": "tuple[]"
						}
					],
					"stateMutability": "view",
					"type": "function"
				},
				{
					"inputs": [
						{
							"internalType": "address",
							"name": "_author",
							"type": "address"
						},
						{
							"internalType": "uint256",
							"name": "_i",
							"type": "uint256"
						}
					],
					"name": "getTweet",
					"outputs": [
						{
							"components": [
								{
									"internalType": "uint256",
									"name": "id",
									"type": "uint256"
								},
								{
									"internalType": "address",
									"name": "author",
									"type": "address"
								},
								{
									"internalType": "string",
									"name": "content",
									"type": "string"
								},
								{
									"internalType": "uint256",
									"name": "datePublished",
									"type": "uint256"
								},
								{
									"internalType": "uint256",
									"name": "likesCount",
									"type": "uint256"
								}
							],
							"internalType": "struct TwitterContract.Tweet",
							"name": "",
							"type": "tuple"
						}
					],
					"stateMutability": "view",
					"type": "function"
				},
				{
					"inputs": [
						{
							"internalType": "address",
							"name": "_author",
							"type": "address"
						},
						{
							"internalType": "uint256",
							"name": "_id",
							"type": "uint256"
						}
					],
					"name": "like",
					"outputs": [],
					"stateMutability": "nonpayable",
					"type": "function"
				},
				{
					"inputs": [],
					"name": "owner",
					"outputs": [
						{
							"internalType": "address",
							"name": "",
							"type": "address"
						}
					],
					"stateMutability": "view",
					"type": "function"
				},
				{
					"inputs": [
						{
							"internalType": "address",
							"name": "_author",
							"type": "address"
						},
						{
							"internalType": "uint256",
							"name": "_id",
							"type": "uint256"
						}
					],
					"name": "totalLikes",
					"outputs": [
						{
							"internalType": "uint256",
							"name": "",
							"type": "uint256"
						}
					],
					"stateMutability": "view",
					"type": "function"
				},
				{
					"inputs": [
						{
							"internalType": "address",
							"name": "",
							"type": "address"
						},
						{
							"internalType": "uint256",
							"name": "",
							"type": "uint256"
						}
					],
					"name": "tweets",
					"outputs": [
						{
							"components": [
								{
									"internalType": "uint256",
									"name": "id",
									"type": "uint256"
								},
								{
									"internalType": "address",
									"name": "author",
									"type": "address"
								},
								{
									"internalType": "string",
									"name": "content",
									"type": "string"
								},
								{
									"internalType": "uint256",
									"name": "datePublished",
									"type": "uint256"
								},
								{
									"internalType": "uint256",
									"name": "likesCount",
									"type": "uint256"
								}
							],
							"internalType": "struct TwitterContract.Tweet",
							"name": "tweet",
							"type": "tuple"
						}
					],
					"stateMutability": "view",
					"type": "function"
				},
				{
					"inputs": [
						{
							"internalType": "address",
							"name": "_author",
							"type": "address"
						},
						{
							"internalType": "uint256",
							"name": "_id",
							"type": "uint256"
						}
					],
					"name": "unlike",
					"outputs": [],
					"stateMutability": "nonpayable",
					"type": "function"
				}
			],
			"devdoc": {
				"kind": "dev",
				"methods": {},
				"version": 1
			},
			"evm": {
				"assembly": "    /* \"contracts/TwitterContract.sol\":60:3200  contract TwitterContract {... */\n  mstore(0x40, 0x80)\n    /* \"contracts/TwitterContract.sol\":444:447  280 */\n  0x0118\n    /* \"contracts/TwitterContract.sol\":411:447  uint16 public MAX_TWEET_LENGTH = 280 */\n  0x01\n  exp(0x0100, 0x00)\n  dup2\n  sload\n  dup2\n  0xffff\n  mul\n  not\n  and\n  swap1\n  dup4\n  0xffff\n  and\n  mul\n  or\n  swap1\n  sstore\n  pop\n    /* \"contracts/TwitterContract.sol\":483:534  constructor() {... */\n  callvalue\n  dup1\n  iszero\n  tag_1\n  jumpi\n  0x00\n  dup1\n  revert\ntag_1:\n  pop\n    /* \"contracts/TwitterContract.sol\":516:526  msg.sender */\n  caller\n    /* \"contracts/TwitterContract.sol\":508:513  owner */\n  0x01\n  0x02\n    /* \"contracts/TwitterContract.sol\":508:526  owner = msg.sender */\n  0x0100\n  exp\n  dup2\n  sload\n  dup2\n  0xffffffffffffffffffffffffffffffffffffffff\n  mul\n  not\n  and\n  swap1\n  dup4\n  0xffffffffffffffffffffffffffffffffffffffff\n  and\n  mul\n  or\n  swap1\n  sstore\n  pop\n    /* \"contracts/TwitterContract.sol\":60:3200  contract TwitterContract {... */\n  dataSize(sub_0)\n  dup1\n  dataOffset(sub_0)\n  0x00\n  codecopy\n  0x00\n  return\nstop\n\nsub_0: assembly {\n        /* \"contracts/TwitterContract.sol\":60:3200  contract TwitterContract {... */\n      mstore(0x40, 0x80)\n      callvalue\n      dup1\n      iszero\n      tag_1\n      jumpi\n      0x00\n      dup1\n      revert\n    tag_1:\n      pop\n      jumpi(tag_2, lt(calldatasize, 0x04))\n      shr(0xe0, calldataload(0x00))\n      dup1\n      0x6eb10797\n      gt\n      tag_13\n      jumpi\n      dup1\n      0x6eb10797\n      eq\n      tag_8\n      jumpi\n      dup1\n      0x7c9cd2bc\n      eq\n      tag_9\n      jumpi\n      dup1\n      0x8da5cb5b\n      eq\n      tag_10\n      jumpi\n      dup1\n      0xb0ee502f\n      eq\n      tag_11\n      jumpi\n      dup1\n      0xe4626c8f\n      eq\n      tag_12\n      jumpi\n      jump(tag_2)\n    tag_13:\n      dup1\n      0x05a1b4a9\n      eq\n      tag_3\n      jumpi\n      dup1\n      0x112f54e3\n      eq\n      tag_4\n      jumpi\n      dup1\n      0x12e7ee1c\n      eq\n      tag_5\n      jumpi\n      dup1\n      0x274ee23f\n      eq\n      tag_6\n      jumpi\n      dup1\n      0x58bfa4ab\n      eq\n      tag_7\n      jumpi\n    tag_2:\n      0x00\n      dup1\n      revert\n        /* \"contracts/TwitterContract.sol\":354:404  mapping(address => TweetWithLikes[]) public tweets */\n    tag_3:\n      tag_14\n      0x04\n      dup1\n      calldatasize\n      sub\n      dup2\n      add\n      swap1\n      tag_15\n      swap2\n      swap1\n      tag_16\n      jump\t// in\n    tag_15:\n      tag_17\n      jump\t// in\n    tag_14:\n      mload(0x40)\n      tag_18\n      swap2\n      swap1\n      tag_19\n      jump\t// in\n    tag_18:\n      mload(0x40)\n      dup1\n      swap2\n      sub\n      swap1\n      return\n        /* \"contracts/TwitterContract.sol\":2658:2858  function getTweet(address _author, uint _i) public view returns (Tweet memory) {... */\n    tag_4:\n      tag_20\n      0x04\n      dup1\n      calldatasize\n      sub\n      dup2\n      add\n      swap1\n      tag_21\n      swap2\n      swap1\n      tag_16\n      jump\t// in\n    tag_21:\n      tag_22\n      jump\t// in\n    tag_20:\n      mload(0x40)\n      tag_23\n      swap2\n      swap1\n      tag_19\n      jump\t// in\n    tag_23:\n      mload(0x40)\n      dup1\n      swap2\n      sub\n      swap1\n      return\n        /* \"contracts/TwitterContract.sol\":2866:3197  function getAllTweets(address _author) public view returns (Tweet[] memory) {... */\n    tag_5:\n      tag_24\n      0x04\n      dup1\n      calldatasize\n      sub\n      dup2\n      add\n      swap1\n      tag_25\n      swap2\n      swap1\n      tag_26\n      jump\t// in\n    tag_25:\n      tag_27\n      jump\t// in\n    tag_24:\n      mload(0x40)\n      tag_28\n      swap2\n      swap1\n      tag_29\n      jump\t// in\n    tag_28:\n      mload(0x40)\n      dup1\n      swap2\n      sub\n      swap1\n      return\n        /* \"contracts/TwitterContract.sol\":2434:2650  function totalLikes(address _author, uint256 _id) public view returns (uint256) {... */\n    tag_6:\n      tag_30\n      0x04\n      dup1\n      calldatasize\n      sub\n      dup2\n      add\n      swap1\n      tag_31\n      swap2\n      swap1\n      tag_16\n      jump\t// in\n    tag_31:\n      tag_32\n      jump\t// in\n    tag_30:\n      mload(0x40)\n      tag_33\n      swap2\n      swap1\n      tag_34\n      jump\t// in\n    tag_33:\n      mload(0x40)\n      dup1\n      swap2\n      sub\n      swap1\n      return\n        /* \"contracts/TwitterContract.sol\":941:1046  function changeTweetLength(uint16 _length) public onlyOwner {... */\n    tag_7:\n      tag_35\n      0x04\n      dup1\n      calldatasize\n      sub\n      dup2\n      add\n      swap1\n      tag_36\n      swap2\n      swap1\n      tag_37\n      jump\t// in\n    tag_36:\n      tag_38\n      jump\t// in\n    tag_35:\n      stop\n        /* \"contracts/TwitterContract.sol\":411:447  uint16 public MAX_TWEET_LENGTH = 280 */\n    tag_8:\n      tag_39\n      tag_40\n      jump\t// in\n    tag_39:\n      mload(0x40)\n      tag_41\n      swap2\n      swap1\n      tag_42\n      jump\t// in\n    tag_41:\n      mload(0x40)\n      dup1\n      swap2\n      sub\n      swap1\n      return\n        /* \"contracts/TwitterContract.sol\":1054:1606  function createTweet(string memory _tweet) public {... */\n    tag_9:\n      tag_43\n      0x04\n      dup1\n      calldatasize\n      sub\n      dup2\n      add\n      swap1\n      tag_44\n      swap2\n      swap1\n      tag_45\n      jump\t// in\n    tag_44:\n      tag_46\n      jump\t// in\n    tag_43:\n      stop\n        /* \"contracts/TwitterContract.sol\":454:474  address public owner */\n    tag_10:\n      tag_47\n      tag_48\n      jump\t// in\n    tag_47:\n      mload(0x40)\n      tag_49\n      swap2\n      swap1\n      tag_50\n      jump\t// in\n    tag_49:\n      mload(0x40)\n      dup1\n      swap2\n      sub\n      swap1\n      return\n        /* \"contracts/TwitterContract.sol\":2022:2426  function unlike(address _author, uint256 _id) external {... */\n    tag_11:\n      tag_51\n      0x04\n      dup1\n      calldatasize\n      sub\n      dup2\n      add\n      swap1\n      tag_52\n      swap2\n      swap1\n      tag_16\n      jump\t// in\n    tag_52:\n      tag_53\n      jump\t// in\n    tag_51:\n      stop\n        /* \"contracts/TwitterContract.sol\":1614:2014  function like(address _author, uint256 _id) external {... */\n    tag_12:\n      tag_54\n      0x04\n      dup1\n      calldatasize\n      sub\n      dup2\n      add\n      swap1\n      tag_55\n      swap2\n      swap1\n      tag_16\n      jump\t// in\n    tag_55:\n      tag_56\n      jump\t// in\n    tag_54:\n      stop\n        /* \"contracts/TwitterContract.sol\":354:404  mapping(address => TweetWithLikes[]) public tweets */\n    tag_17:\n      mstore(0x20, 0x00)\n      dup2\n      0x00\n      mstore\n      keccak256(0x00, 0x40)\n      dup2\n      dup2\n      sload\n      dup2\n      lt\n      tag_57\n      jumpi\n      0x00\n      dup1\n      revert\n    tag_57:\n      swap1\n      0x00\n      mstore\n      keccak256(0x00, 0x20)\n      swap1\n      0x06\n      mul\n      add\n      0x00\n      swap2\n      pop\n      swap2\n      pop\n      pop\n      dup1\n      0x00\n      add\n      mload(0x40)\n      dup1\n      0xa0\n      add\n      0x40\n      mstore\n      swap1\n      dup2\n      0x00\n      dup3\n      add\n      sload\n      dup2\n      mstore\n      0x20\n      add\n      0x01\n      dup3\n      add\n      0x00\n      swap1\n      sload\n      swap1\n      0x0100\n      exp\n      swap1\n      div\n      0xffffffffffffffffffffffffffffffffffffffff\n      and\n      0xffffffffffffffffffffffffffffffffffffffff\n      and\n      0xffffffffffffffffffffffffffffffffffffffff\n      and\n      dup2\n      mstore\n      0x20\n      add\n      0x02\n      dup3\n      add\n      dup1\n      sload\n      tag_59\n      swap1\n      tag_60\n      jump\t// in\n    tag_59:\n      dup1\n      0x1f\n      add\n      0x20\n      dup1\n      swap2\n      div\n      mul\n      0x20\n      add\n      mload(0x40)\n      swap1\n      dup2\n      add\n      0x40\n      mstore\n      dup1\n      swap3\n      swap2\n      swap1\n      dup2\n      dup2\n      mstore\n      0x20\n      add\n      dup3\n      dup1\n      sload\n      tag_61\n      swap1\n      tag_60\n      jump\t// in\n    tag_61:\n      dup1\n      iszero\n      tag_62\n      jumpi\n      dup1\n      0x1f\n      lt\n      tag_63\n      jumpi\n      0x0100\n      dup1\n      dup4\n      sload\n      div\n      mul\n      dup4\n      mstore\n      swap2\n      0x20\n      add\n      swap2\n      jump(tag_62)\n    tag_63:\n      dup3\n      add\n      swap2\n      swap1\n      0x00\n      mstore\n      keccak256(0x00, 0x20)\n      swap1\n    tag_64:\n      dup2\n      sload\n      dup2\n      mstore\n      swap1\n      0x01\n      add\n      swap1\n      0x20\n      add\n      dup1\n      dup4\n      gt\n      tag_64\n      jumpi\n      dup3\n      swap1\n      sub\n      0x1f\n      and\n      dup3\n      add\n      swap2\n    tag_62:\n      pop\n      pop\n      pop\n      pop\n      pop\n      dup2\n      mstore\n      0x20\n      add\n      0x03\n      dup3\n      add\n      sload\n      dup2\n      mstore\n      0x20\n      add\n      0x04\n      dup3\n      add\n      sload\n      dup2\n      mstore\n      pop\n      pop\n      swap1\n      pop\n      dup2\n      jump\t// out\n        /* \"contracts/TwitterContract.sol\":2658:2858  function getTweet(address _author, uint _i) public view returns (Tweet memory) {... */\n    tag_22:\n        /* \"contracts/TwitterContract.sol\":2723:2735  Tweet memory */\n      tag_65\n      tag_66\n      jump\t// in\n    tag_65:\n        /* \"contracts/TwitterContract.sol\":2781:2783  _i */\n      dup2\n        /* \"contracts/TwitterContract.sol\":2756:2762  tweets */\n      0x00\n        /* \"contracts/TwitterContract.sol\":2756:2771  tweets[_author] */\n      dup1\n        /* \"contracts/TwitterContract.sol\":2763:2770  _author */\n      dup6\n        /* \"contracts/TwitterContract.sol\":2756:2771  tweets[_author] */\n      0xffffffffffffffffffffffffffffffffffffffff\n      and\n      0xffffffffffffffffffffffffffffffffffffffff\n      and\n      dup2\n      mstore\n      0x20\n      add\n      swap1\n      dup2\n      mstore\n      0x20\n      add\n      0x00\n      keccak256\n        /* \"contracts/TwitterContract.sol\":2756:2778  tweets[_author].length */\n      dup1\n      sload\n      swap1\n      pop\n        /* \"contracts/TwitterContract.sol\":2756:2783  tweets[_author].length > _i */\n      gt\n        /* \"contracts/TwitterContract.sol\":2748:2807  require(tweets[_author].length > _i, \"Tweet doesn't exist\") */\n      tag_68\n      jumpi\n      mload(0x40)\n      0x08c379a000000000000000000000000000000000000000000000000000000000\n      dup2\n      mstore\n      0x04\n      add\n      tag_69\n      swap1\n      tag_70\n      jump\t// in\n    tag_69:\n      mload(0x40)\n      dup1\n      swap2\n      sub\n      swap1\n      revert\n    tag_68:\n        /* \"contracts/TwitterContract.sol\":2825:2831  tweets */\n      0x00\n        /* \"contracts/TwitterContract.sol\":2825:2840  tweets[_author] */\n      dup1\n        /* \"contracts/TwitterContract.sol\":2832:2839  _author */\n      dup5\n        /* \"contracts/TwitterContract.sol\":2825:2840  tweets[_author] */\n      0xffffffffffffffffffffffffffffffffffffffff\n      and\n      0xffffffffffffffffffffffffffffffffffffffff\n      and\n      dup2\n      mstore\n      0x20\n      add\n      swap1\n      dup2\n      mstore\n      0x20\n      add\n      0x00\n      keccak256\n        /* \"contracts/TwitterContract.sol\":2841:2843  _i */\n      dup3\n        /* \"contracts/TwitterContract.sol\":2825:2844  tweets[_author][_i] */\n      dup2\n      sload\n      dup2\n      lt\n      tag_71\n      jumpi\n      tag_72\n      tag_73\n      jump\t// in\n    tag_72:\n    tag_71:\n      swap1\n      0x00\n      mstore\n      keccak256(0x00, 0x20)\n      swap1\n      0x06\n      mul\n      add\n        /* \"contracts/TwitterContract.sol\":2825:2850  tweets[_author][_i].tweet */\n      0x00\n      add\n        /* \"contracts/TwitterContract.sol\":2818:2850  return tweets[_author][_i].tweet */\n      mload(0x40)\n      dup1\n      0xa0\n      add\n      0x40\n      mstore\n      swap1\n      dup2\n      0x00\n      dup3\n      add\n      sload\n      dup2\n      mstore\n      0x20\n      add\n      0x01\n      dup3\n      add\n      0x00\n      swap1\n      sload\n      swap1\n      0x0100\n      exp\n      swap1\n      div\n      0xffffffffffffffffffffffffffffffffffffffff\n      and\n      0xffffffffffffffffffffffffffffffffffffffff\n      and\n      0xffffffffffffffffffffffffffffffffffffffff\n      and\n      dup2\n      mstore\n      0x20\n      add\n      0x02\n      dup3\n      add\n      dup1\n      sload\n      tag_75\n      swap1\n      tag_60\n      jump\t// in\n    tag_75:\n      dup1\n      0x1f\n      add\n      0x20\n      dup1\n      swap2\n      div\n      mul\n      0x20\n      add\n      mload(0x40)\n      swap1\n      dup2\n      add\n      0x40\n      mstore\n      dup1\n      swap3\n      swap2\n      swap1\n      dup2\n      dup2\n      mstore\n      0x20\n      add\n      dup3\n      dup1\n      sload\n      tag_76\n      swap1\n      tag_60\n      jump\t// in\n    tag_76:\n      dup1\n      iszero\n      tag_77\n      jumpi\n      dup1\n      0x1f\n      lt\n      tag_78\n      jumpi\n      0x0100\n      dup1\n      dup4\n      sload\n      div\n      mul\n      dup4\n      mstore\n      swap2\n      0x20\n      add\n      swap2\n      jump(tag_77)\n    tag_78:\n      dup3\n      add\n      swap2\n      swap1\n      0x00\n      mstore\n      keccak256(0x00, 0x20)\n      swap1\n    tag_79:\n      dup2\n      sload\n      dup2\n      mstore\n      swap1\n      0x01\n      add\n      swap1\n      0x20\n      add\n      dup1\n      dup4\n      gt\n      tag_79\n      jumpi\n      dup3\n      swap1\n      sub\n      0x1f\n      and\n      dup3\n      add\n      swap2\n    tag_77:\n      pop\n      pop\n      pop\n      pop\n      pop\n      dup2\n      mstore\n      0x20\n      add\n      0x03\n      dup3\n      add\n      sload\n      dup2\n      mstore\n      0x20\n      add\n      0x04\n      dup3\n      add\n      sload\n      dup2\n      mstore\n      pop\n      pop\n      swap1\n      pop\n        /* \"contracts/TwitterContract.sol\":2658:2858  function getTweet(address _author, uint _i) public view returns (Tweet memory) {... */\n      swap3\n      swap2\n      pop\n      pop\n      jump\t// out\n        /* \"contracts/TwitterContract.sol\":2866:3197  function getAllTweets(address _author) public view returns (Tweet[] memory) {... */\n    tag_27:\n        /* \"contracts/TwitterContract.sol\":2926:2940  Tweet[] memory */\n      0x60\n        /* \"contracts/TwitterContract.sol\":2953:2967  uint256 length */\n      0x00\n        /* \"contracts/TwitterContract.sol\":2970:2976  tweets */\n      dup1\n        /* \"contracts/TwitterContract.sol\":2970:2985  tweets[_author] */\n      0x00\n        /* \"contracts/TwitterContract.sol\":2977:2984  _author */\n      dup5\n        /* \"contracts/TwitterContract.sol\":2970:2985  tweets[_author] */\n      0xffffffffffffffffffffffffffffffffffffffff\n      and\n      0xffffffffffffffffffffffffffffffffffffffff\n      and\n      dup2\n      mstore\n      0x20\n      add\n      swap1\n      dup2\n      mstore\n      0x20\n      add\n      0x00\n      keccak256\n        /* \"contracts/TwitterContract.sol\":2970:2992  tweets[_author].length */\n      dup1\n      sload\n      swap1\n      pop\n        /* \"contracts/TwitterContract.sol\":2953:2992  uint256 length = tweets[_author].length */\n      swap1\n      pop\n        /* \"contracts/TwitterContract.sol\":3003:3027  Tweet[] memory allTweets */\n      0x00\n        /* \"contracts/TwitterContract.sol\":3042:3048  length */\n      dup2\n        /* \"contracts/TwitterContract.sol\":3030:3049  new Tweet[](length) */\n      0xffffffffffffffff\n      dup2\n      gt\n      iszero\n      tag_81\n      jumpi\n      tag_82\n      tag_83\n      jump\t// in\n    tag_82:\n    tag_81:\n      mload(0x40)\n      swap1\n      dup1\n      dup3\n      mstore\n      dup1\n      0x20\n      mul\n      0x20\n      add\n      dup3\n      add\n      0x40\n      mstore\n      dup1\n      iszero\n      tag_84\n      jumpi\n      dup2\n      0x20\n      add\n    tag_85:\n      tag_86\n      tag_66\n      jump\t// in\n    tag_86:\n      dup2\n      mstore\n      0x20\n      add\n      swap1\n      0x01\n      swap1\n      sub\n      swap1\n      dup2\n      tag_85\n      jumpi\n      swap1\n      pop\n    tag_84:\n      pop\n        /* \"contracts/TwitterContract.sol\":3003:3049  Tweet[] memory allTweets = new Tweet[](length) */\n      swap1\n      pop\n        /* \"contracts/TwitterContract.sol\":3065:3074  uint256 i */\n      0x00\n        /* \"contracts/TwitterContract.sol\":3060:3163  for (uint256 i = 0; i < length; i++) {... */\n    tag_87:\n        /* \"contracts/TwitterContract.sol\":3084:3090  length */\n      dup3\n        /* \"contracts/TwitterContract.sol\":3080:3081  i */\n      dup2\n        /* \"contracts/TwitterContract.sol\":3080:3090  i < length */\n      lt\n        /* \"contracts/TwitterContract.sol\":3060:3163  for (uint256 i = 0; i < length; i++) {... */\n      iszero\n      tag_88\n      jumpi\n        /* \"contracts/TwitterContract.sol\":3127:3133  tweets */\n      0x00\n        /* \"contracts/TwitterContract.sol\":3127:3142  tweets[_author] */\n      dup1\n        /* \"contracts/TwitterContract.sol\":3134:3141  _author */\n      dup7\n        /* \"contracts/TwitterContract.sol\":3127:3142  tweets[_author] */\n      0xffffffffffffffffffffffffffffffffffffffff\n      and\n      0xffffffffffffffffffffffffffffffffffffffff\n      and\n      dup2\n      mstore\n      0x20\n      add\n      swap1\n      dup2\n      mstore\n      0x20\n      add\n      0x00\n      keccak256\n        /* \"contracts/TwitterContract.sol\":3143:3144  i */\n      dup2\n        /* \"contracts/TwitterContract.sol\":3127:3145  tweets[_author][i] */\n      dup2\n      sload\n      dup2\n      lt\n      tag_90\n      jumpi\n      tag_91\n      tag_73\n      jump\t// in\n    tag_91:\n    tag_90:\n      swap1\n      0x00\n      mstore\n      keccak256(0x00, 0x20)\n      swap1\n      0x06\n      mul\n      add\n        /* \"contracts/TwitterContract.sol\":3127:3151  tweets[_author][i].tweet */\n      0x00\n      add\n        /* \"contracts/TwitterContract.sol\":3112:3151  allTweets[i] = tweets[_author][i].tweet */\n      mload(0x40)\n      dup1\n      0xa0\n      add\n      0x40\n      mstore\n      swap1\n      dup2\n      0x00\n      dup3\n      add\n      sload\n      dup2\n      mstore\n      0x20\n      add\n      0x01\n      dup3\n      add\n      0x00\n      swap1\n      sload\n      swap1\n      0x0100\n      exp\n      swap1\n      div\n      0xffffffffffffffffffffffffffffffffffffffff\n      and\n      0xffffffffffffffffffffffffffffffffffffffff\n      and\n      0xffffffffffffffffffffffffffffffffffffffff\n      and\n      dup2\n      mstore\n      0x20\n      add\n      0x02\n      dup3\n      add\n      dup1\n      sload\n      tag_93\n      swap1\n      tag_60\n      jump\t// in\n    tag_93:\n      dup1\n      0x1f\n      add\n      0x20\n      dup1\n      swap2\n      div\n      mul\n      0x20\n      add\n      mload(0x40)\n      swap1\n      dup2\n      add\n      0x40\n      mstore\n      dup1\n      swap3\n      swap2\n      swap1\n      dup2\n      dup2\n      mstore\n      0x20\n      add\n      dup3\n      dup1\n      sload\n      tag_94\n      swap1\n      tag_60\n      jump\t// in\n    tag_94:\n      dup1\n      iszero\n      tag_95\n      jumpi\n      dup1\n      0x1f\n      lt\n      tag_96\n      jumpi\n      0x0100\n      dup1\n      dup4\n      sload\n      div\n      mul\n      dup4\n      mstore\n      swap2\n      0x20\n      add\n      swap2\n      jump(tag_95)\n    tag_96:\n      dup3\n      add\n      swap2\n      swap1\n      0x00\n      mstore\n      keccak256(0x00, 0x20)\n      swap1\n    tag_97:\n      dup2\n      sload\n      dup2\n      mstore\n      swap1\n      0x01\n      add\n      swap1\n      0x20\n      add\n      dup1\n      dup4\n      gt\n      tag_97\n      jumpi\n      dup3\n      swap1\n      sub\n      0x1f\n      and\n      dup3\n      add\n      swap2\n    tag_95:\n      pop\n      pop\n      pop\n      pop\n      pop\n      dup2\n      mstore\n      0x20\n      add\n      0x03\n      dup3\n      add\n      sload\n      dup2\n      mstore\n      0x20\n      add\n      0x04\n      dup3\n      add\n      sload\n      dup2\n      mstore\n      pop\n      pop\n        /* \"contracts/TwitterContract.sol\":3112:3121  allTweets */\n      dup3\n        /* \"contracts/TwitterContract.sol\":3122:3123  i */\n      dup3\n        /* \"contracts/TwitterContract.sol\":3112:3124  allTweets[i] */\n      dup2\n      mload\n      dup2\n      lt\n      tag_98\n      jumpi\n      tag_99\n      tag_73\n      jump\t// in\n    tag_99:\n    tag_98:\n      0x20\n      mul\n      0x20\n      add\n      add\n        /* \"contracts/TwitterContract.sol\":3112:3151  allTweets[i] = tweets[_author][i].tweet */\n      dup2\n      swap1\n      mstore\n      pop\n        /* \"contracts/TwitterContract.sol\":3092:3095  i++ */\n      dup1\n      dup1\n      0x01\n      add\n      swap2\n      pop\n      pop\n        /* \"contracts/TwitterContract.sol\":3060:3163  for (uint256 i = 0; i < length; i++) {... */\n      jump(tag_87)\n    tag_88:\n      pop\n        /* \"contracts/TwitterContract.sol\":3180:3189  allTweets */\n      dup1\n        /* \"contracts/TwitterContract.sol\":3173:3189  return allTweets */\n      swap3\n      pop\n      pop\n      pop\n        /* \"contracts/TwitterContract.sol\":2866:3197  function getAllTweets(address _author) public view returns (Tweet[] memory) {... */\n      swap2\n      swap1\n      pop\n      jump\t// out\n        /* \"contracts/TwitterContract.sol\":2434:2650  function totalLikes(address _author, uint256 _id) public view returns (uint256) {... */\n    tag_32:\n        /* \"contracts/TwitterContract.sol\":2505:2512  uint256 */\n      0x00\n        /* \"contracts/TwitterContract.sol\":2558:2561  _id */\n      dup2\n        /* \"contracts/TwitterContract.sol\":2533:2539  tweets */\n      0x00\n        /* \"contracts/TwitterContract.sol\":2533:2548  tweets[_author] */\n      dup1\n        /* \"contracts/TwitterContract.sol\":2540:2547  _author */\n      dup6\n        /* \"contracts/TwitterContract.sol\":2533:2548  tweets[_author] */\n      0xffffffffffffffffffffffffffffffffffffffff\n      and\n      0xffffffffffffffffffffffffffffffffffffffff\n      and\n      dup2\n      mstore\n      0x20\n      add\n      swap1\n      dup2\n      mstore\n      0x20\n      add\n      0x00\n      keccak256\n        /* \"contracts/TwitterContract.sol\":2533:2555  tweets[_author].length */\n      dup1\n      sload\n      swap1\n      pop\n        /* \"contracts/TwitterContract.sol\":2533:2561  tweets[_author].length > _id */\n      gt\n        /* \"contracts/TwitterContract.sol\":2525:2585  require(tweets[_author].length > _id, \"Tweet doesn't exist\") */\n      tag_101\n      jumpi\n      mload(0x40)\n      0x08c379a000000000000000000000000000000000000000000000000000000000\n      dup2\n      mstore\n      0x04\n      add\n      tag_102\n      swap1\n      tag_70\n      jump\t// in\n    tag_102:\n      mload(0x40)\n      dup1\n      swap2\n      sub\n      swap1\n      revert\n    tag_101:\n        /* \"contracts/TwitterContract.sol\":2605:2611  tweets */\n      0x00\n        /* \"contracts/TwitterContract.sol\":2605:2620  tweets[_author] */\n      dup1\n        /* \"contracts/TwitterContract.sol\":2612:2619  _author */\n      dup5\n        /* \"contracts/TwitterContract.sol\":2605:2620  tweets[_author] */\n      0xffffffffffffffffffffffffffffffffffffffff\n      and\n      0xffffffffffffffffffffffffffffffffffffffff\n      and\n      dup2\n      mstore\n      0x20\n      add\n      swap1\n      dup2\n      mstore\n      0x20\n      add\n      0x00\n      keccak256\n        /* \"contracts/TwitterContract.sol\":2621:2624  _id */\n      dup3\n        /* \"contracts/TwitterContract.sol\":2605:2625  tweets[_author][_id] */\n      dup2\n      sload\n      dup2\n      lt\n      tag_103\n      jumpi\n      tag_104\n      tag_73\n      jump\t// in\n    tag_104:\n    tag_103:\n      swap1\n      0x00\n      mstore\n      keccak256(0x00, 0x20)\n      swap1\n      0x06\n      mul\n      add\n        /* \"contracts/TwitterContract.sol\":2605:2631  tweets[_author][_id].tweet */\n      0x00\n      add\n        /* \"contracts/TwitterContract.sol\":2605:2642  tweets[_author][_id].tweet.likesCount */\n      0x04\n      add\n      sload\n        /* \"contracts/TwitterContract.sol\":2598:2642  return tweets[_author][_id].tweet.likesCount */\n      swap1\n      pop\n        /* \"contracts/TwitterContract.sol\":2434:2650  function totalLikes(address _author, uint256 _id) public view returns (uint256) {... */\n      swap3\n      swap2\n      pop\n      pop\n      jump\t// out\n        /* \"contracts/TwitterContract.sol\":941:1046  function changeTweetLength(uint16 _length) public onlyOwner {... */\n    tag_38:\n        /* \"contracts/TwitterContract.sol\":882:887  owner */\n      0x01\n      0x02\n      swap1\n      sload\n      swap1\n      0x0100\n      exp\n      swap1\n      div\n      0xffffffffffffffffffffffffffffffffffffffff\n      and\n        /* \"contracts/TwitterContract.sol\":868:887  msg.sender == owner */\n      0xffffffffffffffffffffffffffffffffffffffff\n      and\n        /* \"contracts/TwitterContract.sol\":868:878  msg.sender */\n      caller\n        /* \"contracts/TwitterContract.sol\":868:887  msg.sender == owner */\n      0xffffffffffffffffffffffffffffffffffffffff\n      and\n      eq\n        /* \"contracts/TwitterContract.sol\":860:913  require(msg.sender == owner, \"You are not the owner\") */\n      tag_107\n      jumpi\n      mload(0x40)\n      0x08c379a000000000000000000000000000000000000000000000000000000000\n      dup2\n      mstore\n      0x04\n      add\n      tag_108\n      swap1\n      tag_109\n      jump\t// in\n    tag_108:\n      mload(0x40)\n      dup1\n      swap2\n      sub\n      swap1\n      revert\n    tag_107:\n        /* \"contracts/TwitterContract.sol\":1031:1038  _length */\n      dup1\n        /* \"contracts/TwitterContract.sol\":1012:1028  MAX_TWEET_LENGTH */\n      0x01\n      0x00\n        /* \"contracts/TwitterContract.sol\":1012:1038  MAX_TWEET_LENGTH = _length */\n      0x0100\n      exp\n      dup2\n      sload\n      dup2\n      0xffff\n      mul\n      not\n      and\n      swap1\n      dup4\n      0xffff\n      and\n      mul\n      or\n      swap1\n      sstore\n      pop\n        /* \"contracts/TwitterContract.sol\":941:1046  function changeTweetLength(uint16 _length) public onlyOwner {... */\n      pop\n      jump\t// out\n        /* \"contracts/TwitterContract.sol\":411:447  uint16 public MAX_TWEET_LENGTH = 280 */\n    tag_40:\n      0x01\n      0x00\n      swap1\n      sload\n      swap1\n      0x0100\n      exp\n      swap1\n      div\n      0xffff\n      and\n      dup2\n      jump\t// out\n        /* \"contracts/TwitterContract.sol\":1054:1606  function createTweet(string memory _tweet) public {... */\n    tag_46:\n        /* \"contracts/TwitterContract.sol\":1147:1163  MAX_TWEET_LENGTH */\n      0x01\n      0x00\n      swap1\n      sload\n      swap1\n      0x0100\n      exp\n      swap1\n      div\n      0xffff\n      and\n        /* \"contracts/TwitterContract.sol\":1123:1163  bytes(_tweet).length <= MAX_TWEET_LENGTH */\n      0xffff\n      and\n        /* \"contracts/TwitterContract.sol\":1129:1135  _tweet */\n      dup2\n        /* \"contracts/TwitterContract.sol\":1123:1143  bytes(_tweet).length */\n      mload\n        /* \"contracts/TwitterContract.sol\":1123:1163  bytes(_tweet).length <= MAX_TWEET_LENGTH */\n      gt\n      iszero\n        /* \"contracts/TwitterContract.sol\":1115:1182  require(bytes(_tweet).length <= MAX_TWEET_LENGTH, \"Tweet too long\") */\n      tag_112\n      jumpi\n      mload(0x40)\n      0x08c379a000000000000000000000000000000000000000000000000000000000\n      dup2\n      mstore\n      0x04\n      add\n      tag_113\n      swap1\n      tag_114\n      jump\t// in\n    tag_113:\n      mload(0x40)\n      dup1\n      swap2\n      sub\n      swap1\n      revert\n    tag_112:\n        /* \"contracts/TwitterContract.sol\":1195:1226  TweetWithLikes storage newTweet */\n      0x00\n        /* \"contracts/TwitterContract.sol\":1229:1235  tweets */\n      dup1\n        /* \"contracts/TwitterContract.sol\":1229:1247  tweets[msg.sender] */\n      0x00\n        /* \"contracts/TwitterContract.sol\":1236:1246  msg.sender */\n      caller\n        /* \"contracts/TwitterContract.sol\":1229:1247  tweets[msg.sender] */\n      0xffffffffffffffffffffffffffffffffffffffff\n      and\n      0xffffffffffffffffffffffffffffffffffffffff\n      and\n      dup2\n      mstore\n      0x20\n      add\n      swap1\n      dup2\n      mstore\n      0x20\n      add\n      0x00\n      keccak256\n        /* \"contracts/TwitterContract.sol\":1229:1254  tweets[msg.sender].push() */\n      0x01\n      dup2\n      0x01\n      dup2\n      sload\n      add\n      dup1\n      dup3\n      sstore\n      dup1\n      swap2\n      pop\n      pop\n      sub\n      swap1\n      0x00\n      mstore\n      keccak256(0x00, 0x20)\n      swap1\n      0x06\n      mul\n      add\n        /* \"contracts/TwitterContract.sol\":1195:1254  TweetWithLikes storage newTweet = tweets[msg.sender].push() */\n      swap1\n      pop\n        /* \"contracts/TwitterContract.sol\":1313:1314  1 */\n      0x01\n        /* \"contracts/TwitterContract.sol\":1285:1291  tweets */\n      0x00\n        /* \"contracts/TwitterContract.sol\":1285:1303  tweets[msg.sender] */\n      dup1\n        /* \"contracts/TwitterContract.sol\":1292:1302  msg.sender */\n      caller\n        /* \"contracts/TwitterContract.sol\":1285:1303  tweets[msg.sender] */\n      0xffffffffffffffffffffffffffffffffffffffff\n      and\n      0xffffffffffffffffffffffffffffffffffffffff\n      and\n      dup2\n      mstore\n      0x20\n      add\n      swap1\n      dup2\n      mstore\n      0x20\n      add\n      0x00\n      keccak256\n        /* \"contracts/TwitterContract.sol\":1285:1310  tweets[msg.sender].length */\n      dup1\n      sload\n      swap1\n      pop\n        /* \"contracts/TwitterContract.sol\":1285:1314  tweets[msg.sender].length - 1 */\n      tag_116\n      swap2\n      swap1\n      tag_117\n      jump\t// in\n    tag_116:\n        /* \"contracts/TwitterContract.sol\":1265:1273  newTweet */\n      dup2\n        /* \"contracts/TwitterContract.sol\":1265:1279  newTweet.tweet */\n      0x00\n      add\n        /* \"contracts/TwitterContract.sol\":1265:1282  newTweet.tweet.id */\n      0x00\n      add\n        /* \"contracts/TwitterContract.sol\":1265:1314  newTweet.tweet.id = tweets[msg.sender].length - 1 */\n      dup2\n      swap1\n      sstore\n      pop\n        /* \"contracts/TwitterContract.sol\":1349:1359  msg.sender */\n      caller\n        /* \"contracts/TwitterContract.sol\":1325:1333  newTweet */\n      dup2\n        /* \"contracts/TwitterContract.sol\":1325:1339  newTweet.tweet */\n      0x00\n      add\n        /* \"contracts/TwitterContract.sol\":1325:1346  newTweet.tweet.author */\n      0x01\n      add\n      0x00\n        /* \"contracts/TwitterContract.sol\":1325:1359  newTweet.tweet.author = msg.sender */\n      0x0100\n      exp\n      dup2\n      sload\n      dup2\n      0xffffffffffffffffffffffffffffffffffffffff\n      mul\n      not\n      and\n      swap1\n      dup4\n      0xffffffffffffffffffffffffffffffffffffffff\n      and\n      mul\n      or\n      swap1\n      sstore\n      pop\n        /* \"contracts/TwitterContract.sol\":1395:1401  _tweet */\n      dup2\n        /* \"contracts/TwitterContract.sol\":1370:1378  newTweet */\n      dup2\n        /* \"contracts/TwitterContract.sol\":1370:1384  newTweet.tweet */\n      0x00\n      add\n        /* \"contracts/TwitterContract.sol\":1370:1392  newTweet.tweet.content */\n      0x02\n      add\n        /* \"contracts/TwitterContract.sol\":1370:1401  newTweet.tweet.content = _tweet */\n      swap1\n      dup2\n      tag_118\n      swap2\n      swap1\n      tag_119\n      jump\t// in\n    tag_118:\n      pop\n        /* \"contracts/TwitterContract.sol\":1443:1458  block.timestamp */\n      timestamp\n        /* \"contracts/TwitterContract.sol\":1412:1420  newTweet */\n      dup2\n        /* \"contracts/TwitterContract.sol\":1412:1426  newTweet.tweet */\n      0x00\n      add\n        /* \"contracts/TwitterContract.sol\":1412:1440  newTweet.tweet.datePublished */\n      0x03\n      add\n        /* \"contracts/TwitterContract.sol\":1412:1458  newTweet.tweet.datePublished = block.timestamp */\n      dup2\n      swap1\n      sstore\n      pop\n        /* \"contracts/TwitterContract.sol\":1497:1498  0 */\n      0x00\n        /* \"contracts/TwitterContract.sol\":1469:1477  newTweet */\n      dup2\n        /* \"contracts/TwitterContract.sol\":1469:1483  newTweet.tweet */\n      0x00\n      add\n        /* \"contracts/TwitterContract.sol\":1469:1494  newTweet.tweet.likesCount */\n      0x04\n      add\n        /* \"contracts/TwitterContract.sol\":1469:1498  newTweet.tweet.likesCount = 0 */\n      dup2\n      swap1\n      sstore\n      pop\n        /* \"contracts/TwitterContract.sol\":1514:1598  createTweetEvent(tweets[msg.sender].length - 1, msg.sender, _tweet, block.timestamp) */\n      0x8ecbe5a52270eab83ce1dada3c2969eca41c568702b97f104f69709999e19661\n        /* \"contracts/TwitterContract.sol\":1559:1560  1 */\n      0x01\n        /* \"contracts/TwitterContract.sol\":1531:1537  tweets */\n      0x00\n        /* \"contracts/TwitterContract.sol\":1531:1549  tweets[msg.sender] */\n      dup1\n        /* \"contracts/TwitterContract.sol\":1538:1548  msg.sender */\n      caller\n        /* \"contracts/TwitterContract.sol\":1531:1549  tweets[msg.sender] */\n      0xffffffffffffffffffffffffffffffffffffffff\n      and\n      0xffffffffffffffffffffffffffffffffffffffff\n      and\n      dup2\n      mstore\n      0x20\n      add\n      swap1\n      dup2\n      mstore\n      0x20\n      add\n      0x00\n      keccak256\n        /* \"contracts/TwitterContract.sol\":1531:1556  tweets[msg.sender].length */\n      dup1\n      sload\n      swap1\n      pop\n        /* \"contracts/TwitterContract.sol\":1531:1560  tweets[msg.sender].length - 1 */\n      tag_120\n      swap2\n      swap1\n      tag_117\n      jump\t// in\n    tag_120:\n        /* \"contracts/TwitterContract.sol\":1562:1572  msg.sender */\n      caller\n        /* \"contracts/TwitterContract.sol\":1574:1580  _tweet */\n      dup5\n        /* \"contracts/TwitterContract.sol\":1582:1597  block.timestamp */\n      timestamp\n        /* \"contracts/TwitterContract.sol\":1514:1598  createTweetEvent(tweets[msg.sender].length - 1, msg.sender, _tweet, block.timestamp) */\n      mload(0x40)\n      tag_121\n      swap5\n      swap4\n      swap3\n      swap2\n      swap1\n      tag_122\n      jump\t// in\n    tag_121:\n      mload(0x40)\n      dup1\n      swap2\n      sub\n      swap1\n      log1\n        /* \"contracts/TwitterContract.sol\":1104:1606  {... */\n      pop\n        /* \"contracts/TwitterContract.sol\":1054:1606  function createTweet(string memory _tweet) public {... */\n      pop\n      jump\t// out\n        /* \"contracts/TwitterContract.sol\":454:474  address public owner */\n    tag_48:\n      0x01\n      0x02\n      swap1\n      sload\n      swap1\n      0x0100\n      exp\n      swap1\n      div\n      0xffffffffffffffffffffffffffffffffffffffff\n      and\n      dup2\n      jump\t// out\n        /* \"contracts/TwitterContract.sol\":2022:2426  function unlike(address _author, uint256 _id) external {... */\n    tag_53:\n        /* \"contracts/TwitterContract.sol\":2121:2124  _id */\n      dup1\n        /* \"contracts/TwitterContract.sol\":2096:2102  tweets */\n      0x00\n        /* \"contracts/TwitterContract.sol\":2096:2111  tweets[_author] */\n      dup1\n        /* \"contracts/TwitterContract.sol\":2103:2110  _author */\n      dup5\n        /* \"contracts/TwitterContract.sol\":2096:2111  tweets[_author] */\n      0xffffffffffffffffffffffffffffffffffffffff\n      and\n      0xffffffffffffffffffffffffffffffffffffffff\n      and\n      dup2\n      mstore\n      0x20\n      add\n      swap1\n      dup2\n      mstore\n      0x20\n      add\n      0x00\n      keccak256\n        /* \"contracts/TwitterContract.sol\":2096:2118  tweets[_author].length */\n      dup1\n      sload\n      swap1\n      pop\n        /* \"contracts/TwitterContract.sol\":2096:2124  tweets[_author].length > _id */\n      gt\n        /* \"contracts/TwitterContract.sol\":2088:2148  require(tweets[_author].length > _id, \"Tweet doesn't exist\") */\n      tag_124\n      jumpi\n      mload(0x40)\n      0x08c379a000000000000000000000000000000000000000000000000000000000\n      dup2\n      mstore\n      0x04\n      add\n      tag_125\n      swap1\n      tag_70\n      jump\t// in\n    tag_125:\n      mload(0x40)\n      dup1\n      swap2\n      sub\n      swap1\n      revert\n    tag_124:\n        /* \"contracts/TwitterContract.sol\":2161:2187  TweetWithLikes storage twt */\n      0x00\n        /* \"contracts/TwitterContract.sol\":2190:2196  tweets */\n      dup1\n        /* \"contracts/TwitterContract.sol\":2190:2205  tweets[_author] */\n      0x00\n        /* \"contracts/TwitterContract.sol\":2197:2204  _author */\n      dup5\n        /* \"contracts/TwitterContract.sol\":2190:2205  tweets[_author] */\n      0xffffffffffffffffffffffffffffffffffffffff\n      and\n      0xffffffffffffffffffffffffffffffffffffffff\n      and\n      dup2\n      mstore\n      0x20\n      add\n      swap1\n      dup2\n      mstore\n      0x20\n      add\n      0x00\n      keccak256\n        /* \"contracts/TwitterContract.sol\":2206:2209  _id */\n      dup3\n        /* \"contracts/TwitterContract.sol\":2190:2210  tweets[_author][_id] */\n      dup2\n      sload\n      dup2\n      lt\n      tag_126\n      jumpi\n      tag_127\n      tag_73\n      jump\t// in\n    tag_127:\n    tag_126:\n      swap1\n      0x00\n      mstore\n      keccak256(0x00, 0x20)\n      swap1\n      0x06\n      mul\n      add\n        /* \"contracts/TwitterContract.sol\":2161:2210  TweetWithLikes storage twt = tweets[_author][_id] */\n      swap1\n      pop\n        /* \"contracts/TwitterContract.sol\":2229:2232  twt */\n      dup1\n        /* \"contracts/TwitterContract.sol\":2229:2238  twt.likes */\n      0x05\n      add\n        /* \"contracts/TwitterContract.sol\":2229:2250  twt.likes[msg.sender] */\n      0x00\n        /* \"contracts/TwitterContract.sol\":2239:2249  msg.sender */\n      caller\n        /* \"contracts/TwitterContract.sol\":2229:2250  twt.likes[msg.sender] */\n      0xffffffffffffffffffffffffffffffffffffffff\n      and\n      0xffffffffffffffffffffffffffffffffffffffff\n      and\n      dup2\n      mstore\n      0x20\n      add\n      swap1\n      dup2\n      mstore\n      0x20\n      add\n      0x00\n      keccak256\n      0x00\n      swap1\n      sload\n      swap1\n      0x0100\n      exp\n      swap1\n      div\n      0xff\n      and\n        /* \"contracts/TwitterContract.sol\":2221:2268  require(twt.likes[msg.sender], \"Not liked yet\") */\n      tag_129\n      jumpi\n      mload(0x40)\n      0x08c379a000000000000000000000000000000000000000000000000000000000\n      dup2\n      mstore\n      0x04\n      add\n      tag_130\n      swap1\n      tag_131\n      jump\t// in\n    tag_130:\n      mload(0x40)\n      dup1\n      swap2\n      sub\n      swap1\n      revert\n    tag_129:\n        /* \"contracts/TwitterContract.sol\":2305:2310  false */\n      0x00\n        /* \"contracts/TwitterContract.sol\":2281:2284  twt */\n      dup2\n        /* \"contracts/TwitterContract.sol\":2281:2290  twt.likes */\n      0x05\n      add\n        /* \"contracts/TwitterContract.sol\":2281:2302  twt.likes[msg.sender] */\n      0x00\n        /* \"contracts/TwitterContract.sol\":2291:2301  msg.sender */\n      caller\n        /* \"contracts/TwitterContract.sol\":2281:2302  twt.likes[msg.sender] */\n      0xffffffffffffffffffffffffffffffffffffffff\n      and\n      0xffffffffffffffffffffffffffffffffffffffff\n      and\n      dup2\n      mstore\n      0x20\n      add\n      swap1\n      dup2\n      mstore\n      0x20\n      add\n      0x00\n      keccak256\n      0x00\n        /* \"contracts/TwitterContract.sol\":2281:2310  twt.likes[msg.sender] = false */\n      0x0100\n      exp\n      dup2\n      sload\n      dup2\n      0xff\n      mul\n      not\n      and\n      swap1\n      dup4\n      iszero\n      iszero\n      mul\n      or\n      swap1\n      sstore\n      pop\n        /* \"contracts/TwitterContract.sol\":2321:2324  twt */\n      dup1\n        /* \"contracts/TwitterContract.sol\":2321:2330  twt.tweet */\n      0x00\n      add\n        /* \"contracts/TwitterContract.sol\":2321:2341  twt.tweet.likesCount */\n      0x04\n      add\n      0x00\n        /* \"contracts/TwitterContract.sol\":2321:2343  twt.tweet.likesCount-- */\n      dup2\n      sload\n      dup1\n      swap3\n      swap2\n      swap1\n      tag_132\n      swap1\n      tag_133\n      jump\t// in\n    tag_132:\n      swap2\n      swap1\n      pop\n      sstore\n      pop\n        /* \"contracts/TwitterContract.sol\":2359:2418  UnlikeTweet(msg.sender, _id, _author, twt.tweet.likesCount) */\n      0x820418adbac9cc0ec3ca34ecd4ea5d7cd9f5416b1d2a5252f65f2cd524350f66\n        /* \"contracts/TwitterContract.sol\":2371:2381  msg.sender */\n      caller\n        /* \"contracts/TwitterContract.sol\":2383:2386  _id */\n      dup4\n        /* \"contracts/TwitterContract.sol\":2388:2395  _author */\n      dup6\n        /* \"contracts/TwitterContract.sol\":2397:2400  twt */\n      dup5\n        /* \"contracts/TwitterContract.sol\":2397:2406  twt.tweet */\n      0x00\n      add\n        /* \"contracts/TwitterContract.sol\":2397:2417  twt.tweet.likesCount */\n      0x04\n      add\n      sload\n        /* \"contracts/TwitterContract.sol\":2359:2418  UnlikeTweet(msg.sender, _id, _author, twt.tweet.likesCount) */\n      mload(0x40)\n      tag_134\n      swap5\n      swap4\n      swap3\n      swap2\n      swap1\n      tag_135\n      jump\t// in\n    tag_134:\n      mload(0x40)\n      dup1\n      swap2\n      sub\n      swap1\n      log1\n        /* \"contracts/TwitterContract.sol\":2077:2426  {... */\n      pop\n        /* \"contracts/TwitterContract.sol\":2022:2426  function unlike(address _author, uint256 _id) external {... */\n      pop\n      pop\n      jump\t// out\n        /* \"contracts/TwitterContract.sol\":1614:2014  function like(address _author, uint256 _id) external {... */\n    tag_56:\n        /* \"contracts/TwitterContract.sol\":1711:1714  _id */\n      dup1\n        /* \"contracts/TwitterContract.sol\":1686:1692  tweets */\n      0x00\n        /* \"contracts/TwitterContract.sol\":1686:1701  tweets[_author] */\n      dup1\n        /* \"contracts/TwitterContract.sol\":1693:1700  _author */\n      dup5\n        /* \"contracts/TwitterContract.sol\":1686:1701  tweets[_author] */\n      0xffffffffffffffffffffffffffffffffffffffff\n      and\n      0xffffffffffffffffffffffffffffffffffffffff\n      and\n      dup2\n      mstore\n      0x20\n      add\n      swap1\n      dup2\n      mstore\n      0x20\n      add\n      0x00\n      keccak256\n        /* \"contracts/TwitterContract.sol\":1686:1708  tweets[_author].length */\n      dup1\n      sload\n      swap1\n      pop\n        /* \"contracts/TwitterContract.sol\":1686:1714  tweets[_author].length > _id */\n      gt\n        /* \"contracts/TwitterContract.sol\":1678:1738  require(tweets[_author].length > _id, \"Tweet doesn't exist\") */\n      tag_137\n      jumpi\n      mload(0x40)\n      0x08c379a000000000000000000000000000000000000000000000000000000000\n      dup2\n      mstore\n      0x04\n      add\n      tag_138\n      swap1\n      tag_70\n      jump\t// in\n    tag_138:\n      mload(0x40)\n      dup1\n      swap2\n      sub\n      swap1\n      revert\n    tag_137:\n        /* \"contracts/TwitterContract.sol\":1751:1777  TweetWithLikes storage twt */\n      0x00\n        /* \"contracts/TwitterContract.sol\":1780:1786  tweets */\n      dup1\n        /* \"contracts/TwitterContract.sol\":1780:1795  tweets[_author] */\n      0x00\n        /* \"contracts/TwitterContract.sol\":1787:1794  _author */\n      dup5\n        /* \"contracts/TwitterContract.sol\":1780:1795  tweets[_author] */\n      0xffffffffffffffffffffffffffffffffffffffff\n      and\n      0xffffffffffffffffffffffffffffffffffffffff\n      and\n      dup2\n      mstore\n      0x20\n      add\n      swap1\n      dup2\n      mstore\n      0x20\n      add\n      0x00\n      keccak256\n        /* \"contracts/TwitterContract.sol\":1796:1799  _id */\n      dup3\n        /* \"contracts/TwitterContract.sol\":1780:1800  tweets[_author][_id] */\n      dup2\n      sload\n      dup2\n      lt\n      tag_139\n      jumpi\n      tag_140\n      tag_73\n      jump\t// in\n    tag_140:\n    tag_139:\n      swap1\n      0x00\n      mstore\n      keccak256(0x00, 0x20)\n      swap1\n      0x06\n      mul\n      add\n        /* \"contracts/TwitterContract.sol\":1751:1800  TweetWithLikes storage twt = tweets[_author][_id] */\n      swap1\n      pop\n        /* \"contracts/TwitterContract.sol\":1820:1823  twt */\n      dup1\n        /* \"contracts/TwitterContract.sol\":1820:1829  twt.likes */\n      0x05\n      add\n        /* \"contracts/TwitterContract.sol\":1820:1841  twt.likes[msg.sender] */\n      0x00\n        /* \"contracts/TwitterContract.sol\":1830:1840  msg.sender */\n      caller\n        /* \"contracts/TwitterContract.sol\":1820:1841  twt.likes[msg.sender] */\n      0xffffffffffffffffffffffffffffffffffffffff\n      and\n      0xffffffffffffffffffffffffffffffffffffffff\n      and\n      dup2\n      mstore\n      0x20\n      add\n      swap1\n      dup2\n      mstore\n      0x20\n      add\n      0x00\n      keccak256\n      0x00\n      swap1\n      sload\n      swap1\n      0x0100\n      exp\n      swap1\n      div\n      0xff\n      and\n        /* \"contracts/TwitterContract.sol\":1819:1841  !twt.likes[msg.sender] */\n      iszero\n        /* \"contracts/TwitterContract.sol\":1811:1859  require(!twt.likes[msg.sender], \"Already liked\") */\n      tag_142\n      jumpi\n      mload(0x40)\n      0x08c379a000000000000000000000000000000000000000000000000000000000\n      dup2\n      mstore\n      0x04\n      add\n      tag_143\n      swap1\n      tag_144\n      jump\t// in\n    tag_143:\n      mload(0x40)\n      dup1\n      swap2\n      sub\n      swap1\n      revert\n    tag_142:\n        /* \"contracts/TwitterContract.sol\":1896:1900  true */\n      0x01\n        /* \"contracts/TwitterContract.sol\":1872:1875  twt */\n      dup2\n        /* \"contracts/TwitterContract.sol\":1872:1881  twt.likes */\n      0x05\n      add\n        /* \"contracts/TwitterContract.sol\":1872:1893  twt.likes[msg.sender] */\n      0x00\n        /* \"contracts/TwitterContract.sol\":1882:1892  msg.sender */\n      caller\n        /* \"contracts/TwitterContract.sol\":1872:1893  twt.likes[msg.sender] */\n      0xffffffffffffffffffffffffffffffffffffffff\n      and\n      0xffffffffffffffffffffffffffffffffffffffff\n      and\n      dup2\n      mstore\n      0x20\n      add\n      swap1\n      dup2\n      mstore\n      0x20\n      add\n      0x00\n      keccak256\n      0x00\n        /* \"contracts/TwitterContract.sol\":1872:1900  twt.likes[msg.sender] = true */\n      0x0100\n      exp\n      dup2\n      sload\n      dup2\n      0xff\n      mul\n      not\n      and\n      swap1\n      dup4\n      iszero\n      iszero\n      mul\n      or\n      swap1\n      sstore\n      pop\n        /* \"contracts/TwitterContract.sol\":1911:1914  twt */\n      dup1\n        /* \"contracts/TwitterContract.sol\":1911:1920  twt.tweet */\n      0x00\n      add\n        /* \"contracts/TwitterContract.sol\":1911:1931  twt.tweet.likesCount */\n      0x04\n      add\n      0x00\n        /* \"contracts/TwitterContract.sol\":1911:1933  twt.tweet.likesCount++ */\n      dup2\n      sload\n      dup1\n      swap3\n      swap2\n      swap1\n      tag_145\n      swap1\n      tag_146\n      jump\t// in\n    tag_145:\n      swap2\n      swap1\n      pop\n      sstore\n      pop\n        /* \"contracts/TwitterContract.sol\":1949:2006  LikeTweet(msg.sender, _id, _author, twt.tweet.likesCount) */\n      0x2eb9d95535b337ee238c3d5d4e7ff7ef74428985303b90f0e029b2c3fbb6d6fb\n        /* \"contracts/TwitterContract.sol\":1959:1969  msg.sender */\n      caller\n        /* \"contracts/TwitterContract.sol\":1971:1974  _id */\n      dup4\n        /* \"contracts/TwitterContract.sol\":1976:1983  _author */\n      dup6\n        /* \"contracts/TwitterContract.sol\":1985:1988  twt */\n      dup5\n        /* \"contracts/TwitterContract.sol\":1985:1994  twt.tweet */\n      0x00\n      add\n        /* \"contracts/TwitterContract.sol\":1985:2005  twt.tweet.likesCount */\n      0x04\n      add\n      sload\n        /* \"contracts/TwitterContract.sol\":1949:2006  LikeTweet(msg.sender, _id, _author, twt.tweet.likesCount) */\n      mload(0x40)\n      tag_147\n      swap5\n      swap4\n      swap3\n      swap2\n      swap1\n      tag_135\n      jump\t// in\n    tag_147:\n      mload(0x40)\n      dup1\n      swap2\n      sub\n      swap1\n      log1\n        /* \"contracts/TwitterContract.sol\":1667:2014  {... */\n      pop\n        /* \"contracts/TwitterContract.sol\":1614:2014  function like(address _author, uint256 _id) external {... */\n      pop\n      pop\n      jump\t// out\n    tag_66:\n      mload(0x40)\n      dup1\n      0xa0\n      add\n      0x40\n      mstore\n      dup1\n      0x00\n      dup2\n      mstore\n      0x20\n      add\n      and(0xffffffffffffffffffffffffffffffffffffffff, 0x00)\n      dup2\n      mstore\n      0x20\n      add\n      0x60\n      dup2\n      mstore\n      0x20\n      add\n      0x00\n      dup2\n      mstore\n      0x20\n      add\n      0x00\n      dup2\n      mstore\n      pop\n      swap1\n      jump\t// out\n        /* \"#utility.yul\":7:82   */\n    tag_148:\n        /* \"#utility.yul\":40:46   */\n      0x00\n        /* \"#utility.yul\":73:75   */\n      0x40\n        /* \"#utility.yul\":67:76   */\n      mload\n        /* \"#utility.yul\":57:76   */\n      swap1\n      pop\n        /* \"#utility.yul\":7:82   */\n      swap1\n      jump\t// out\n        /* \"#utility.yul\":88:205   */\n    tag_149:\n        /* \"#utility.yul\":197:198   */\n      0x00\n        /* \"#utility.yul\":194:195   */\n      dup1\n        /* \"#utility.yul\":187:199   */\n      revert\n        /* \"#utility.yul\":211:328   */\n    tag_150:\n        /* \"#utility.yul\":320:321   */\n      0x00\n        /* \"#utility.yul\":317:318   */\n      dup1\n        /* \"#utility.yul\":310:322   */\n      revert\n        /* \"#utility.yul\":334:460   */\n    tag_151:\n        /* \"#utility.yul\":371:378   */\n      0x00\n        /* \"#utility.yul\":411:453   */\n      0xffffffffffffffffffffffffffffffffffffffff\n        /* \"#utility.yul\":404:409   */\n      dup3\n        /* \"#utility.yul\":400:454   */\n      and\n        /* \"#utility.yul\":389:454   */\n      swap1\n      pop\n        /* \"#utility.yul\":334:460   */\n      swap2\n      swap1\n      pop\n      jump\t// out\n        /* \"#utility.yul\":466:562   */\n    tag_152:\n        /* \"#utility.yul\":503:510   */\n      0x00\n        /* \"#utility.yul\":532:556   */\n      tag_222\n        /* \"#utility.yul\":550:555   */\n      dup3\n        /* \"#utility.yul\":532:556   */\n      tag_151\n      jump\t// in\n    tag_222:\n        /* \"#utility.yul\":521:556   */\n      swap1\n      pop\n        /* \"#utility.yul\":466:562   */\n      swap2\n      swap1\n      pop\n      jump\t// out\n        /* \"#utility.yul\":568:690   */\n    tag_153:\n        /* \"#utility.yul\":641:665   */\n      tag_224\n        /* \"#utility.yul\":659:664   */\n      dup2\n        /* \"#utility.yul\":641:665   */\n      tag_152\n      jump\t// in\n    tag_224:\n        /* \"#utility.yul\":634:639   */\n      dup2\n        /* \"#utility.yul\":631:666   */\n      eq\n        /* \"#utility.yul\":621:684   */\n      tag_225\n      jumpi\n        /* \"#utility.yul\":680:681   */\n      0x00\n        /* \"#utility.yul\":677:678   */\n      dup1\n        /* \"#utility.yul\":670:682   */\n      revert\n        /* \"#utility.yul\":621:684   */\n    tag_225:\n        /* \"#utility.yul\":568:690   */\n      pop\n      jump\t// out\n        /* \"#utility.yul\":696:835   */\n    tag_154:\n        /* \"#utility.yul\":742:747   */\n      0x00\n        /* \"#utility.yul\":780:786   */\n      dup2\n        /* \"#utility.yul\":767:787   */\n      calldataload\n        /* \"#utility.yul\":758:787   */\n      swap1\n      pop\n        /* \"#utility.yul\":796:829   */\n      tag_227\n        /* \"#utility.yul\":823:828   */\n      dup2\n        /* \"#utility.yul\":796:829   */\n      tag_153\n      jump\t// in\n    tag_227:\n        /* \"#utility.yul\":696:835   */\n      swap3\n      swap2\n      pop\n      pop\n      jump\t// out\n        /* \"#utility.yul\":841:918   */\n    tag_155:\n        /* \"#utility.yul\":878:885   */\n      0x00\n        /* \"#utility.yul\":907:912   */\n      dup2\n        /* \"#utility.yul\":896:912   */\n      swap1\n      pop\n        /* \"#utility.yul\":841:918   */\n      swap2\n      swap1\n      pop\n      jump\t// out\n        /* \"#utility.yul\":924:1046   */\n    tag_156:\n        /* \"#utility.yul\":997:1021   */\n      tag_230\n        /* \"#utility.yul\":1015:1020   */\n      dup2\n        /* \"#utility.yul\":997:1021   */\n      tag_155\n      jump\t// in\n    tag_230:\n        /* \"#utility.yul\":990:995   */\n      dup2\n        /* \"#utility.yul\":987:1022   */\n      eq\n        /* \"#utility.yul\":977:1040   */\n      tag_231\n      jumpi\n        /* \"#utility.yul\":1036:1037   */\n      0x00\n        /* \"#utility.yul\":1033:1034   */\n      dup1\n        /* \"#utility.yul\":1026:1038   */\n      revert\n        /* \"#utility.yul\":977:1040   */\n    tag_231:\n        /* \"#utility.yul\":924:1046   */\n      pop\n      jump\t// out\n        /* \"#utility.yul\":1052:1191   */\n    tag_157:\n        /* \"#utility.yul\":1098:1103   */\n      0x00\n        /* \"#utility.yul\":1136:1142   */\n      dup2\n        /* \"#utility.yul\":1123:1143   */\n      calldataload\n        /* \"#utility.yul\":1114:1143   */\n      swap1\n      pop\n        /* \"#utility.yul\":1152:1185   */\n      tag_233\n        /* \"#utility.yul\":1179:1184   */\n      dup2\n        /* \"#utility.yul\":1152:1185   */\n      tag_156\n      jump\t// in\n    tag_233:\n        /* \"#utility.yul\":1052:1191   */\n      swap3\n      swap2\n      pop\n      pop\n      jump\t// out\n        /* \"#utility.yul\":1197:1671   */\n    tag_16:\n        /* \"#utility.yul\":1265:1271   */\n      0x00\n        /* \"#utility.yul\":1273:1279   */\n      dup1\n        /* \"#utility.yul\":1322:1324   */\n      0x40\n        /* \"#utility.yul\":1310:1319   */\n      dup4\n        /* \"#utility.yul\":1301:1308   */\n      dup6\n        /* \"#utility.yul\":1297:1320   */\n      sub\n        /* \"#utility.yul\":1293:1325   */\n      slt\n        /* \"#utility.yul\":1290:1409   */\n      iszero\n      tag_235\n      jumpi\n        /* \"#utility.yul\":1328:1407   */\n      tag_236\n      tag_149\n      jump\t// in\n    tag_236:\n        /* \"#utility.yul\":1290:1409   */\n    tag_235:\n        /* \"#utility.yul\":1448:1449   */\n      0x00\n        /* \"#utility.yul\":1473:1526   */\n      tag_237\n        /* \"#utility.yul\":1518:1525   */\n      dup6\n        /* \"#utility.yul\":1509:1515   */\n      dup3\n        /* \"#utility.yul\":1498:1507   */\n      dup7\n        /* \"#utility.yul\":1494:1516   */\n      add\n        /* \"#utility.yul\":1473:1526   */\n      tag_154\n      jump\t// in\n    tag_237:\n        /* \"#utility.yul\":1463:1526   */\n      swap3\n      pop\n        /* \"#utility.yul\":1419:1536   */\n      pop\n        /* \"#utility.yul\":1575:1577   */\n      0x20\n        /* \"#utility.yul\":1601:1654   */\n      tag_238\n        /* \"#utility.yul\":1646:1653   */\n      dup6\n        /* \"#utility.yul\":1637:1643   */\n      dup3\n        /* \"#utility.yul\":1626:1635   */\n      dup7\n        /* \"#utility.yul\":1622:1644   */\n      add\n        /* \"#utility.yul\":1601:1654   */\n      tag_157\n      jump\t// in\n    tag_238:\n        /* \"#utility.yul\":1591:1654   */\n      swap2\n      pop\n        /* \"#utility.yul\":1546:1664   */\n      pop\n        /* \"#utility.yul\":1197:1671   */\n      swap3\n      pop\n      swap3\n      swap1\n      pop\n      jump\t// out\n        /* \"#utility.yul\":1677:1785   */\n    tag_158:\n        /* \"#utility.yul\":1754:1778   */\n      tag_240\n        /* \"#utility.yul\":1772:1777   */\n      dup2\n        /* \"#utility.yul\":1754:1778   */\n      tag_155\n      jump\t// in\n    tag_240:\n        /* \"#utility.yul\":1749:1752   */\n      dup3\n        /* \"#utility.yul\":1742:1779   */\n      mstore\n        /* \"#utility.yul\":1677:1785   */\n      pop\n      pop\n      jump\t// out\n        /* \"#utility.yul\":1791:1899   */\n    tag_159:\n        /* \"#utility.yul\":1868:1892   */\n      tag_242\n        /* \"#utility.yul\":1886:1891   */\n      dup2\n        /* \"#utility.yul\":1868:1892   */\n      tag_152\n      jump\t// in\n    tag_242:\n        /* \"#utility.yul\":1863:1866   */\n      dup3\n        /* \"#utility.yul\":1856:1893   */\n      mstore\n        /* \"#utility.yul\":1791:1899   */\n      pop\n      pop\n      jump\t// out\n        /* \"#utility.yul\":1905:2004   */\n    tag_160:\n        /* \"#utility.yul\":1957:1963   */\n      0x00\n        /* \"#utility.yul\":1991:1996   */\n      dup2\n        /* \"#utility.yul\":1985:1997   */\n      mload\n        /* \"#utility.yul\":1975:1997   */\n      swap1\n      pop\n        /* \"#utility.yul\":1905:2004   */\n      swap2\n      swap1\n      pop\n      jump\t// out\n        /* \"#utility.yul\":2010:2169   */\n    tag_161:\n        /* \"#utility.yul\":2084:2095   */\n      0x00\n        /* \"#utility.yul\":2118:2124   */\n      dup3\n        /* \"#utility.yul\":2113:2116   */\n      dup3\n        /* \"#utility.yul\":2106:2125   */\n      mstore\n        /* \"#utility.yul\":2158:2162   */\n      0x20\n        /* \"#utility.yul\":2153:2156   */\n      dup3\n        /* \"#utility.yul\":2149:2163   */\n      add\n        /* \"#utility.yul\":2134:2163   */\n      swap1\n      pop\n        /* \"#utility.yul\":2010:2169   */\n      swap3\n      swap2\n      pop\n      pop\n      jump\t// out\n        /* \"#utility.yul\":2175:2314   */\n    tag_162:\n        /* \"#utility.yul\":2264:2270   */\n      dup3\n        /* \"#utility.yul\":2259:2262   */\n      dup2\n        /* \"#utility.yul\":2254:2257   */\n      dup4\n        /* \"#utility.yul\":2248:2271   */\n      mcopy\n        /* \"#utility.yul\":2305:2306   */\n      0x00\n        /* \"#utility.yul\":2296:2302   */\n      dup4\n        /* \"#utility.yul\":2291:2294   */\n      dup4\n        /* \"#utility.yul\":2287:2303   */\n      add\n        /* \"#utility.yul\":2280:2307   */\n      mstore\n        /* \"#utility.yul\":2175:2314   */\n      pop\n      pop\n      pop\n      jump\t// out\n        /* \"#utility.yul\":2320:2422   */\n    tag_163:\n        /* \"#utility.yul\":2361:2367   */\n      0x00\n        /* \"#utility.yul\":2412:2414   */\n      0x1f\n        /* \"#utility.yul\":2408:2415   */\n      not\n        /* \"#utility.yul\":2403:2405   */\n      0x1f\n        /* \"#utility.yul\":2396:2401   */\n      dup4\n        /* \"#utility.yul\":2392:2406   */\n      add\n        /* \"#utility.yul\":2388:2416   */\n      and\n        /* \"#utility.yul\":2378:2416   */\n      swap1\n      pop\n        /* \"#utility.yul\":2320:2422   */\n      swap2\n      swap1\n      pop\n      jump\t// out\n        /* \"#utility.yul\":2428:2785   */\n    tag_164:\n        /* \"#utility.yul\":2506:2509   */\n      0x00\n        /* \"#utility.yul\":2534:2573   */\n      tag_248\n        /* \"#utility.yul\":2567:2572   */\n      dup3\n        /* \"#utility.yul\":2534:2573   */\n      tag_160\n      jump\t// in\n    tag_248:\n        /* \"#utility.yul\":2589:2650   */\n      tag_249\n        /* \"#utility.yul\":2643:2649   */\n      dup2\n        /* \"#utility.yul\":2638:2641   */\n      dup6\n        /* \"#utility.yul\":2589:2650   */\n      tag_161\n      jump\t// in\n    tag_249:\n        /* \"#utility.yul\":2582:2650   */\n      swap4\n      pop\n        /* \"#utility.yul\":2659:2724   */\n      tag_250\n        /* \"#utility.yul\":2717:2723   */\n      dup2\n        /* \"#utility.yul\":2712:2715   */\n      dup6\n        /* \"#utility.yul\":2705:2709   */\n      0x20\n        /* \"#utility.yul\":2698:2703   */\n      dup7\n        /* \"#utility.yul\":2694:2710   */\n      add\n        /* \"#utility.yul\":2659:2724   */\n      tag_162\n      jump\t// in\n    tag_250:\n        /* \"#utility.yul\":2749:2778   */\n      tag_251\n        /* \"#utility.yul\":2771:2777   */\n      dup2\n        /* \"#utility.yul\":2749:2778   */\n      tag_163\n      jump\t// in\n    tag_251:\n        /* \"#utility.yul\":2744:2747   */\n      dup5\n        /* \"#utility.yul\":2740:2779   */\n      add\n        /* \"#utility.yul\":2733:2779   */\n      swap2\n      pop\n        /* \"#utility.yul\":2510:2785   */\n      pop\n        /* \"#utility.yul\":2428:2785   */\n      swap3\n      swap2\n      pop\n      pop\n      jump\t// out\n        /* \"#utility.yul\":2859:3997   */\n    tag_165:\n        /* \"#utility.yul\":2970:2973   */\n      0x00\n        /* \"#utility.yul\":3006:3010   */\n      0xa0\n        /* \"#utility.yul\":3001:3004   */\n      dup4\n        /* \"#utility.yul\":2997:3011   */\n      add\n        /* \"#utility.yul\":3091:3095   */\n      0x00\n        /* \"#utility.yul\":3084:3089   */\n      dup4\n        /* \"#utility.yul\":3080:3096   */\n      add\n        /* \"#utility.yul\":3074:3097   */\n      mload\n        /* \"#utility.yul\":3110:3173   */\n      tag_253\n        /* \"#utility.yul\":3167:3171   */\n      0x00\n        /* \"#utility.yul\":3162:3165   */\n      dup7\n        /* \"#utility.yul\":3158:3172   */\n      add\n        /* \"#utility.yul\":3144:3156   */\n      dup3\n        /* \"#utility.yul\":3110:3173   */\n      tag_158\n      jump\t// in\n    tag_253:\n        /* \"#utility.yul\":3021:3183   */\n      pop\n        /* \"#utility.yul\":3267:3271   */\n      0x20\n        /* \"#utility.yul\":3260:3265   */\n      dup4\n        /* \"#utility.yul\":3256:3272   */\n      add\n        /* \"#utility.yul\":3250:3273   */\n      mload\n        /* \"#utility.yul\":3286:3349   */\n      tag_254\n        /* \"#utility.yul\":3343:3347   */\n      0x20\n        /* \"#utility.yul\":3338:3341   */\n      dup7\n        /* \"#utility.yul\":3334:3348   */\n      add\n        /* \"#utility.yul\":3320:3332   */\n      dup3\n        /* \"#utility.yul\":3286:3349   */\n      tag_159\n      jump\t// in\n    tag_254:\n        /* \"#utility.yul\":3193:3359   */\n      pop\n        /* \"#utility.yul\":3444:3448   */\n      0x40\n        /* \"#utility.yul\":3437:3442   */\n      dup4\n        /* \"#utility.yul\":3433:3449   */\n      add\n        /* \"#utility.yul\":3427:3450   */\n      mload\n        /* \"#utility.yul\":3497:3500   */\n      dup5\n        /* \"#utility.yul\":3491:3495   */\n      dup3\n        /* \"#utility.yul\":3487:3501   */\n      sub\n        /* \"#utility.yul\":3480:3484   */\n      0x40\n        /* \"#utility.yul\":3475:3478   */\n      dup7\n        /* \"#utility.yul\":3471:3485   */\n      add\n        /* \"#utility.yul\":3464:3502   */\n      mstore\n        /* \"#utility.yul\":3523:3596   */\n      tag_255\n        /* \"#utility.yul\":3591:3595   */\n      dup3\n        /* \"#utility.yul\":3577:3589   */\n      dup3\n        /* \"#utility.yul\":3523:3596   */\n      tag_164\n      jump\t// in\n    tag_255:\n        /* \"#utility.yul\":3515:3596   */\n      swap2\n      pop\n        /* \"#utility.yul\":3369:3607   */\n      pop\n        /* \"#utility.yul\":3698:3702   */\n      0x60\n        /* \"#utility.yul\":3691:3696   */\n      dup4\n        /* \"#utility.yul\":3687:3703   */\n      add\n        /* \"#utility.yul\":3681:3704   */\n      mload\n        /* \"#utility.yul\":3717:3780   */\n      tag_256\n        /* \"#utility.yul\":3774:3778   */\n      0x60\n        /* \"#utility.yul\":3769:3772   */\n      dup7\n        /* \"#utility.yul\":3765:3779   */\n      add\n        /* \"#utility.yul\":3751:3763   */\n      dup3\n        /* \"#utility.yul\":3717:3780   */\n      tag_158\n      jump\t// in\n    tag_256:\n        /* \"#utility.yul\":3617:3790   */\n      pop\n        /* \"#utility.yul\":3878:3882   */\n      0x80\n        /* \"#utility.yul\":3871:3876   */\n      dup4\n        /* \"#utility.yul\":3867:3883   */\n      add\n        /* \"#utility.yul\":3861:3884   */\n      mload\n        /* \"#utility.yul\":3897:3960   */\n      tag_257\n        /* \"#utility.yul\":3954:3958   */\n      0x80\n        /* \"#utility.yul\":3949:3952   */\n      dup7\n        /* \"#utility.yul\":3945:3959   */\n      add\n        /* \"#utility.yul\":3931:3943   */\n      dup3\n        /* \"#utility.yul\":3897:3960   */\n      tag_158\n      jump\t// in\n    tag_257:\n        /* \"#utility.yul\":3800:3970   */\n      pop\n        /* \"#utility.yul\":3987:3991   */\n      dup1\n        /* \"#utility.yul\":3980:3991   */\n      swap2\n      pop\n        /* \"#utility.yul\":2975:3997   */\n      pop\n        /* \"#utility.yul\":2859:3997   */\n      swap3\n      swap2\n      pop\n      pop\n      jump\t// out\n        /* \"#utility.yul\":4003:4360   */\n    tag_19:\n        /* \"#utility.yul\":4138:4142   */\n      0x00\n        /* \"#utility.yul\":4176:4178   */\n      0x20\n        /* \"#utility.yul\":4165:4174   */\n      dup3\n        /* \"#utility.yul\":4161:4179   */\n      add\n        /* \"#utility.yul\":4153:4179   */\n      swap1\n      pop\n        /* \"#utility.yul\":4225:4234   */\n      dup2\n        /* \"#utility.yul\":4219:4223   */\n      dup2\n        /* \"#utility.yul\":4215:4235   */\n      sub\n        /* \"#utility.yul\":4211:4212   */\n      0x00\n        /* \"#utility.yul\":4200:4209   */\n      dup4\n        /* \"#utility.yul\":4196:4213   */\n      add\n        /* \"#utility.yul\":4189:4236   */\n      mstore\n        /* \"#utility.yul\":4253:4353   */\n      tag_259\n        /* \"#utility.yul\":4348:4352   */\n      dup2\n        /* \"#utility.yul\":4339:4345   */\n      dup5\n        /* \"#utility.yul\":4253:4353   */\n      tag_165\n      jump\t// in\n    tag_259:\n        /* \"#utility.yul\":4245:4353   */\n      swap1\n      pop\n        /* \"#utility.yul\":4003:4360   */\n      swap3\n      swap2\n      pop\n      pop\n      jump\t// out\n        /* \"#utility.yul\":4366:4695   */\n    tag_26:\n        /* \"#utility.yul\":4425:4431   */\n      0x00\n        /* \"#utility.yul\":4474:4476   */\n      0x20\n        /* \"#utility.yul\":4462:4471   */\n      dup3\n        /* \"#utility.yul\":4453:4460   */\n      dup5\n        /* \"#utility.yul\":4449:4472   */\n      sub\n        /* \"#utility.yul\":4445:4477   */\n      slt\n        /* \"#utility.yul\":4442:4561   */\n      iszero\n      tag_261\n      jumpi\n        /* \"#utility.yul\":4480:4559   */\n      tag_262\n      tag_149\n      jump\t// in\n    tag_262:\n        /* \"#utility.yul\":4442:4561   */\n    tag_261:\n        /* \"#utility.yul\":4600:4601   */\n      0x00\n        /* \"#utility.yul\":4625:4678   */\n      tag_263\n        /* \"#utility.yul\":4670:4677   */\n      dup5\n        /* \"#utility.yul\":4661:4667   */\n      dup3\n        /* \"#utility.yul\":4650:4659   */\n      dup6\n        /* \"#utility.yul\":4646:4668   */\n      add\n        /* \"#utility.yul\":4625:4678   */\n      tag_154\n      jump\t// in\n    tag_263:\n        /* \"#utility.yul\":4615:4678   */\n      swap2\n      pop\n        /* \"#utility.yul\":4571:4688   */\n      pop\n        /* \"#utility.yul\":4366:4695   */\n      swap3\n      swap2\n      pop\n      pop\n      jump\t// out\n        /* \"#utility.yul\":4701:4836   */\n    tag_166:\n        /* \"#utility.yul\":4789:4795   */\n      0x00\n        /* \"#utility.yul\":4823:4828   */\n      dup2\n        /* \"#utility.yul\":4817:4829   */\n      mload\n        /* \"#utility.yul\":4807:4829   */\n      swap1\n      pop\n        /* \"#utility.yul\":4701:4836   */\n      swap2\n      swap1\n      pop\n      jump\t// out\n        /* \"#utility.yul\":4842:5047   */\n    tag_167:\n        /* \"#utility.yul\":4962:4973   */\n      0x00\n        /* \"#utility.yul\":4996:5002   */\n      dup3\n        /* \"#utility.yul\":4991:4994   */\n      dup3\n        /* \"#utility.yul\":4984:5003   */\n      mstore\n        /* \"#utility.yul\":5036:5040   */\n      0x20\n        /* \"#utility.yul\":5031:5034   */\n      dup3\n        /* \"#utility.yul\":5027:5041   */\n      add\n        /* \"#utility.yul\":5012:5041   */\n      swap1\n      pop\n        /* \"#utility.yul\":4842:5047   */\n      swap3\n      swap2\n      pop\n      pop\n      jump\t// out\n        /* \"#utility.yul\":5053:5206   */\n    tag_168:\n        /* \"#utility.yul\":5141:5145   */\n      0x00\n        /* \"#utility.yul\":5164:5167   */\n      dup2\n        /* \"#utility.yul\":5156:5167   */\n      swap1\n      pop\n        /* \"#utility.yul\":5194:5198   */\n      0x20\n        /* \"#utility.yul\":5189:5192   */\n      dup3\n        /* \"#utility.yul\":5185:5199   */\n      add\n        /* \"#utility.yul\":5177:5199   */\n      swap1\n      pop\n        /* \"#utility.yul\":5053:5206   */\n      swap2\n      swap1\n      pop\n      jump\t// out\n        /* \"#utility.yul\":5280:6408   */\n    tag_169:\n        /* \"#utility.yul\":5381:5384   */\n      0x00\n        /* \"#utility.yul\":5417:5421   */\n      0xa0\n        /* \"#utility.yul\":5412:5415   */\n      dup4\n        /* \"#utility.yul\":5408:5422   */\n      add\n        /* \"#utility.yul\":5502:5506   */\n      0x00\n        /* \"#utility.yul\":5495:5500   */\n      dup4\n        /* \"#utility.yul\":5491:5507   */\n      add\n        /* \"#utility.yul\":5485:5508   */\n      mload\n        /* \"#utility.yul\":5521:5584   */\n      tag_268\n        /* \"#utility.yul\":5578:5582   */\n      0x00\n        /* \"#utility.yul\":5573:5576   */\n      dup7\n        /* \"#utility.yul\":5569:5583   */\n      add\n        /* \"#utility.yul\":5555:5567   */\n      dup3\n        /* \"#utility.yul\":5521:5584   */\n      tag_158\n      jump\t// in\n    tag_268:\n        /* \"#utility.yul\":5432:5594   */\n      pop\n        /* \"#utility.yul\":5678:5682   */\n      0x20\n        /* \"#utility.yul\":5671:5676   */\n      dup4\n        /* \"#utility.yul\":5667:5683   */\n      add\n        /* \"#utility.yul\":5661:5684   */\n      mload\n        /* \"#utility.yul\":5697:5760   */\n      tag_269\n        /* \"#utility.yul\":5754:5758   */\n      0x20\n        /* \"#utility.yul\":5749:5752   */\n      dup7\n        /* \"#utility.yul\":5745:5759   */\n      add\n        /* \"#utility.yul\":5731:5743   */\n      dup3\n        /* \"#utility.yul\":5697:5760   */\n      tag_159\n      jump\t// in\n    tag_269:\n        /* \"#utility.yul\":5604:5770   */\n      pop\n        /* \"#utility.yul\":5855:5859   */\n      0x40\n        /* \"#utility.yul\":5848:5853   */\n      dup4\n        /* \"#utility.yul\":5844:5860   */\n      add\n        /* \"#utility.yul\":5838:5861   */\n      mload\n        /* \"#utility.yul\":5908:5911   */\n      dup5\n        /* \"#utility.yul\":5902:5906   */\n      dup3\n        /* \"#utility.yul\":5898:5912   */\n      sub\n        /* \"#utility.yul\":5891:5895   */\n      0x40\n        /* \"#utility.yul\":5886:5889   */\n      dup7\n        /* \"#utility.yul\":5882:5896   */\n      add\n        /* \"#utility.yul\":5875:5913   */\n      mstore\n        /* \"#utility.yul\":5934:6007   */\n      tag_270\n        /* \"#utility.yul\":6002:6006   */\n      dup3\n        /* \"#utility.yul\":5988:6000   */\n      dup3\n        /* \"#utility.yul\":5934:6007   */\n      tag_164\n      jump\t// in\n    tag_270:\n        /* \"#utility.yul\":5926:6007   */\n      swap2\n      pop\n        /* \"#utility.yul\":5780:6018   */\n      pop\n        /* \"#utility.yul\":6109:6113   */\n      0x60\n        /* \"#utility.yul\":6102:6107   */\n      dup4\n        /* \"#utility.yul\":6098:6114   */\n      add\n        /* \"#utility.yul\":6092:6115   */\n      mload\n        /* \"#utility.yul\":6128:6191   */\n      tag_271\n        /* \"#utility.yul\":6185:6189   */\n      0x60\n        /* \"#utility.yul\":6180:6183   */\n      dup7\n        /* \"#utility.yul\":6176:6190   */\n      add\n        /* \"#utility.yul\":6162:6174   */\n      dup3\n        /* \"#utility.yul\":6128:6191   */\n      tag_158\n      jump\t// in\n    tag_271:\n        /* \"#utility.yul\":6028:6201   */\n      pop\n        /* \"#utility.yul\":6289:6293   */\n      0x80\n        /* \"#utility.yul\":6282:6287   */\n      dup4\n        /* \"#utility.yul\":6278:6294   */\n      add\n        /* \"#utility.yul\":6272:6295   */\n      mload\n        /* \"#utility.yul\":6308:6371   */\n      tag_272\n        /* \"#utility.yul\":6365:6369   */\n      0x80\n        /* \"#utility.yul\":6360:6363   */\n      dup7\n        /* \"#utility.yul\":6356:6370   */\n      add\n        /* \"#utility.yul\":6342:6354   */\n      dup3\n        /* \"#utility.yul\":6308:6371   */\n      tag_158\n      jump\t// in\n    tag_272:\n        /* \"#utility.yul\":6211:6381   */\n      pop\n        /* \"#utility.yul\":6398:6402   */\n      dup1\n        /* \"#utility.yul\":6391:6402   */\n      swap2\n      pop\n        /* \"#utility.yul\":5386:6408   */\n      pop\n        /* \"#utility.yul\":5280:6408   */\n      swap3\n      swap2\n      pop\n      pop\n      jump\t// out\n        /* \"#utility.yul\":6414:6654   */\n    tag_170:\n        /* \"#utility.yul\":6525:6535   */\n      0x00\n        /* \"#utility.yul\":6560:6648   */\n      tag_274\n        /* \"#utility.yul\":6644:6647   */\n      dup4\n        /* \"#utility.yul\":6636:6642   */\n      dup4\n        /* \"#utility.yul\":6560:6648   */\n      tag_169\n      jump\t// in\n    tag_274:\n        /* \"#utility.yul\":6546:6648   */\n      swap1\n      pop\n        /* \"#utility.yul\":6414:6654   */\n      swap3\n      swap2\n      pop\n      pop\n      jump\t// out\n        /* \"#utility.yul\":6660:6794   */\n    tag_171:\n        /* \"#utility.yul\":6751:6755   */\n      0x00\n        /* \"#utility.yul\":6783:6787   */\n      0x20\n        /* \"#utility.yul\":6778:6781   */\n      dup3\n        /* \"#utility.yul\":6774:6788   */\n      add\n        /* \"#utility.yul\":6766:6788   */\n      swap1\n      pop\n        /* \"#utility.yul\":6660:6794   */\n      swap2\n      swap1\n      pop\n      jump\t// out\n        /* \"#utility.yul\":6872:7951   */\n    tag_172:\n        /* \"#utility.yul\":7033:7036   */\n      0x00\n        /* \"#utility.yul\":7062:7137   */\n      tag_277\n        /* \"#utility.yul\":7131:7136   */\n      dup3\n        /* \"#utility.yul\":7062:7137   */\n      tag_166\n      jump\t// in\n    tag_277:\n        /* \"#utility.yul\":7153:7260   */\n      tag_278\n        /* \"#utility.yul\":7253:7259   */\n      dup2\n        /* \"#utility.yul\":7248:7251   */\n      dup6\n        /* \"#utility.yul\":7153:7260   */\n      tag_167\n      jump\t// in\n    tag_278:\n        /* \"#utility.yul\":7146:7260   */\n      swap4\n      pop\n        /* \"#utility.yul\":7286:7289   */\n      dup4\n        /* \"#utility.yul\":7331:7335   */\n      0x20\n        /* \"#utility.yul\":7323:7329   */\n      dup3\n        /* \"#utility.yul\":7319:7336   */\n      mul\n        /* \"#utility.yul\":7314:7317   */\n      dup6\n        /* \"#utility.yul\":7310:7337   */\n      add\n        /* \"#utility.yul\":7361:7438   */\n      tag_279\n        /* \"#utility.yul\":7432:7437   */\n      dup6\n        /* \"#utility.yul\":7361:7438   */\n      tag_168\n      jump\t// in\n    tag_279:\n        /* \"#utility.yul\":7461:7468   */\n      dup1\n        /* \"#utility.yul\":7492:7493   */\n      0x00\n        /* \"#utility.yul\":7477:7906   */\n    tag_280:\n        /* \"#utility.yul\":7502:7508   */\n      dup6\n        /* \"#utility.yul\":7499:7500   */\n      dup2\n        /* \"#utility.yul\":7496:7509   */\n      lt\n        /* \"#utility.yul\":7477:7906   */\n      iszero\n      tag_282\n      jumpi\n        /* \"#utility.yul\":7573:7582   */\n      dup5\n        /* \"#utility.yul\":7567:7571   */\n      dup5\n        /* \"#utility.yul\":7563:7583   */\n      sub\n        /* \"#utility.yul\":7558:7561   */\n      dup10\n        /* \"#utility.yul\":7551:7584   */\n      mstore\n        /* \"#utility.yul\":7624:7630   */\n      dup2\n        /* \"#utility.yul\":7618:7631   */\n      mload\n        /* \"#utility.yul\":7652:7758   */\n      tag_283\n        /* \"#utility.yul\":7753:7757   */\n      dup6\n        /* \"#utility.yul\":7738:7751   */\n      dup3\n        /* \"#utility.yul\":7652:7758   */\n      tag_170\n      jump\t// in\n    tag_283:\n        /* \"#utility.yul\":7644:7758   */\n      swap5\n      pop\n        /* \"#utility.yul\":7781:7862   */\n      tag_284\n        /* \"#utility.yul\":7855:7861   */\n      dup4\n        /* \"#utility.yul\":7781:7862   */\n      tag_171\n      jump\t// in\n    tag_284:\n        /* \"#utility.yul\":7771:7862   */\n      swap3\n      pop\n        /* \"#utility.yul\":7891:7895   */\n      0x20\n        /* \"#utility.yul\":7886:7889   */\n      dup11\n        /* \"#utility.yul\":7882:7896   */\n      add\n        /* \"#utility.yul\":7875:7896   */\n      swap10\n      pop\n        /* \"#utility.yul\":7537:7906   */\n      pop\n        /* \"#utility.yul\":7524:7525   */\n      0x01\n        /* \"#utility.yul\":7521:7522   */\n      dup2\n        /* \"#utility.yul\":7517:7526   */\n      add\n        /* \"#utility.yul\":7512:7526   */\n      swap1\n      pop\n        /* \"#utility.yul\":7477:7906   */\n      jump(tag_280)\n    tag_282:\n        /* \"#utility.yul\":7481:7495   */\n      pop\n        /* \"#utility.yul\":7922:7926   */\n      dup3\n        /* \"#utility.yul\":7915:7926   */\n      swap8\n      pop\n        /* \"#utility.yul\":7942:7945   */\n      dup8\n        /* \"#utility.yul\":7935:7945   */\n      swap6\n      pop\n        /* \"#utility.yul\":7038:7951   */\n      pop\n      pop\n      pop\n      pop\n      pop\n        /* \"#utility.yul\":6872:7951   */\n      swap3\n      swap2\n      pop\n      pop\n      jump\t// out\n        /* \"#utility.yul\":7957:8414   */\n    tag_29:\n        /* \"#utility.yul\":8142:8146   */\n      0x00\n        /* \"#utility.yul\":8180:8182   */\n      0x20\n        /* \"#utility.yul\":8169:8178   */\n      dup3\n        /* \"#utility.yul\":8165:8183   */\n      add\n        /* \"#utility.yul\":8157:8183   */\n      swap1\n      pop\n        /* \"#utility.yul\":8229:8238   */\n      dup2\n        /* \"#utility.yul\":8223:8227   */\n      dup2\n        /* \"#utility.yul\":8219:8239   */\n      sub\n        /* \"#utility.yul\":8215:8216   */\n      0x00\n        /* \"#utility.yul\":8204:8213   */\n      dup4\n        /* \"#utility.yul\":8200:8217   */\n      add\n        /* \"#utility.yul\":8193:8240   */\n      mstore\n        /* \"#utility.yul\":8257:8407   */\n      tag_286\n        /* \"#utility.yul\":8402:8406   */\n      dup2\n        /* \"#utility.yul\":8393:8399   */\n      dup5\n        /* \"#utility.yul\":8257:8407   */\n      tag_172\n      jump\t// in\n    tag_286:\n        /* \"#utility.yul\":8249:8407   */\n      swap1\n      pop\n        /* \"#utility.yul\":7957:8414   */\n      swap3\n      swap2\n      pop\n      pop\n      jump\t// out\n        /* \"#utility.yul\":8420:8538   */\n    tag_173:\n        /* \"#utility.yul\":8507:8531   */\n      tag_288\n        /* \"#utility.yul\":8525:8530   */\n      dup2\n        /* \"#utility.yul\":8507:8531   */\n      tag_155\n      jump\t// in\n    tag_288:\n        /* \"#utility.yul\":8502:8505   */\n      dup3\n        /* \"#utility.yul\":8495:8532   */\n      mstore\n        /* \"#utility.yul\":8420:8538   */\n      pop\n      pop\n      jump\t// out\n        /* \"#utility.yul\":8544:8766   */\n    tag_34:\n        /* \"#utility.yul\":8637:8641   */\n      0x00\n        /* \"#utility.yul\":8675:8677   */\n      0x20\n        /* \"#utility.yul\":8664:8673   */\n      dup3\n        /* \"#utility.yul\":8660:8678   */\n      add\n        /* \"#utility.yul\":8652:8678   */\n      swap1\n      pop\n        /* \"#utility.yul\":8688:8759   */\n      tag_290\n        /* \"#utility.yul\":8756:8757   */\n      0x00\n        /* \"#utility.yul\":8745:8754   */\n      dup4\n        /* \"#utility.yul\":8741:8758   */\n      add\n        /* \"#utility.yul\":8732:8738   */\n      dup5\n        /* \"#utility.yul\":8688:8759   */\n      tag_173\n      jump\t// in\n    tag_290:\n        /* \"#utility.yul\":8544:8766   */\n      swap3\n      swap2\n      pop\n      pop\n      jump\t// out\n        /* \"#utility.yul\":8772:8861   */\n    tag_174:\n        /* \"#utility.yul\":8808:8815   */\n      0x00\n        /* \"#utility.yul\":8848:8854   */\n      0xffff\n        /* \"#utility.yul\":8841:8846   */\n      dup3\n        /* \"#utility.yul\":8837:8855   */\n      and\n        /* \"#utility.yul\":8826:8855   */\n      swap1\n      pop\n        /* \"#utility.yul\":8772:8861   */\n      swap2\n      swap1\n      pop\n      jump\t// out\n        /* \"#utility.yul\":8867:8987   */\n    tag_175:\n        /* \"#utility.yul\":8939:8962   */\n      tag_293\n        /* \"#utility.yul\":8956:8961   */\n      dup2\n        /* \"#utility.yul\":8939:8962   */\n      tag_174\n      jump\t// in\n    tag_293:\n        /* \"#utility.yul\":8932:8937   */\n      dup2\n        /* \"#utility.yul\":8929:8963   */\n      eq\n        /* \"#utility.yul\":8919:8981   */\n      tag_294\n      jumpi\n        /* \"#utility.yul\":8977:8978   */\n      0x00\n        /* \"#utility.yul\":8974:8975   */\n      dup1\n        /* \"#utility.yul\":8967:8979   */\n      revert\n        /* \"#utility.yul\":8919:8981   */\n    tag_294:\n        /* \"#utility.yul\":8867:8987   */\n      pop\n      jump\t// out\n        /* \"#utility.yul\":8993:9130   */\n    tag_176:\n        /* \"#utility.yul\":9038:9043   */\n      0x00\n        /* \"#utility.yul\":9076:9082   */\n      dup2\n        /* \"#utility.yul\":9063:9083   */\n      calldataload\n        /* \"#utility.yul\":9054:9083   */\n      swap1\n      pop\n        /* \"#utility.yul\":9092:9124   */\n      tag_296\n        /* \"#utility.yul\":9118:9123   */\n      dup2\n        /* \"#utility.yul\":9092:9124   */\n      tag_175\n      jump\t// in\n    tag_296:\n        /* \"#utility.yul\":8993:9130   */\n      swap3\n      swap2\n      pop\n      pop\n      jump\t// out\n        /* \"#utility.yul\":9136:9463   */\n    tag_37:\n        /* \"#utility.yul\":9194:9200   */\n      0x00\n        /* \"#utility.yul\":9243:9245   */\n      0x20\n        /* \"#utility.yul\":9231:9240   */\n      dup3\n        /* \"#utility.yul\":9222:9229   */\n      dup5\n        /* \"#utility.yul\":9218:9241   */\n      sub\n        /* \"#utility.yul\":9214:9246   */\n      slt\n        /* \"#utility.yul\":9211:9330   */\n      iszero\n      tag_298\n      jumpi\n        /* \"#utility.yul\":9249:9328   */\n      tag_299\n      tag_149\n      jump\t// in\n    tag_299:\n        /* \"#utility.yul\":9211:9330   */\n    tag_298:\n        /* \"#utility.yul\":9369:9370   */\n      0x00\n        /* \"#utility.yul\":9394:9446   */\n      tag_300\n        /* \"#utility.yul\":9438:9445   */\n      dup5\n        /* \"#utility.yul\":9429:9435   */\n      dup3\n        /* \"#utility.yul\":9418:9427   */\n      dup6\n        /* \"#utility.yul\":9414:9436   */\n      add\n        /* \"#utility.yul\":9394:9446   */\n      tag_176\n      jump\t// in\n    tag_300:\n        /* \"#utility.yul\":9384:9446   */\n      swap2\n      pop\n        /* \"#utility.yul\":9340:9456   */\n      pop\n        /* \"#utility.yul\":9136:9463   */\n      swap3\n      swap2\n      pop\n      pop\n      jump\t// out\n        /* \"#utility.yul\":9469:9584   */\n    tag_177:\n        /* \"#utility.yul\":9554:9577   */\n      tag_302\n        /* \"#utility.yul\":9571:9576   */\n      dup2\n        /* \"#utility.yul\":9554:9577   */\n      tag_174\n      jump\t// in\n    tag_302:\n        /* \"#utility.yul\":9549:9552   */\n      dup3\n        /* \"#utility.yul\":9542:9578   */\n      mstore\n        /* \"#utility.yul\":9469:9584   */\n      pop\n      pop\n      jump\t// out\n        /* \"#utility.yul\":9590:9808   */\n    tag_42:\n        /* \"#utility.yul\":9681:9685   */\n      0x00\n        /* \"#utility.yul\":9719:9721   */\n      0x20\n        /* \"#utility.yul\":9708:9717   */\n      dup3\n        /* \"#utility.yul\":9704:9722   */\n      add\n        /* \"#utility.yul\":9696:9722   */\n      swap1\n      pop\n        /* \"#utility.yul\":9732:9801   */\n      tag_304\n        /* \"#utility.yul\":9798:9799   */\n      0x00\n        /* \"#utility.yul\":9787:9796   */\n      dup4\n        /* \"#utility.yul\":9783:9800   */\n      add\n        /* \"#utility.yul\":9774:9780   */\n      dup5\n        /* \"#utility.yul\":9732:9801   */\n      tag_177\n      jump\t// in\n    tag_304:\n        /* \"#utility.yul\":9590:9808   */\n      swap3\n      swap2\n      pop\n      pop\n      jump\t// out\n        /* \"#utility.yul\":9814:9931   */\n    tag_178:\n        /* \"#utility.yul\":9923:9924   */\n      0x00\n        /* \"#utility.yul\":9920:9921   */\n      dup1\n        /* \"#utility.yul\":9913:9925   */\n      revert\n        /* \"#utility.yul\":9937:10054   */\n    tag_179:\n        /* \"#utility.yul\":10046:10047   */\n      0x00\n        /* \"#utility.yul\":10043:10044   */\n      dup1\n        /* \"#utility.yul\":10036:10048   */\n      revert\n        /* \"#utility.yul\":10060:10240   */\n    tag_83:\n        /* \"#utility.yul\":10108:10185   */\n      0x4e487b7100000000000000000000000000000000000000000000000000000000\n        /* \"#utility.yul\":10105:10106   */\n      0x00\n        /* \"#utility.yul\":10098:10186   */\n      mstore\n        /* \"#utility.yul\":10205:10209   */\n      0x41\n        /* \"#utility.yul\":10202:10203   */\n      0x04\n        /* \"#utility.yul\":10195:10210   */\n      mstore\n        /* \"#utility.yul\":10229:10233   */\n      0x24\n        /* \"#utility.yul\":10226:10227   */\n      0x00\n        /* \"#utility.yul\":10219:10234   */\n      revert\n        /* \"#utility.yul\":10246:10527   */\n    tag_180:\n        /* \"#utility.yul\":10329:10356   */\n      tag_309\n        /* \"#utility.yul\":10351:10355   */\n      dup3\n        /* \"#utility.yul\":10329:10356   */\n      tag_163\n      jump\t// in\n    tag_309:\n        /* \"#utility.yul\":10321:10327   */\n      dup2\n        /* \"#utility.yul\":10317:10357   */\n      add\n        /* \"#utility.yul\":10459:10465   */\n      dup2\n        /* \"#utility.yul\":10447:10457   */\n      dup2\n        /* \"#utility.yul\":10444:10466   */\n      lt\n        /* \"#utility.yul\":10423:10441   */\n      0xffffffffffffffff\n        /* \"#utility.yul\":10411:10421   */\n      dup3\n        /* \"#utility.yul\":10408:10442   */\n      gt\n        /* \"#utility.yul\":10405:10467   */\n      or\n        /* \"#utility.yul\":10402:10490   */\n      iszero\n      tag_310\n      jumpi\n        /* \"#utility.yul\":10470:10488   */\n      tag_311\n      tag_83\n      jump\t// in\n    tag_311:\n        /* \"#utility.yul\":10402:10490   */\n    tag_310:\n        /* \"#utility.yul\":10510:10520   */\n      dup1\n        /* \"#utility.yul\":10506:10508   */\n      0x40\n        /* \"#utility.yul\":10499:10521   */\n      mstore\n        /* \"#utility.yul\":10289:10527   */\n      pop\n        /* \"#utility.yul\":10246:10527   */\n      pop\n      pop\n      jump\t// out\n        /* \"#utility.yul\":10533:10662   */\n    tag_181:\n        /* \"#utility.yul\":10567:10573   */\n      0x00\n        /* \"#utility.yul\":10594:10614   */\n      tag_313\n      tag_148\n      jump\t// in\n    tag_313:\n        /* \"#utility.yul\":10584:10614   */\n      swap1\n      pop\n        /* \"#utility.yul\":10623:10656   */\n      tag_314\n        /* \"#utility.yul\":10651:10655   */\n      dup3\n        /* \"#utility.yul\":10643:10649   */\n      dup3\n        /* \"#utility.yul\":10623:10656   */\n      tag_180\n      jump\t// in\n    tag_314:\n        /* \"#utility.yul\":10533:10662   */\n      swap2\n      swap1\n      pop\n      jump\t// out\n        /* \"#utility.yul\":10668:10976   */\n    tag_182:\n        /* \"#utility.yul\":10730:10734   */\n      0x00\n        /* \"#utility.yul\":10820:10838   */\n      0xffffffffffffffff\n        /* \"#utility.yul\":10812:10818   */\n      dup3\n        /* \"#utility.yul\":10809:10839   */\n      gt\n        /* \"#utility.yul\":10806:10862   */\n      iszero\n      tag_316\n      jumpi\n        /* \"#utility.yul\":10842:10860   */\n      tag_317\n      tag_83\n      jump\t// in\n    tag_317:\n        /* \"#utility.yul\":10806:10862   */\n    tag_316:\n        /* \"#utility.yul\":10880:10909   */\n      tag_318\n        /* \"#utility.yul\":10902:10908   */\n      dup3\n        /* \"#utility.yul\":10880:10909   */\n      tag_163\n      jump\t// in\n    tag_318:\n        /* \"#utility.yul\":10872:10909   */\n      swap1\n      pop\n        /* \"#utility.yul\":10964:10968   */\n      0x20\n        /* \"#utility.yul\":10958:10962   */\n      dup2\n        /* \"#utility.yul\":10954:10969   */\n      add\n        /* \"#utility.yul\":10946:10969   */\n      swap1\n      pop\n        /* \"#utility.yul\":10668:10976   */\n      swap2\n      swap1\n      pop\n      jump\t// out\n        /* \"#utility.yul\":10982:11130   */\n    tag_183:\n        /* \"#utility.yul\":11080:11086   */\n      dup3\n        /* \"#utility.yul\":11075:11078   */\n      dup2\n        /* \"#utility.yul\":11070:11073   */\n      dup4\n        /* \"#utility.yul\":11057:11087   */\n      calldatacopy\n        /* \"#utility.yul\":11121:11122   */\n      0x00\n        /* \"#utility.yul\":11112:11118   */\n      dup4\n        /* \"#utility.yul\":11107:11110   */\n      dup4\n        /* \"#utility.yul\":11103:11119   */\n      add\n        /* \"#utility.yul\":11096:11123   */\n      mstore\n        /* \"#utility.yul\":10982:11130   */\n      pop\n      pop\n      pop\n      jump\t// out\n        /* \"#utility.yul\":11136:11561   */\n    tag_184:\n        /* \"#utility.yul\":11214:11219   */\n      0x00\n        /* \"#utility.yul\":11239:11305   */\n      tag_321\n        /* \"#utility.yul\":11255:11304   */\n      tag_322\n        /* \"#utility.yul\":11297:11303   */\n      dup5\n        /* \"#utility.yul\":11255:11304   */\n      tag_182\n      jump\t// in\n    tag_322:\n        /* \"#utility.yul\":11239:11305   */\n      tag_181\n      jump\t// in\n    tag_321:\n        /* \"#utility.yul\":11230:11305   */\n      swap1\n      pop\n        /* \"#utility.yul\":11328:11334   */\n      dup3\n        /* \"#utility.yul\":11321:11326   */\n      dup2\n        /* \"#utility.yul\":11314:11335   */\n      mstore\n        /* \"#utility.yul\":11366:11370   */\n      0x20\n        /* \"#utility.yul\":11359:11364   */\n      dup2\n        /* \"#utility.yul\":11355:11371   */\n      add\n        /* \"#utility.yul\":11404:11407   */\n      dup5\n        /* \"#utility.yul\":11395:11401   */\n      dup5\n        /* \"#utility.yul\":11390:11393   */\n      dup5\n        /* \"#utility.yul\":11386:11402   */\n      add\n        /* \"#utility.yul\":11383:11408   */\n      gt\n        /* \"#utility.yul\":11380:11492   */\n      iszero\n      tag_323\n      jumpi\n        /* \"#utility.yul\":11411:11490   */\n      tag_324\n      tag_179\n      jump\t// in\n    tag_324:\n        /* \"#utility.yul\":11380:11492   */\n    tag_323:\n        /* \"#utility.yul\":11501:11555   */\n      tag_325\n        /* \"#utility.yul\":11548:11554   */\n      dup5\n        /* \"#utility.yul\":11543:11546   */\n      dup3\n        /* \"#utility.yul\":11538:11541   */\n      dup6\n        /* \"#utility.yul\":11501:11555   */\n      tag_183\n      jump\t// in\n    tag_325:\n        /* \"#utility.yul\":11220:11561   */\n      pop\n        /* \"#utility.yul\":11136:11561   */\n      swap4\n      swap3\n      pop\n      pop\n      pop\n      jump\t// out\n        /* \"#utility.yul\":11581:11921   */\n    tag_185:\n        /* \"#utility.yul\":11637:11642   */\n      0x00\n        /* \"#utility.yul\":11686:11689   */\n      dup3\n        /* \"#utility.yul\":11679:11683   */\n      0x1f\n        /* \"#utility.yul\":11671:11677   */\n      dup4\n        /* \"#utility.yul\":11667:11684   */\n      add\n        /* \"#utility.yul\":11663:11690   */\n      slt\n        /* \"#utility.yul\":11653:11775   */\n      tag_327\n      jumpi\n        /* \"#utility.yul\":11694:11773   */\n      tag_328\n      tag_178\n      jump\t// in\n    tag_328:\n        /* \"#utility.yul\":11653:11775   */\n    tag_327:\n        /* \"#utility.yul\":11811:11817   */\n      dup2\n        /* \"#utility.yul\":11798:11818   */\n      calldataload\n        /* \"#utility.yul\":11836:11915   */\n      tag_329\n        /* \"#utility.yul\":11911:11914   */\n      dup5\n        /* \"#utility.yul\":11903:11909   */\n      dup3\n        /* \"#utility.yul\":11896:11900   */\n      0x20\n        /* \"#utility.yul\":11888:11894   */\n      dup7\n        /* \"#utility.yul\":11884:11901   */\n      add\n        /* \"#utility.yul\":11836:11915   */\n      tag_184\n      jump\t// in\n    tag_329:\n        /* \"#utility.yul\":11827:11915   */\n      swap2\n      pop\n        /* \"#utility.yul\":11643:11921   */\n      pop\n        /* \"#utility.yul\":11581:11921   */\n      swap3\n      swap2\n      pop\n      pop\n      jump\t// out\n        /* \"#utility.yul\":11927:12436   */\n    tag_45:\n        /* \"#utility.yul\":11996:12002   */\n      0x00\n        /* \"#utility.yul\":12045:12047   */\n      0x20\n        /* \"#utility.yul\":12033:12042   */\n      dup3\n        /* \"#utility.yul\":12024:12031   */\n      dup5\n        /* \"#utility.yul\":12020:12043   */\n      sub\n        /* \"#utility.yul\":12016:12048   */\n      slt\n        /* \"#utility.yul\":12013:12132   */\n      iszero\n      tag_331\n      jumpi\n        /* \"#utility.yul\":12051:12130   */\n      tag_332\n      tag_149\n      jump\t// in\n    tag_332:\n        /* \"#utility.yul\":12013:12132   */\n    tag_331:\n        /* \"#utility.yul\":12199:12200   */\n      0x00\n        /* \"#utility.yul\":12188:12197   */\n      dup3\n        /* \"#utility.yul\":12184:12201   */\n      add\n        /* \"#utility.yul\":12171:12202   */\n      calldataload\n        /* \"#utility.yul\":12229:12247   */\n      0xffffffffffffffff\n        /* \"#utility.yul\":12221:12227   */\n      dup2\n        /* \"#utility.yul\":12218:12248   */\n      gt\n        /* \"#utility.yul\":12215:12332   */\n      iszero\n      tag_333\n      jumpi\n        /* \"#utility.yul\":12251:12330   */\n      tag_334\n      tag_150\n      jump\t// in\n    tag_334:\n        /* \"#utility.yul\":12215:12332   */\n    tag_333:\n        /* \"#utility.yul\":12356:12419   */\n      tag_335\n        /* \"#utility.yul\":12411:12418   */\n      dup5\n        /* \"#utility.yul\":12402:12408   */\n      dup3\n        /* \"#utility.yul\":12391:12400   */\n      dup6\n        /* \"#utility.yul\":12387:12409   */\n      add\n        /* \"#utility.yul\":12356:12419   */\n      tag_185\n      jump\t// in\n    tag_335:\n        /* \"#utility.yul\":12346:12419   */\n      swap2\n      pop\n        /* \"#utility.yul\":12142:12429   */\n      pop\n        /* \"#utility.yul\":11927:12436   */\n      swap3\n      swap2\n      pop\n      pop\n      jump\t// out\n        /* \"#utility.yul\":12442:12560   */\n    tag_186:\n        /* \"#utility.yul\":12529:12553   */\n      tag_337\n        /* \"#utility.yul\":12547:12552   */\n      dup2\n        /* \"#utility.yul\":12529:12553   */\n      tag_152\n      jump\t// in\n    tag_337:\n        /* \"#utility.yul\":12524:12527   */\n      dup3\n        /* \"#utility.yul\":12517:12554   */\n      mstore\n        /* \"#utility.yul\":12442:12560   */\n      pop\n      pop\n      jump\t// out\n        /* \"#utility.yul\":12566:12788   */\n    tag_50:\n        /* \"#utility.yul\":12659:12663   */\n      0x00\n        /* \"#utility.yul\":12697:12699   */\n      0x20\n        /* \"#utility.yul\":12686:12695   */\n      dup3\n        /* \"#utility.yul\":12682:12700   */\n      add\n        /* \"#utility.yul\":12674:12700   */\n      swap1\n      pop\n        /* \"#utility.yul\":12710:12781   */\n      tag_339\n        /* \"#utility.yul\":12778:12779   */\n      0x00\n        /* \"#utility.yul\":12767:12776   */\n      dup4\n        /* \"#utility.yul\":12763:12780   */\n      add\n        /* \"#utility.yul\":12754:12760   */\n      dup5\n        /* \"#utility.yul\":12710:12781   */\n      tag_186\n      jump\t// in\n    tag_339:\n        /* \"#utility.yul\":12566:12788   */\n      swap3\n      swap2\n      pop\n      pop\n      jump\t// out\n        /* \"#utility.yul\":12794:12974   */\n    tag_187:\n        /* \"#utility.yul\":12842:12919   */\n      0x4e487b7100000000000000000000000000000000000000000000000000000000\n        /* \"#utility.yul\":12839:12840   */\n      0x00\n        /* \"#utility.yul\":12832:12920   */\n      mstore\n        /* \"#utility.yul\":12939:12943   */\n      0x22\n        /* \"#utility.yul\":12936:12937   */\n      0x04\n        /* \"#utility.yul\":12929:12944   */\n      mstore\n        /* \"#utility.yul\":12963:12967   */\n      0x24\n        /* \"#utility.yul\":12960:12961   */\n      0x00\n        /* \"#utility.yul\":12953:12968   */\n      revert\n        /* \"#utility.yul\":12980:13300   */\n    tag_60:\n        /* \"#utility.yul\":13024:13030   */\n      0x00\n        /* \"#utility.yul\":13061:13062   */\n      0x02\n        /* \"#utility.yul\":13055:13059   */\n      dup3\n        /* \"#utility.yul\":13051:13063   */\n      div\n        /* \"#utility.yul\":13041:13063   */\n      swap1\n      pop\n        /* \"#utility.yul\":13108:13109   */\n      0x01\n        /* \"#utility.yul\":13102:13106   */\n      dup3\n        /* \"#utility.yul\":13098:13110   */\n      and\n        /* \"#utility.yul\":13129:13147   */\n      dup1\n        /* \"#utility.yul\":13119:13200   */\n      tag_342\n      jumpi\n        /* \"#utility.yul\":13185:13189   */\n      0x7f\n        /* \"#utility.yul\":13177:13183   */\n      dup3\n        /* \"#utility.yul\":13173:13190   */\n      and\n        /* \"#utility.yul\":13163:13190   */\n      swap2\n      pop\n        /* \"#utility.yul\":13119:13200   */\n    tag_342:\n        /* \"#utility.yul\":13247:13249   */\n      0x20\n        /* \"#utility.yul\":13239:13245   */\n      dup3\n        /* \"#utility.yul\":13236:13250   */\n      lt\n        /* \"#utility.yul\":13216:13234   */\n      dup2\n        /* \"#utility.yul\":13213:13251   */\n      sub\n        /* \"#utility.yul\":13210:13294   */\n      tag_343\n      jumpi\n        /* \"#utility.yul\":13266:13284   */\n      tag_344\n      tag_187\n      jump\t// in\n    tag_344:\n        /* \"#utility.yul\":13210:13294   */\n    tag_343:\n        /* \"#utility.yul\":13031:13300   */\n      pop\n        /* \"#utility.yul\":12980:13300   */\n      swap2\n      swap1\n      pop\n      jump\t// out\n        /* \"#utility.yul\":13306:13475   */\n    tag_188:\n        /* \"#utility.yul\":13390:13401   */\n      0x00\n        /* \"#utility.yul\":13424:13430   */\n      dup3\n        /* \"#utility.yul\":13419:13422   */\n      dup3\n        /* \"#utility.yul\":13412:13431   */\n      mstore\n        /* \"#utility.yul\":13464:13468   */\n      0x20\n        /* \"#utility.yul\":13459:13462   */\n      dup3\n        /* \"#utility.yul\":13455:13469   */\n      add\n        /* \"#utility.yul\":13440:13469   */\n      swap1\n      pop\n        /* \"#utility.yul\":13306:13475   */\n      swap3\n      swap2\n      pop\n      pop\n      jump\t// out\n        /* \"#utility.yul\":13481:13650   */\n    tag_189:\n        /* \"#utility.yul\":13621:13642   */\n      0x547765657420646f65736e277420657869737400000000000000000000000000\n        /* \"#utility.yul\":13617:13618   */\n      0x00\n        /* \"#utility.yul\":13609:13615   */\n      dup3\n        /* \"#utility.yul\":13605:13619   */\n      add\n        /* \"#utility.yul\":13598:13643   */\n      mstore\n        /* \"#utility.yul\":13481:13650   */\n      pop\n      jump\t// out\n        /* \"#utility.yul\":13656:14022   */\n    tag_190:\n        /* \"#utility.yul\":13798:13801   */\n      0x00\n        /* \"#utility.yul\":13819:13886   */\n      tag_348\n        /* \"#utility.yul\":13883:13885   */\n      0x13\n        /* \"#utility.yul\":13878:13881   */\n      dup4\n        /* \"#utility.yul\":13819:13886   */\n      tag_188\n      jump\t// in\n    tag_348:\n        /* \"#utility.yul\":13812:13886   */\n      swap2\n      pop\n        /* \"#utility.yul\":13895:13988   */\n      tag_349\n        /* \"#utility.yul\":13984:13987   */\n      dup3\n        /* \"#utility.yul\":13895:13988   */\n      tag_189\n      jump\t// in\n    tag_349:\n        /* \"#utility.yul\":14013:14015   */\n      0x20\n        /* \"#utility.yul\":14008:14011   */\n      dup3\n        /* \"#utility.yul\":14004:14016   */\n      add\n        /* \"#utility.yul\":13997:14016   */\n      swap1\n      pop\n        /* \"#utility.yul\":13656:14022   */\n      swap2\n      swap1\n      pop\n      jump\t// out\n        /* \"#utility.yul\":14028:14447   */\n    tag_70:\n        /* \"#utility.yul\":14194:14198   */\n      0x00\n        /* \"#utility.yul\":14232:14234   */\n      0x20\n        /* \"#utility.yul\":14221:14230   */\n      dup3\n        /* \"#utility.yul\":14217:14235   */\n      add\n        /* \"#utility.yul\":14209:14235   */\n      swap1\n      pop\n        /* \"#utility.yul\":14281:14290   */\n      dup2\n        /* \"#utility.yul\":14275:14279   */\n      dup2\n        /* \"#utility.yul\":14271:14291   */\n      sub\n        /* \"#utility.yul\":14267:14268   */\n      0x00\n        /* \"#utility.yul\":14256:14265   */\n      dup4\n        /* \"#utility.yul\":14252:14269   */\n      add\n        /* \"#utility.yul\":14245:14292   */\n      mstore\n        /* \"#utility.yul\":14309:14440   */\n      tag_351\n        /* \"#utility.yul\":14435:14439   */\n      dup2\n        /* \"#utility.yul\":14309:14440   */\n      tag_190\n      jump\t// in\n    tag_351:\n        /* \"#utility.yul\":14301:14440   */\n      swap1\n      pop\n        /* \"#utility.yul\":14028:14447   */\n      swap2\n      swap1\n      pop\n      jump\t// out\n        /* \"#utility.yul\":14453:14633   */\n    tag_73:\n        /* \"#utility.yul\":14501:14578   */\n      0x4e487b7100000000000000000000000000000000000000000000000000000000\n        /* \"#utility.yul\":14498:14499   */\n      0x00\n        /* \"#utility.yul\":14491:14579   */\n      mstore\n        /* \"#utility.yul\":14598:14602   */\n      0x32\n        /* \"#utility.yul\":14595:14596   */\n      0x04\n        /* \"#utility.yul\":14588:14603   */\n      mstore\n        /* \"#utility.yul\":14622:14626   */\n      0x24\n        /* \"#utility.yul\":14619:14620   */\n      0x00\n        /* \"#utility.yul\":14612:14627   */\n      revert\n        /* \"#utility.yul\":14639:14810   */\n    tag_191:\n        /* \"#utility.yul\":14779:14802   */\n      0x596f7520617265206e6f7420746865206f776e65720000000000000000000000\n        /* \"#utility.yul\":14775:14776   */\n      0x00\n        /* \"#utility.yul\":14767:14773   */\n      dup3\n        /* \"#utility.yul\":14763:14777   */\n      add\n        /* \"#utility.yul\":14756:14803   */\n      mstore\n        /* \"#utility.yul\":14639:14810   */\n      pop\n      jump\t// out\n        /* \"#utility.yul\":14816:15182   */\n    tag_192:\n        /* \"#utility.yul\":14958:14961   */\n      0x00\n        /* \"#utility.yul\":14979:15046   */\n      tag_355\n        /* \"#utility.yul\":15043:15045   */\n      0x15\n        /* \"#utility.yul\":15038:15041   */\n      dup4\n        /* \"#utility.yul\":14979:15046   */\n      tag_188\n      jump\t// in\n    tag_355:\n        /* \"#utility.yul\":14972:15046   */\n      swap2\n      pop\n        /* \"#utility.yul\":15055:15148   */\n      tag_356\n        /* \"#utility.yul\":15144:15147   */\n      dup3\n        /* \"#utility.yul\":15055:15148   */\n      tag_191\n      jump\t// in\n    tag_356:\n        /* \"#utility.yul\":15173:15175   */\n      0x20\n        /* \"#utility.yul\":15168:15171   */\n      dup3\n        /* \"#utility.yul\":15164:15176   */\n      add\n        /* \"#utility.yul\":15157:15176   */\n      swap1\n      pop\n        /* \"#utility.yul\":14816:15182   */\n      swap2\n      swap1\n      pop\n      jump\t// out\n        /* \"#utility.yul\":15188:15607   */\n    tag_109:\n        /* \"#utility.yul\":15354:15358   */\n      0x00\n        /* \"#utility.yul\":15392:15394   */\n      0x20\n        /* \"#utility.yul\":15381:15390   */\n      dup3\n        /* \"#utility.yul\":15377:15395   */\n      add\n        /* \"#utility.yul\":15369:15395   */\n      swap1\n      pop\n        /* \"#utility.yul\":15441:15450   */\n      dup2\n        /* \"#utility.yul\":15435:15439   */\n      dup2\n        /* \"#utility.yul\":15431:15451   */\n      sub\n        /* \"#utility.yul\":15427:15428   */\n      0x00\n        /* \"#utility.yul\":15416:15425   */\n      dup4\n        /* \"#utility.yul\":15412:15429   */\n      add\n        /* \"#utility.yul\":15405:15452   */\n      mstore\n        /* \"#utility.yul\":15469:15600   */\n      tag_358\n        /* \"#utility.yul\":15595:15599   */\n      dup2\n        /* \"#utility.yul\":15469:15600   */\n      tag_192\n      jump\t// in\n    tag_358:\n        /* \"#utility.yul\":15461:15600   */\n      swap1\n      pop\n        /* \"#utility.yul\":15188:15607   */\n      swap2\n      swap1\n      pop\n      jump\t// out\n        /* \"#utility.yul\":15613:15777   */\n    tag_193:\n        /* \"#utility.yul\":15753:15769   */\n      0x547765657420746f6f206c6f6e67000000000000000000000000000000000000\n        /* \"#utility.yul\":15749:15750   */\n      0x00\n        /* \"#utility.yul\":15741:15747   */\n      dup3\n        /* \"#utility.yul\":15737:15751   */\n      add\n        /* \"#utility.yul\":15730:15770   */\n      mstore\n        /* \"#utility.yul\":15613:15777   */\n      pop\n      jump\t// out\n        /* \"#utility.yul\":15783:16149   */\n    tag_194:\n        /* \"#utility.yul\":15925:15928   */\n      0x00\n        /* \"#utility.yul\":15946:16013   */\n      tag_361\n        /* \"#utility.yul\":16010:16012   */\n      0x0e\n        /* \"#utility.yul\":16005:16008   */\n      dup4\n        /* \"#utility.yul\":15946:16013   */\n      tag_188\n      jump\t// in\n    tag_361:\n        /* \"#utility.yul\":15939:16013   */\n      swap2\n      pop\n        /* \"#utility.yul\":16022:16115   */\n      tag_362\n        /* \"#utility.yul\":16111:16114   */\n      dup3\n        /* \"#utility.yul\":16022:16115   */\n      tag_193\n      jump\t// in\n    tag_362:\n        /* \"#utility.yul\":16140:16142   */\n      0x20\n        /* \"#utility.yul\":16135:16138   */\n      dup3\n        /* \"#utility.yul\":16131:16143   */\n      add\n        /* \"#utility.yul\":16124:16143   */\n      swap1\n      pop\n        /* \"#utility.yul\":15783:16149   */\n      swap2\n      swap1\n      pop\n      jump\t// out\n        /* \"#utility.yul\":16155:16574   */\n    tag_114:\n        /* \"#utility.yul\":16321:16325   */\n      0x00\n        /* \"#utility.yul\":16359:16361   */\n      0x20\n        /* \"#utility.yul\":16348:16357   */\n      dup3\n        /* \"#utility.yul\":16344:16362   */\n      add\n        /* \"#utility.yul\":16336:16362   */\n      swap1\n      pop\n        /* \"#utility.yul\":16408:16417   */\n      dup2\n        /* \"#utility.yul\":16402:16406   */\n      dup2\n        /* \"#utility.yul\":16398:16418   */\n      sub\n        /* \"#utility.yul\":16394:16395   */\n      0x00\n        /* \"#utility.yul\":16383:16392   */\n      dup4\n        /* \"#utility.yul\":16379:16396   */\n      add\n        /* \"#utility.yul\":16372:16419   */\n      mstore\n        /* \"#utility.yul\":16436:16567   */\n      tag_364\n        /* \"#utility.yul\":16562:16566   */\n      dup2\n        /* \"#utility.yul\":16436:16567   */\n      tag_194\n      jump\t// in\n    tag_364:\n        /* \"#utility.yul\":16428:16567   */\n      swap1\n      pop\n        /* \"#utility.yul\":16155:16574   */\n      swap2\n      swap1\n      pop\n      jump\t// out\n        /* \"#utility.yul\":16580:16760   */\n    tag_195:\n        /* \"#utility.yul\":16628:16705   */\n      0x4e487b7100000000000000000000000000000000000000000000000000000000\n        /* \"#utility.yul\":16625:16626   */\n      0x00\n        /* \"#utility.yul\":16618:16706   */\n      mstore\n        /* \"#utility.yul\":16725:16729   */\n      0x11\n        /* \"#utility.yul\":16722:16723   */\n      0x04\n        /* \"#utility.yul\":16715:16730   */\n      mstore\n        /* \"#utility.yul\":16749:16753   */\n      0x24\n        /* \"#utility.yul\":16746:16747   */\n      0x00\n        /* \"#utility.yul\":16739:16754   */\n      revert\n        /* \"#utility.yul\":16766:16960   */\n    tag_117:\n        /* \"#utility.yul\":16806:16810   */\n      0x00\n        /* \"#utility.yul\":16826:16846   */\n      tag_367\n        /* \"#utility.yul\":16844:16845   */\n      dup3\n        /* \"#utility.yul\":16826:16846   */\n      tag_155\n      jump\t// in\n    tag_367:\n        /* \"#utility.yul\":16821:16846   */\n      swap2\n      pop\n        /* \"#utility.yul\":16860:16880   */\n      tag_368\n        /* \"#utility.yul\":16878:16879   */\n      dup4\n        /* \"#utility.yul\":16860:16880   */\n      tag_155\n      jump\t// in\n    tag_368:\n        /* \"#utility.yul\":16855:16880   */\n      swap3\n      pop\n        /* \"#utility.yul\":16904:16905   */\n      dup3\n        /* \"#utility.yul\":16901:16902   */\n      dup3\n        /* \"#utility.yul\":16897:16906   */\n      sub\n        /* \"#utility.yul\":16889:16906   */\n      swap1\n      pop\n        /* \"#utility.yul\":16928:16929   */\n      dup2\n        /* \"#utility.yul\":16922:16926   */\n      dup2\n        /* \"#utility.yul\":16919:16930   */\n      gt\n        /* \"#utility.yul\":16916:16953   */\n      iszero\n      tag_369\n      jumpi\n        /* \"#utility.yul\":16933:16951   */\n      tag_370\n      tag_195\n      jump\t// in\n    tag_370:\n        /* \"#utility.yul\":16916:16953   */\n    tag_369:\n        /* \"#utility.yul\":16766:16960   */\n      swap3\n      swap2\n      pop\n      pop\n      jump\t// out\n        /* \"#utility.yul\":16966:17107   */\n    tag_196:\n        /* \"#utility.yul\":17015:17019   */\n      0x00\n        /* \"#utility.yul\":17038:17041   */\n      dup2\n        /* \"#utility.yul\":17030:17041   */\n      swap1\n      pop\n        /* \"#utility.yul\":17061:17064   */\n      dup2\n        /* \"#utility.yul\":17058:17059   */\n      0x00\n        /* \"#utility.yul\":17051:17065   */\n      mstore\n        /* \"#utility.yul\":17095:17099   */\n      0x20\n        /* \"#utility.yul\":17092:17093   */\n      0x00\n        /* \"#utility.yul\":17082:17100   */\n      keccak256\n        /* \"#utility.yul\":17074:17100   */\n      swap1\n      pop\n        /* \"#utility.yul\":16966:17107   */\n      swap2\n      swap1\n      pop\n      jump\t// out\n        /* \"#utility.yul\":17113:17206   */\n    tag_197:\n        /* \"#utility.yul\":17150:17156   */\n      0x00\n        /* \"#utility.yul\":17197:17199   */\n      0x20\n        /* \"#utility.yul\":17192:17194   */\n      0x1f\n        /* \"#utility.yul\":17185:17190   */\n      dup4\n        /* \"#utility.yul\":17181:17195   */\n      add\n        /* \"#utility.yul\":17177:17200   */\n      div\n        /* \"#utility.yul\":17167:17200   */\n      swap1\n      pop\n        /* \"#utility.yul\":17113:17206   */\n      swap2\n      swap1\n      pop\n      jump\t// out\n        /* \"#utility.yul\":17212:17319   */\n    tag_198:\n        /* \"#utility.yul\":17256:17264   */\n      0x00\n        /* \"#utility.yul\":17306:17311   */\n      dup3\n        /* \"#utility.yul\":17300:17304   */\n      dup3\n        /* \"#utility.yul\":17296:17312   */\n      shl\n        /* \"#utility.yul\":17275:17312   */\n      swap1\n      pop\n        /* \"#utility.yul\":17212:17319   */\n      swap3\n      swap2\n      pop\n      pop\n      jump\t// out\n        /* \"#utility.yul\":17325:17718   */\n    tag_199:\n        /* \"#utility.yul\":17394:17400   */\n      0x00\n        /* \"#utility.yul\":17444:17445   */\n      0x08\n        /* \"#utility.yul\":17432:17442   */\n      dup4\n        /* \"#utility.yul\":17428:17446   */\n      mul\n        /* \"#utility.yul\":17467:17564   */\n      tag_375\n        /* \"#utility.yul\":17497:17563   */\n      0xffffffffffffffffffffffffffffffffffffffffffffffffffffffffffffffff\n        /* \"#utility.yul\":17486:17495   */\n      dup3\n        /* \"#utility.yul\":17467:17564   */\n      tag_198\n      jump\t// in\n    tag_375:\n        /* \"#utility.yul\":17585:17624   */\n      tag_376\n        /* \"#utility.yul\":17615:17623   */\n      dup7\n        /* \"#utility.yul\":17604:17613   */\n      dup4\n        /* \"#utility.yul\":17585:17624   */\n      tag_198\n      jump\t// in\n    tag_376:\n        /* \"#utility.yul\":17573:17624   */\n      swap6\n      pop\n        /* \"#utility.yul\":17657:17661   */\n      dup1\n        /* \"#utility.yul\":17653:17662   */\n      not\n        /* \"#utility.yul\":17646:17651   */\n      dup5\n        /* \"#utility.yul\":17642:17663   */\n      and\n        /* \"#utility.yul\":17633:17663   */\n      swap4\n      pop\n        /* \"#utility.yul\":17706:17710   */\n      dup1\n        /* \"#utility.yul\":17696:17704   */\n      dup7\n        /* \"#utility.yul\":17692:17711   */\n      and\n        /* \"#utility.yul\":17685:17690   */\n      dup5\n        /* \"#utility.yul\":17682:17712   */\n      or\n        /* \"#utility.yul\":17672:17712   */\n      swap3\n      pop\n        /* \"#utility.yul\":17401:17718   */\n      pop\n      pop\n        /* \"#utility.yul\":17325:17718   */\n      swap4\n      swap3\n      pop\n      pop\n      pop\n      jump\t// out\n        /* \"#utility.yul\":17724:17784   */\n    tag_200:\n        /* \"#utility.yul\":17752:17755   */\n      0x00\n        /* \"#utility.yul\":17773:17778   */\n      dup2\n        /* \"#utility.yul\":17766:17778   */\n      swap1\n      pop\n        /* \"#utility.yul\":17724:17784   */\n      swap2\n      swap1\n      pop\n      jump\t// out\n        /* \"#utility.yul\":17790:17932   */\n    tag_201:\n        /* \"#utility.yul\":17840:17849   */\n      0x00\n        /* \"#utility.yul\":17873:17926   */\n      tag_379\n        /* \"#utility.yul\":17891:17925   */\n      tag_380\n        /* \"#utility.yul\":17900:17924   */\n      tag_381\n        /* \"#utility.yul\":17918:17923   */\n      dup5\n        /* \"#utility.yul\":17900:17924   */\n      tag_155\n      jump\t// in\n    tag_381:\n        /* \"#utility.yul\":17891:17925   */\n      tag_200\n      jump\t// in\n    tag_380:\n        /* \"#utility.yul\":17873:17926   */\n      tag_155\n      jump\t// in\n    tag_379:\n        /* \"#utility.yul\":17860:17926   */\n      swap1\n      pop\n        /* \"#utility.yul\":17790:17932   */\n      swap2\n      swap1\n      pop\n      jump\t// out\n        /* \"#utility.yul\":17938:18013   */\n    tag_202:\n        /* \"#utility.yul\":17981:17984   */\n      0x00\n        /* \"#utility.yul\":18002:18007   */\n      dup2\n        /* \"#utility.yul\":17995:18007   */\n      swap1\n      pop\n        /* \"#utility.yul\":17938:18013   */\n      swap2\n      swap1\n      pop\n      jump\t// out\n        /* \"#utility.yul\":18019:18288   */\n    tag_203:\n        /* \"#utility.yul\":18129:18168   */\n      tag_384\n        /* \"#utility.yul\":18160:18167   */\n      dup4\n        /* \"#utility.yul\":18129:18168   */\n      tag_201\n      jump\t// in\n    tag_384:\n        /* \"#utility.yul\":18190:18281   */\n      tag_385\n        /* \"#utility.yul\":18239:18280   */\n      tag_386\n        /* \"#utility.yul\":18263:18279   */\n      dup3\n        /* \"#utility.yul\":18239:18280   */\n      tag_202\n      jump\t// in\n    tag_386:\n        /* \"#utility.yul\":18231:18237   */\n      dup5\n        /* \"#utility.yul\":18224:18228   */\n      dup5\n        /* \"#utility.yul\":18218:18229   */\n      sload\n        /* \"#utility.yul\":18190:18281   */\n      tag_199\n      jump\t// in\n    tag_385:\n        /* \"#utility.yul\":18184:18188   */\n      dup3\n        /* \"#utility.yul\":18177:18282   */\n      sstore\n        /* \"#utility.yul\":18095:18288   */\n      pop\n        /* \"#utility.yul\":18019:18288   */\n      pop\n      pop\n      pop\n      jump\t// out\n        /* \"#utility.yul\":18294:18367   */\n    tag_204:\n        /* \"#utility.yul\":18339:18342   */\n      0x00\n        /* \"#utility.yul\":18294:18367   */\n      swap1\n      jump\t// out\n        /* \"#utility.yul\":18373:18562   */\n    tag_205:\n        /* \"#utility.yul\":18450:18482   */\n      tag_389\n      tag_204\n      jump\t// in\n    tag_389:\n        /* \"#utility.yul\":18491:18556   */\n      tag_390\n        /* \"#utility.yul\":18549:18555   */\n      dup2\n        /* \"#utility.yul\":18541:18547   */\n      dup5\n        /* \"#utility.yul\":18535:18539   */\n      dup5\n        /* \"#utility.yul\":18491:18556   */\n      tag_203\n      jump\t// in\n    tag_390:\n        /* \"#utility.yul\":18426:18562   */\n      pop\n        /* \"#utility.yul\":18373:18562   */\n      pop\n      pop\n      jump\t// out\n        /* \"#utility.yul\":18568:18754   */\n    tag_206:\n        /* \"#utility.yul\":18628:18748   */\n    tag_392:\n        /* \"#utility.yul\":18645:18648   */\n      dup2\n        /* \"#utility.yul\":18638:18643   */\n      dup2\n        /* \"#utility.yul\":18635:18649   */\n      lt\n        /* \"#utility.yul\":18628:18748   */\n      iszero\n      tag_394\n      jumpi\n        /* \"#utility.yul\":18699:18738   */\n      tag_395\n        /* \"#utility.yul\":18736:18737   */\n      0x00\n        /* \"#utility.yul\":18729:18734   */\n      dup3\n        /* \"#utility.yul\":18699:18738   */\n      tag_205\n      jump\t// in\n    tag_395:\n        /* \"#utility.yul\":18672:18673   */\n      0x01\n        /* \"#utility.yul\":18665:18670   */\n      dup2\n        /* \"#utility.yul\":18661:18674   */\n      add\n        /* \"#utility.yul\":18652:18674   */\n      swap1\n      pop\n        /* \"#utility.yul\":18628:18748   */\n      jump(tag_392)\n    tag_394:\n        /* \"#utility.yul\":18568:18754   */\n      pop\n      pop\n      jump\t// out\n        /* \"#utility.yul\":18760:19303   */\n    tag_207:\n        /* \"#utility.yul\":18861:18863   */\n      0x1f\n        /* \"#utility.yul\":18856:18859   */\n      dup3\n        /* \"#utility.yul\":18853:18864   */\n      gt\n        /* \"#utility.yul\":18850:19296   */\n      iszero\n      tag_397\n      jumpi\n        /* \"#utility.yul\":18895:18933   */\n      tag_398\n        /* \"#utility.yul\":18927:18932   */\n      dup2\n        /* \"#utility.yul\":18895:18933   */\n      tag_196\n      jump\t// in\n    tag_398:\n        /* \"#utility.yul\":18979:19008   */\n      tag_399\n        /* \"#utility.yul\":18997:19007   */\n      dup5\n        /* \"#utility.yul\":18979:19008   */\n      tag_197\n      jump\t// in\n    tag_399:\n        /* \"#utility.yul\":18969:18977   */\n      dup2\n        /* \"#utility.yul\":18965:19009   */\n      add\n        /* \"#utility.yul\":19162:19164   */\n      0x20\n        /* \"#utility.yul\":19150:19160   */\n      dup6\n        /* \"#utility.yul\":19147:19165   */\n      lt\n        /* \"#utility.yul\":19144:19193   */\n      iszero\n      tag_400\n      jumpi\n        /* \"#utility.yul\":19183:19191   */\n      dup2\n        /* \"#utility.yul\":19168:19191   */\n      swap1\n      pop\n        /* \"#utility.yul\":19144:19193   */\n    tag_400:\n        /* \"#utility.yul\":19206:19286   */\n      tag_401\n        /* \"#utility.yul\":19262:19284   */\n      tag_402\n        /* \"#utility.yul\":19280:19283   */\n      dup6\n        /* \"#utility.yul\":19262:19284   */\n      tag_197\n      jump\t// in\n    tag_402:\n        /* \"#utility.yul\":19252:19260   */\n      dup4\n        /* \"#utility.yul\":19248:19285   */\n      add\n        /* \"#utility.yul\":19235:19246   */\n      dup3\n        /* \"#utility.yul\":19206:19286   */\n      tag_206\n      jump\t// in\n    tag_401:\n        /* \"#utility.yul\":18865:19296   */\n      pop\n      pop\n        /* \"#utility.yul\":18850:19296   */\n    tag_397:\n        /* \"#utility.yul\":18760:19303   */\n      pop\n      pop\n      pop\n      jump\t// out\n        /* \"#utility.yul\":19309:19426   */\n    tag_208:\n        /* \"#utility.yul\":19363:19371   */\n      0x00\n        /* \"#utility.yul\":19413:19418   */\n      dup3\n        /* \"#utility.yul\":19407:19411   */\n      dup3\n        /* \"#utility.yul\":19403:19419   */\n      shr\n        /* \"#utility.yul\":19382:19419   */\n      swap1\n      pop\n        /* \"#utility.yul\":19309:19426   */\n      swap3\n      swap2\n      pop\n      pop\n      jump\t// out\n        /* \"#utility.yul\":19432:19601   */\n    tag_209:\n        /* \"#utility.yul\":19476:19482   */\n      0x00\n        /* \"#utility.yul\":19509:19560   */\n      tag_405\n        /* \"#utility.yul\":19557:19558   */\n      0x00\n        /* \"#utility.yul\":19553:19559   */\n      not\n        /* \"#utility.yul\":19545:19550   */\n      dup5\n        /* \"#utility.yul\":19542:19543   */\n      0x08\n        /* \"#utility.yul\":19538:19551   */\n      mul\n        /* \"#utility.yul\":19509:19560   */\n      tag_208\n      jump\t// in\n    tag_405:\n        /* \"#utility.yul\":19505:19561   */\n      not\n        /* \"#utility.yul\":19590:19594   */\n      dup1\n        /* \"#utility.yul\":19584:19588   */\n      dup4\n        /* \"#utility.yul\":19580:19595   */\n      and\n        /* \"#utility.yul\":19570:19595   */\n      swap2\n      pop\n        /* \"#utility.yul\":19483:19601   */\n      pop\n        /* \"#utility.yul\":19432:19601   */\n      swap3\n      swap2\n      pop\n      pop\n      jump\t// out\n        /* \"#utility.yul\":19606:19901   */\n    tag_210:\n        /* \"#utility.yul\":19682:19686   */\n      0x00\n        /* \"#utility.yul\":19828:19857   */\n      tag_407\n        /* \"#utility.yul\":19853:19856   */\n      dup4\n        /* \"#utility.yul\":19847:19851   */\n      dup4\n        /* \"#utility.yul\":19828:19857   */\n      tag_209\n      jump\t// in\n    tag_407:\n        /* \"#utility.yul\":19820:19857   */\n      swap2\n      pop\n        /* \"#utility.yul\":19890:19893   */\n      dup3\n        /* \"#utility.yul\":19887:19888   */\n      0x02\n        /* \"#utility.yul\":19883:19894   */\n      mul\n        /* \"#utility.yul\":19877:19881   */\n      dup3\n        /* \"#utility.yul\":19874:19895   */\n      or\n        /* \"#utility.yul\":19866:19895   */\n      swap1\n      pop\n        /* \"#utility.yul\":19606:19901   */\n      swap3\n      swap2\n      pop\n      pop\n      jump\t// out\n        /* \"#utility.yul\":19906:21301   */\n    tag_119:\n        /* \"#utility.yul\":20023:20060   */\n      tag_409\n        /* \"#utility.yul\":20056:20059   */\n      dup3\n        /* \"#utility.yul\":20023:20060   */\n      tag_160\n      jump\t// in\n    tag_409:\n        /* \"#utility.yul\":20125:20143   */\n      0xffffffffffffffff\n        /* \"#utility.yul\":20117:20123   */\n      dup2\n        /* \"#utility.yul\":20114:20144   */\n      gt\n        /* \"#utility.yul\":20111:20167   */\n      iszero\n      tag_410\n      jumpi\n        /* \"#utility.yul\":20147:20165   */\n      tag_411\n      tag_83\n      jump\t// in\n    tag_411:\n        /* \"#utility.yul\":20111:20167   */\n    tag_410:\n        /* \"#utility.yul\":20191:20229   */\n      tag_412\n        /* \"#utility.yul\":20223:20227   */\n      dup3\n        /* \"#utility.yul\":20217:20228   */\n      sload\n        /* \"#utility.yul\":20191:20229   */\n      tag_60\n      jump\t// in\n    tag_412:\n        /* \"#utility.yul\":20276:20343   */\n      tag_413\n        /* \"#utility.yul\":20336:20342   */\n      dup3\n        /* \"#utility.yul\":20328:20334   */\n      dup3\n        /* \"#utility.yul\":20322:20326   */\n      dup6\n        /* \"#utility.yul\":20276:20343   */\n      tag_207\n      jump\t// in\n    tag_413:\n        /* \"#utility.yul\":20370:20371   */\n      0x00\n        /* \"#utility.yul\":20394:20398   */\n      0x20\n        /* \"#utility.yul\":20381:20398   */\n      swap1\n      pop\n        /* \"#utility.yul\":20426:20428   */\n      0x1f\n        /* \"#utility.yul\":20418:20424   */\n      dup4\n        /* \"#utility.yul\":20415:20429   */\n      gt\n        /* \"#utility.yul\":20443:20444   */\n      0x01\n        /* \"#utility.yul\":20438:21056   */\n      dup2\n      eq\n      tag_415\n      jumpi\n        /* \"#utility.yul\":21100:21101   */\n      0x00\n        /* \"#utility.yul\":21117:21123   */\n      dup5\n        /* \"#utility.yul\":21114:21191   */\n      iszero\n      tag_416\n      jumpi\n        /* \"#utility.yul\":21166:21175   */\n      dup3\n        /* \"#utility.yul\":21161:21164   */\n      dup8\n        /* \"#utility.yul\":21157:21176   */\n      add\n        /* \"#utility.yul\":21151:21177   */\n      mload\n        /* \"#utility.yul\":21142:21177   */\n      swap1\n      pop\n        /* \"#utility.yul\":21114:21191   */\n    tag_416:\n        /* \"#utility.yul\":21217:21284   */\n      tag_417\n        /* \"#utility.yul\":21277:21283   */\n      dup6\n        /* \"#utility.yul\":21270:21275   */\n      dup3\n        /* \"#utility.yul\":21217:21284   */\n      tag_210\n      jump\t// in\n    tag_417:\n        /* \"#utility.yul\":21211:21215   */\n      dup7\n        /* \"#utility.yul\":21204:21285   */\n      sstore\n        /* \"#utility.yul\":21073:21295   */\n      pop\n        /* \"#utility.yul\":20408:21295   */\n      jump(tag_414)\n        /* \"#utility.yul\":20438:21056   */\n    tag_415:\n        /* \"#utility.yul\":20490:20494   */\n      0x1f\n        /* \"#utility.yul\":20486:20495   */\n      not\n        /* \"#utility.yul\":20478:20484   */\n      dup5\n        /* \"#utility.yul\":20474:20496   */\n      and\n        /* \"#utility.yul\":20524:20561   */\n      tag_418\n        /* \"#utility.yul\":20556:20560   */\n      dup7\n        /* \"#utility.yul\":20524:20561   */\n      tag_196\n      jump\t// in\n    tag_418:\n        /* \"#utility.yul\":20583:20584   */\n      0x00\n        /* \"#utility.yul\":20597:20805   */\n    tag_419:\n        /* \"#utility.yul\":20611:20618   */\n      dup3\n        /* \"#utility.yul\":20608:20609   */\n      dup2\n        /* \"#utility.yul\":20605:20619   */\n      lt\n        /* \"#utility.yul\":20597:20805   */\n      iszero\n      tag_421\n      jumpi\n        /* \"#utility.yul\":20690:20699   */\n      dup5\n        /* \"#utility.yul\":20685:20688   */\n      dup10\n        /* \"#utility.yul\":20681:20700   */\n      add\n        /* \"#utility.yul\":20675:20701   */\n      mload\n        /* \"#utility.yul\":20667:20673   */\n      dup3\n        /* \"#utility.yul\":20660:20702   */\n      sstore\n        /* \"#utility.yul\":20741:20742   */\n      0x01\n        /* \"#utility.yul\":20733:20739   */\n      dup3\n        /* \"#utility.yul\":20729:20743   */\n      add\n        /* \"#utility.yul\":20719:20743   */\n      swap2\n      pop\n        /* \"#utility.yul\":20788:20790   */\n      0x20\n        /* \"#utility.yul\":20777:20786   */\n      dup6\n        /* \"#utility.yul\":20773:20791   */\n      add\n        /* \"#utility.yul\":20760:20791   */\n      swap5\n      pop\n        /* \"#utility.yul\":20634:20638   */\n      0x20\n        /* \"#utility.yul\":20631:20632   */\n      dup2\n        /* \"#utility.yul\":20627:20639   */\n      add\n        /* \"#utility.yul\":20622:20639   */\n      swap1\n      pop\n        /* \"#utility.yul\":20597:20805   */\n      jump(tag_419)\n    tag_421:\n        /* \"#utility.yul\":20833:20839   */\n      dup7\n        /* \"#utility.yul\":20824:20831   */\n      dup4\n        /* \"#utility.yul\":20821:20840   */\n      lt\n        /* \"#utility.yul\":20818:20997   */\n      iszero\n      tag_422\n      jumpi\n        /* \"#utility.yul\":20891:20900   */\n      dup5\n        /* \"#utility.yul\":20886:20889   */\n      dup10\n        /* \"#utility.yul\":20882:20901   */\n      add\n        /* \"#utility.yul\":20876:20902   */\n      mload\n        /* \"#utility.yul\":20934:20982   */\n      tag_423\n        /* \"#utility.yul\":20976:20980   */\n      0x1f\n        /* \"#utility.yul\":20968:20974   */\n      dup10\n        /* \"#utility.yul\":20964:20981   */\n      and\n        /* \"#utility.yul\":20953:20962   */\n      dup3\n        /* \"#utility.yul\":20934:20982   */\n      tag_209\n      jump\t// in\n    tag_423:\n        /* \"#utility.yul\":20926:20932   */\n      dup4\n        /* \"#utility.yul\":20919:20983   */\n      sstore\n        /* \"#utility.yul\":20841:20997   */\n      pop\n        /* \"#utility.yul\":20818:20997   */\n    tag_422:\n        /* \"#utility.yul\":21043:21044   */\n      0x01\n        /* \"#utility.yul\":21039:21040   */\n      0x02\n        /* \"#utility.yul\":21031:21037   */\n      dup9\n        /* \"#utility.yul\":21027:21041   */\n      mul\n        /* \"#utility.yul\":21023:21045   */\n      add\n        /* \"#utility.yul\":21017:21021   */\n      dup9\n        /* \"#utility.yul\":21010:21046   */\n      sstore\n        /* \"#utility.yul\":20445:21056   */\n      pop\n      pop\n      pop\n        /* \"#utility.yul\":20408:21295   */\n    tag_414:\n      pop\n        /* \"#utility.yul\":19998:21301   */\n      pop\n      pop\n      pop\n        /* \"#utility.yul\":19906:21301   */\n      pop\n      pop\n      jump\t// out\n        /* \"#utility.yul\":21307:21684   */\n    tag_211:\n        /* \"#utility.yul\":21395:21398   */\n      0x00\n        /* \"#utility.yul\":21423:21462   */\n      tag_425\n        /* \"#utility.yul\":21456:21461   */\n      dup3\n        /* \"#utility.yul\":21423:21462   */\n      tag_160\n      jump\t// in\n    tag_425:\n        /* \"#utility.yul\":21478:21549   */\n      tag_426\n        /* \"#utility.yul\":21542:21548   */\n      dup2\n        /* \"#utility.yul\":21537:21540   */\n      dup6\n        /* \"#utility.yul\":21478:21549   */\n      tag_188\n      jump\t// in\n    tag_426:\n        /* \"#utility.yul\":21471:21549   */\n      swap4\n      pop\n        /* \"#utility.yul\":21558:21623   */\n      tag_427\n        /* \"#utility.yul\":21616:21622   */\n      dup2\n        /* \"#utility.yul\":21611:21614   */\n      dup6\n        /* \"#utility.yul\":21604:21608   */\n      0x20\n        /* \"#utility.yul\":21597:21602   */\n      dup7\n        /* \"#utility.yul\":21593:21609   */\n      add\n        /* \"#utility.yul\":21558:21623   */\n      tag_162\n      jump\t// in\n    tag_427:\n        /* \"#utility.yul\":21648:21677   */\n      tag_428\n        /* \"#utility.yul\":21670:21676   */\n      dup2\n        /* \"#utility.yul\":21648:21677   */\n      tag_163\n      jump\t// in\n    tag_428:\n        /* \"#utility.yul\":21643:21646   */\n      dup5\n        /* \"#utility.yul\":21639:21678   */\n      add\n        /* \"#utility.yul\":21632:21678   */\n      swap2\n      pop\n        /* \"#utility.yul\":21399:21684   */\n      pop\n        /* \"#utility.yul\":21307:21684   */\n      swap3\n      swap2\n      pop\n      pop\n      jump\t// out\n        /* \"#utility.yul\":21690:22334   */\n    tag_122:\n        /* \"#utility.yul\":21887:21891   */\n      0x00\n        /* \"#utility.yul\":21925:21928   */\n      0x80\n        /* \"#utility.yul\":21914:21923   */\n      dup3\n        /* \"#utility.yul\":21910:21929   */\n      add\n        /* \"#utility.yul\":21902:21929   */\n      swap1\n      pop\n        /* \"#utility.yul\":21939:22010   */\n      tag_430\n        /* \"#utility.yul\":22007:22008   */\n      0x00\n        /* \"#utility.yul\":21996:22005   */\n      dup4\n        /* \"#utility.yul\":21992:22009   */\n      add\n        /* \"#utility.yul\":21983:21989   */\n      dup8\n        /* \"#utility.yul\":21939:22010   */\n      tag_173\n      jump\t// in\n    tag_430:\n        /* \"#utility.yul\":22020:22092   */\n      tag_431\n        /* \"#utility.yul\":22088:22090   */\n      0x20\n        /* \"#utility.yul\":22077:22086   */\n      dup4\n        /* \"#utility.yul\":22073:22091   */\n      add\n        /* \"#utility.yul\":22064:22070   */\n      dup7\n        /* \"#utility.yul\":22020:22092   */\n      tag_186\n      jump\t// in\n    tag_431:\n        /* \"#utility.yul\":22139:22148   */\n      dup2\n        /* \"#utility.yul\":22133:22137   */\n      dup2\n        /* \"#utility.yul\":22129:22149   */\n      sub\n        /* \"#utility.yul\":22124:22126   */\n      0x40\n        /* \"#utility.yul\":22113:22122   */\n      dup4\n        /* \"#utility.yul\":22109:22127   */\n      add\n        /* \"#utility.yul\":22102:22150   */\n      mstore\n        /* \"#utility.yul\":22167:22245   */\n      tag_432\n        /* \"#utility.yul\":22240:22244   */\n      dup2\n        /* \"#utility.yul\":22231:22237   */\n      dup6\n        /* \"#utility.yul\":22167:22245   */\n      tag_211\n      jump\t// in\n    tag_432:\n        /* \"#utility.yul\":22159:22245   */\n      swap1\n      pop\n        /* \"#utility.yul\":22255:22327   */\n      tag_433\n        /* \"#utility.yul\":22323:22325   */\n      0x60\n        /* \"#utility.yul\":22312:22321   */\n      dup4\n        /* \"#utility.yul\":22308:22326   */\n      add\n        /* \"#utility.yul\":22299:22305   */\n      dup5\n        /* \"#utility.yul\":22255:22327   */\n      tag_173\n      jump\t// in\n    tag_433:\n        /* \"#utility.yul\":21690:22334   */\n      swap6\n      swap5\n      pop\n      pop\n      pop\n      pop\n      pop\n      jump\t// out\n        /* \"#utility.yul\":22340:22503   */\n    tag_212:\n        /* \"#utility.yul\":22480:22495   */\n      0x4e6f74206c696b65642079657400000000000000000000000000000000000000\n        /* \"#utility.yul\":22476:22477   */\n      0x00\n        /* \"#utility.yul\":22468:22474   */\n      dup3\n        /* \"#utility.yul\":22464:22478   */\n      add\n        /* \"#utility.yul\":22457:22496   */\n      mstore\n        /* \"#utility.yul\":22340:22503   */\n      pop\n      jump\t// out\n        /* \"#utility.yul\":22509:22875   */\n    tag_213:\n        /* \"#utility.yul\":22651:22654   */\n      0x00\n        /* \"#utility.yul\":22672:22739   */\n      tag_436\n        /* \"#utility.yul\":22736:22738   */\n      0x0d\n        /* \"#utility.yul\":22731:22734   */\n      dup4\n        /* \"#utility.yul\":22672:22739   */\n      tag_188\n      jump\t// in\n    tag_436:\n        /* \"#utility.yul\":22665:22739   */\n      swap2\n      pop\n        /* \"#utility.yul\":22748:22841   */\n      tag_437\n        /* \"#utility.yul\":22837:22840   */\n      dup3\n        /* \"#utility.yul\":22748:22841   */\n      tag_212\n      jump\t// in\n    tag_437:\n        /* \"#utility.yul\":22866:22868   */\n      0x20\n        /* \"#utility.yul\":22861:22864   */\n      dup3\n        /* \"#utility.yul\":22857:22869   */\n      add\n        /* \"#utility.yul\":22850:22869   */\n      swap1\n      pop\n        /* \"#utility.yul\":22509:22875   */\n      swap2\n      swap1\n      pop\n      jump\t// out\n        /* \"#utility.yul\":22881:23300   */\n    tag_131:\n        /* \"#utility.yul\":23047:23051   */\n      0x00\n        /* \"#utility.yul\":23085:23087   */\n      0x20\n        /* \"#utility.yul\":23074:23083   */\n      dup3\n        /* \"#utility.yul\":23070:23088   */\n      add\n        /* \"#utility.yul\":23062:23088   */\n      swap1\n      pop\n        /* \"#utility.yul\":23134:23143   */\n      dup2\n        /* \"#utility.yul\":23128:23132   */\n      dup2\n        /* \"#utility.yul\":23124:23144   */\n      sub\n        /* \"#utility.yul\":23120:23121   */\n      0x00\n        /* \"#utility.yul\":23109:23118   */\n      dup4\n        /* \"#utility.yul\":23105:23122   */\n      add\n        /* \"#utility.yul\":23098:23145   */\n      mstore\n        /* \"#utility.yul\":23162:23293   */\n      tag_439\n        /* \"#utility.yul\":23288:23292   */\n      dup2\n        /* \"#utility.yul\":23162:23293   */\n      tag_213\n      jump\t// in\n    tag_439:\n        /* \"#utility.yul\":23154:23293   */\n      swap1\n      pop\n        /* \"#utility.yul\":22881:23300   */\n      swap2\n      swap1\n      pop\n      jump\t// out\n        /* \"#utility.yul\":23306:23477   */\n    tag_133:\n        /* \"#utility.yul\":23345:23348   */\n      0x00\n        /* \"#utility.yul\":23368:23392   */\n      tag_441\n        /* \"#utility.yul\":23386:23391   */\n      dup3\n        /* \"#utility.yul\":23368:23392   */\n      tag_155\n      jump\t// in\n    tag_441:\n        /* \"#utility.yul\":23359:23392   */\n      swap2\n      pop\n        /* \"#utility.yul\":23414:23418   */\n      0x00\n        /* \"#utility.yul\":23407:23412   */\n      dup3\n        /* \"#utility.yul\":23404:23419   */\n      sub\n        /* \"#utility.yul\":23401:23442   */\n      tag_442\n      jumpi\n        /* \"#utility.yul\":23422:23440   */\n      tag_443\n      tag_195\n      jump\t// in\n    tag_443:\n        /* \"#utility.yul\":23401:23442   */\n    tag_442:\n        /* \"#utility.yul\":23469:23470   */\n      0x01\n        /* \"#utility.yul\":23462:23467   */\n      dup3\n        /* \"#utility.yul\":23458:23471   */\n      sub\n        /* \"#utility.yul\":23451:23471   */\n      swap1\n      pop\n        /* \"#utility.yul\":23306:23477   */\n      swap2\n      swap1\n      pop\n      jump\t// out\n        /* \"#utility.yul\":23483:24036   */\n    tag_135:\n        /* \"#utility.yul\":23660:23664   */\n      0x00\n        /* \"#utility.yul\":23698:23701   */\n      0x80\n        /* \"#utility.yul\":23687:23696   */\n      dup3\n        /* \"#utility.yul\":23683:23702   */\n      add\n        /* \"#utility.yul\":23675:23702   */\n      swap1\n      pop\n        /* \"#utility.yul\":23712:23783   */\n      tag_445\n        /* \"#utility.yul\":23780:23781   */\n      0x00\n        /* \"#utility.yul\":23769:23778   */\n      dup4\n        /* \"#utility.yul\":23765:23782   */\n      add\n        /* \"#utility.yul\":23756:23762   */\n      dup8\n        /* \"#utility.yul\":23712:23783   */\n      tag_186\n      jump\t// in\n    tag_445:\n        /* \"#utility.yul\":23793:23865   */\n      tag_446\n        /* \"#utility.yul\":23861:23863   */\n      0x20\n        /* \"#utility.yul\":23850:23859   */\n      dup4\n        /* \"#utility.yul\":23846:23864   */\n      add\n        /* \"#utility.yul\":23837:23843   */\n      dup7\n        /* \"#utility.yul\":23793:23865   */\n      tag_173\n      jump\t// in\n    tag_446:\n        /* \"#utility.yul\":23875:23947   */\n      tag_447\n        /* \"#utility.yul\":23943:23945   */\n      0x40\n        /* \"#utility.yul\":23932:23941   */\n      dup4\n        /* \"#utility.yul\":23928:23946   */\n      add\n        /* \"#utility.yul\":23919:23925   */\n      dup6\n        /* \"#utility.yul\":23875:23947   */\n      tag_186\n      jump\t// in\n    tag_447:\n        /* \"#utility.yul\":23957:24029   */\n      tag_448\n        /* \"#utility.yul\":24025:24027   */\n      0x60\n        /* \"#utility.yul\":24014:24023   */\n      dup4\n        /* \"#utility.yul\":24010:24028   */\n      add\n        /* \"#utility.yul\":24001:24007   */\n      dup5\n        /* \"#utility.yul\":23957:24029   */\n      tag_173\n      jump\t// in\n    tag_448:\n        /* \"#utility.yul\":23483:24036   */\n      swap6\n      swap5\n      pop\n      pop\n      pop\n      pop\n      pop\n      jump\t// out\n        /* \"#utility.yul\":24042:24205   */\n    tag_214:\n        /* \"#utility.yul\":24182:24197   */\n      0x416c7265616479206c696b656400000000000000000000000000000000000000\n        /* \"#utility.yul\":24178:24179   */\n      0x00\n        /* \"#utility.yul\":24170:24176   */\n      dup3\n        /* \"#utility.yul\":24166:24180   */\n      add\n        /* \"#utility.yul\":24159:24198   */\n      mstore\n        /* \"#utility.yul\":24042:24205   */\n      pop\n      jump\t// out\n        /* \"#utility.yul\":24211:24577   */\n    tag_215:\n        /* \"#utility.yul\":24353:24356   */\n      0x00\n        /* \"#utility.yul\":24374:24441   */\n      tag_451\n        /* \"#utility.yul\":24438:24440   */\n      0x0d\n        /* \"#utility.yul\":24433:24436   */\n      dup4\n        /* \"#utility.yul\":24374:24441   */\n      tag_188\n      jump\t// in\n    tag_451:\n        /* \"#utility.yul\":24367:24441   */\n      swap2\n      pop\n        /* \"#utility.yul\":24450:24543   */\n      tag_452\n        /* \"#utility.yul\":24539:24542   */\n      dup3\n        /* \"#utility.yul\":24450:24543   */\n      tag_214\n      jump\t// in\n    tag_452:\n        /* \"#utility.yul\":24568:24570   */\n      0x20\n        /* \"#utility.yul\":24563:24566   */\n      dup3\n        /* \"#utility.yul\":24559:24571   */\n      add\n        /* \"#utility.yul\":24552:24571   */\n      swap1\n      pop\n        /* \"#utility.yul\":24211:24577   */\n      swap2\n      swap1\n      pop\n      jump\t// out\n        /* \"#utility.yul\":24583:25002   */\n    tag_144:\n        /* \"#utility.yul\":24749:24753   */\n      0x00\n        /* \"#utility.yul\":24787:24789   */\n      0x20\n        /* \"#utility.yul\":24776:24785   */\n      dup3\n        /* \"#utility.yul\":24772:24790   */\n      add\n        /* \"#utility.yul\":24764:24790   */\n      swap1\n      pop\n        /* \"#utility.yul\":24836:24845   */\n      dup2\n        /* \"#utility.yul\":24830:24834   */\n      dup2\n        /* \"#utility.yul\":24826:24846   */\n      sub\n        /* \"#utility.yul\":24822:24823   */\n      0x00\n        /* \"#utility.yul\":24811:24820   */\n      dup4\n        /* \"#utility.yul\":24807:24824   */\n      add\n        /* \"#utility.yul\":24800:24847   */\n      mstore\n        /* \"#utility.yul\":24864:24995   */\n      tag_454\n        /* \"#utility.yul\":24990:24994   */\n      dup2\n        /* \"#utility.yul\":24864:24995   */\n      tag_215\n      jump\t// in\n    tag_454:\n        /* \"#utility.yul\":24856:24995   */\n      swap1\n      pop\n        /* \"#utility.yul\":24583:25002   */\n      swap2\n      swap1\n      pop\n      jump\t// out\n        /* \"#utility.yul\":25008:25241   */\n    tag_146:\n        /* \"#utility.yul\":25047:25050   */\n      0x00\n        /* \"#utility.yul\":25070:25094   */\n      tag_456\n        /* \"#utility.yul\":25088:25093   */\n      dup3\n        /* \"#utility.yul\":25070:25094   */\n      tag_155\n      jump\t// in\n    tag_456:\n        /* \"#utility.yul\":25061:25094   */\n      swap2\n      pop\n        /* \"#utility.yul\":25116:25182   */\n      0xffffffffffffffffffffffffffffffffffffffffffffffffffffffffffffffff\n        /* \"#utility.yul\":25109:25114   */\n      dup3\n        /* \"#utility.yul\":25106:25183   */\n      sub\n        /* \"#utility.yul\":25103:25206   */\n      tag_457\n      jumpi\n        /* \"#utility.yul\":25186:25204   */\n      tag_458\n      tag_195\n      jump\t// in\n    tag_458:\n        /* \"#utility.yul\":25103:25206   */\n    tag_457:\n        /* \"#utility.yul\":25233:25234   */\n      0x01\n        /* \"#utility.yul\":25226:25231   */\n      dup3\n        /* \"#utility.yul\":25222:25235   */\n      add\n        /* \"#utility.yul\":25215:25235   */\n      swap1\n      pop\n        /* \"#utility.yul\":25008:25241   */\n      swap2\n      swap1\n      pop\n      jump\t// out\n\n    auxdata: 0xa2646970667358221220cbcefc0d288a9fd8dfb1de3bb1fa83be77e4ab7e154a1803e0ba34743fd3bfed64736f6c63430008190033\n}\n",
				"bytecode": {
					"linkReferences": {},
					"object": "608060405261011860015f6101000a81548161ffff021916908361ffff160217905550348015602c575f80fd5b5033600160026101000a81548173ffffffffffffffffffffffffffffffffffffffff021916908373ffffffffffffffffffffffffffffffffffffffff160217905550611c7e8061007b5f395ff3fe608060405234801561000f575f80fd5b506004361061009c575f3560e01c80636eb10797116100645780636eb107971461017c5780637c9cd2bc1461019a5780638da5cb5b146101b6578063b0ee502f146101d4578063e4626c8f146101f05761009c565b806305a1b4a9146100a0578063112f54e3146100d057806312e7ee1c14610100578063274ee23f1461013057806358bfa4ab14610160575b5f80fd5b6100ba60048036038101906100b59190611082565b61020c565b6040516100c791906111c1565b60405180910390f35b6100ea60048036038101906100e59190611082565b61034b565b6040516100f791906111c1565b60405180910390f35b61011a600480360381019061011591906111e1565b610545565b604051610127919061133a565b60405180910390f35b61014a60048036038101906101459190611082565b61078a565b6040516101579190611369565b60405180910390f35b61017a600480360381019061017591906113b9565b610874565b005b610184610923565b60405161019191906113f3565b60405180910390f35b6101b460048036038101906101af9190611538565b610936565b005b6101be610b37565b6040516101cb919061158e565b60405180910390f35b6101ee60048036038101906101e99190611082565b610b5d565b005b61020a60048036038101906102059190611082565b610d7f565b005b5f602052815f5260405f208181548110610224575f80fd5b905f5260205f2090600602015f9150915050805f016040518060a00160405290815f8201548152602001600182015f9054906101000a900473ffffffffffffffffffffffffffffffffffffffff1673ffffffffffffffffffffffffffffffffffffffff1673ffffffffffffffffffffffffffffffffffffffff1681526020016002820180546102b2906115d4565b80601f01602080910402602001604051908101604052809291908181526020018280546102de906115d4565b80156103295780601f1061030057610100808354040283529160200191610329565b820191905f5260205f20905b81548152906001019060200180831161030c57829003601f168201915b5050505050815260200160038201548152602001600482015481525050905081565b610353610fa3565b815f808573ffffffffffffffffffffffffffffffffffffffff1673ffffffffffffffffffffffffffffffffffffffff1681526020019081526020015f2080549050116103d4576040517f08c379a00000000000000000000000000000000000000000000000000000000081526004016103cb9061165e565b60405180910390fd5b5f808473ffffffffffffffffffffffffffffffffffffffff1673ffffffffffffffffffffffffffffffffffffffff1681526020019081526020015f2082815481106104225761042161167c565b5b905f5260205f2090600602015f016040518060a00160405290815f8201548152602001600182015f9054906101000a900473ffffffffffffffffffffffffffffffffffffffff1673ffffffffffffffffffffffffffffffffffffffff1673ffffffffffffffffffffffffffffffffffffffff1681526020016002820180546104a9906115d4565b80601f01602080910402602001604051908101604052809291908181526020018280546104d5906115d4565b80156105205780601f106104f757610100808354040283529160200191610520565b820191905f5260205f20905b81548152906001019060200180831161050357829003601f168201915b5050505050815260200160038201548152602001600482015481525050905092915050565b60605f805f8473ffffffffffffffffffffffffffffffffffffffff1673ffffffffffffffffffffffffffffffffffffffff1681526020019081526020015f208054905090505f8167ffffffffffffffff8111156105a5576105a4611414565b5b6040519080825280602002602001820160405280156105de57816020015b6105cb610fa3565b8152602001906001900390816105c35790505b5090505f5b8281101561077f575f808673ffffffffffffffffffffffffffffffffffffffff1673ffffffffffffffffffffffffffffffffffffffff1681526020019081526020015f2081815481106106395761063861167c565b5b905f5260205f2090600602015f016040518060a00160405290815f8201548152602001600182015f9054906101000a900473ffffffffffffffffffffffffffffffffffffffff1673ffffffffffffffffffffffffffffffffffffffff1673ffffffffffffffffffffffffffffffffffffffff1681526020016002820180546106c0906115d4565b80601f01602080910402602001604051908101604052809291908181526020018280546106ec906115d4565b80156107375780601f1061070e57610100808354040283529160200191610737565b820191905f5260205f20905b81548152906001019060200180831161071a57829003601f168201915b50505050508152602001600382015481526020016004820154815250508282815181106107675761076661167c565b5b602002602001018190525080806001019150506105e3565b508092505050919050565b5f815f808573ffffffffffffffffffffffffffffffffffffffff1673ffffffffffffffffffffffffffffffffffffffff1681526020019081526020015f20805490501161080c576040517f08c379a00000000000000000000000000000000000000000000000000000000081526004016108039061165e565b60405180910390fd5b5f808473ffffffffffffffffffffffffffffffffffffffff1673ffffffffffffffffffffffffffffffffffffffff1681526020019081526020015f20828154811061085a5761085961167c565b5b905f5260205f2090600602015f0160040154905092915050565b600160029054906101000a900473ffffffffffffffffffffffffffffffffffffffff1673ffffffffffffffffffffffffffffffffffffffff163373ffffffffffffffffffffffffffffffffffffffff1614610904576040517f08c379a00000000000000000000000000000000000000000000000000000000081526004016108fb906116f3565b60405180910390fd5b8060015f6101000a81548161ffff021916908361ffff16021790555050565b60015f9054906101000a900461ffff1681565b60015f9054906101000a900461ffff1661ffff168151111561098d576040517f08c379a00000000000000000000000000000000000000000000000000000000081526004016109849061175b565b60405180910390fd5b5f805f3373ffffffffffffffffffffffffffffffffffffffff1673ffffffffffffffffffffffffffffffffffffffff1681526020019081526020015f2060018160018154018082558091505003905f5260205f209060060201905060015f803373ffffffffffffffffffffffffffffffffffffffff1673ffffffffffffffffffffffffffffffffffffffff1681526020019081526020015f2080549050610a3491906117a6565b815f015f018190555033815f016001015f6101000a81548173ffffffffffffffffffffffffffffffffffffffff021916908373ffffffffffffffffffffffffffffffffffffffff16021790555081815f016002019081610a949190611976565b5042815f01600301819055505f815f01600401819055507f8ecbe5a52270eab83ce1dada3c2969eca41c568702b97f104f69709999e1966160015f803373ffffffffffffffffffffffffffffffffffffffff1673ffffffffffffffffffffffffffffffffffffffff1681526020019081526020015f2080549050610b1891906117a6565b338442604051610b2b9493929190611a7d565b60405180910390a15050565b600160029054906101000a900473ffffffffffffffffffffffffffffffffffffffff1681565b805f808473ffffffffffffffffffffffffffffffffffffffff1673ffffffffffffffffffffffffffffffffffffffff1681526020019081526020015f208054905011610bde576040517f08c379a0000000000000000000000000000000000000000000000000000000008152600401610bd59061165e565b60405180910390fd5b5f805f8473ffffffffffffffffffffffffffffffffffffffff1673ffffffffffffffffffffffffffffffffffffffff1681526020019081526020015f208281548110610c2d57610c2c61167c565b5b905f5260205f2090600602019050806005015f3373ffffffffffffffffffffffffffffffffffffffff1673ffffffffffffffffffffffffffffffffffffffff1681526020019081526020015f205f9054906101000a900460ff16610cc6576040517f08c379a0000000000000000000000000000000000000000000000000000000008152600401610cbd90611b11565b60405180910390fd5b5f816005015f3373ffffffffffffffffffffffffffffffffffffffff1673ffffffffffffffffffffffffffffffffffffffff1681526020019081526020015f205f6101000a81548160ff021916908315150217905550805f016004015f815480929190610d3290611b2f565b91905055507f820418adbac9cc0ec3ca34ecd4ea5d7cd9f5416b1d2a5252f65f2cd524350f66338385845f0160040154604051610d729493929190611b56565b60405180910390a1505050565b805f808473ffffffffffffffffffffffffffffffffffffffff1673ffffffffffffffffffffffffffffffffffffffff1681526020019081526020015f208054905011610e00576040517f08c379a0000000000000000000000000000000000000000000000000000000008152600401610df79061165e565b60405180910390fd5b5f805f8473ffffffffffffffffffffffffffffffffffffffff1673ffffffffffffffffffffffffffffffffffffffff1681526020019081526020015f208281548110610e4f57610e4e61167c565b5b905f5260205f2090600602019050806005015f3373ffffffffffffffffffffffffffffffffffffffff1673ffffffffffffffffffffffffffffffffffffffff1681526020019081526020015f205f9054906101000a900460ff1615610ee9576040517f08c379a0000000000000000000000000000000000000000000000000000000008152600401610ee090611be3565b60405180910390fd5b6001816005015f3373ffffffffffffffffffffffffffffffffffffffff1673ffffffffffffffffffffffffffffffffffffffff1681526020019081526020015f205f6101000a81548160ff021916908315150217905550805f016004015f815480929190610f5690611c01565b91905055507f2eb9d95535b337ee238c3d5d4e7ff7ef74428985303b90f0e029b2c3fbb6d6fb338385845f0160040154604051610f969493929190611b56565b60405180910390a1505050565b6040518060a001604052805f81526020015f73ffffffffffffffffffffffffffffffffffffffff168152602001606081526020015f81526020015f81525090565b5f604051905090565b5f80fd5b5f80fd5b5f73ffffffffffffffffffffffffffffffffffffffff82169050919050565b5f61101e82610ff5565b9050919050565b61102e81611014565b8114611038575f80fd5b50565b5f8135905061104981611025565b92915050565b5f819050919050565b6110618161104f565b811461106b575f80fd5b50565b5f8135905061107c81611058565b92915050565b5f806040838503121561109857611097610fed565b5b5f6110a58582860161103b565b92505060206110b68582860161106e565b9150509250929050565b6110c98161104f565b82525050565b6110d881611014565b82525050565b5f81519050919050565b5f82825260208201905092915050565b8281835e5f83830152505050565b5f601f19601f8301169050919050565b5f611120826110de565b61112a81856110e8565b935061113a8185602086016110f8565b61114381611106565b840191505092915050565b5f60a083015f8301516111635f8601826110c0565b50602083015161117660208601826110cf565b506040830151848203604086015261118e8282611116565b91505060608301516111a360608601826110c0565b5060808301516111b660808601826110c0565b508091505092915050565b5f6020820190508181035f8301526111d9818461114e565b905092915050565b5f602082840312156111f6576111f5610fed565b5b5f6112038482850161103b565b91505092915050565b5f81519050919050565b5f82825260208201905092915050565b5f819050602082019050919050565b5f60a083015f83015161124a5f8601826110c0565b50602083015161125d60208601826110cf565b50604083015184820360408601526112758282611116565b915050606083015161128a60608601826110c0565b50608083015161129d60808601826110c0565b508091505092915050565b5f6112b38383611235565b905092915050565b5f602082019050919050565b5f6112d18261120c565b6112db8185611216565b9350836020820285016112ed85611226565b805f5b85811015611328578484038952815161130985826112a8565b9450611314836112bb565b925060208a019950506001810190506112f0565b50829750879550505050505092915050565b5f6020820190508181035f83015261135281846112c7565b905092915050565b6113638161104f565b82525050565b5f60208201905061137c5f83018461135a565b92915050565b5f61ffff82169050919050565b61139881611382565b81146113a2575f80fd5b50565b5f813590506113b38161138f565b92915050565b5f602082840312156113ce576113cd610fed565b5b5f6113db848285016113a5565b91505092915050565b6113ed81611382565b82525050565b5f6020820190506114065f8301846113e4565b92915050565b5f80fd5b5f80fd5b7f4e487b71000000000000000000000000000000000000000000000000000000005f52604160045260245ffd5b61144a82611106565b810181811067ffffffffffffffff8211171561146957611468611414565b5b80604052505050565b5f61147b610fe4565b90506114878282611441565b919050565b5f67ffffffffffffffff8211156114a6576114a5611414565b5b6114af82611106565b9050602081019050919050565b828183375f83830152505050565b5f6114dc6114d78461148c565b611472565b9050828152602081018484840111156114f8576114f7611410565b5b6115038482856114bc565b509392505050565b5f82601f83011261151f5761151e61140c565b5b813561152f8482602086016114ca565b91505092915050565b5f6020828403121561154d5761154c610fed565b5b5f82013567ffffffffffffffff81111561156a57611569610ff1565b5b6115768482850161150b565b91505092915050565b61158881611014565b82525050565b5f6020820190506115a15f83018461157f565b92915050565b7f4e487b71000000000000000000000000000000000000000000000000000000005f52602260045260245ffd5b5f60028204905060018216806115eb57607f821691505b6020821081036115fe576115fd6115a7565b5b50919050565b5f82825260208201905092915050565b7f547765657420646f65736e2774206578697374000000000000000000000000005f82015250565b5f611648601383611604565b915061165382611614565b602082019050919050565b5f6020820190508181035f8301526116758161163c565b9050919050565b7f4e487b71000000000000000000000000000000000000000000000000000000005f52603260045260245ffd5b7f596f7520617265206e6f7420746865206f776e657200000000000000000000005f82015250565b5f6116dd601583611604565b91506116e8826116a9565b602082019050919050565b5f6020820190508181035f83015261170a816116d1565b9050919050565b7f547765657420746f6f206c6f6e670000000000000000000000000000000000005f82015250565b5f611745600e83611604565b915061175082611711565b602082019050919050565b5f6020820190508181035f83015261177281611739565b9050919050565b7f4e487b71000000000000000000000000000000000000000000000000000000005f52601160045260245ffd5b5f6117b08261104f565b91506117bb8361104f565b92508282039050818111156117d3576117d2611779565b5b92915050565b5f819050815f5260205f209050919050565b5f6020601f8301049050919050565b5f82821b905092915050565b5f600883026118357fffffffffffffffffffffffffffffffffffffffffffffffffffffffffffffffff826117fa565b61183f86836117fa565b95508019841693508086168417925050509392505050565b5f819050919050565b5f61187a6118756118708461104f565b611857565b61104f565b9050919050565b5f819050919050565b61189383611860565b6118a761189f82611881565b848454611806565b825550505050565b5f90565b6118bb6118af565b6118c681848461188a565b505050565b5b818110156118e9576118de5f826118b3565b6001810190506118cc565b5050565b601f82111561192e576118ff816117d9565b611908846117eb565b81016020851015611917578190505b61192b611923856117eb565b8301826118cb565b50505b505050565b5f82821c905092915050565b5f61194e5f1984600802611933565b1980831691505092915050565b5f611966838361193f565b9150826002028217905092915050565b61197f826110de565b67ffffffffffffffff81111561199857611997611414565b5b6119a282546115d4565b6119ad8282856118ed565b5f60209050601f8311600181146119de575f84156119cc578287015190505b6119d6858261195b565b865550611a3d565b601f1984166119ec866117d9565b5f5b82811015611a13578489015182556001820191506020850194506020810190506119ee565b86831015611a305784890151611a2c601f89168261193f565b8355505b6001600288020188555050505b505050505050565b5f611a4f826110de565b611a598185611604565b9350611a698185602086016110f8565b611a7281611106565b840191505092915050565b5f608082019050611a905f83018761135a565b611a9d602083018661157f565b8181036040830152611aaf8185611a45565b9050611abe606083018461135a565b95945050505050565b7f4e6f74206c696b656420796574000000000000000000000000000000000000005f82015250565b5f611afb600d83611604565b9150611b0682611ac7565b602082019050919050565b5f6020820190508181035f830152611b2881611aef565b9050919050565b5f611b398261104f565b91505f8203611b4b57611b4a611779565b5b600182039050919050565b5f608082019050611b695f83018761157f565b611b76602083018661135a565b611b83604083018561157f565b611b90606083018461135a565b95945050505050565b7f416c7265616479206c696b6564000000000000000000000000000000000000005f82015250565b5f611bcd600d83611604565b9150611bd882611b99565b602082019050919050565b5f6020820190508181035f830152611bfa81611bc1565b9050919050565b5f611c0b8261104f565b91507fffffffffffffffffffffffffffffffffffffffffffffffffffffffffffffffff8203611c3d57611c3c611779565b5b60018201905091905056fea2646970667358221220cbcefc0d288a9fd8dfb1de3bb1fa83be77e4ab7e154a1803e0ba34743fd3bfed64736f6c63430008190033",
					"opcodes": "PUSH1 0x80 PUSH1 0x40 MSTORE PUSH2 0x118 PUSH1 0x1 PUSH0 PUSH2 0x100 EXP DUP2 SLOAD DUP2 PUSH2 0xFFFF MUL NOT AND SWAP1 DUP4 PUSH2 0xFFFF AND MUL OR SWAP1 SSTORE POP CALLVALUE DUP1 ISZERO PUSH1 0x2C JUMPI PUSH0 DUP1 REVERT JUMPDEST POP CALLER PUSH1 0x1 PUSH1 0x2 PUSH2 0x100 EXP DUP2 SLOAD DUP2 PUSH20 0xFFFFFFFFFFFFFFFFFFFFFFFFFFFFFFFFFFFFFFFF MUL NOT AND SWAP1 DUP4 PUSH20 0xFFFFFFFFFFFFFFFFFFFFFFFFFFFFFFFFFFFFFFFF AND MUL OR SWAP1 SSTORE POP PUSH2 0x1C7E DUP1 PUSH2 0x7B PUSH0 CODECOPY PUSH0 RETURN INVALID PUSH1 0x80 PUSH1 0x40 MSTORE CALLVALUE DUP1 ISZERO PUSH2 0xF JUMPI PUSH0 DUP1 REVERT JUMPDEST POP PUSH1 0x4 CALLDATASIZE LT PUSH2 0x9C JUMPI PUSH0 CALLDATALOAD PUSH1 0xE0 SHR DUP1 PUSH4 0x6EB10797 GT PUSH2 0x64 JUMPI DUP1 PUSH4 0x6EB10797 EQ PUSH2 0x17C JUMPI DUP1 PUSH4 0x7C9CD2BC EQ PUSH2 0x19A JUMPI DUP1 PUSH4 0x8DA5CB5B EQ PUSH2 0x1B6 JUMPI DUP1 PUSH4 0xB0EE502F EQ PUSH2 0x1D4 JUMPI DUP1 PUSH4 0xE4626C8F EQ PUSH2 0x1F0 JUMPI PUSH2 0x9C JUMP JUMPDEST DUP1 PUSH4 0x5A1B4A9 EQ PUSH2 0xA0 JUMPI DUP1 PUSH4 0x112F54E3 EQ PUSH2 0xD0 JUMPI DUP1 PUSH4 0x12E7EE1C EQ PUSH2 0x100 JUMPI DUP1 PUSH4 0x274EE23F EQ PUSH2 0x130 JUMPI DUP1 PUSH4 0x58BFA4AB EQ PUSH2 0x160 JUMPI JUMPDEST PUSH0 DUP1 REVERT JUMPDEST PUSH2 0xBA PUSH1 0x4 DUP1 CALLDATASIZE SUB DUP2 ADD SWAP1 PUSH2 0xB5 SWAP2 SWAP1 PUSH2 0x1082 JUMP JUMPDEST PUSH2 0x20C JUMP JUMPDEST PUSH1 0x40 MLOAD PUSH2 0xC7 SWAP2 SWAP1 PUSH2 0x11C1 JUMP JUMPDEST PUSH1 0x40 MLOAD DUP1 SWAP2 SUB SWAP1 RETURN JUMPDEST PUSH2 0xEA PUSH1 0x4 DUP1 CALLDATASIZE SUB DUP2 ADD SWAP1 PUSH2 0xE5 SWAP2 SWAP1 PUSH2 0x1082 JUMP JUMPDEST PUSH2 0x34B JUMP JUMPDEST PUSH1 0x40 MLOAD PUSH2 0xF7 SWAP2 SWAP1 PUSH2 0x11C1 JUMP JUMPDEST PUSH1 0x40 MLOAD DUP1 SWAP2 SUB SWAP1 RETURN JUMPDEST PUSH2 0x11A PUSH1 0x4 DUP1 CALLDATASIZE SUB DUP2 ADD SWAP1 PUSH2 0x115 SWAP2 SWAP1 PUSH2 0x11E1 JUMP JUMPDEST PUSH2 0x545 JUMP JUMPDEST PUSH1 0x40 MLOAD PUSH2 0x127 SWAP2 SWAP1 PUSH2 0x133A JUMP JUMPDEST PUSH1 0x40 MLOAD DUP1 SWAP2 SUB SWAP1 RETURN JUMPDEST PUSH2 0x14A PUSH1 0x4 DUP1 CALLDATASIZE SUB DUP2 ADD SWAP1 PUSH2 0x145 SWAP2 SWAP1 PUSH2 0x1082 JUMP JUMPDEST PUSH2 0x78A JUMP JUMPDEST PUSH1 0x40 MLOAD PUSH2 0x157 SWAP2 SWAP1 PUSH2 0x1369 JUMP JUMPDEST PUSH1 0x40 MLOAD DUP1 SWAP2 SUB SWAP1 RETURN JUMPDEST PUSH2 0x17A PUSH1 0x4 DUP1 CALLDATASIZE SUB DUP2 ADD SWAP1 PUSH2 0x175 SWAP2 SWAP1 PUSH2 0x13B9 JUMP JUMPDEST PUSH2 0x874 JUMP JUMPDEST STOP JUMPDEST PUSH2 0x184 PUSH2 0x923 JUMP JUMPDEST PUSH1 0x40 MLOAD PUSH2 0x191 SWAP2 SWAP1 PUSH2 0x13F3 JUMP JUMPDEST PUSH1 0x40 MLOAD DUP1 SWAP2 SUB SWAP1 RETURN JUMPDEST PUSH2 0x1B4 PUSH1 0x4 DUP1 CALLDATASIZE SUB DUP2 ADD SWAP1 PUSH2 0x1AF SWAP2 SWAP1 PUSH2 0x1538 JUMP JUMPDEST PUSH2 0x936 JUMP JUMPDEST STOP JUMPDEST PUSH2 0x1BE PUSH2 0xB37 JUMP JUMPDEST PUSH1 0x40 MLOAD PUSH2 0x1CB SWAP2 SWAP1 PUSH2 0x158E JUMP JUMPDEST PUSH1 0x40 MLOAD DUP1 SWAP2 SUB SWAP1 RETURN JUMPDEST PUSH2 0x1EE PUSH1 0x4 DUP1 CALLDATASIZE SUB DUP2 ADD SWAP1 PUSH2 0x1E9 SWAP2 SWAP1 PUSH2 0x1082 JUMP JUMPDEST PUSH2 0xB5D JUMP JUMPDEST STOP JUMPDEST PUSH2 0x20A PUSH1 0x4 DUP1 CALLDATASIZE SUB DUP2 ADD SWAP1 PUSH2 0x205 SWAP2 SWAP1 PUSH2 0x1082 JUMP JUMPDEST PUSH2 0xD7F JUMP JUMPDEST STOP JUMPDEST PUSH0 PUSH1 0x20 MSTORE DUP2 PUSH0 MSTORE PUSH1 0x40 PUSH0 KECCAK256 DUP2 DUP2 SLOAD DUP2 LT PUSH2 0x224 JUMPI PUSH0 DUP1 REVERT JUMPDEST SWAP1 PUSH0 MSTORE PUSH1 0x20 PUSH0 KECCAK256 SWAP1 PUSH1 0x6 MUL ADD PUSH0 SWAP2 POP SWAP2 POP POP DUP1 PUSH0 ADD PUSH1 0x40 MLOAD DUP1 PUSH1 0xA0 ADD PUSH1 0x40 MSTORE SWAP1 DUP2 PUSH0 DUP3 ADD SLOAD DUP2 MSTORE PUSH1 0x20 ADD PUSH1 0x1 DUP3 ADD PUSH0 SWAP1 SLOAD SWAP1 PUSH2 0x100 EXP SWAP1 DIV PUSH20 0xFFFFFFFFFFFFFFFFFFFFFFFFFFFFFFFFFFFFFFFF AND PUSH20 0xFFFFFFFFFFFFFFFFFFFFFFFFFFFFFFFFFFFFFFFF AND PUSH20 0xFFFFFFFFFFFFFFFFFFFFFFFFFFFFFFFFFFFFFFFF AND DUP2 MSTORE PUSH1 0x20 ADD PUSH1 0x2 DUP3 ADD DUP1 SLOAD PUSH2 0x2B2 SWAP1 PUSH2 0x15D4 JUMP JUMPDEST DUP1 PUSH1 0x1F ADD PUSH1 0x20 DUP1 SWAP2 DIV MUL PUSH1 0x20 ADD PUSH1 0x40 MLOAD SWAP1 DUP2 ADD PUSH1 0x40 MSTORE DUP1 SWAP3 SWAP2 SWAP1 DUP2 DUP2 MSTORE PUSH1 0x20 ADD DUP3 DUP1 SLOAD PUSH2 0x2DE SWAP1 PUSH2 0x15D4 JUMP JUMPDEST DUP1 ISZERO PUSH2 0x329 JUMPI DUP1 PUSH1 0x1F LT PUSH2 0x300 JUMPI PUSH2 0x100 DUP1 DUP4 SLOAD DIV MUL DUP4 MSTORE SWAP2 PUSH1 0x20 ADD SWAP2 PUSH2 0x329 JUMP JUMPDEST DUP3 ADD SWAP2 SWAP1 PUSH0 MSTORE PUSH1 0x20 PUSH0 KECCAK256 SWAP1 JUMPDEST DUP2 SLOAD DUP2 MSTORE SWAP1 PUSH1 0x1 ADD SWAP1 PUSH1 0x20 ADD DUP1 DUP4 GT PUSH2 0x30C JUMPI DUP3 SWAP1 SUB PUSH1 0x1F AND DUP3 ADD SWAP2 JUMPDEST POP POP POP POP POP DUP2 MSTORE PUSH1 0x20 ADD PUSH1 0x3 DUP3 ADD SLOAD DUP2 MSTORE PUSH1 0x20 ADD PUSH1 0x4 DUP3 ADD SLOAD DUP2 MSTORE POP POP SWAP1 POP DUP2 JUMP JUMPDEST PUSH2 0x353 PUSH2 0xFA3 JUMP JUMPDEST DUP2 PUSH0 DUP1 DUP6 PUSH20 0xFFFFFFFFFFFFFFFFFFFFFFFFFFFFFFFFFFFFFFFF AND PUSH20 0xFFFFFFFFFFFFFFFFFFFFFFFFFFFFFFFFFFFFFFFF AND DUP2 MSTORE PUSH1 0x20 ADD SWAP1 DUP2 MSTORE PUSH1 0x20 ADD PUSH0 KECCAK256 DUP1 SLOAD SWAP1 POP GT PUSH2 0x3D4 JUMPI PUSH1 0x40 MLOAD PUSH32 0x8C379A000000000000000000000000000000000000000000000000000000000 DUP2 MSTORE PUSH1 0x4 ADD PUSH2 0x3CB SWAP1 PUSH2 0x165E JUMP JUMPDEST PUSH1 0x40 MLOAD DUP1 SWAP2 SUB SWAP1 REVERT JUMPDEST PUSH0 DUP1 DUP5 PUSH20 0xFFFFFFFFFFFFFFFFFFFFFFFFFFFFFFFFFFFFFFFF AND PUSH20 0xFFFFFFFFFFFFFFFFFFFFFFFFFFFFFFFFFFFFFFFF AND DUP2 MSTORE PUSH1 0x20 ADD SWAP1 DUP2 MSTORE PUSH1 0x20 ADD PUSH0 KECCAK256 DUP3 DUP2 SLOAD DUP2 LT PUSH2 0x422 JUMPI PUSH2 0x421 PUSH2 0x167C JUMP JUMPDEST JUMPDEST SWAP1 PUSH0 MSTORE PUSH1 0x20 PUSH0 KECCAK256 SWAP1 PUSH1 0x6 MUL ADD PUSH0 ADD PUSH1 0x40 MLOAD DUP1 PUSH1 0xA0 ADD PUSH1 0x40 MSTORE SWAP1 DUP2 PUSH0 DUP3 ADD SLOAD DUP2 MSTORE PUSH1 0x20 ADD PUSH1 0x1 DUP3 ADD PUSH0 SWAP1 SLOAD SWAP1 PUSH2 0x100 EXP SWAP1 DIV PUSH20 0xFFFFFFFFFFFFFFFFFFFFFFFFFFFFFFFFFFFFFFFF AND PUSH20 0xFFFFFFFFFFFFFFFFFFFFFFFFFFFFFFFFFFFFFFFF AND PUSH20 0xFFFFFFFFFFFFFFFFFFFFFFFFFFFFFFFFFFFFFFFF AND DUP2 MSTORE PUSH1 0x20 ADD PUSH1 0x2 DUP3 ADD DUP1 SLOAD PUSH2 0x4A9 SWAP1 PUSH2 0x15D4 JUMP JUMPDEST DUP1 PUSH1 0x1F ADD PUSH1 0x20 DUP1 SWAP2 DIV MUL PUSH1 0x20 ADD PUSH1 0x40 MLOAD SWAP1 DUP2 ADD PUSH1 0x40 MSTORE DUP1 SWAP3 SWAP2 SWAP1 DUP2 DUP2 MSTORE PUSH1 0x20 ADD DUP3 DUP1 SLOAD PUSH2 0x4D5 SWAP1 PUSH2 0x15D4 JUMP JUMPDEST DUP1 ISZERO PUSH2 0x520 JUMPI DUP1 PUSH1 0x1F LT PUSH2 0x4F7 JUMPI PUSH2 0x100 DUP1 DUP4 SLOAD DIV MUL DUP4 MSTORE SWAP2 PUSH1 0x20 ADD SWAP2 PUSH2 0x520 JUMP JUMPDEST DUP3 ADD SWAP2 SWAP1 PUSH0 MSTORE PUSH1 0x20 PUSH0 KECCAK256 SWAP1 JUMPDEST DUP2 SLOAD DUP2 MSTORE SWAP1 PUSH1 0x1 ADD SWAP1 PUSH1 0x20 ADD DUP1 DUP4 GT PUSH2 0x503 JUMPI DUP3 SWAP1 SUB PUSH1 0x1F AND DUP3 ADD SWAP2 JUMPDEST POP POP POP POP POP DUP2 MSTORE PUSH1 0x20 ADD PUSH1 0x3 DUP3 ADD SLOAD DUP2 MSTORE PUSH1 0x20 ADD PUSH1 0x4 DUP3 ADD SLOAD DUP2 MSTORE POP POP SWAP1 POP SWAP3 SWAP2 POP POP JUMP JUMPDEST PUSH1 0x60 PUSH0 DUP1 PUSH0 DUP5 PUSH20 0xFFFFFFFFFFFFFFFFFFFFFFFFFFFFFFFFFFFFFFFF AND PUSH20 0xFFFFFFFFFFFFFFFFFFFFFFFFFFFFFFFFFFFFFFFF AND DUP2 MSTORE PUSH1 0x20 ADD SWAP1 DUP2 MSTORE PUSH1 0x20 ADD PUSH0 KECCAK256 DUP1 SLOAD SWAP1 POP SWAP1 POP PUSH0 DUP2 PUSH8 0xFFFFFFFFFFFFFFFF DUP2 GT ISZERO PUSH2 0x5A5 JUMPI PUSH2 0x5A4 PUSH2 0x1414 JUMP JUMPDEST JUMPDEST PUSH1 0x40 MLOAD SWAP1 DUP1 DUP3 MSTORE DUP1 PUSH1 0x20 MUL PUSH1 0x20 ADD DUP3 ADD PUSH1 0x40 MSTORE DUP1 ISZERO PUSH2 0x5DE JUMPI DUP2 PUSH1 0x20 ADD JUMPDEST PUSH2 0x5CB PUSH2 0xFA3 JUMP JUMPDEST DUP2 MSTORE PUSH1 0x20 ADD SWAP1 PUSH1 0x1 SWAP1 SUB SWAP1 DUP2 PUSH2 0x5C3 JUMPI SWAP1 POP JUMPDEST POP SWAP1 POP PUSH0 JUMPDEST DUP3 DUP2 LT ISZERO PUSH2 0x77F JUMPI PUSH0 DUP1 DUP7 PUSH20 0xFFFFFFFFFFFFFFFFFFFFFFFFFFFFFFFFFFFFFFFF AND PUSH20 0xFFFFFFFFFFFFFFFFFFFFFFFFFFFFFFFFFFFFFFFF AND DUP2 MSTORE PUSH1 0x20 ADD SWAP1 DUP2 MSTORE PUSH1 0x20 ADD PUSH0 KECCAK256 DUP2 DUP2 SLOAD DUP2 LT PUSH2 0x639 JUMPI PUSH2 0x638 PUSH2 0x167C JUMP JUMPDEST JUMPDEST SWAP1 PUSH0 MSTORE PUSH1 0x20 PUSH0 KECCAK256 SWAP1 PUSH1 0x6 MUL ADD PUSH0 ADD PUSH1 0x40 MLOAD DUP1 PUSH1 0xA0 ADD PUSH1 0x40 MSTORE SWAP1 DUP2 PUSH0 DUP3 ADD SLOAD DUP2 MSTORE PUSH1 0x20 ADD PUSH1 0x1 DUP3 ADD PUSH0 SWAP1 SLOAD SWAP1 PUSH2 0x100 EXP SWAP1 DIV PUSH20 0xFFFFFFFFFFFFFFFFFFFFFFFFFFFFFFFFFFFFFFFF AND PUSH20 0xFFFFFFFFFFFFFFFFFFFFFFFFFFFFFFFFFFFFFFFF AND PUSH20 0xFFFFFFFFFFFFFFFFFFFFFFFFFFFFFFFFFFFFFFFF AND DUP2 MSTORE PUSH1 0x20 ADD PUSH1 0x2 DUP3 ADD DUP1 SLOAD PUSH2 0x6C0 SWAP1 PUSH2 0x15D4 JUMP JUMPDEST DUP1 PUSH1 0x1F ADD PUSH1 0x20 DUP1 SWAP2 DIV MUL PUSH1 0x20 ADD PUSH1 0x40 MLOAD SWAP1 DUP2 ADD PUSH1 0x40 MSTORE DUP1 SWAP3 SWAP2 SWAP1 DUP2 DUP2 MSTORE PUSH1 0x20 ADD DUP3 DUP1 SLOAD PUSH2 0x6EC SWAP1 PUSH2 0x15D4 JUMP JUMPDEST DUP1 ISZERO PUSH2 0x737 JUMPI DUP1 PUSH1 0x1F LT PUSH2 0x70E JUMPI PUSH2 0x100 DUP1 DUP4 SLOAD DIV MUL DUP4 MSTORE SWAP2 PUSH1 0x20 ADD SWAP2 PUSH2 0x737 JUMP JUMPDEST DUP3 ADD SWAP2 SWAP1 PUSH0 MSTORE PUSH1 0x20 PUSH0 KECCAK256 SWAP1 JUMPDEST DUP2 SLOAD DUP2 MSTORE SWAP1 PUSH1 0x1 ADD SWAP1 PUSH1 0x20 ADD DUP1 DUP4 GT PUSH2 0x71A JUMPI DUP3 SWAP1 SUB PUSH1 0x1F AND DUP3 ADD SWAP2 JUMPDEST POP POP POP POP POP DUP2 MSTORE PUSH1 0x20 ADD PUSH1 0x3 DUP3 ADD SLOAD DUP2 MSTORE PUSH1 0x20 ADD PUSH1 0x4 DUP3 ADD SLOAD DUP2 MSTORE POP POP DUP3 DUP3 DUP2 MLOAD DUP2 LT PUSH2 0x767 JUMPI PUSH2 0x766 PUSH2 0x167C JUMP JUMPDEST JUMPDEST PUSH1 0x20 MUL PUSH1 0x20 ADD ADD DUP2 SWAP1 MSTORE POP DUP1 DUP1 PUSH1 0x1 ADD SWAP2 POP POP PUSH2 0x5E3 JUMP JUMPDEST POP DUP1 SWAP3 POP POP POP SWAP2 SWAP1 POP JUMP JUMPDEST PUSH0 DUP2 PUSH0 DUP1 DUP6 PUSH20 0xFFFFFFFFFFFFFFFFFFFFFFFFFFFFFFFFFFFFFFFF AND PUSH20 0xFFFFFFFFFFFFFFFFFFFFFFFFFFFFFFFFFFFFFFFF AND DUP2 MSTORE PUSH1 0x20 ADD SWAP1 DUP2 MSTORE PUSH1 0x20 ADD PUSH0 KECCAK256 DUP1 SLOAD SWAP1 POP GT PUSH2 0x80C JUMPI PUSH1 0x40 MLOAD PUSH32 0x8C379A000000000000000000000000000000000000000000000000000000000 DUP2 MSTORE PUSH1 0x4 ADD PUSH2 0x803 SWAP1 PUSH2 0x165E JUMP JUMPDEST PUSH1 0x40 MLOAD DUP1 SWAP2 SUB SWAP1 REVERT JUMPDEST PUSH0 DUP1 DUP5 PUSH20 0xFFFFFFFFFFFFFFFFFFFFFFFFFFFFFFFFFFFFFFFF AND PUSH20 0xFFFFFFFFFFFFFFFFFFFFFFFFFFFFFFFFFFFFFFFF AND DUP2 MSTORE PUSH1 0x20 ADD SWAP1 DUP2 MSTORE PUSH1 0x20 ADD PUSH0 KECCAK256 DUP3 DUP2 SLOAD DUP2 LT PUSH2 0x85A JUMPI PUSH2 0x859 PUSH2 0x167C JUMP JUMPDEST JUMPDEST SWAP1 PUSH0 MSTORE PUSH1 0x20 PUSH0 KECCAK256 SWAP1 PUSH1 0x6 MUL ADD PUSH0 ADD PUSH1 0x4 ADD SLOAD SWAP1 POP SWAP3 SWAP2 POP POP JUMP JUMPDEST PUSH1 0x1 PUSH1 0x2 SWAP1 SLOAD SWAP1 PUSH2 0x100 EXP SWAP1 DIV PUSH20 0xFFFFFFFFFFFFFFFFFFFFFFFFFFFFFFFFFFFFFFFF AND PUSH20 0xFFFFFFFFFFFFFFFFFFFFFFFFFFFFFFFFFFFFFFFF AND CALLER PUSH20 0xFFFFFFFFFFFFFFFFFFFFFFFFFFFFFFFFFFFFFFFF AND EQ PUSH2 0x904 JUMPI PUSH1 0x40 MLOAD PUSH32 0x8C379A000000000000000000000000000000000000000000000000000000000 DUP2 MSTORE PUSH1 0x4 ADD PUSH2 0x8FB SWAP1 PUSH2 0x16F3 JUMP JUMPDEST PUSH1 0x40 MLOAD DUP1 SWAP2 SUB SWAP1 REVERT JUMPDEST DUP1 PUSH1 0x1 PUSH0 PUSH2 0x100 EXP DUP2 SLOAD DUP2 PUSH2 0xFFFF MUL NOT AND SWAP1 DUP4 PUSH2 0xFFFF AND MUL OR SWAP1 SSTORE POP POP JUMP JUMPDEST PUSH1 0x1 PUSH0 SWAP1 SLOAD SWAP1 PUSH2 0x100 EXP SWAP1 DIV PUSH2 0xFFFF AND DUP2 JUMP JUMPDEST PUSH1 0x1 PUSH0 SWAP1 SLOAD SWAP1 PUSH2 0x100 EXP SWAP1 DIV PUSH2 0xFFFF AND PUSH2 0xFFFF AND DUP2 MLOAD GT ISZERO PUSH2 0x98D JUMPI PUSH1 0x40 MLOAD PUSH32 0x8C379A000000000000000000000000000000000000000000000000000000000 DUP2 MSTORE PUSH1 0x4 ADD PUSH2 0x984 SWAP1 PUSH2 0x175B JUMP JUMPDEST PUSH1 0x40 MLOAD DUP1 SWAP2 SUB SWAP1 REVERT JUMPDEST PUSH0 DUP1 PUSH0 CALLER PUSH20 0xFFFFFFFFFFFFFFFFFFFFFFFFFFFFFFFFFFFFFFFF AND PUSH20 0xFFFFFFFFFFFFFFFFFFFFFFFFFFFFFFFFFFFFFFFF AND DUP2 MSTORE PUSH1 0x20 ADD SWAP1 DUP2 MSTORE PUSH1 0x20 ADD PUSH0 KECCAK256 PUSH1 0x1 DUP2 PUSH1 0x1 DUP2 SLOAD ADD DUP1 DUP3 SSTORE DUP1 SWAP2 POP POP SUB SWAP1 PUSH0 MSTORE PUSH1 0x20 PUSH0 KECCAK256 SWAP1 PUSH1 0x6 MUL ADD SWAP1 POP PUSH1 0x1 PUSH0 DUP1 CALLER PUSH20 0xFFFFFFFFFFFFFFFFFFFFFFFFFFFFFFFFFFFFFFFF AND PUSH20 0xFFFFFFFFFFFFFFFFFFFFFFFFFFFFFFFFFFFFFFFF AND DUP2 MSTORE PUSH1 0x20 ADD SWAP1 DUP2 MSTORE PUSH1 0x20 ADD PUSH0 KECCAK256 DUP1 SLOAD SWAP1 POP PUSH2 0xA34 SWAP2 SWAP1 PUSH2 0x17A6 JUMP JUMPDEST DUP2 PUSH0 ADD PUSH0 ADD DUP2 SWAP1 SSTORE POP CALLER DUP2 PUSH0 ADD PUSH1 0x1 ADD PUSH0 PUSH2 0x100 EXP DUP2 SLOAD DUP2 PUSH20 0xFFFFFFFFFFFFFFFFFFFFFFFFFFFFFFFFFFFFFFFF MUL NOT AND SWAP1 DUP4 PUSH20 0xFFFFFFFFFFFFFFFFFFFFFFFFFFFFFFFFFFFFFFFF AND MUL OR SWAP1 SSTORE POP DUP2 DUP2 PUSH0 ADD PUSH1 0x2 ADD SWAP1 DUP2 PUSH2 0xA94 SWAP2 SWAP1 PUSH2 0x1976 JUMP JUMPDEST POP TIMESTAMP DUP2 PUSH0 ADD PUSH1 0x3 ADD DUP2 SWAP1 SSTORE POP PUSH0 DUP2 PUSH0 ADD PUSH1 0x4 ADD DUP2 SWAP1 SSTORE POP PUSH32 0x8ECBE5A52270EAB83CE1DADA3C2969ECA41C568702B97F104F69709999E19661 PUSH1 0x1 PUSH0 DUP1 CALLER PUSH20 0xFFFFFFFFFFFFFFFFFFFFFFFFFFFFFFFFFFFFFFFF AND PUSH20 0xFFFFFFFFFFFFFFFFFFFFFFFFFFFFFFFFFFFFFFFF AND DUP2 MSTORE PUSH1 0x20 ADD SWAP1 DUP2 MSTORE PUSH1 0x20 ADD PUSH0 KECCAK256 DUP1 SLOAD SWAP1 POP PUSH2 0xB18 SWAP2 SWAP1 PUSH2 0x17A6 JUMP JUMPDEST CALLER DUP5 TIMESTAMP PUSH1 0x40 MLOAD PUSH2 0xB2B SWAP5 SWAP4 SWAP3 SWAP2 SWAP1 PUSH2 0x1A7D JUMP JUMPDEST PUSH1 0x40 MLOAD DUP1 SWAP2 SUB SWAP1 LOG1 POP POP JUMP JUMPDEST PUSH1 0x1 PUSH1 0x2 SWAP1 SLOAD SWAP1 PUSH2 0x100 EXP SWAP1 DIV PUSH20 0xFFFFFFFFFFFFFFFFFFFFFFFFFFFFFFFFFFFFFFFF AND DUP2 JUMP JUMPDEST DUP1 PUSH0 DUP1 DUP5 PUSH20 0xFFFFFFFFFFFFFFFFFFFFFFFFFFFFFFFFFFFFFFFF AND PUSH20 0xFFFFFFFFFFFFFFFFFFFFFFFFFFFFFFFFFFFFFFFF AND DUP2 MSTORE PUSH1 0x20 ADD SWAP1 DUP2 MSTORE PUSH1 0x20 ADD PUSH0 KECCAK256 DUP1 SLOAD SWAP1 POP GT PUSH2 0xBDE JUMPI PUSH1 0x40 MLOAD PUSH32 0x8C379A000000000000000000000000000000000000000000000000000000000 DUP2 MSTORE PUSH1 0x4 ADD PUSH2 0xBD5 SWAP1 PUSH2 0x165E JUMP JUMPDEST PUSH1 0x40 MLOAD DUP1 SWAP2 SUB SWAP1 REVERT JUMPDEST PUSH0 DUP1 PUSH0 DUP5 PUSH20 0xFFFFFFFFFFFFFFFFFFFFFFFFFFFFFFFFFFFFFFFF AND PUSH20 0xFFFFFFFFFFFFFFFFFFFFFFFFFFFFFFFFFFFFFFFF AND DUP2 MSTORE PUSH1 0x20 ADD SWAP1 DUP2 MSTORE PUSH1 0x20 ADD PUSH0 KECCAK256 DUP3 DUP2 SLOAD DUP2 LT PUSH2 0xC2D JUMPI PUSH2 0xC2C PUSH2 0x167C JUMP JUMPDEST JUMPDEST SWAP1 PUSH0 MSTORE PUSH1 0x20 PUSH0 KECCAK256 SWAP1 PUSH1 0x6 MUL ADD SWAP1 POP DUP1 PUSH1 0x5 ADD PUSH0 CALLER PUSH20 0xFFFFFFFFFFFFFFFFFFFFFFFFFFFFFFFFFFFFFFFF AND PUSH20 0xFFFFFFFFFFFFFFFFFFFFFFFFFFFFFFFFFFFFFFFF AND DUP2 MSTORE PUSH1 0x20 ADD SWAP1 DUP2 MSTORE PUSH1 0x20 ADD PUSH0 KECCAK256 PUSH0 SWAP1 SLOAD SWAP1 PUSH2 0x100 EXP SWAP1 DIV PUSH1 0xFF AND PUSH2 0xCC6 JUMPI PUSH1 0x40 MLOAD PUSH32 0x8C379A000000000000000000000000000000000000000000000000000000000 DUP2 MSTORE PUSH1 0x4 ADD PUSH2 0xCBD SWAP1 PUSH2 0x1B11 JUMP JUMPDEST PUSH1 0x40 MLOAD DUP1 SWAP2 SUB SWAP1 REVERT JUMPDEST PUSH0 DUP2 PUSH1 0x5 ADD PUSH0 CALLER PUSH20 0xFFFFFFFFFFFFFFFFFFFFFFFFFFFFFFFFFFFFFFFF AND PUSH20 0xFFFFFFFFFFFFFFFFFFFFFFFFFFFFFFFFFFFFFFFF AND DUP2 MSTORE PUSH1 0x20 ADD SWAP1 DUP2 MSTORE PUSH1 0x20 ADD PUSH0 KECCAK256 PUSH0 PUSH2 0x100 EXP DUP2 SLOAD DUP2 PUSH1 0xFF MUL NOT AND SWAP1 DUP4 ISZERO ISZERO MUL OR SWAP1 SSTORE POP DUP1 PUSH0 ADD PUSH1 0x4 ADD PUSH0 DUP2 SLOAD DUP1 SWAP3 SWAP2 SWAP1 PUSH2 0xD32 SWAP1 PUSH2 0x1B2F JUMP JUMPDEST SWAP2 SWAP1 POP SSTORE POP PUSH32 0x820418ADBAC9CC0EC3CA34ECD4EA5D7CD9F5416B1D2A5252F65F2CD524350F66 CALLER DUP4 DUP6 DUP5 PUSH0 ADD PUSH1 0x4 ADD SLOAD PUSH1 0x40 MLOAD PUSH2 0xD72 SWAP5 SWAP4 SWAP3 SWAP2 SWAP1 PUSH2 0x1B56 JUMP JUMPDEST PUSH1 0x40 MLOAD DUP1 SWAP2 SUB SWAP1 LOG1 POP POP POP JUMP JUMPDEST DUP1 PUSH0 DUP1 DUP5 PUSH20 0xFFFFFFFFFFFFFFFFFFFFFFFFFFFFFFFFFFFFFFFF AND PUSH20 0xFFFFFFFFFFFFFFFFFFFFFFFFFFFFFFFFFFFFFFFF AND DUP2 MSTORE PUSH1 0x20 ADD SWAP1 DUP2 MSTORE PUSH1 0x20 ADD PUSH0 KECCAK256 DUP1 SLOAD SWAP1 POP GT PUSH2 0xE00 JUMPI PUSH1 0x40 MLOAD PUSH32 0x8C379A000000000000000000000000000000000000000000000000000000000 DUP2 MSTORE PUSH1 0x4 ADD PUSH2 0xDF7 SWAP1 PUSH2 0x165E JUMP JUMPDEST PUSH1 0x40 MLOAD DUP1 SWAP2 SUB SWAP1 REVERT JUMPDEST PUSH0 DUP1 PUSH0 DUP5 PUSH20 0xFFFFFFFFFFFFFFFFFFFFFFFFFFFFFFFFFFFFFFFF AND PUSH20 0xFFFFFFFFFFFFFFFFFFFFFFFFFFFFFFFFFFFFFFFF AND DUP2 MSTORE PUSH1 0x20 ADD SWAP1 DUP2 MSTORE PUSH1 0x20 ADD PUSH0 KECCAK256 DUP3 DUP2 SLOAD DUP2 LT PUSH2 0xE4F JUMPI PUSH2 0xE4E PUSH2 0x167C JUMP JUMPDEST JUMPDEST SWAP1 PUSH0 MSTORE PUSH1 0x20 PUSH0 KECCAK256 SWAP1 PUSH1 0x6 MUL ADD SWAP1 POP DUP1 PUSH1 0x5 ADD PUSH0 CALLER PUSH20 0xFFFFFFFFFFFFFFFFFFFFFFFFFFFFFFFFFFFFFFFF AND PUSH20 0xFFFFFFFFFFFFFFFFFFFFFFFFFFFFFFFFFFFFFFFF AND DUP2 MSTORE PUSH1 0x20 ADD SWAP1 DUP2 MSTORE PUSH1 0x20 ADD PUSH0 KECCAK256 PUSH0 SWAP1 SLOAD SWAP1 PUSH2 0x100 EXP SWAP1 DIV PUSH1 0xFF AND ISZERO PUSH2 0xEE9 JUMPI PUSH1 0x40 MLOAD PUSH32 0x8C379A000000000000000000000000000000000000000000000000000000000 DUP2 MSTORE PUSH1 0x4 ADD PUSH2 0xEE0 SWAP1 PUSH2 0x1BE3 JUMP JUMPDEST PUSH1 0x40 MLOAD DUP1 SWAP2 SUB SWAP1 REVERT JUMPDEST PUSH1 0x1 DUP2 PUSH1 0x5 ADD PUSH0 CALLER PUSH20 0xFFFFFFFFFFFFFFFFFFFFFFFFFFFFFFFFFFFFFFFF AND PUSH20 0xFFFFFFFFFFFFFFFFFFFFFFFFFFFFFFFFFFFFFFFF AND DUP2 MSTORE PUSH1 0x20 ADD SWAP1 DUP2 MSTORE PUSH1 0x20 ADD PUSH0 KECCAK256 PUSH0 PUSH2 0x100 EXP DUP2 SLOAD DUP2 PUSH1 0xFF MUL NOT AND SWAP1 DUP4 ISZERO ISZERO MUL OR SWAP1 SSTORE POP DUP1 PUSH0 ADD PUSH1 0x4 ADD PUSH0 DUP2 SLOAD DUP1 SWAP3 SWAP2 SWAP1 PUSH2 0xF56 SWAP1 PUSH2 0x1C01 JUMP JUMPDEST SWAP2 SWAP1 POP SSTORE POP PUSH32 0x2EB9D95535B337EE238C3D5D4E7FF7EF74428985303B90F0E029B2C3FBB6D6FB CALLER DUP4 DUP6 DUP5 PUSH0 ADD PUSH1 0x4 ADD SLOAD PUSH1 0x40 MLOAD PUSH2 0xF96 SWAP5 SWAP4 SWAP3 SWAP2 SWAP1 PUSH2 0x1B56 JUMP JUMPDEST PUSH1 0x40 MLOAD DUP1 SWAP2 SUB SWAP1 LOG1 POP POP POP JUMP JUMPDEST PUSH1 0x40 MLOAD DUP1 PUSH1 0xA0 ADD PUSH1 0x40 MSTORE DUP1 PUSH0 DUP2 MSTORE PUSH1 0x20 ADD PUSH0 PUSH20 0xFFFFFFFFFFFFFFFFFFFFFFFFFFFFFFFFFFFFFFFF AND DUP2 MSTORE PUSH1 0x20 ADD PUSH1 0x60 DUP2 MSTORE PUSH1 0x20 ADD PUSH0 DUP2 MSTORE PUSH1 0x20 ADD PUSH0 DUP2 MSTORE POP SWAP1 JUMP JUMPDEST PUSH0 PUSH1 0x40 MLOAD SWAP1 POP SWAP1 JUMP JUMPDEST PUSH0 DUP1 REVERT JUMPDEST PUSH0 DUP1 REVERT JUMPDEST PUSH0 PUSH20 0xFFFFFFFFFFFFFFFFFFFFFFFFFFFFFFFFFFFFFFFF DUP3 AND SWAP1 POP SWAP2 SWAP1 POP JUMP JUMPDEST PUSH0 PUSH2 0x101E DUP3 PUSH2 0xFF5 JUMP JUMPDEST SWAP1 POP SWAP2 SWAP1 POP JUMP JUMPDEST PUSH2 0x102E DUP2 PUSH2 0x1014 JUMP JUMPDEST DUP2 EQ PUSH2 0x1038 JUMPI PUSH0 DUP1 REVERT JUMPDEST POP JUMP JUMPDEST PUSH0 DUP2 CALLDATALOAD SWAP1 POP PUSH2 0x1049 DUP2 PUSH2 0x1025 JUMP JUMPDEST SWAP3 SWAP2 POP POP JUMP JUMPDEST PUSH0 DUP2 SWAP1 POP SWAP2 SWAP1 POP JUMP JUMPDEST PUSH2 0x1061 DUP2 PUSH2 0x104F JUMP JUMPDEST DUP2 EQ PUSH2 0x106B JUMPI PUSH0 DUP1 REVERT JUMPDEST POP JUMP JUMPDEST PUSH0 DUP2 CALLDATALOAD SWAP1 POP PUSH2 0x107C DUP2 PUSH2 0x1058 JUMP JUMPDEST SWAP3 SWAP2 POP POP JUMP JUMPDEST PUSH0 DUP1 PUSH1 0x40 DUP4 DUP6 SUB SLT ISZERO PUSH2 0x1098 JUMPI PUSH2 0x1097 PUSH2 0xFED JUMP JUMPDEST JUMPDEST PUSH0 PUSH2 0x10A5 DUP6 DUP3 DUP7 ADD PUSH2 0x103B JUMP JUMPDEST SWAP3 POP POP PUSH1 0x20 PUSH2 0x10B6 DUP6 DUP3 DUP7 ADD PUSH2 0x106E JUMP JUMPDEST SWAP2 POP POP SWAP3 POP SWAP3 SWAP1 POP JUMP JUMPDEST PUSH2 0x10C9 DUP2 PUSH2 0x104F JUMP JUMPDEST DUP3 MSTORE POP POP JUMP JUMPDEST PUSH2 0x10D8 DUP2 PUSH2 0x1014 JUMP JUMPDEST DUP3 MSTORE POP POP JUMP JUMPDEST PUSH0 DUP2 MLOAD SWAP1 POP SWAP2 SWAP1 POP JUMP JUMPDEST PUSH0 DUP3 DUP3 MSTORE PUSH1 0x20 DUP3 ADD SWAP1 POP SWAP3 SWAP2 POP POP JUMP JUMPDEST DUP3 DUP2 DUP4 MCOPY PUSH0 DUP4 DUP4 ADD MSTORE POP POP POP JUMP JUMPDEST PUSH0 PUSH1 0x1F NOT PUSH1 0x1F DUP4 ADD AND SWAP1 POP SWAP2 SWAP1 POP JUMP JUMPDEST PUSH0 PUSH2 0x1120 DUP3 PUSH2 0x10DE JUMP JUMPDEST PUSH2 0x112A DUP2 DUP6 PUSH2 0x10E8 JUMP JUMPDEST SWAP4 POP PUSH2 0x113A DUP2 DUP6 PUSH1 0x20 DUP7 ADD PUSH2 0x10F8 JUMP JUMPDEST PUSH2 0x1143 DUP2 PUSH2 0x1106 JUMP JUMPDEST DUP5 ADD SWAP2 POP POP SWAP3 SWAP2 POP POP JUMP JUMPDEST PUSH0 PUSH1 0xA0 DUP4 ADD PUSH0 DUP4 ADD MLOAD PUSH2 0x1163 PUSH0 DUP7 ADD DUP3 PUSH2 0x10C0 JUMP JUMPDEST POP PUSH1 0x20 DUP4 ADD MLOAD PUSH2 0x1176 PUSH1 0x20 DUP7 ADD DUP3 PUSH2 0x10CF JUMP JUMPDEST POP PUSH1 0x40 DUP4 ADD MLOAD DUP5 DUP3 SUB PUSH1 0x40 DUP7 ADD MSTORE PUSH2 0x118E DUP3 DUP3 PUSH2 0x1116 JUMP JUMPDEST SWAP2 POP POP PUSH1 0x60 DUP4 ADD MLOAD PUSH2 0x11A3 PUSH1 0x60 DUP7 ADD DUP3 PUSH2 0x10C0 JUMP JUMPDEST POP PUSH1 0x80 DUP4 ADD MLOAD PUSH2 0x11B6 PUSH1 0x80 DUP7 ADD DUP3 PUSH2 0x10C0 JUMP JUMPDEST POP DUP1 SWAP2 POP POP SWAP3 SWAP2 POP POP JUMP JUMPDEST PUSH0 PUSH1 0x20 DUP3 ADD SWAP1 POP DUP2 DUP2 SUB PUSH0 DUP4 ADD MSTORE PUSH2 0x11D9 DUP2 DUP5 PUSH2 0x114E JUMP JUMPDEST SWAP1 POP SWAP3 SWAP2 POP POP JUMP JUMPDEST PUSH0 PUSH1 0x20 DUP3 DUP5 SUB SLT ISZERO PUSH2 0x11F6 JUMPI PUSH2 0x11F5 PUSH2 0xFED JUMP JUMPDEST JUMPDEST PUSH0 PUSH2 0x1203 DUP5 DUP3 DUP6 ADD PUSH2 0x103B JUMP JUMPDEST SWAP2 POP POP SWAP3 SWAP2 POP POP JUMP JUMPDEST PUSH0 DUP2 MLOAD SWAP1 POP SWAP2 SWAP1 POP JUMP JUMPDEST PUSH0 DUP3 DUP3 MSTORE PUSH1 0x20 DUP3 ADD SWAP1 POP SWAP3 SWAP2 POP POP JUMP JUMPDEST PUSH0 DUP2 SWAP1 POP PUSH1 0x20 DUP3 ADD SWAP1 POP SWAP2 SWAP1 POP JUMP JUMPDEST PUSH0 PUSH1 0xA0 DUP4 ADD PUSH0 DUP4 ADD MLOAD PUSH2 0x124A PUSH0 DUP7 ADD DUP3 PUSH2 0x10C0 JUMP JUMPDEST POP PUSH1 0x20 DUP4 ADD MLOAD PUSH2 0x125D PUSH1 0x20 DUP7 ADD DUP3 PUSH2 0x10CF JUMP JUMPDEST POP PUSH1 0x40 DUP4 ADD MLOAD DUP5 DUP3 SUB PUSH1 0x40 DUP7 ADD MSTORE PUSH2 0x1275 DUP3 DUP3 PUSH2 0x1116 JUMP JUMPDEST SWAP2 POP POP PUSH1 0x60 DUP4 ADD MLOAD PUSH2 0x128A PUSH1 0x60 DUP7 ADD DUP3 PUSH2 0x10C0 JUMP JUMPDEST POP PUSH1 0x80 DUP4 ADD MLOAD PUSH2 0x129D PUSH1 0x80 DUP7 ADD DUP3 PUSH2 0x10C0 JUMP JUMPDEST POP DUP1 SWAP2 POP POP SWAP3 SWAP2 POP POP JUMP JUMPDEST PUSH0 PUSH2 0x12B3 DUP4 DUP4 PUSH2 0x1235 JUMP JUMPDEST SWAP1 POP SWAP3 SWAP2 POP POP JUMP JUMPDEST PUSH0 PUSH1 0x20 DUP3 ADD SWAP1 POP SWAP2 SWAP1 POP JUMP JUMPDEST PUSH0 PUSH2 0x12D1 DUP3 PUSH2 0x120C JUMP JUMPDEST PUSH2 0x12DB DUP2 DUP6 PUSH2 0x1216 JUMP JUMPDEST SWAP4 POP DUP4 PUSH1 0x20 DUP3 MUL DUP6 ADD PUSH2 0x12ED DUP6 PUSH2 0x1226 JUMP JUMPDEST DUP1 PUSH0 JUMPDEST DUP6 DUP2 LT ISZERO PUSH2 0x1328 JUMPI DUP5 DUP5 SUB DUP10 MSTORE DUP2 MLOAD PUSH2 0x1309 DUP6 DUP3 PUSH2 0x12A8 JUMP JUMPDEST SWAP5 POP PUSH2 0x1314 DUP4 PUSH2 0x12BB JUMP JUMPDEST SWAP3 POP PUSH1 0x20 DUP11 ADD SWAP10 POP POP PUSH1 0x1 DUP2 ADD SWAP1 POP PUSH2 0x12F0 JUMP JUMPDEST POP DUP3 SWAP8 POP DUP8 SWAP6 POP POP POP POP POP POP SWAP3 SWAP2 POP POP JUMP JUMPDEST PUSH0 PUSH1 0x20 DUP3 ADD SWAP1 POP DUP2 DUP2 SUB PUSH0 DUP4 ADD MSTORE PUSH2 0x1352 DUP2 DUP5 PUSH2 0x12C7 JUMP JUMPDEST SWAP1 POP SWAP3 SWAP2 POP POP JUMP JUMPDEST PUSH2 0x1363 DUP2 PUSH2 0x104F JUMP JUMPDEST DUP3 MSTORE POP POP JUMP JUMPDEST PUSH0 PUSH1 0x20 DUP3 ADD SWAP1 POP PUSH2 0x137C PUSH0 DUP4 ADD DUP5 PUSH2 0x135A JUMP JUMPDEST SWAP3 SWAP2 POP POP JUMP JUMPDEST PUSH0 PUSH2 0xFFFF DUP3 AND SWAP1 POP SWAP2 SWAP1 POP JUMP JUMPDEST PUSH2 0x1398 DUP2 PUSH2 0x1382 JUMP JUMPDEST DUP2 EQ PUSH2 0x13A2 JUMPI PUSH0 DUP1 REVERT JUMPDEST POP JUMP JUMPDEST PUSH0 DUP2 CALLDATALOAD SWAP1 POP PUSH2 0x13B3 DUP2 PUSH2 0x138F JUMP JUMPDEST SWAP3 SWAP2 POP POP JUMP JUMPDEST PUSH0 PUSH1 0x20 DUP3 DUP5 SUB SLT ISZERO PUSH2 0x13CE JUMPI PUSH2 0x13CD PUSH2 0xFED JUMP JUMPDEST JUMPDEST PUSH0 PUSH2 0x13DB DUP5 DUP3 DUP6 ADD PUSH2 0x13A5 JUMP JUMPDEST SWAP2 POP POP SWAP3 SWAP2 POP POP JUMP JUMPDEST PUSH2 0x13ED DUP2 PUSH2 0x1382 JUMP JUMPDEST DUP3 MSTORE POP POP JUMP JUMPDEST PUSH0 PUSH1 0x20 DUP3 ADD SWAP1 POP PUSH2 0x1406 PUSH0 DUP4 ADD DUP5 PUSH2 0x13E4 JUMP JUMPDEST SWAP3 SWAP2 POP POP JUMP JUMPDEST PUSH0 DUP1 REVERT JUMPDEST PUSH0 DUP1 REVERT JUMPDEST PUSH32 0x4E487B7100000000000000000000000000000000000000000000000000000000 PUSH0 MSTORE PUSH1 0x41 PUSH1 0x4 MSTORE PUSH1 0x24 PUSH0 REVERT JUMPDEST PUSH2 0x144A DUP3 PUSH2 0x1106 JUMP JUMPDEST DUP2 ADD DUP2 DUP2 LT PUSH8 0xFFFFFFFFFFFFFFFF DUP3 GT OR ISZERO PUSH2 0x1469 JUMPI PUSH2 0x1468 PUSH2 0x1414 JUMP JUMPDEST JUMPDEST DUP1 PUSH1 0x40 MSTORE POP POP POP JUMP JUMPDEST PUSH0 PUSH2 0x147B PUSH2 0xFE4 JUMP JUMPDEST SWAP1 POP PUSH2 0x1487 DUP3 DUP3 PUSH2 0x1441 JUMP JUMPDEST SWAP2 SWAP1 POP JUMP JUMPDEST PUSH0 PUSH8 0xFFFFFFFFFFFFFFFF DUP3 GT ISZERO PUSH2 0x14A6 JUMPI PUSH2 0x14A5 PUSH2 0x1414 JUMP JUMPDEST JUMPDEST PUSH2 0x14AF DUP3 PUSH2 0x1106 JUMP JUMPDEST SWAP1 POP PUSH1 0x20 DUP2 ADD SWAP1 POP SWAP2 SWAP1 POP JUMP JUMPDEST DUP3 DUP2 DUP4 CALLDATACOPY PUSH0 DUP4 DUP4 ADD MSTORE POP POP POP JUMP JUMPDEST PUSH0 PUSH2 0x14DC PUSH2 0x14D7 DUP5 PUSH2 0x148C JUMP JUMPDEST PUSH2 0x1472 JUMP JUMPDEST SWAP1 POP DUP3 DUP2 MSTORE PUSH1 0x20 DUP2 ADD DUP5 DUP5 DUP5 ADD GT ISZERO PUSH2 0x14F8 JUMPI PUSH2 0x14F7 PUSH2 0x1410 JUMP JUMPDEST JUMPDEST PUSH2 0x1503 DUP5 DUP3 DUP6 PUSH2 0x14BC JUMP JUMPDEST POP SWAP4 SWAP3 POP POP POP JUMP JUMPDEST PUSH0 DUP3 PUSH1 0x1F DUP4 ADD SLT PUSH2 0x151F JUMPI PUSH2 0x151E PUSH2 0x140C JUMP JUMPDEST JUMPDEST DUP2 CALLDATALOAD PUSH2 0x152F DUP5 DUP3 PUSH1 0x20 DUP7 ADD PUSH2 0x14CA JUMP JUMPDEST SWAP2 POP POP SWAP3 SWAP2 POP POP JUMP JUMPDEST PUSH0 PUSH1 0x20 DUP3 DUP5 SUB SLT ISZERO PUSH2 0x154D JUMPI PUSH2 0x154C PUSH2 0xFED JUMP JUMPDEST JUMPDEST PUSH0 DUP3 ADD CALLDATALOAD PUSH8 0xFFFFFFFFFFFFFFFF DUP2 GT ISZERO PUSH2 0x156A JUMPI PUSH2 0x1569 PUSH2 0xFF1 JUMP JUMPDEST JUMPDEST PUSH2 0x1576 DUP5 DUP3 DUP6 ADD PUSH2 0x150B JUMP JUMPDEST SWAP2 POP POP SWAP3 SWAP2 POP POP JUMP JUMPDEST PUSH2 0x1588 DUP2 PUSH2 0x1014 JUMP JUMPDEST DUP3 MSTORE POP POP JUMP JUMPDEST PUSH0 PUSH1 0x20 DUP3 ADD SWAP1 POP PUSH2 0x15A1 PUSH0 DUP4 ADD DUP5 PUSH2 0x157F JUMP JUMPDEST SWAP3 SWAP2 POP POP JUMP JUMPDEST PUSH32 0x4E487B7100000000000000000000000000000000000000000000000000000000 PUSH0 MSTORE PUSH1 0x22 PUSH1 0x4 MSTORE PUSH1 0x24 PUSH0 REVERT JUMPDEST PUSH0 PUSH1 0x2 DUP3 DIV SWAP1 POP PUSH1 0x1 DUP3 AND DUP1 PUSH2 0x15EB JUMPI PUSH1 0x7F DUP3 AND SWAP2 POP JUMPDEST PUSH1 0x20 DUP3 LT DUP2 SUB PUSH2 0x15FE JUMPI PUSH2 0x15FD PUSH2 0x15A7 JUMP JUMPDEST JUMPDEST POP SWAP2 SWAP1 POP JUMP JUMPDEST PUSH0 DUP3 DUP3 MSTORE PUSH1 0x20 DUP3 ADD SWAP1 POP SWAP3 SWAP2 POP POP JUMP JUMPDEST PUSH32 0x547765657420646F65736E277420657869737400000000000000000000000000 PUSH0 DUP3 ADD MSTORE POP JUMP JUMPDEST PUSH0 PUSH2 0x1648 PUSH1 0x13 DUP4 PUSH2 0x1604 JUMP JUMPDEST SWAP2 POP PUSH2 0x1653 DUP3 PUSH2 0x1614 JUMP JUMPDEST PUSH1 0x20 DUP3 ADD SWAP1 POP SWAP2 SWAP1 POP JUMP JUMPDEST PUSH0 PUSH1 0x20 DUP3 ADD SWAP1 POP DUP2 DUP2 SUB PUSH0 DUP4 ADD MSTORE PUSH2 0x1675 DUP2 PUSH2 0x163C JUMP JUMPDEST SWAP1 POP SWAP2 SWAP1 POP JUMP JUMPDEST PUSH32 0x4E487B7100000000000000000000000000000000000000000000000000000000 PUSH0 MSTORE PUSH1 0x32 PUSH1 0x4 MSTORE PUSH1 0x24 PUSH0 REVERT JUMPDEST PUSH32 0x596F7520617265206E6F7420746865206F776E65720000000000000000000000 PUSH0 DUP3 ADD MSTORE POP JUMP JUMPDEST PUSH0 PUSH2 0x16DD PUSH1 0x15 DUP4 PUSH2 0x1604 JUMP JUMPDEST SWAP2 POP PUSH2 0x16E8 DUP3 PUSH2 0x16A9 JUMP JUMPDEST PUSH1 0x20 DUP3 ADD SWAP1 POP SWAP2 SWAP1 POP JUMP JUMPDEST PUSH0 PUSH1 0x20 DUP3 ADD SWAP1 POP DUP2 DUP2 SUB PUSH0 DUP4 ADD MSTORE PUSH2 0x170A DUP2 PUSH2 0x16D1 JUMP JUMPDEST SWAP1 POP SWAP2 SWAP1 POP JUMP JUMPDEST PUSH32 0x547765657420746F6F206C6F6E67000000000000000000000000000000000000 PUSH0 DUP3 ADD MSTORE POP JUMP JUMPDEST PUSH0 PUSH2 0x1745 PUSH1 0xE DUP4 PUSH2 0x1604 JUMP JUMPDEST SWAP2 POP PUSH2 0x1750 DUP3 PUSH2 0x1711 JUMP JUMPDEST PUSH1 0x20 DUP3 ADD SWAP1 POP SWAP2 SWAP1 POP JUMP JUMPDEST PUSH0 PUSH1 0x20 DUP3 ADD SWAP1 POP DUP2 DUP2 SUB PUSH0 DUP4 ADD MSTORE PUSH2 0x1772 DUP2 PUSH2 0x1739 JUMP JUMPDEST SWAP1 POP SWAP2 SWAP1 POP JUMP JUMPDEST PUSH32 0x4E487B7100000000000000000000000000000000000000000000000000000000 PUSH0 MSTORE PUSH1 0x11 PUSH1 0x4 MSTORE PUSH1 0x24 PUSH0 REVERT JUMPDEST PUSH0 PUSH2 0x17B0 DUP3 PUSH2 0x104F JUMP JUMPDEST SWAP2 POP PUSH2 0x17BB DUP4 PUSH2 0x104F JUMP JUMPDEST SWAP3 POP DUP3 DUP3 SUB SWAP1 POP DUP2 DUP2 GT ISZERO PUSH2 0x17D3 JUMPI PUSH2 0x17D2 PUSH2 0x1779 JUMP JUMPDEST JUMPDEST SWAP3 SWAP2 POP POP JUMP JUMPDEST PUSH0 DUP2 SWAP1 POP DUP2 PUSH0 MSTORE PUSH1 0x20 PUSH0 KECCAK256 SWAP1 POP SWAP2 SWAP1 POP JUMP JUMPDEST PUSH0 PUSH1 0x20 PUSH1 0x1F DUP4 ADD DIV SWAP1 POP SWAP2 SWAP1 POP JUMP JUMPDEST PUSH0 DUP3 DUP3 SHL SWAP1 POP SWAP3 SWAP2 POP POP JUMP JUMPDEST PUSH0 PUSH1 0x8 DUP4 MUL PUSH2 0x1835 PUSH32 0xFFFFFFFFFFFFFFFFFFFFFFFFFFFFFFFFFFFFFFFFFFFFFFFFFFFFFFFFFFFFFFFF DUP3 PUSH2 0x17FA JUMP JUMPDEST PUSH2 0x183F DUP7 DUP4 PUSH2 0x17FA JUMP JUMPDEST SWAP6 POP DUP1 NOT DUP5 AND SWAP4 POP DUP1 DUP7 AND DUP5 OR SWAP3 POP POP POP SWAP4 SWAP3 POP POP POP JUMP JUMPDEST PUSH0 DUP2 SWAP1 POP SWAP2 SWAP1 POP JUMP JUMPDEST PUSH0 PUSH2 0x187A PUSH2 0x1875 PUSH2 0x1870 DUP5 PUSH2 0x104F JUMP JUMPDEST PUSH2 0x1857 JUMP JUMPDEST PUSH2 0x104F JUMP JUMPDEST SWAP1 POP SWAP2 SWAP1 POP JUMP JUMPDEST PUSH0 DUP2 SWAP1 POP SWAP2 SWAP1 POP JUMP JUMPDEST PUSH2 0x1893 DUP4 PUSH2 0x1860 JUMP JUMPDEST PUSH2 0x18A7 PUSH2 0x189F DUP3 PUSH2 0x1881 JUMP JUMPDEST DUP5 DUP5 SLOAD PUSH2 0x1806 JUMP JUMPDEST DUP3 SSTORE POP POP POP POP JUMP JUMPDEST PUSH0 SWAP1 JUMP JUMPDEST PUSH2 0x18BB PUSH2 0x18AF JUMP JUMPDEST PUSH2 0x18C6 DUP2 DUP5 DUP5 PUSH2 0x188A JUMP JUMPDEST POP POP POP JUMP JUMPDEST JUMPDEST DUP2 DUP2 LT ISZERO PUSH2 0x18E9 JUMPI PUSH2 0x18DE PUSH0 DUP3 PUSH2 0x18B3 JUMP JUMPDEST PUSH1 0x1 DUP2 ADD SWAP1 POP PUSH2 0x18CC JUMP JUMPDEST POP POP JUMP JUMPDEST PUSH1 0x1F DUP3 GT ISZERO PUSH2 0x192E JUMPI PUSH2 0x18FF DUP2 PUSH2 0x17D9 JUMP JUMPDEST PUSH2 0x1908 DUP5 PUSH2 0x17EB JUMP JUMPDEST DUP2 ADD PUSH1 0x20 DUP6 LT ISZERO PUSH2 0x1917 JUMPI DUP2 SWAP1 POP JUMPDEST PUSH2 0x192B PUSH2 0x1923 DUP6 PUSH2 0x17EB JUMP JUMPDEST DUP4 ADD DUP3 PUSH2 0x18CB JUMP JUMPDEST POP POP JUMPDEST POP POP POP JUMP JUMPDEST PUSH0 DUP3 DUP3 SHR SWAP1 POP SWAP3 SWAP2 POP POP JUMP JUMPDEST PUSH0 PUSH2 0x194E PUSH0 NOT DUP5 PUSH1 0x8 MUL PUSH2 0x1933 JUMP JUMPDEST NOT DUP1 DUP4 AND SWAP2 POP POP SWAP3 SWAP2 POP POP JUMP JUMPDEST PUSH0 PUSH2 0x1966 DUP4 DUP4 PUSH2 0x193F JUMP JUMPDEST SWAP2 POP DUP3 PUSH1 0x2 MUL DUP3 OR SWAP1 POP SWAP3 SWAP2 POP POP JUMP JUMPDEST PUSH2 0x197F DUP3 PUSH2 0x10DE JUMP JUMPDEST PUSH8 0xFFFFFFFFFFFFFFFF DUP2 GT ISZERO PUSH2 0x1998 JUMPI PUSH2 0x1997 PUSH2 0x1414 JUMP JUMPDEST JUMPDEST PUSH2 0x19A2 DUP3 SLOAD PUSH2 0x15D4 JUMP JUMPDEST PUSH2 0x19AD DUP3 DUP3 DUP6 PUSH2 0x18ED JUMP JUMPDEST PUSH0 PUSH1 0x20 SWAP1 POP PUSH1 0x1F DUP4 GT PUSH1 0x1 DUP2 EQ PUSH2 0x19DE JUMPI PUSH0 DUP5 ISZERO PUSH2 0x19CC JUMPI DUP3 DUP8 ADD MLOAD SWAP1 POP JUMPDEST PUSH2 0x19D6 DUP6 DUP3 PUSH2 0x195B JUMP JUMPDEST DUP7 SSTORE POP PUSH2 0x1A3D JUMP JUMPDEST PUSH1 0x1F NOT DUP5 AND PUSH2 0x19EC DUP7 PUSH2 0x17D9 JUMP JUMPDEST PUSH0 JUMPDEST DUP3 DUP2 LT ISZERO PUSH2 0x1A13 JUMPI DUP5 DUP10 ADD MLOAD DUP3 SSTORE PUSH1 0x1 DUP3 ADD SWAP2 POP PUSH1 0x20 DUP6 ADD SWAP5 POP PUSH1 0x20 DUP2 ADD SWAP1 POP PUSH2 0x19EE JUMP JUMPDEST DUP7 DUP4 LT ISZERO PUSH2 0x1A30 JUMPI DUP5 DUP10 ADD MLOAD PUSH2 0x1A2C PUSH1 0x1F DUP10 AND DUP3 PUSH2 0x193F JUMP JUMPDEST DUP4 SSTORE POP JUMPDEST PUSH1 0x1 PUSH1 0x2 DUP9 MUL ADD DUP9 SSTORE POP POP POP JUMPDEST POP POP POP POP POP POP JUMP JUMPDEST PUSH0 PUSH2 0x1A4F DUP3 PUSH2 0x10DE JUMP JUMPDEST PUSH2 0x1A59 DUP2 DUP6 PUSH2 0x1604 JUMP JUMPDEST SWAP4 POP PUSH2 0x1A69 DUP2 DUP6 PUSH1 0x20 DUP7 ADD PUSH2 0x10F8 JUMP JUMPDEST PUSH2 0x1A72 DUP2 PUSH2 0x1106 JUMP JUMPDEST DUP5 ADD SWAP2 POP POP SWAP3 SWAP2 POP POP JUMP JUMPDEST PUSH0 PUSH1 0x80 DUP3 ADD SWAP1 POP PUSH2 0x1A90 PUSH0 DUP4 ADD DUP8 PUSH2 0x135A JUMP JUMPDEST PUSH2 0x1A9D PUSH1 0x20 DUP4 ADD DUP7 PUSH2 0x157F JUMP JUMPDEST DUP2 DUP2 SUB PUSH1 0x40 DUP4 ADD MSTORE PUSH2 0x1AAF DUP2 DUP6 PUSH2 0x1A45 JUMP JUMPDEST SWAP1 POP PUSH2 0x1ABE PUSH1 0x60 DUP4 ADD DUP5 PUSH2 0x135A JUMP JUMPDEST SWAP6 SWAP5 POP POP POP POP POP JUMP JUMPDEST PUSH32 0x4E6F74206C696B65642079657400000000000000000000000000000000000000 PUSH0 DUP3 ADD MSTORE POP JUMP JUMPDEST PUSH0 PUSH2 0x1AFB PUSH1 0xD DUP4 PUSH2 0x1604 JUMP JUMPDEST SWAP2 POP PUSH2 0x1B06 DUP3 PUSH2 0x1AC7 JUMP JUMPDEST PUSH1 0x20 DUP3 ADD SWAP1 POP SWAP2 SWAP1 POP JUMP JUMPDEST PUSH0 PUSH1 0x20 DUP3 ADD SWAP1 POP DUP2 DUP2 SUB PUSH0 DUP4 ADD MSTORE PUSH2 0x1B28 DUP2 PUSH2 0x1AEF JUMP JUMPDEST SWAP1 POP SWAP2 SWAP1 POP JUMP JUMPDEST PUSH0 PUSH2 0x1B39 DUP3 PUSH2 0x104F JUMP JUMPDEST SWAP2 POP PUSH0 DUP3 SUB PUSH2 0x1B4B JUMPI PUSH2 0x1B4A PUSH2 0x1779 JUMP JUMPDEST JUMPDEST PUSH1 0x1 DUP3 SUB SWAP1 POP SWAP2 SWAP1 POP JUMP JUMPDEST PUSH0 PUSH1 0x80 DUP3 ADD SWAP1 POP PUSH2 0x1B69 PUSH0 DUP4 ADD DUP8 PUSH2 0x157F JUMP JUMPDEST PUSH2 0x1B76 PUSH1 0x20 DUP4 ADD DUP7 PUSH2 0x135A JUMP JUMPDEST PUSH2 0x1B83 PUSH1 0x40 DUP4 ADD DUP6 PUSH2 0x157F JUMP JUMPDEST PUSH2 0x1B90 PUSH1 0x60 DUP4 ADD DUP5 PUSH2 0x135A JUMP JUMPDEST SWAP6 SWAP5 POP POP POP POP POP JUMP JUMPDEST PUSH32 0x416C7265616479206C696B656400000000000000000000000000000000000000 PUSH0 DUP3 ADD MSTORE POP JUMP JUMPDEST PUSH0 PUSH2 0x1BCD PUSH1 0xD DUP4 PUSH2 0x1604 JUMP JUMPDEST SWAP2 POP PUSH2 0x1BD8 DUP3 PUSH2 0x1B99 JUMP JUMPDEST PUSH1 0x20 DUP3 ADD SWAP1 POP SWAP2 SWAP1 POP JUMP JUMPDEST PUSH0 PUSH1 0x20 DUP3 ADD SWAP1 POP DUP2 DUP2 SUB PUSH0 DUP4 ADD MSTORE PUSH2 0x1BFA DUP2 PUSH2 0x1BC1 JUMP JUMPDEST SWAP1 POP SWAP2 SWAP1 POP JUMP JUMPDEST PUSH0 PUSH2 0x1C0B DUP3 PUSH2 0x104F JUMP JUMPDEST SWAP2 POP PUSH32 0xFFFFFFFFFFFFFFFFFFFFFFFFFFFFFFFFFFFFFFFFFFFFFFFFFFFFFFFFFFFFFFFF DUP3 SUB PUSH2 0x1C3D JUMPI PUSH2 0x1C3C PUSH2 0x1779 JUMP JUMPDEST JUMPDEST PUSH1 0x1 DUP3 ADD SWAP1 POP SWAP2 SWAP1 POP JUMP INVALID LOG2 PUSH5 0x6970667358 0x22 SLT KECCAK256 0xCB 0xCE 0xFC 0xD 0x28 DUP11 SWAP16 0xD8 0xDF 0xB1 0xDE EXTCODESIZE 0xB1 STATICCALL DUP4 0xBE PUSH24 0xE4AB7E154A1803E0BA34743FD3BFED64736F6C6343000819 STOP CALLER "
				},
				"gasEstimates": {
					"creation": {
						"codeDepositCost": "1458800",
						"executionCost": "50100",
						"totalCost": "1508900"
					},
					"external": {
						"MAX_TWEET_LENGTH()": "2466",
						"changeTweetLength(uint16)": "26982",
						"createTweet(string)": "infinite",
						"getAllTweets(address)": "infinite",
						"getTweet(address,uint256)": "infinite",
						"like(address,uint256)": "infinite",
						"owner()": "2603",
						"totalLikes(address,uint256)": "infinite",
						"tweets(address,uint256)": "infinite",
						"unlike(address,uint256)": "infinite"
					}
				},
				"methodIdentifiers": {
					"MAX_TWEET_LENGTH()": "6eb10797",
					"changeTweetLength(uint16)": "58bfa4ab",
					"createTweet(string)": "7c9cd2bc",
					"getAllTweets(address)": "12e7ee1c",
					"getTweet(address,uint256)": "112f54e3",
					"like(address,uint256)": "e4626c8f",
					"owner()": "8da5cb5b",
					"totalLikes(address,uint256)": "274ee23f",
					"tweets(address,uint256)": "05a1b4a9",
					"unlike(address,uint256)": "b0ee502f"
				}
			},
			"storageLayout": {
				"storage": [
					{
						"astId": 26,
						"contract": "contracts/TwitterContract.sol:TwitterContract",
						"label": "tweets",
						"offset": 0,
						"slot": "0",
						"type": "t_mapping(t_address,t_array(t_struct(TweetWithLikes)20_storage)dyn_storage)"
					},
					{
						"astId": 29,
						"contract": "contracts/TwitterContract.sol:TwitterContract",
						"label": "MAX_TWEET_LENGTH",
						"offset": 0,
						"slot": "1",
						"type": "t_uint16"
					},
					{
						"astId": 31,
						"contract": "contracts/TwitterContract.sol:TwitterContract",
						"label": "owner",
						"offset": 2,
						"slot": "1",
						"type": "t_address"
					}
				],
				"types": {
					"t_address": {
						"encoding": "inplace",
						"label": "address",
						"numberOfBytes": "20"
					},
					"t_array(t_struct(TweetWithLikes)20_storage)dyn_storage": {
						"base": "t_struct(TweetWithLikes)20_storage",
						"encoding": "dynamic_array",
						"label": "struct TwitterContract.TweetWithLikes[]",
						"numberOfBytes": "32"
					},
					"t_bool": {
						"encoding": "inplace",
						"label": "bool",
						"numberOfBytes": "1"
					},
					"t_mapping(t_address,t_array(t_struct(TweetWithLikes)20_storage)dyn_storage)": {
						"encoding": "mapping",
						"key": "t_address",
						"label": "mapping(address => struct TwitterContract.TweetWithLikes[])",
						"numberOfBytes": "32",
						"value": "t_array(t_struct(TweetWithLikes)20_storage)dyn_storage"
					},
					"t_mapping(t_address,t_bool)": {
						"encoding": "mapping",
						"key": "t_address",
						"label": "mapping(address => bool)",
						"numberOfBytes": "32",
						"value": "t_bool"
					},
					"t_string_storage": {
						"encoding": "bytes",
						"label": "string",
						"numberOfBytes": "32"
					},
					"t_struct(Tweet)12_storage": {
						"encoding": "inplace",
						"label": "struct TwitterContract.Tweet",
						"members": [
							{
								"astId": 3,
								"contract": "contracts/TwitterContract.sol:TwitterContract",
								"label": "id",
								"offset": 0,
								"slot": "0",
								"type": "t_uint256"
							},
							{
								"astId": 5,
								"contract": "contracts/TwitterContract.sol:TwitterContract",
								"label": "author",
								"offset": 0,
								"slot": "1",
								"type": "t_address"
							},
							{
								"astId": 7,
								"contract": "contracts/TwitterContract.sol:TwitterContract",
								"label": "content",
								"offset": 0,
								"slot": "2",
								"type": "t_string_storage"
							},
							{
								"astId": 9,
								"contract": "contracts/TwitterContract.sol:TwitterContract",
								"label": "datePublished",
								"offset": 0,
								"slot": "3",
								"type": "t_uint256"
							},
							{
								"astId": 11,
								"contract": "contracts/TwitterContract.sol:TwitterContract",
								"label": "likesCount",
								"offset": 0,
								"slot": "4",
								"type": "t_uint256"
							}
						],
						"numberOfBytes": "160"
					},
					"t_struct(TweetWithLikes)20_storage": {
						"encoding": "inplace",
						"label": "struct TwitterContract.TweetWithLikes",
						"members": [
							{
								"astId": 15,
								"contract": "contracts/TwitterContract.sol:TwitterContract",
								"label": "tweet",
								"offset": 0,
								"slot": "0",
								"type": "t_struct(Tweet)12_storage"
							},
							{
								"astId": 19,
								"contract": "contracts/TwitterContract.sol:TwitterContract",
								"label": "likes",
								"offset": 0,
								"slot": "5",
								"type": "t_mapping(t_address,t_bool)"
							}
						],
						"numberOfBytes": "192"
					},
					"t_uint16": {
						"encoding": "inplace",
						"label": "uint16",
						"numberOfBytes": "2"
					},
					"t_uint256": {
						"encoding": "inplace",
						"label": "uint256",
						"numberOfBytes": "32"
					}
				}
			},
			"userdoc": {
				"kind": "user",
				"methods": {},
				"version": 1
			}
		}
	}
}