{
	"contracts/Modifiers-exercise.sol": {
		"PausableToken": {
			"abi": [
				{
					"inputs": [],
					"stateMutability": "nonpayable",
					"type": "constructor"
				},
				{
					"inputs": [
						{
							"internalType": "address",
							"name": "",
							"type": "address"
						}
					],
					"name": "balances",
					"outputs": [
						{
							"internalType": "uint256",
							"name": "",
							"type": "uint256"
						}
					],
					"stateMutability": "view",
					"type": "function"
				},
				{
					"inputs": [],
					"name": "owner",
					"outputs": [
						{
							"internalType": "address",
							"name": "",
							"type": "address"
						}
					],
					"stateMutability": "view",
					"type": "function"
				},
				{
					"inputs": [],
					"name": "pause",
					"outputs": [],
					"stateMutability": "nonpayable",
					"type": "function"
				},
				{
					"inputs": [],
					"name": "paused",
					"outputs": [
						{
							"internalType": "bool",
							"name": "",
							"type": "bool"
						}
					],
					"stateMutability": "view",
					"type": "function"
				},
				{
					"inputs": [
						{
							"internalType": "address",
							"name": "to",
							"type": "address"
						},
						{
							"internalType": "uint256",
							"name": "amount",
							"type": "uint256"
						}
					],
					"name": "transfer",
					"outputs": [],
					"stateMutability": "nonpayable",
					"type": "function"
				},
				{
					"inputs": [],
					"name": "unpause",
					"outputs": [],
					"stateMutability": "nonpayable",
					"type": "function"
				}
			],
			"devdoc": {
				"kind": "dev",
				"methods": {},
				"version": 1
			},
			"evm": {
				"assembly": "    /* \"contracts/Modifiers-exercise.sol\":62:1122  contract PausableToken {... */\n  mstore(0x40, 0x80)\n    /* \"contracts/Modifiers-exercise.sol\":193:302  constructor() {... */\n  callvalue\n  dup1\n  iszero\n  tag_1\n  jumpi\n  0x00\n  dup1\n  revert\ntag_1:\n  pop\n    /* \"contracts/Modifiers-exercise.sol\":226:236  msg.sender */\n  caller\n    /* \"contracts/Modifiers-exercise.sol\":218:223  owner */\n  0x00\n  dup1\n    /* \"contracts/Modifiers-exercise.sol\":218:236  owner = msg.sender */\n  0x0100\n  exp\n  dup2\n  sload\n  dup2\n  0xffffffffffffffffffffffffffffffffffffffff\n  mul\n  not\n  and\n  swap1\n  dup4\n  0xffffffffffffffffffffffffffffffffffffffff\n  and\n  mul\n  or\n  swap1\n  sstore\n  pop\n    /* \"contracts/Modifiers-exercise.sol\":256:261  false */\n  0x00\n    /* \"contracts/Modifiers-exercise.sol\":247:253  paused */\n  dup1\n  0x14\n    /* \"contracts/Modifiers-exercise.sol\":247:261  paused = false */\n  0x0100\n  exp\n  dup2\n  sload\n  dup2\n  0xff\n  mul\n  not\n  and\n  swap1\n  dup4\n  iszero\n  iszero\n  mul\n  or\n  swap1\n  sstore\n  pop\n    /* \"contracts/Modifiers-exercise.sol\":290:294  1000 */\n  0x03e8\n    /* \"contracts/Modifiers-exercise.sol\":272:280  balances */\n  0x01\n    /* \"contracts/Modifiers-exercise.sol\":272:287  balances[owner] */\n  0x00\n    /* \"contracts/Modifiers-exercise.sol\":281:286  owner */\n  dup1\n  0x00\n  swap1\n  sload\n  swap1\n  0x0100\n  exp\n  swap1\n  div\n  0xffffffffffffffffffffffffffffffffffffffff\n  and\n    /* \"contracts/Modifiers-exercise.sol\":272:287  balances[owner] */\n  0xffffffffffffffffffffffffffffffffffffffff\n  and\n  0xffffffffffffffffffffffffffffffffffffffff\n  and\n  dup2\n  mstore\n  0x20\n  add\n  swap1\n  dup2\n  mstore\n  0x20\n  add\n  0x00\n  keccak256\n    /* \"contracts/Modifiers-exercise.sol\":272:294  balances[owner] = 1000 */\n  dup2\n  swap1\n  sstore\n  pop\n    /* \"contracts/Modifiers-exercise.sol\":62:1122  contract PausableToken {... */\n  dataSize(sub_0)\n  dup1\n  dataOffset(sub_0)\n  0x00\n  codecopy\n  0x00\n  return\nstop\n\nsub_0: assembly {\n        /* \"contracts/Modifiers-exercise.sol\":62:1122  contract PausableToken {... */\n      mstore(0x40, 0x80)\n      callvalue\n      dup1\n      iszero\n      tag_1\n      jumpi\n      0x00\n      dup1\n      revert\n    tag_1:\n      pop\n      jumpi(tag_2, lt(calldatasize, 0x04))\n      shr(0xe0, calldataload(0x00))\n      dup1\n      0x27e235e3\n      eq\n      tag_3\n      jumpi\n      dup1\n      0x3f4ba83a\n      eq\n      tag_4\n      jumpi\n      dup1\n      0x5c975abb\n      eq\n      tag_5\n      jumpi\n      dup1\n      0x8456cb59\n      eq\n      tag_6\n      jumpi\n      dup1\n      0x8da5cb5b\n      eq\n      tag_7\n      jumpi\n      dup1\n      0xa9059cbb\n      eq\n      tag_8\n      jumpi\n    tag_2:\n      0x00\n      dup1\n      revert\n        /* \"contracts/Modifiers-exercise.sol\":144:184  mapping(address => uint) public balances */\n    tag_3:\n      tag_9\n      0x04\n      dup1\n      calldatasize\n      sub\n      dup2\n      add\n      swap1\n      tag_10\n      swap2\n      swap1\n      tag_11\n      jump\t// in\n    tag_10:\n      tag_12\n      jump\t// in\n    tag_9:\n      mload(0x40)\n      tag_13\n      swap2\n      swap1\n      tag_14\n      jump\t// in\n    tag_13:\n      mload(0x40)\n      dup1\n      swap2\n      sub\n      swap1\n      return\n        /* \"contracts/Modifiers-exercise.sol\":763:832  function unpause() public onlyOwner {... */\n    tag_4:\n      tag_15\n      tag_16\n      jump\t// in\n    tag_15:\n      stop\n        /* \"contracts/Modifiers-exercise.sol\":119:137  bool public paused */\n    tag_5:\n      tag_17\n      tag_18\n      jump\t// in\n    tag_17:\n      mload(0x40)\n      tag_19\n      swap2\n      swap1\n      tag_20\n      jump\t// in\n    tag_19:\n      mload(0x40)\n      dup1\n      swap2\n      sub\n      swap1\n      return\n        /* \"contracts/Modifiers-exercise.sol\":689:755  function pause() public onlyOwner {... */\n    tag_6:\n      tag_21\n      tag_22\n      jump\t// in\n    tag_21:\n      stop\n        /* \"contracts/Modifiers-exercise.sol\":92:112  address public owner */\n    tag_7:\n      tag_23\n      tag_24\n      jump\t// in\n    tag_23:\n      mload(0x40)\n      tag_25\n      swap2\n      swap1\n      tag_26\n      jump\t// in\n    tag_25:\n      mload(0x40)\n      dup1\n      swap2\n      sub\n      swap1\n      return\n        /* \"contracts/Modifiers-exercise.sol\":901:1119  function transfer(address to, uint amount) public notPaused {... */\n    tag_8:\n      tag_27\n      0x04\n      dup1\n      calldatasize\n      sub\n      dup2\n      add\n      swap1\n      tag_28\n      swap2\n      swap1\n      tag_29\n      jump\t// in\n    tag_28:\n      tag_30\n      jump\t// in\n    tag_27:\n      stop\n        /* \"contracts/Modifiers-exercise.sol\":144:184  mapping(address => uint) public balances */\n    tag_12:\n      mstore(0x20, 0x01)\n      dup1\n      0x00\n      mstore\n      keccak256(0x00, 0x40)\n      0x00\n      swap2\n      pop\n      swap1\n      pop\n      sload\n      dup2\n      jump\t// out\n        /* \"contracts/Modifiers-exercise.sol\":763:832  function unpause() public onlyOwner {... */\n    tag_16:\n        /* \"contracts/Modifiers-exercise.sol\":452:457  owner */\n      0x00\n      dup1\n      sload\n      swap1\n      0x0100\n      exp\n      swap1\n      div\n      0xffffffffffffffffffffffffffffffffffffffff\n      and\n        /* \"contracts/Modifiers-exercise.sol\":438:457  msg.sender == owner */\n      0xffffffffffffffffffffffffffffffffffffffff\n      and\n        /* \"contracts/Modifiers-exercise.sol\":438:448  msg.sender */\n      caller\n        /* \"contracts/Modifiers-exercise.sol\":438:457  msg.sender == owner */\n      0xffffffffffffffffffffffffffffffffffffffff\n      and\n      eq\n        /* \"contracts/Modifiers-exercise.sol\":430:483  require(msg.sender == owner, \"You are not the owner\") */\n      tag_32\n      jumpi\n      mload(0x40)\n      0x08c379a000000000000000000000000000000000000000000000000000000000\n      dup2\n      mstore\n      0x04\n      add\n      tag_33\n      swap1\n      tag_34\n      jump\t// in\n    tag_33:\n      mload(0x40)\n      dup1\n      swap2\n      sub\n      swap1\n      revert\n    tag_32:\n        /* \"contracts/Modifiers-exercise.sol\":819:824  false */\n      0x00\n        /* \"contracts/Modifiers-exercise.sol\":810:816  paused */\n      dup1\n      0x14\n        /* \"contracts/Modifiers-exercise.sol\":810:824  paused = false */\n      0x0100\n      exp\n      dup2\n      sload\n      dup2\n      0xff\n      mul\n      not\n      and\n      swap1\n      dup4\n      iszero\n      iszero\n      mul\n      or\n      swap1\n      sstore\n      pop\n        /* \"contracts/Modifiers-exercise.sol\":763:832  function unpause() public onlyOwner {... */\n      jump\t// out\n        /* \"contracts/Modifiers-exercise.sol\":119:137  bool public paused */\n    tag_18:\n      0x00\n      0x14\n      swap1\n      sload\n      swap1\n      0x0100\n      exp\n      swap1\n      div\n      0xff\n      and\n      dup2\n      jump\t// out\n        /* \"contracts/Modifiers-exercise.sol\":689:755  function pause() public onlyOwner {... */\n    tag_22:\n        /* \"contracts/Modifiers-exercise.sol\":452:457  owner */\n      0x00\n      dup1\n      sload\n      swap1\n      0x0100\n      exp\n      swap1\n      div\n      0xffffffffffffffffffffffffffffffffffffffff\n      and\n        /* \"contracts/Modifiers-exercise.sol\":438:457  msg.sender == owner */\n      0xffffffffffffffffffffffffffffffffffffffff\n      and\n        /* \"contracts/Modifiers-exercise.sol\":438:448  msg.sender */\n      caller\n        /* \"contracts/Modifiers-exercise.sol\":438:457  msg.sender == owner */\n      0xffffffffffffffffffffffffffffffffffffffff\n      and\n      eq\n        /* \"contracts/Modifiers-exercise.sol\":430:483  require(msg.sender == owner, \"You are not the owner\") */\n      tag_37\n      jumpi\n      mload(0x40)\n      0x08c379a000000000000000000000000000000000000000000000000000000000\n      dup2\n      mstore\n      0x04\n      add\n      tag_38\n      swap1\n      tag_34\n      jump\t// in\n    tag_38:\n      mload(0x40)\n      dup1\n      swap2\n      sub\n      swap1\n      revert\n    tag_37:\n        /* \"contracts/Modifiers-exercise.sol\":743:747  true */\n      0x01\n        /* \"contracts/Modifiers-exercise.sol\":734:740  paused */\n      0x00\n      0x14\n        /* \"contracts/Modifiers-exercise.sol\":734:747  paused = true */\n      0x0100\n      exp\n      dup2\n      sload\n      dup2\n      0xff\n      mul\n      not\n      and\n      swap1\n      dup4\n      iszero\n      iszero\n      mul\n      or\n      swap1\n      sstore\n      pop\n        /* \"contracts/Modifiers-exercise.sol\":689:755  function pause() public onlyOwner {... */\n      jump\t// out\n        /* \"contracts/Modifiers-exercise.sol\":92:112  address public owner */\n    tag_24:\n      0x00\n      dup1\n      sload\n      swap1\n      0x0100\n      exp\n      swap1\n      div\n      0xffffffffffffffffffffffffffffffffffffffff\n      and\n      dup2\n      jump\t// out\n        /* \"contracts/Modifiers-exercise.sol\":901:1119  function transfer(address to, uint amount) public notPaused {... */\n    tag_30:\n        /* \"contracts/Modifiers-exercise.sol\":631:637  paused */\n      0x00\n      0x14\n      swap1\n      sload\n      swap1\n      0x0100\n      exp\n      swap1\n      div\n      0xff\n      and\n        /* \"contracts/Modifiers-exercise.sol\":630:637  !paused */\n      iszero\n        /* \"contracts/Modifiers-exercise.sol\":622:660  require(!paused, \"Contract is paused\") */\n      tag_41\n      jumpi\n      mload(0x40)\n      0x08c379a000000000000000000000000000000000000000000000000000000000\n      dup2\n      mstore\n      0x04\n      add\n      tag_42\n      swap1\n      tag_43\n      jump\t// in\n    tag_42:\n      mload(0x40)\n      dup1\n      swap2\n      sub\n      swap1\n      revert\n    tag_41:\n        /* \"contracts/Modifiers-exercise.sol\":1004:1010  amount */\n      dup1\n        /* \"contracts/Modifiers-exercise.sol\":980:988  balances */\n      0x01\n        /* \"contracts/Modifiers-exercise.sol\":980:1000  balances[msg.sender] */\n      0x00\n        /* \"contracts/Modifiers-exercise.sol\":989:999  msg.sender */\n      caller\n        /* \"contracts/Modifiers-exercise.sol\":980:1000  balances[msg.sender] */\n      0xffffffffffffffffffffffffffffffffffffffff\n      and\n      0xffffffffffffffffffffffffffffffffffffffff\n      and\n      dup2\n      mstore\n      0x20\n      add\n      swap1\n      dup2\n      mstore\n      0x20\n      add\n      0x00\n      keccak256\n      sload\n        /* \"contracts/Modifiers-exercise.sol\":980:1010  balances[msg.sender] >= amount */\n      lt\n      iszero\n        /* \"contracts/Modifiers-exercise.sol\":972:1035  require(balances[msg.sender] >= amount, \"Insufficient balance\") */\n      tag_45\n      jumpi\n      mload(0x40)\n      0x08c379a000000000000000000000000000000000000000000000000000000000\n      dup2\n      mstore\n      0x04\n      add\n      tag_46\n      swap1\n      tag_47\n      jump\t// in\n    tag_46:\n      mload(0x40)\n      dup1\n      swap2\n      sub\n      swap1\n      revert\n    tag_45:\n        /* \"contracts/Modifiers-exercise.sol\":1072:1078  amount */\n      dup1\n        /* \"contracts/Modifiers-exercise.sol\":1048:1056  balances */\n      0x01\n        /* \"contracts/Modifiers-exercise.sol\":1048:1068  balances[msg.sender] */\n      0x00\n        /* \"contracts/Modifiers-exercise.sol\":1057:1067  msg.sender */\n      caller\n        /* \"contracts/Modifiers-exercise.sol\":1048:1068  balances[msg.sender] */\n      0xffffffffffffffffffffffffffffffffffffffff\n      and\n      0xffffffffffffffffffffffffffffffffffffffff\n      and\n      dup2\n      mstore\n      0x20\n      add\n      swap1\n      dup2\n      mstore\n      0x20\n      add\n      0x00\n      keccak256\n      0x00\n        /* \"contracts/Modifiers-exercise.sol\":1048:1078  balances[msg.sender] -= amount */\n      dup3\n      dup3\n      sload\n      tag_48\n      swap2\n      swap1\n      tag_49\n      jump\t// in\n    tag_48:\n      swap3\n      pop\n      pop\n      dup2\n      swap1\n      sstore\n      pop\n        /* \"contracts/Modifiers-exercise.sol\":1105:1111  amount */\n      dup1\n        /* \"contracts/Modifiers-exercise.sol\":1089:1097  balances */\n      0x01\n        /* \"contracts/Modifiers-exercise.sol\":1089:1101  balances[to] */\n      0x00\n        /* \"contracts/Modifiers-exercise.sol\":1098:1100  to */\n      dup5\n        /* \"contracts/Modifiers-exercise.sol\":1089:1101  balances[to] */\n      0xffffffffffffffffffffffffffffffffffffffff\n      and\n      0xffffffffffffffffffffffffffffffffffffffff\n      and\n      dup2\n      mstore\n      0x20\n      add\n      swap1\n      dup2\n      mstore\n      0x20\n      add\n      0x00\n      keccak256\n      0x00\n        /* \"contracts/Modifiers-exercise.sol\":1089:1111  balances[to] += amount */\n      dup3\n      dup3\n      sload\n      tag_50\n      swap2\n      swap1\n      tag_51\n      jump\t// in\n    tag_50:\n      swap3\n      pop\n      pop\n      dup2\n      swap1\n      sstore\n      pop\n        /* \"contracts/Modifiers-exercise.sol\":901:1119  function transfer(address to, uint amount) public notPaused {... */\n      pop\n      pop\n      jump\t// out\n        /* \"#utility.yul\":88:205   */\n    tag_53:\n        /* \"#utility.yul\":197:198   */\n      0x00\n        /* \"#utility.yul\":194:195   */\n      dup1\n        /* \"#utility.yul\":187:199   */\n      revert\n        /* \"#utility.yul\":334:460   */\n    tag_55:\n        /* \"#utility.yul\":371:378   */\n      0x00\n        /* \"#utility.yul\":411:453   */\n      0xffffffffffffffffffffffffffffffffffffffff\n        /* \"#utility.yul\":404:409   */\n      dup3\n        /* \"#utility.yul\":400:454   */\n      and\n        /* \"#utility.yul\":389:454   */\n      swap1\n      pop\n        /* \"#utility.yul\":334:460   */\n      swap2\n      swap1\n      pop\n      jump\t// out\n        /* \"#utility.yul\":466:562   */\n    tag_56:\n        /* \"#utility.yul\":503:510   */\n      0x00\n        /* \"#utility.yul\":532:556   */\n      tag_80\n        /* \"#utility.yul\":550:555   */\n      dup3\n        /* \"#utility.yul\":532:556   */\n      tag_55\n      jump\t// in\n    tag_80:\n        /* \"#utility.yul\":521:556   */\n      swap1\n      pop\n        /* \"#utility.yul\":466:562   */\n      swap2\n      swap1\n      pop\n      jump\t// out\n        /* \"#utility.yul\":568:690   */\n    tag_57:\n        /* \"#utility.yul\":641:665   */\n      tag_82\n        /* \"#utility.yul\":659:664   */\n      dup2\n        /* \"#utility.yul\":641:665   */\n      tag_56\n      jump\t// in\n    tag_82:\n        /* \"#utility.yul\":634:639   */\n      dup2\n        /* \"#utility.yul\":631:666   */\n      eq\n        /* \"#utility.yul\":621:684   */\n      tag_83\n      jumpi\n        /* \"#utility.yul\":680:681   */\n      0x00\n        /* \"#utility.yul\":677:678   */\n      dup1\n        /* \"#utility.yul\":670:682   */\n      revert\n        /* \"#utility.yul\":621:684   */\n    tag_83:\n        /* \"#utility.yul\":568:690   */\n      pop\n      jump\t// out\n        /* \"#utility.yul\":696:835   */\n    tag_58:\n        /* \"#utility.yul\":742:747   */\n      0x00\n        /* \"#utility.yul\":780:786   */\n      dup2\n        /* \"#utility.yul\":767:787   */\n      calldataload\n        /* \"#utility.yul\":758:787   */\n      swap1\n      pop\n        /* \"#utility.yul\":796:829   */\n      tag_85\n        /* \"#utility.yul\":823:828   */\n      dup2\n        /* \"#utility.yul\":796:829   */\n      tag_57\n      jump\t// in\n    tag_85:\n        /* \"#utility.yul\":696:835   */\n      swap3\n      swap2\n      pop\n      pop\n      jump\t// out\n        /* \"#utility.yul\":841:1170   */\n    tag_11:\n        /* \"#utility.yul\":900:906   */\n      0x00\n        /* \"#utility.yul\":949:951   */\n      0x20\n        /* \"#utility.yul\":937:946   */\n      dup3\n        /* \"#utility.yul\":928:935   */\n      dup5\n        /* \"#utility.yul\":924:947   */\n      sub\n        /* \"#utility.yul\":920:952   */\n      slt\n        /* \"#utility.yul\":917:1036   */\n      iszero\n      tag_87\n      jumpi\n        /* \"#utility.yul\":955:1034   */\n      tag_88\n      tag_53\n      jump\t// in\n    tag_88:\n        /* \"#utility.yul\":917:1036   */\n    tag_87:\n        /* \"#utility.yul\":1075:1076   */\n      0x00\n        /* \"#utility.yul\":1100:1153   */\n      tag_89\n        /* \"#utility.yul\":1145:1152   */\n      dup5\n        /* \"#utility.yul\":1136:1142   */\n      dup3\n        /* \"#utility.yul\":1125:1134   */\n      dup6\n        /* \"#utility.yul\":1121:1143   */\n      add\n        /* \"#utility.yul\":1100:1153   */\n      tag_58\n      jump\t// in\n    tag_89:\n        /* \"#utility.yul\":1090:1153   */\n      swap2\n      pop\n        /* \"#utility.yul\":1046:1163   */\n      pop\n        /* \"#utility.yul\":841:1170   */\n      swap3\n      swap2\n      pop\n      pop\n      jump\t// out\n        /* \"#utility.yul\":1176:1253   */\n    tag_59:\n        /* \"#utility.yul\":1213:1220   */\n      0x00\n        /* \"#utility.yul\":1242:1247   */\n      dup2\n        /* \"#utility.yul\":1231:1247   */\n      swap1\n      pop\n        /* \"#utility.yul\":1176:1253   */\n      swap2\n      swap1\n      pop\n      jump\t// out\n        /* \"#utility.yul\":1259:1377   */\n    tag_60:\n        /* \"#utility.yul\":1346:1370   */\n      tag_92\n        /* \"#utility.yul\":1364:1369   */\n      dup2\n        /* \"#utility.yul\":1346:1370   */\n      tag_59\n      jump\t// in\n    tag_92:\n        /* \"#utility.yul\":1341:1344   */\n      dup3\n        /* \"#utility.yul\":1334:1371   */\n      mstore\n        /* \"#utility.yul\":1259:1377   */\n      pop\n      pop\n      jump\t// out\n        /* \"#utility.yul\":1383:1605   */\n    tag_14:\n        /* \"#utility.yul\":1476:1480   */\n      0x00\n        /* \"#utility.yul\":1514:1516   */\n      0x20\n        /* \"#utility.yul\":1503:1512   */\n      dup3\n        /* \"#utility.yul\":1499:1517   */\n      add\n        /* \"#utility.yul\":1491:1517   */\n      swap1\n      pop\n        /* \"#utility.yul\":1527:1598   */\n      tag_94\n        /* \"#utility.yul\":1595:1596   */\n      0x00\n        /* \"#utility.yul\":1584:1593   */\n      dup4\n        /* \"#utility.yul\":1580:1597   */\n      add\n        /* \"#utility.yul\":1571:1577   */\n      dup5\n        /* \"#utility.yul\":1527:1598   */\n      tag_60\n      jump\t// in\n    tag_94:\n        /* \"#utility.yul\":1383:1605   */\n      swap3\n      swap2\n      pop\n      pop\n      jump\t// out\n        /* \"#utility.yul\":1611:1701   */\n    tag_61:\n        /* \"#utility.yul\":1645:1652   */\n      0x00\n        /* \"#utility.yul\":1688:1693   */\n      dup2\n        /* \"#utility.yul\":1681:1694   */\n      iszero\n        /* \"#utility.yul\":1674:1695   */\n      iszero\n        /* \"#utility.yul\":1663:1695   */\n      swap1\n      pop\n        /* \"#utility.yul\":1611:1701   */\n      swap2\n      swap1\n      pop\n      jump\t// out\n        /* \"#utility.yul\":1707:1816   */\n    tag_62:\n        /* \"#utility.yul\":1788:1809   */\n      tag_97\n        /* \"#utility.yul\":1803:1808   */\n      dup2\n        /* \"#utility.yul\":1788:1809   */\n      tag_61\n      jump\t// in\n    tag_97:\n        /* \"#utility.yul\":1783:1786   */\n      dup3\n        /* \"#utility.yul\":1776:1810   */\n      mstore\n        /* \"#utility.yul\":1707:1816   */\n      pop\n      pop\n      jump\t// out\n        /* \"#utility.yul\":1822:2032   */\n    tag_20:\n        /* \"#utility.yul\":1909:1913   */\n      0x00\n        /* \"#utility.yul\":1947:1949   */\n      0x20\n        /* \"#utility.yul\":1936:1945   */\n      dup3\n        /* \"#utility.yul\":1932:1950   */\n      add\n        /* \"#utility.yul\":1924:1950   */\n      swap1\n      pop\n        /* \"#utility.yul\":1960:2025   */\n      tag_99\n        /* \"#utility.yul\":2022:2023   */\n      0x00\n        /* \"#utility.yul\":2011:2020   */\n      dup4\n        /* \"#utility.yul\":2007:2024   */\n      add\n        /* \"#utility.yul\":1998:2004   */\n      dup5\n        /* \"#utility.yul\":1960:2025   */\n      tag_62\n      jump\t// in\n    tag_99:\n        /* \"#utility.yul\":1822:2032   */\n      swap3\n      swap2\n      pop\n      pop\n      jump\t// out\n        /* \"#utility.yul\":2038:2156   */\n    tag_63:\n        /* \"#utility.yul\":2125:2149   */\n      tag_101\n        /* \"#utility.yul\":2143:2148   */\n      dup2\n        /* \"#utility.yul\":2125:2149   */\n      tag_56\n      jump\t// in\n    tag_101:\n        /* \"#utility.yul\":2120:2123   */\n      dup3\n        /* \"#utility.yul\":2113:2150   */\n      mstore\n        /* \"#utility.yul\":2038:2156   */\n      pop\n      pop\n      jump\t// out\n        /* \"#utility.yul\":2162:2384   */\n    tag_26:\n        /* \"#utility.yul\":2255:2259   */\n      0x00\n        /* \"#utility.yul\":2293:2295   */\n      0x20\n        /* \"#utility.yul\":2282:2291   */\n      dup3\n        /* \"#utility.yul\":2278:2296   */\n      add\n        /* \"#utility.yul\":2270:2296   */\n      swap1\n      pop\n        /* \"#utility.yul\":2306:2377   */\n      tag_103\n        /* \"#utility.yul\":2374:2375   */\n      0x00\n        /* \"#utility.yul\":2363:2372   */\n      dup4\n        /* \"#utility.yul\":2359:2376   */\n      add\n        /* \"#utility.yul\":2350:2356   */\n      dup5\n        /* \"#utility.yul\":2306:2377   */\n      tag_63\n      jump\t// in\n    tag_103:\n        /* \"#utility.yul\":2162:2384   */\n      swap3\n      swap2\n      pop\n      pop\n      jump\t// out\n        /* \"#utility.yul\":2390:2512   */\n    tag_64:\n        /* \"#utility.yul\":2463:2487   */\n      tag_105\n        /* \"#utility.yul\":2481:2486   */\n      dup2\n        /* \"#utility.yul\":2463:2487   */\n      tag_59\n      jump\t// in\n    tag_105:\n        /* \"#utility.yul\":2456:2461   */\n      dup2\n        /* \"#utility.yul\":2453:2488   */\n      eq\n        /* \"#utility.yul\":2443:2506   */\n      tag_106\n      jumpi\n        /* \"#utility.yul\":2502:2503   */\n      0x00\n        /* \"#utility.yul\":2499:2500   */\n      dup1\n        /* \"#utility.yul\":2492:2504   */\n      revert\n        /* \"#utility.yul\":2443:2506   */\n    tag_106:\n        /* \"#utility.yul\":2390:2512   */\n      pop\n      jump\t// out\n        /* \"#utility.yul\":2518:2657   */\n    tag_65:\n        /* \"#utility.yul\":2564:2569   */\n      0x00\n        /* \"#utility.yul\":2602:2608   */\n      dup2\n        /* \"#utility.yul\":2589:2609   */\n      calldataload\n        /* \"#utility.yul\":2580:2609   */\n      swap1\n      pop\n        /* \"#utility.yul\":2618:2651   */\n      tag_108\n        /* \"#utility.yul\":2645:2650   */\n      dup2\n        /* \"#utility.yul\":2618:2651   */\n      tag_64\n      jump\t// in\n    tag_108:\n        /* \"#utility.yul\":2518:2657   */\n      swap3\n      swap2\n      pop\n      pop\n      jump\t// out\n        /* \"#utility.yul\":2663:3137   */\n    tag_29:\n        /* \"#utility.yul\":2731:2737   */\n      0x00\n        /* \"#utility.yul\":2739:2745   */\n      dup1\n        /* \"#utility.yul\":2788:2790   */\n      0x40\n        /* \"#utility.yul\":2776:2785   */\n      dup4\n        /* \"#utility.yul\":2767:2774   */\n      dup6\n        /* \"#utility.yul\":2763:2786   */\n      sub\n        /* \"#utility.yul\":2759:2791   */\n      slt\n        /* \"#utility.yul\":2756:2875   */\n      iszero\n      tag_110\n      jumpi\n        /* \"#utility.yul\":2794:2873   */\n      tag_111\n      tag_53\n      jump\t// in\n    tag_111:\n        /* \"#utility.yul\":2756:2875   */\n    tag_110:\n        /* \"#utility.yul\":2914:2915   */\n      0x00\n        /* \"#utility.yul\":2939:2992   */\n      tag_112\n        /* \"#utility.yul\":2984:2991   */\n      dup6\n        /* \"#utility.yul\":2975:2981   */\n      dup3\n        /* \"#utility.yul\":2964:2973   */\n      dup7\n        /* \"#utility.yul\":2960:2982   */\n      add\n        /* \"#utility.yul\":2939:2992   */\n      tag_58\n      jump\t// in\n    tag_112:\n        /* \"#utility.yul\":2929:2992   */\n      swap3\n      pop\n        /* \"#utility.yul\":2885:3002   */\n      pop\n        /* \"#utility.yul\":3041:3043   */\n      0x20\n        /* \"#utility.yul\":3067:3120   */\n      tag_113\n        /* \"#utility.yul\":3112:3119   */\n      dup6\n        /* \"#utility.yul\":3103:3109   */\n      dup3\n        /* \"#utility.yul\":3092:3101   */\n      dup7\n        /* \"#utility.yul\":3088:3110   */\n      add\n        /* \"#utility.yul\":3067:3120   */\n      tag_65\n      jump\t// in\n    tag_113:\n        /* \"#utility.yul\":3057:3120   */\n      swap2\n      pop\n        /* \"#utility.yul\":3012:3130   */\n      pop\n        /* \"#utility.yul\":2663:3137   */\n      swap3\n      pop\n      swap3\n      swap1\n      pop\n      jump\t// out\n        /* \"#utility.yul\":3143:3312   */\n    tag_66:\n        /* \"#utility.yul\":3227:3238   */\n      0x00\n        /* \"#utility.yul\":3261:3267   */\n      dup3\n        /* \"#utility.yul\":3256:3259   */\n      dup3\n        /* \"#utility.yul\":3249:3268   */\n      mstore\n        /* \"#utility.yul\":3301:3305   */\n      0x20\n        /* \"#utility.yul\":3296:3299   */\n      dup3\n        /* \"#utility.yul\":3292:3306   */\n      add\n        /* \"#utility.yul\":3277:3306   */\n      swap1\n      pop\n        /* \"#utility.yul\":3143:3312   */\n      swap3\n      swap2\n      pop\n      pop\n      jump\t// out\n        /* \"#utility.yul\":3318:3489   */\n    tag_67:\n        /* \"#utility.yul\":3458:3481   */\n      0x596f7520617265206e6f7420746865206f776e65720000000000000000000000\n        /* \"#utility.yul\":3454:3455   */\n      0x00\n        /* \"#utility.yul\":3446:3452   */\n      dup3\n        /* \"#utility.yul\":3442:3456   */\n      add\n        /* \"#utility.yul\":3435:3482   */\n      mstore\n        /* \"#utility.yul\":3318:3489   */\n      pop\n      jump\t// out\n        /* \"#utility.yul\":3495:3861   */\n    tag_68:\n        /* \"#utility.yul\":3637:3640   */\n      0x00\n        /* \"#utility.yul\":3658:3725   */\n      tag_117\n        /* \"#utility.yul\":3722:3724   */\n      0x15\n        /* \"#utility.yul\":3717:3720   */\n      dup4\n        /* \"#utility.yul\":3658:3725   */\n      tag_66\n      jump\t// in\n    tag_117:\n        /* \"#utility.yul\":3651:3725   */\n      swap2\n      pop\n        /* \"#utility.yul\":3734:3827   */\n      tag_118\n        /* \"#utility.yul\":3823:3826   */\n      dup3\n        /* \"#utility.yul\":3734:3827   */\n      tag_67\n      jump\t// in\n    tag_118:\n        /* \"#utility.yul\":3852:3854   */\n      0x20\n        /* \"#utility.yul\":3847:3850   */\n      dup3\n        /* \"#utility.yul\":3843:3855   */\n      add\n        /* \"#utility.yul\":3836:3855   */\n      swap1\n      pop\n        /* \"#utility.yul\":3495:3861   */\n      swap2\n      swap1\n      pop\n      jump\t// out\n        /* \"#utility.yul\":3867:4286   */\n    tag_34:\n        /* \"#utility.yul\":4033:4037   */\n      0x00\n        /* \"#utility.yul\":4071:4073   */\n      0x20\n        /* \"#utility.yul\":4060:4069   */\n      dup3\n        /* \"#utility.yul\":4056:4074   */\n      add\n        /* \"#utility.yul\":4048:4074   */\n      swap1\n      pop\n        /* \"#utility.yul\":4120:4129   */\n      dup2\n        /* \"#utility.yul\":4114:4118   */\n      dup2\n        /* \"#utility.yul\":4110:4130   */\n      sub\n        /* \"#utility.yul\":4106:4107   */\n      0x00\n        /* \"#utility.yul\":4095:4104   */\n      dup4\n        /* \"#utility.yul\":4091:4108   */\n      add\n        /* \"#utility.yul\":4084:4131   */\n      mstore\n        /* \"#utility.yul\":4148:4279   */\n      tag_120\n        /* \"#utility.yul\":4274:4278   */\n      dup2\n        /* \"#utility.yul\":4148:4279   */\n      tag_68\n      jump\t// in\n    tag_120:\n        /* \"#utility.yul\":4140:4279   */\n      swap1\n      pop\n        /* \"#utility.yul\":3867:4286   */\n      swap2\n      swap1\n      pop\n      jump\t// out\n        /* \"#utility.yul\":4292:4460   */\n    tag_69:\n        /* \"#utility.yul\":4432:4452   */\n      0x436f6e7472616374206973207061757365640000000000000000000000000000\n        /* \"#utility.yul\":4428:4429   */\n      0x00\n        /* \"#utility.yul\":4420:4426   */\n      dup3\n        /* \"#utility.yul\":4416:4430   */\n      add\n        /* \"#utility.yul\":4409:4453   */\n      mstore\n        /* \"#utility.yul\":4292:4460   */\n      pop\n      jump\t// out\n        /* \"#utility.yul\":4466:4832   */\n    tag_70:\n        /* \"#utility.yul\":4608:4611   */\n      0x00\n        /* \"#utility.yul\":4629:4696   */\n      tag_123\n        /* \"#utility.yul\":4693:4695   */\n      0x12\n        /* \"#utility.yul\":4688:4691   */\n      dup4\n        /* \"#utility.yul\":4629:4696   */\n      tag_66\n      jump\t// in\n    tag_123:\n        /* \"#utility.yul\":4622:4696   */\n      swap2\n      pop\n        /* \"#utility.yul\":4705:4798   */\n      tag_124\n        /* \"#utility.yul\":4794:4797   */\n      dup3\n        /* \"#utility.yul\":4705:4798   */\n      tag_69\n      jump\t// in\n    tag_124:\n        /* \"#utility.yul\":4823:4825   */\n      0x20\n        /* \"#utility.yul\":4818:4821   */\n      dup3\n        /* \"#utility.yul\":4814:4826   */\n      add\n        /* \"#utility.yul\":4807:4826   */\n      swap1\n      pop\n        /* \"#utility.yul\":4466:4832   */\n      swap2\n      swap1\n      pop\n      jump\t// out\n        /* \"#utility.yul\":4838:5257   */\n    tag_43:\n        /* \"#utility.yul\":5004:5008   */\n      0x00\n        /* \"#utility.yul\":5042:5044   */\n      0x20\n        /* \"#utility.yul\":5031:5040   */\n      dup3\n        /* \"#utility.yul\":5027:5045   */\n      add\n        /* \"#utility.yul\":5019:5045   */\n      swap1\n      pop\n        /* \"#utility.yul\":5091:5100   */\n      dup2\n        /* \"#utility.yul\":5085:5089   */\n      dup2\n        /* \"#utility.yul\":5081:5101   */\n      sub\n        /* \"#utility.yul\":5077:5078   */\n      0x00\n        /* \"#utility.yul\":5066:5075   */\n      dup4\n        /* \"#utility.yul\":5062:5079   */\n      add\n        /* \"#utility.yul\":5055:5102   */\n      mstore\n        /* \"#utility.yul\":5119:5250   */\n      tag_126\n        /* \"#utility.yul\":5245:5249   */\n      dup2\n        /* \"#utility.yul\":5119:5250   */\n      tag_70\n      jump\t// in\n    tag_126:\n        /* \"#utility.yul\":5111:5250   */\n      swap1\n      pop\n        /* \"#utility.yul\":4838:5257   */\n      swap2\n      swap1\n      pop\n      jump\t// out\n        /* \"#utility.yul\":5263:5433   */\n    tag_71:\n        /* \"#utility.yul\":5403:5425   */\n      0x496e73756666696369656e742062616c616e6365000000000000000000000000\n        /* \"#utility.yul\":5399:5400   */\n      0x00\n        /* \"#utility.yul\":5391:5397   */\n      dup3\n        /* \"#utility.yul\":5387:5401   */\n      add\n        /* \"#utility.yul\":5380:5426   */\n      mstore\n        /* \"#utility.yul\":5263:5433   */\n      pop\n      jump\t// out\n        /* \"#utility.yul\":5439:5805   */\n    tag_72:\n        /* \"#utility.yul\":5581:5584   */\n      0x00\n        /* \"#utility.yul\":5602:5669   */\n      tag_129\n        /* \"#utility.yul\":5666:5668   */\n      0x14\n        /* \"#utility.yul\":5661:5664   */\n      dup4\n        /* \"#utility.yul\":5602:5669   */\n      tag_66\n      jump\t// in\n    tag_129:\n        /* \"#utility.yul\":5595:5669   */\n      swap2\n      pop\n        /* \"#utility.yul\":5678:5771   */\n      tag_130\n        /* \"#utility.yul\":5767:5770   */\n      dup3\n        /* \"#utility.yul\":5678:5771   */\n      tag_71\n      jump\t// in\n    tag_130:\n        /* \"#utility.yul\":5796:5798   */\n      0x20\n        /* \"#utility.yul\":5791:5794   */\n      dup3\n        /* \"#utility.yul\":5787:5799   */\n      add\n        /* \"#utility.yul\":5780:5799   */\n      swap1\n      pop\n        /* \"#utility.yul\":5439:5805   */\n      swap2\n      swap1\n      pop\n      jump\t// out\n        /* \"#utility.yul\":5811:6230   */\n    tag_47:\n        /* \"#utility.yul\":5977:5981   */\n      0x00\n        /* \"#utility.yul\":6015:6017   */\n      0x20\n        /* \"#utility.yul\":6004:6013   */\n      dup3\n        /* \"#utility.yul\":6000:6018   */\n      add\n        /* \"#utility.yul\":5992:6018   */\n      swap1\n      pop\n        /* \"#utility.yul\":6064:6073   */\n      dup2\n        /* \"#utility.yul\":6058:6062   */\n      dup2\n        /* \"#utility.yul\":6054:6074   */\n      sub\n        /* \"#utility.yul\":6050:6051   */\n      0x00\n        /* \"#utility.yul\":6039:6048   */\n      dup4\n        /* \"#utility.yul\":6035:6052   */\n      add\n        /* \"#utility.yul\":6028:6075   */\n      mstore\n        /* \"#utility.yul\":6092:6223   */\n      tag_132\n        /* \"#utility.yul\":6218:6222   */\n      dup2\n        /* \"#utility.yul\":6092:6223   */\n      tag_72\n      jump\t// in\n    tag_132:\n        /* \"#utility.yul\":6084:6223   */\n      swap1\n      pop\n        /* \"#utility.yul\":5811:6230   */\n      swap2\n      swap1\n      pop\n      jump\t// out\n        /* \"#utility.yul\":6236:6416   */\n    tag_73:\n        /* \"#utility.yul\":6284:6361   */\n      0x4e487b7100000000000000000000000000000000000000000000000000000000\n        /* \"#utility.yul\":6281:6282   */\n      0x00\n        /* \"#utility.yul\":6274:6362   */\n      mstore\n        /* \"#utility.yul\":6381:6385   */\n      0x11\n        /* \"#utility.yul\":6378:6379   */\n      0x04\n        /* \"#utility.yul\":6371:6386   */\n      mstore\n        /* \"#utility.yul\":6405:6409   */\n      0x24\n        /* \"#utility.yul\":6402:6403   */\n      0x00\n        /* \"#utility.yul\":6395:6410   */\n      revert\n        /* \"#utility.yul\":6422:6616   */\n    tag_49:\n        /* \"#utility.yul\":6462:6466   */\n      0x00\n        /* \"#utility.yul\":6482:6502   */\n      tag_135\n        /* \"#utility.yul\":6500:6501   */\n      dup3\n        /* \"#utility.yul\":6482:6502   */\n      tag_59\n      jump\t// in\n    tag_135:\n        /* \"#utility.yul\":6477:6502   */\n      swap2\n      pop\n        /* \"#utility.yul\":6516:6536   */\n      tag_136\n        /* \"#utility.yul\":6534:6535   */\n      dup4\n        /* \"#utility.yul\":6516:6536   */\n      tag_59\n      jump\t// in\n    tag_136:\n        /* \"#utility.yul\":6511:6536   */\n      swap3\n      pop\n        /* \"#utility.yul\":6560:6561   */\n      dup3\n        /* \"#utility.yul\":6557:6558   */\n      dup3\n        /* \"#utility.yul\":6553:6562   */\n      sub\n        /* \"#utility.yul\":6545:6562   */\n      swap1\n      pop\n        /* \"#utility.yul\":6584:6585   */\n      dup2\n        /* \"#utility.yul\":6578:6582   */\n      dup2\n        /* \"#utility.yul\":6575:6586   */\n      gt\n        /* \"#utility.yul\":6572:6609   */\n      iszero\n      tag_137\n      jumpi\n        /* \"#utility.yul\":6589:6607   */\n      tag_138\n      tag_73\n      jump\t// in\n    tag_138:\n        /* \"#utility.yul\":6572:6609   */\n    tag_137:\n        /* \"#utility.yul\":6422:6616   */\n      swap3\n      swap2\n      pop\n      pop\n      jump\t// out\n        /* \"#utility.yul\":6622:6813   */\n    tag_51:\n        /* \"#utility.yul\":6662:6665   */\n      0x00\n        /* \"#utility.yul\":6681:6701   */\n      tag_140\n        /* \"#utility.yul\":6699:6700   */\n      dup3\n        /* \"#utility.yul\":6681:6701   */\n      tag_59\n      jump\t// in\n    tag_140:\n        /* \"#utility.yul\":6676:6701   */\n      swap2\n      pop\n        /* \"#utility.yul\":6715:6735   */\n      tag_141\n        /* \"#utility.yul\":6733:6734   */\n      dup4\n        /* \"#utility.yul\":6715:6735   */\n      tag_59\n      jump\t// in\n    tag_141:\n        /* \"#utility.yul\":6710:6735   */\n      swap3\n      pop\n        /* \"#utility.yul\":6758:6759   */\n      dup3\n        /* \"#utility.yul\":6755:6756   */\n      dup3\n        /* \"#utility.yul\":6751:6760   */\n      add\n        /* \"#utility.yul\":6744:6760   */\n      swap1\n      pop\n        /* \"#utility.yul\":6779:6782   */\n      dup1\n        /* \"#utility.yul\":6776:6777   */\n      dup3\n        /* \"#utility.yul\":6773:6783   */\n      gt\n        /* \"#utility.yul\":6770:6806   */\n      iszero\n      tag_142\n      jumpi\n        /* \"#utility.yul\":6786:6804   */\n      tag_143\n      tag_73\n      jump\t// in\n    tag_143:\n        /* \"#utility.yul\":6770:6806   */\n    tag_142:\n        /* \"#utility.yul\":6622:6813   */\n      swap3\n      swap2\n      pop\n      pop\n      jump\t// out\n\n    auxdata: 0xa26469706673582212204809d9ec8e31a9212d8c23829888ad42eb268724d83675c236c7865c2a44ff9c64736f6c63430008190033\n}\n",
				"bytecode": {
					"linkReferences": {},
					"object": "6080604052348015600e575f80fd5b50335f806101000a81548173ffffffffffffffffffffffffffffffffffffffff021916908373ffffffffffffffffffffffffffffffffffffffff1602179055505f8060146101000a81548160ff0219169083151502179055506103e860015f805f9054906101000a900473ffffffffffffffffffffffffffffffffffffffff1673ffffffffffffffffffffffffffffffffffffffff1673ffffffffffffffffffffffffffffffffffffffff1681526020019081526020015f20819055506107a2806100d85f395ff3fe608060405234801561000f575f80fd5b5060043610610060575f3560e01c806327e235e3146100645780633f4ba83a146100945780635c975abb1461009e5780638456cb59146100bc5780638da5cb5b146100c6578063a9059cbb146100e4575b5f80fd5b61007e60048036038101906100799190610472565b610100565b60405161008b91906104b5565b60405180910390f35b61009c610115565b005b6100a66101bd565b6040516100b391906104e8565b60405180910390f35b6100c46101cf565b005b6100ce610278565b6040516100db9190610510565b60405180910390f35b6100fe60048036038101906100f99190610553565b61029b565b005b6001602052805f5260405f205f915090505481565b5f8054906101000a900473ffffffffffffffffffffffffffffffffffffffff1673ffffffffffffffffffffffffffffffffffffffff163373ffffffffffffffffffffffffffffffffffffffff16146101a2576040517f08c379a0000000000000000000000000000000000000000000000000000000008152600401610199906105eb565b60405180910390fd5b5f8060146101000a81548160ff021916908315150217905550565b5f60149054906101000a900460ff1681565b5f8054906101000a900473ffffffffffffffffffffffffffffffffffffffff1673ffffffffffffffffffffffffffffffffffffffff163373ffffffffffffffffffffffffffffffffffffffff161461025c576040517f08c379a0000000000000000000000000000000000000000000000000000000008152600401610253906105eb565b60405180910390fd5b60015f60146101000a81548160ff021916908315150217905550565b5f8054906101000a900473ffffffffffffffffffffffffffffffffffffffff1681565b5f60149054906101000a900460ff16156102ea576040517f08c379a00000000000000000000000000000000000000000000000000000000081526004016102e190610653565b60405180910390fd5b8060015f3373ffffffffffffffffffffffffffffffffffffffff1673ffffffffffffffffffffffffffffffffffffffff1681526020019081526020015f2054101561036a576040517f08c379a0000000000000000000000000000000000000000000000000000000008152600401610361906106bb565b60405180910390fd5b8060015f3373ffffffffffffffffffffffffffffffffffffffff1673ffffffffffffffffffffffffffffffffffffffff1681526020019081526020015f205f8282546103b69190610706565b925050819055508060015f8473ffffffffffffffffffffffffffffffffffffffff1673ffffffffffffffffffffffffffffffffffffffff1681526020019081526020015f205f8282546104099190610739565b925050819055505050565b5f80fd5b5f73ffffffffffffffffffffffffffffffffffffffff82169050919050565b5f61044182610418565b9050919050565b61045181610437565b811461045b575f80fd5b50565b5f8135905061046c81610448565b92915050565b5f6020828403121561048757610486610414565b5b5f6104948482850161045e565b91505092915050565b5f819050919050565b6104af8161049d565b82525050565b5f6020820190506104c85f8301846104a6565b92915050565b5f8115159050919050565b6104e2816104ce565b82525050565b5f6020820190506104fb5f8301846104d9565b92915050565b61050a81610437565b82525050565b5f6020820190506105235f830184610501565b92915050565b6105328161049d565b811461053c575f80fd5b50565b5f8135905061054d81610529565b92915050565b5f806040838503121561056957610568610414565b5b5f6105768582860161045e565b92505060206105878582860161053f565b9150509250929050565b5f82825260208201905092915050565b7f596f7520617265206e6f7420746865206f776e657200000000000000000000005f82015250565b5f6105d5601583610591565b91506105e0826105a1565b602082019050919050565b5f6020820190508181035f830152610602816105c9565b9050919050565b7f436f6e74726163742069732070617573656400000000000000000000000000005f82015250565b5f61063d601283610591565b915061064882610609565b602082019050919050565b5f6020820190508181035f83015261066a81610631565b9050919050565b7f496e73756666696369656e742062616c616e63650000000000000000000000005f82015250565b5f6106a5601483610591565b91506106b082610671565b602082019050919050565b5f6020820190508181035f8301526106d281610699565b9050919050565b7f4e487b71000000000000000000000000000000000000000000000000000000005f52601160045260245ffd5b5f6107108261049d565b915061071b8361049d565b9250828203905081811115610733576107326106d9565b5b92915050565b5f6107438261049d565b915061074e8361049d565b9250828201905080821115610766576107656106d9565b5b9291505056fea26469706673582212204809d9ec8e31a9212d8c23829888ad42eb268724d83675c236c7865c2a44ff9c64736f6c63430008190033",
					"opcodes": "PUSH1 0x80 PUSH1 0x40 MSTORE CALLVALUE DUP1 ISZERO PUSH1 0xE JUMPI PUSH0 DUP1 REVERT JUMPDEST POP CALLER PUSH0 DUP1 PUSH2 0x100 EXP DUP2 SLOAD DUP2 PUSH20 0xFFFFFFFFFFFFFFFFFFFFFFFFFFFFFFFFFFFFFFFF MUL NOT AND SWAP1 DUP4 PUSH20 0xFFFFFFFFFFFFFFFFFFFFFFFFFFFFFFFFFFFFFFFF AND MUL OR SWAP1 SSTORE POP PUSH0 DUP1 PUSH1 0x14 PUSH2 0x100 EXP DUP2 SLOAD DUP2 PUSH1 0xFF MUL NOT AND SWAP1 DUP4 ISZERO ISZERO MUL OR SWAP1 SSTORE POP PUSH2 0x3E8 PUSH1 0x1 PUSH0 DUP1 PUSH0 SWAP1 SLOAD SWAP1 PUSH2 0x100 EXP SWAP1 DIV PUSH20 0xFFFFFFFFFFFFFFFFFFFFFFFFFFFFFFFFFFFFFFFF AND PUSH20 0xFFFFFFFFFFFFFFFFFFFFFFFFFFFFFFFFFFFFFFFF AND PUSH20 0xFFFFFFFFFFFFFFFFFFFFFFFFFFFFFFFFFFFFFFFF AND DUP2 MSTORE PUSH1 0x20 ADD SWAP1 DUP2 MSTORE PUSH1 0x20 ADD PUSH0 KECCAK256 DUP2 SWAP1 SSTORE POP PUSH2 0x7A2 DUP1 PUSH2 0xD8 PUSH0 CODECOPY PUSH0 RETURN INVALID PUSH1 0x80 PUSH1 0x40 MSTORE CALLVALUE DUP1 ISZERO PUSH2 0xF JUMPI PUSH0 DUP1 REVERT JUMPDEST POP PUSH1 0x4 CALLDATASIZE LT PUSH2 0x60 JUMPI PUSH0 CALLDATALOAD PUSH1 0xE0 SHR DUP1 PUSH4 0x27E235E3 EQ PUSH2 0x64 JUMPI DUP1 PUSH4 0x3F4BA83A EQ PUSH2 0x94 JUMPI DUP1 PUSH4 0x5C975ABB EQ PUSH2 0x9E JUMPI DUP1 PUSH4 0x8456CB59 EQ PUSH2 0xBC JUMPI DUP1 PUSH4 0x8DA5CB5B EQ PUSH2 0xC6 JUMPI DUP1 PUSH4 0xA9059CBB EQ PUSH2 0xE4 JUMPI JUMPDEST PUSH0 DUP1 REVERT JUMPDEST PUSH2 0x7E PUSH1 0x4 DUP1 CALLDATASIZE SUB DUP2 ADD SWAP1 PUSH2 0x79 SWAP2 SWAP1 PUSH2 0x472 JUMP JUMPDEST PUSH2 0x100 JUMP JUMPDEST PUSH1 0x40 MLOAD PUSH2 0x8B SWAP2 SWAP1 PUSH2 0x4B5 JUMP JUMPDEST PUSH1 0x40 MLOAD DUP1 SWAP2 SUB SWAP1 RETURN JUMPDEST PUSH2 0x9C PUSH2 0x115 JUMP JUMPDEST STOP JUMPDEST PUSH2 0xA6 PUSH2 0x1BD JUMP JUMPDEST PUSH1 0x40 MLOAD PUSH2 0xB3 SWAP2 SWAP1 PUSH2 0x4E8 JUMP JUMPDEST PUSH1 0x40 MLOAD DUP1 SWAP2 SUB SWAP1 RETURN JUMPDEST PUSH2 0xC4 PUSH2 0x1CF JUMP JUMPDEST STOP JUMPDEST PUSH2 0xCE PUSH2 0x278 JUMP JUMPDEST PUSH1 0x40 MLOAD PUSH2 0xDB SWAP2 SWAP1 PUSH2 0x510 JUMP JUMPDEST PUSH1 0x40 MLOAD DUP1 SWAP2 SUB SWAP1 RETURN JUMPDEST PUSH2 0xFE PUSH1 0x4 DUP1 CALLDATASIZE SUB DUP2 ADD SWAP1 PUSH2 0xF9 SWAP2 SWAP1 PUSH2 0x553 JUMP JUMPDEST PUSH2 0x29B JUMP JUMPDEST STOP JUMPDEST PUSH1 0x1 PUSH1 0x20 MSTORE DUP1 PUSH0 MSTORE PUSH1 0x40 PUSH0 KECCAK256 PUSH0 SWAP2 POP SWAP1 POP SLOAD DUP2 JUMP JUMPDEST PUSH0 DUP1 SLOAD SWAP1 PUSH2 0x100 EXP SWAP1 DIV PUSH20 0xFFFFFFFFFFFFFFFFFFFFFFFFFFFFFFFFFFFFFFFF AND PUSH20 0xFFFFFFFFFFFFFFFFFFFFFFFFFFFFFFFFFFFFFFFF AND CALLER PUSH20 0xFFFFFFFFFFFFFFFFFFFFFFFFFFFFFFFFFFFFFFFF AND EQ PUSH2 0x1A2 JUMPI PUSH1 0x40 MLOAD PUSH32 0x8C379A000000000000000000000000000000000000000000000000000000000 DUP2 MSTORE PUSH1 0x4 ADD PUSH2 0x199 SWAP1 PUSH2 0x5EB JUMP JUMPDEST PUSH1 0x40 MLOAD DUP1 SWAP2 SUB SWAP1 REVERT JUMPDEST PUSH0 DUP1 PUSH1 0x14 PUSH2 0x100 EXP DUP2 SLOAD DUP2 PUSH1 0xFF MUL NOT AND SWAP1 DUP4 ISZERO ISZERO MUL OR SWAP1 SSTORE POP JUMP JUMPDEST PUSH0 PUSH1 0x14 SWAP1 SLOAD SWAP1 PUSH2 0x100 EXP SWAP1 DIV PUSH1 0xFF AND DUP2 JUMP JUMPDEST PUSH0 DUP1 SLOAD SWAP1 PUSH2 0x100 EXP SWAP1 DIV PUSH20 0xFFFFFFFFFFFFFFFFFFFFFFFFFFFFFFFFFFFFFFFF AND PUSH20 0xFFFFFFFFFFFFFFFFFFFFFFFFFFFFFFFFFFFFFFFF AND CALLER PUSH20 0xFFFFFFFFFFFFFFFFFFFFFFFFFFFFFFFFFFFFFFFF AND EQ PUSH2 0x25C JUMPI PUSH1 0x40 MLOAD PUSH32 0x8C379A000000000000000000000000000000000000000000000000000000000 DUP2 MSTORE PUSH1 0x4 ADD PUSH2 0x253 SWAP1 PUSH2 0x5EB JUMP JUMPDEST PUSH1 0x40 MLOAD DUP1 SWAP2 SUB SWAP1 REVERT JUMPDEST PUSH1 0x1 PUSH0 PUSH1 0x14 PUSH2 0x100 EXP DUP2 SLOAD DUP2 PUSH1 0xFF MUL NOT AND SWAP1 DUP4 ISZERO ISZERO MUL OR SWAP1 SSTORE POP JUMP JUMPDEST PUSH0 DUP1 SLOAD SWAP1 PUSH2 0x100 EXP SWAP1 DIV PUSH20 0xFFFFFFFFFFFFFFFFFFFFFFFFFFFFFFFFFFFFFFFF AND DUP2 JUMP JUMPDEST PUSH0 PUSH1 0x14 SWAP1 SLOAD SWAP1 PUSH2 0x100 EXP SWAP1 DIV PUSH1 0xFF AND ISZERO PUSH2 0x2EA JUMPI PUSH1 0x40 MLOAD PUSH32 0x8C379A000000000000000000000000000000000000000000000000000000000 DUP2 MSTORE PUSH1 0x4 ADD PUSH2 0x2E1 SWAP1 PUSH2 0x653 JUMP JUMPDEST PUSH1 0x40 MLOAD DUP1 SWAP2 SUB SWAP1 REVERT JUMPDEST DUP1 PUSH1 0x1 PUSH0 CALLER PUSH20 0xFFFFFFFFFFFFFFFFFFFFFFFFFFFFFFFFFFFFFFFF AND PUSH20 0xFFFFFFFFFFFFFFFFFFFFFFFFFFFFFFFFFFFFFFFF AND DUP2 MSTORE PUSH1 0x20 ADD SWAP1 DUP2 MSTORE PUSH1 0x20 ADD PUSH0 KECCAK256 SLOAD LT ISZERO PUSH2 0x36A JUMPI PUSH1 0x40 MLOAD PUSH32 0x8C379A000000000000000000000000000000000000000000000000000000000 DUP2 MSTORE PUSH1 0x4 ADD PUSH2 0x361 SWAP1 PUSH2 0x6BB JUMP JUMPDEST PUSH1 0x40 MLOAD DUP1 SWAP2 SUB SWAP1 REVERT JUMPDEST DUP1 PUSH1 0x1 PUSH0 CALLER PUSH20 0xFFFFFFFFFFFFFFFFFFFFFFFFFFFFFFFFFFFFFFFF AND PUSH20 0xFFFFFFFFFFFFFFFFFFFFFFFFFFFFFFFFFFFFFFFF AND DUP2 MSTORE PUSH1 0x20 ADD SWAP1 DUP2 MSTORE PUSH1 0x20 ADD PUSH0 KECCAK256 PUSH0 DUP3 DUP3 SLOAD PUSH2 0x3B6 SWAP2 SWAP1 PUSH2 0x706 JUMP JUMPDEST SWAP3 POP POP DUP2 SWAP1 SSTORE POP DUP1 PUSH1 0x1 PUSH0 DUP5 PUSH20 0xFFFFFFFFFFFFFFFFFFFFFFFFFFFFFFFFFFFFFFFF AND PUSH20 0xFFFFFFFFFFFFFFFFFFFFFFFFFFFFFFFFFFFFFFFF AND DUP2 MSTORE PUSH1 0x20 ADD SWAP1 DUP2 MSTORE PUSH1 0x20 ADD PUSH0 KECCAK256 PUSH0 DUP3 DUP3 SLOAD PUSH2 0x409 SWAP2 SWAP1 PUSH2 0x739 JUMP JUMPDEST SWAP3 POP POP DUP2 SWAP1 SSTORE POP POP POP JUMP JUMPDEST PUSH0 DUP1 REVERT JUMPDEST PUSH0 PUSH20 0xFFFFFFFFFFFFFFFFFFFFFFFFFFFFFFFFFFFFFFFF DUP3 AND SWAP1 POP SWAP2 SWAP1 POP JUMP JUMPDEST PUSH0 PUSH2 0x441 DUP3 PUSH2 0x418 JUMP JUMPDEST SWAP1 POP SWAP2 SWAP1 POP JUMP JUMPDEST PUSH2 0x451 DUP2 PUSH2 0x437 JUMP JUMPDEST DUP2 EQ PUSH2 0x45B JUMPI PUSH0 DUP1 REVERT JUMPDEST POP JUMP JUMPDEST PUSH0 DUP2 CALLDATALOAD SWAP1 POP PUSH2 0x46C DUP2 PUSH2 0x448 JUMP JUMPDEST SWAP3 SWAP2 POP POP JUMP JUMPDEST PUSH0 PUSH1 0x20 DUP3 DUP5 SUB SLT ISZERO PUSH2 0x487 JUMPI PUSH2 0x486 PUSH2 0x414 JUMP JUMPDEST JUMPDEST PUSH0 PUSH2 0x494 DUP5 DUP3 DUP6 ADD PUSH2 0x45E JUMP JUMPDEST SWAP2 POP POP SWAP3 SWAP2 POP POP JUMP JUMPDEST PUSH0 DUP2 SWAP1 POP SWAP2 SWAP1 POP JUMP JUMPDEST PUSH2 0x4AF DUP2 PUSH2 0x49D JUMP JUMPDEST DUP3 MSTORE POP POP JUMP JUMPDEST PUSH0 PUSH1 0x20 DUP3 ADD SWAP1 POP PUSH2 0x4C8 PUSH0 DUP4 ADD DUP5 PUSH2 0x4A6 JUMP JUMPDEST SWAP3 SWAP2 POP POP JUMP JUMPDEST PUSH0 DUP2 ISZERO ISZERO SWAP1 POP SWAP2 SWAP1 POP JUMP JUMPDEST PUSH2 0x4E2 DUP2 PUSH2 0x4CE JUMP JUMPDEST DUP3 MSTORE POP POP JUMP JUMPDEST PUSH0 PUSH1 0x20 DUP3 ADD SWAP1 POP PUSH2 0x4FB PUSH0 DUP4 ADD DUP5 PUSH2 0x4D9 JUMP JUMPDEST SWAP3 SWAP2 POP POP JUMP JUMPDEST PUSH2 0x50A DUP2 PUSH2 0x437 JUMP JUMPDEST DUP3 MSTORE POP POP JUMP JUMPDEST PUSH0 PUSH1 0x20 DUP3 ADD SWAP1 POP PUSH2 0x523 PUSH0 DUP4 ADD DUP5 PUSH2 0x501 JUMP JUMPDEST SWAP3 SWAP2 POP POP JUMP JUMPDEST PUSH2 0x532 DUP2 PUSH2 0x49D JUMP JUMPDEST DUP2 EQ PUSH2 0x53C JUMPI PUSH0 DUP1 REVERT JUMPDEST POP JUMP JUMPDEST PUSH0 DUP2 CALLDATALOAD SWAP1 POP PUSH2 0x54D DUP2 PUSH2 0x529 JUMP JUMPDEST SWAP3 SWAP2 POP POP JUMP JUMPDEST PUSH0 DUP1 PUSH1 0x40 DUP4 DUP6 SUB SLT ISZERO PUSH2 0x569 JUMPI PUSH2 0x568 PUSH2 0x414 JUMP JUMPDEST JUMPDEST PUSH0 PUSH2 0x576 DUP6 DUP3 DUP7 ADD PUSH2 0x45E JUMP JUMPDEST SWAP3 POP POP PUSH1 0x20 PUSH2 0x587 DUP6 DUP3 DUP7 ADD PUSH2 0x53F JUMP JUMPDEST SWAP2 POP POP SWAP3 POP SWAP3 SWAP1 POP JUMP JUMPDEST PUSH0 DUP3 DUP3 MSTORE PUSH1 0x20 DUP3 ADD SWAP1 POP SWAP3 SWAP2 POP POP JUMP JUMPDEST PUSH32 0x596F7520617265206E6F7420746865206F776E65720000000000000000000000 PUSH0 DUP3 ADD MSTORE POP JUMP JUMPDEST PUSH0 PUSH2 0x5D5 PUSH1 0x15 DUP4 PUSH2 0x591 JUMP JUMPDEST SWAP2 POP PUSH2 0x5E0 DUP3 PUSH2 0x5A1 JUMP JUMPDEST PUSH1 0x20 DUP3 ADD SWAP1 POP SWAP2 SWAP1 POP JUMP JUMPDEST PUSH0 PUSH1 0x20 DUP3 ADD SWAP1 POP DUP2 DUP2 SUB PUSH0 DUP4 ADD MSTORE PUSH2 0x602 DUP2 PUSH2 0x5C9 JUMP JUMPDEST SWAP1 POP SWAP2 SWAP1 POP JUMP JUMPDEST PUSH32 0x436F6E7472616374206973207061757365640000000000000000000000000000 PUSH0 DUP3 ADD MSTORE POP JUMP JUMPDEST PUSH0 PUSH2 0x63D PUSH1 0x12 DUP4 PUSH2 0x591 JUMP JUMPDEST SWAP2 POP PUSH2 0x648 DUP3 PUSH2 0x609 JUMP JUMPDEST PUSH1 0x20 DUP3 ADD SWAP1 POP SWAP2 SWAP1 POP JUMP JUMPDEST PUSH0 PUSH1 0x20 DUP3 ADD SWAP1 POP DUP2 DUP2 SUB PUSH0 DUP4 ADD MSTORE PUSH2 0x66A DUP2 PUSH2 0x631 JUMP JUMPDEST SWAP1 POP SWAP2 SWAP1 POP JUMP JUMPDEST PUSH32 0x496E73756666696369656E742062616C616E6365000000000000000000000000 PUSH0 DUP3 ADD MSTORE POP JUMP JUMPDEST PUSH0 PUSH2 0x6A5 PUSH1 0x14 DUP4 PUSH2 0x591 JUMP JUMPDEST SWAP2 POP PUSH2 0x6B0 DUP3 PUSH2 0x671 JUMP JUMPDEST PUSH1 0x20 DUP3 ADD SWAP1 POP SWAP2 SWAP1 POP JUMP JUMPDEST PUSH0 PUSH1 0x20 DUP3 ADD SWAP1 POP DUP2 DUP2 SUB PUSH0 DUP4 ADD MSTORE PUSH2 0x6D2 DUP2 PUSH2 0x699 JUMP JUMPDEST SWAP1 POP SWAP2 SWAP1 POP JUMP JUMPDEST PUSH32 0x4E487B7100000000000000000000000000000000000000000000000000000000 PUSH0 MSTORE PUSH1 0x11 PUSH1 0x4 MSTORE PUSH1 0x24 PUSH0 REVERT JUMPDEST PUSH0 PUSH2 0x710 DUP3 PUSH2 0x49D JUMP JUMPDEST SWAP2 POP PUSH2 0x71B DUP4 PUSH2 0x49D JUMP JUMPDEST SWAP3 POP DUP3 DUP3 SUB SWAP1 POP DUP2 DUP2 GT ISZERO PUSH2 0x733 JUMPI PUSH2 0x732 PUSH2 0x6D9 JUMP JUMPDEST JUMPDEST SWAP3 SWAP2 POP POP JUMP JUMPDEST PUSH0 PUSH2 0x743 DUP3 PUSH2 0x49D JUMP JUMPDEST SWAP2 POP PUSH2 0x74E DUP4 PUSH2 0x49D JUMP JUMPDEST SWAP3 POP DUP3 DUP3 ADD SWAP1 POP DUP1 DUP3 GT ISZERO PUSH2 0x766 JUMPI PUSH2 0x765 PUSH2 0x6D9 JUMP JUMPDEST JUMPDEST SWAP3 SWAP2 POP POP JUMP INVALID LOG2 PUSH5 0x6970667358 0x22 SLT KECCAK256 BASEFEE MULMOD 0xD9 0xEC DUP15 BALANCE 0xA9 0x21 0x2D DUP13 0x23 DUP3 SWAP9 DUP9 0xAD TIMESTAMP 0xEB 0x26 DUP8 0x24 0xD8 CALLDATASIZE PUSH22 0xC236C7865C2A44FF9C64736F6C634300081900330000 "
				},
				"gasEstimates": {
					"creation": {
						"codeDepositCost": "390800",
						"executionCost": "73346",
						"totalCost": "464146"
					},
					"external": {
						"balances(address)": "2780",
						"owner()": "2571",
						"pause()": "26669",
						"paused()": "2538",
						"transfer(address,uint256)": "infinite",
						"unpause()": "26625"
					}
				},
				"methodIdentifiers": {
					"balances(address)": "27e235e3",
					"owner()": "8da5cb5b",
					"pause()": "8456cb59",
					"paused()": "5c975abb",
					"transfer(address,uint256)": "a9059cbb",
					"unpause()": "3f4ba83a"
				}
			},
			"storageLayout": {
				"storage": [
					{
						"astId": 3,
						"contract": "contracts/Modifiers-exercise.sol:PausableToken",
						"label": "owner",
						"offset": 0,
						"slot": "0",
						"type": "t_address"
					},
					{
						"astId": 5,
						"contract": "contracts/Modifiers-exercise.sol:PausableToken",
						"label": "paused",
						"offset": 20,
						"slot": "0",
						"type": "t_bool"
					},
					{
						"astId": 9,
						"contract": "contracts/Modifiers-exercise.sol:PausableToken",
						"label": "balances",
						"offset": 0,
						"slot": "1",
						"type": "t_mapping(t_address,t_uint256)"
					}
				],
				"types": {
					"t_address": {
						"encoding": "inplace",
						"label": "address",
						"numberOfBytes": "20"
					},
					"t_bool": {
						"encoding": "inplace",
						"label": "bool",
						"numberOfBytes": "1"
					},
					"t_mapping(t_address,t_uint256)": {
						"encoding": "mapping",
						"key": "t_address",
						"label": "mapping(address => uint256)",
						"numberOfBytes": "32",
						"value": "t_uint256"
					},
					"t_uint256": {
						"encoding": "inplace",
						"label": "uint256",
						"numberOfBytes": "32"
					}
				}
			},
			"userdoc": {
				"kind": "user",
				"methods": {},
				"version": 1
			}
		}
	}
}