{
	"contracts/loop-exercise.sol": {
		"ExpenseTracker": {
			"abi": [
				{
					"inputs": [],
					"stateMutability": "nonpayable",
					"type": "constructor"
				},
				{
					"inputs": [
						{
							"internalType": "string",
							"name": "_description",
							"type": "string"
						},
						{
							"internalType": "uint256",
							"name": "_amount",
							"type": "uint256"
						}
					],
					"name": "addExpense",
					"outputs": [],
					"stateMutability": "nonpayable",
					"type": "function"
				},
				{
					"inputs": [
						{
							"internalType": "uint256",
							"name": "",
							"type": "uint256"
						}
					],
					"name": "expenses",
					"outputs": [
						{
							"internalType": "address",
							"name": "user",
							"type": "address"
						},
						{
							"internalType": "string",
							"name": "description",
							"type": "string"
						},
						{
							"internalType": "uint256",
							"name": "amount",
							"type": "uint256"
						}
					],
					"stateMutability": "view",
					"type": "function"
				},
				{
					"inputs": [
						{
							"internalType": "address",
							"name": "_user",
							"type": "address"
						}
					],
					"name": "getTotalExpenses",
					"outputs": [
						{
							"internalType": "uint256",
							"name": "",
							"type": "uint256"
						}
					],
					"stateMutability": "view",
					"type": "function"
				}
			],
			"devdoc": {
				"kind": "dev",
				"methods": {},
				"version": 1
			},
			"evm": {
				"assembly": "    /* \"contracts/loop-exercise.sol\":303:1200  contract ExpenseTracker {... */\n  mstore(0x40, 0x80)\n    /* \"contracts/loop-exercise.sol\":473:687  constructor() {... */\n  callvalue\n  dup1\n  iszero\n  tag_1\n  jumpi\n  0x00\n  dup1\n  revert\ntag_1:\n  pop\n    /* \"contracts/loop-exercise.sol\":498:506  expenses */\n  0x00\n    /* \"contracts/loop-exercise.sol\":512:548  Expense(msg.sender, \"Groceries\", 50) */\n  mload(0x40)\n  dup1\n  0x60\n  add\n  0x40\n  mstore\n  dup1\n    /* \"contracts/loop-exercise.sol\":520:530  msg.sender */\n  caller\n    /* \"contracts/loop-exercise.sol\":512:548  Expense(msg.sender, \"Groceries\", 50) */\n  0xffffffffffffffffffffffffffffffffffffffff\n  and\n  dup2\n  mstore\n  0x20\n  add\n  mload(0x40)\n  dup1\n  0x40\n  add\n  0x40\n  mstore\n  dup1\n  0x09\n  dup2\n  mstore\n  0x20\n  add\n  0x47726f6365726965730000000000000000000000000000000000000000000000\n  dup2\n  mstore\n  pop\n  dup2\n  mstore\n  0x20\n  add\n    /* \"contracts/loop-exercise.sol\":545:547  50 */\n  0x32\n    /* \"contracts/loop-exercise.sol\":512:548  Expense(msg.sender, \"Groceries\", 50) */\n  dup2\n  mstore\n  pop\n    /* \"contracts/loop-exercise.sol\":498:549  expenses.push(Expense(msg.sender, \"Groceries\", 50)) */\n  swap1\n  dup1\n  0x01\n  dup2\n  sload\n  add\n  dup1\n  dup3\n  sstore\n  dup1\n  swap2\n  pop\n  pop\n  0x01\n  swap1\n  sub\n  swap1\n  0x00\n  mstore\n  keccak256(0x00, 0x20)\n  swap1\n  0x03\n  mul\n  add\n  0x00\n  swap1\n  swap2\n  swap1\n  swap2\n  swap1\n  swap2\n  pop\n  0x00\n  dup3\n  add\n  mload\n  dup2\n  0x00\n  add\n  exp(0x0100, 0x00)\n  dup2\n  sload\n  dup2\n  0xffffffffffffffffffffffffffffffffffffffff\n  mul\n  not\n  and\n  swap1\n  dup4\n  0xffffffffffffffffffffffffffffffffffffffff\n  and\n  mul\n  or\n  swap1\n  sstore\n  pop\n  0x20\n  dup3\n  add\n  mload\n  dup2\n  0x01\n  add\n  swap1\n  dup2\n  tag_5\n  swap2\n  swap1\n  tag_6\n  jump\t// in\ntag_5:\n  pop\n  0x40\n  dup3\n  add\n  mload\n  dup2\n  0x02\n  add\n  sstore\n  pop\n  pop\n    /* \"contracts/loop-exercise.sol\":560:568  expenses */\n  0x00\n    /* \"contracts/loop-exercise.sol\":574:615  Expense(msg.sender, \"Transportation\", 30) */\n  mload(0x40)\n  dup1\n  0x60\n  add\n  0x40\n  mstore\n  dup1\n    /* \"contracts/loop-exercise.sol\":582:592  msg.sender */\n  caller\n    /* \"contracts/loop-exercise.sol\":574:615  Expense(msg.sender, \"Transportation\", 30) */\n  0xffffffffffffffffffffffffffffffffffffffff\n  and\n  dup2\n  mstore\n  0x20\n  add\n  mload(0x40)\n  dup1\n  0x40\n  add\n  0x40\n  mstore\n  dup1\n  0x0e\n  dup2\n  mstore\n  0x20\n  add\n  0x5472616e73706f72746174696f6e000000000000000000000000000000000000\n  dup2\n  mstore\n  pop\n  dup2\n  mstore\n  0x20\n  add\n    /* \"contracts/loop-exercise.sol\":612:614  30 */\n  0x1e\n    /* \"contracts/loop-exercise.sol\":574:615  Expense(msg.sender, \"Transportation\", 30) */\n  dup2\n  mstore\n  pop\n    /* \"contracts/loop-exercise.sol\":560:616  expenses.push(Expense(msg.sender, \"Transportation\", 30)) */\n  swap1\n  dup1\n  0x01\n  dup2\n  sload\n  add\n  dup1\n  dup3\n  sstore\n  dup1\n  swap2\n  pop\n  pop\n  0x01\n  swap1\n  sub\n  swap1\n  0x00\n  mstore\n  keccak256(0x00, 0x20)\n  swap1\n  0x03\n  mul\n  add\n  0x00\n  swap1\n  swap2\n  swap1\n  swap2\n  swap1\n  swap2\n  pop\n  0x00\n  dup3\n  add\n  mload\n  dup2\n  0x00\n  add\n  exp(0x0100, 0x00)\n  dup2\n  sload\n  dup2\n  0xffffffffffffffffffffffffffffffffffffffff\n  mul\n  not\n  and\n  swap1\n  dup4\n  0xffffffffffffffffffffffffffffffffffffffff\n  and\n  mul\n  or\n  swap1\n  sstore\n  pop\n  0x20\n  dup3\n  add\n  mload\n  dup2\n  0x01\n  add\n  swap1\n  dup2\n  tag_8\n  swap2\n  swap1\n  tag_6\n  jump\t// in\ntag_8:\n  pop\n  0x40\n  dup3\n  add\n  mload\n  dup2\n  0x02\n  add\n  sstore\n  pop\n  pop\n    /* \"contracts/loop-exercise.sol\":627:635  expenses */\n  0x00\n    /* \"contracts/loop-exercise.sol\":641:678  Expense(msg.sender, \"Dining out\", 25) */\n  mload(0x40)\n  dup1\n  0x60\n  add\n  0x40\n  mstore\n  dup1\n    /* \"contracts/loop-exercise.sol\":649:659  msg.sender */\n  caller\n    /* \"contracts/loop-exercise.sol\":641:678  Expense(msg.sender, \"Dining out\", 25) */\n  0xffffffffffffffffffffffffffffffffffffffff\n  and\n  dup2\n  mstore\n  0x20\n  add\n  mload(0x40)\n  dup1\n  0x40\n  add\n  0x40\n  mstore\n  dup1\n  0x0a\n  dup2\n  mstore\n  0x20\n  add\n  0x44696e696e67206f757400000000000000000000000000000000000000000000\n  dup2\n  mstore\n  pop\n  dup2\n  mstore\n  0x20\n  add\n    /* \"contracts/loop-exercise.sol\":675:677  25 */\n  0x19\n    /* \"contracts/loop-exercise.sol\":641:678  Expense(msg.sender, \"Dining out\", 25) */\n  dup2\n  mstore\n  pop\n    /* \"contracts/loop-exercise.sol\":627:679  expenses.push(Expense(msg.sender, \"Dining out\", 25)) */\n  swap1\n  dup1\n  0x01\n  dup2\n  sload\n  add\n  dup1\n  dup3\n  sstore\n  dup1\n  swap2\n  pop\n  pop\n  0x01\n  swap1\n  sub\n  swap1\n  0x00\n  mstore\n  keccak256(0x00, 0x20)\n  swap1\n  0x03\n  mul\n  add\n  0x00\n  swap1\n  swap2\n  swap1\n  swap2\n  swap1\n  swap2\n  pop\n  0x00\n  dup3\n  add\n  mload\n  dup2\n  0x00\n  add\n  exp(0x0100, 0x00)\n  dup2\n  sload\n  dup2\n  0xffffffffffffffffffffffffffffffffffffffff\n  mul\n  not\n  and\n  swap1\n  dup4\n  0xffffffffffffffffffffffffffffffffffffffff\n  and\n  mul\n  or\n  swap1\n  sstore\n  pop\n  0x20\n  dup3\n  add\n  mload\n  dup2\n  0x01\n  add\n  swap1\n  dup2\n  tag_10\n  swap2\n  swap1\n  tag_6\n  jump\t// in\ntag_10:\n  pop\n  0x40\n  dup3\n  add\n  mload\n  dup2\n  0x02\n  add\n  sstore\n  pop\n  pop\n    /* \"contracts/loop-exercise.sol\":303:1200  contract ExpenseTracker {... */\n  jump(tag_11)\n    /* \"#utility.yul\":7:106   */\ntag_12:\n    /* \"#utility.yul\":59:65   */\n  0x00\n    /* \"#utility.yul\":93:98   */\n  dup2\n    /* \"#utility.yul\":87:99   */\n  mload\n    /* \"#utility.yul\":77:99   */\n  swap1\n  pop\n    /* \"#utility.yul\":7:106   */\n  swap2\n  swap1\n  pop\n  jump\t// out\n    /* \"#utility.yul\":112:292   */\ntag_13:\n    /* \"#utility.yul\":160:237   */\n  0x4e487b7100000000000000000000000000000000000000000000000000000000\n    /* \"#utility.yul\":157:158   */\n  0x00\n    /* \"#utility.yul\":150:238   */\n  mstore\n    /* \"#utility.yul\":257:261   */\n  0x41\n    /* \"#utility.yul\":254:255   */\n  0x04\n    /* \"#utility.yul\":247:262   */\n  mstore\n    /* \"#utility.yul\":281:285   */\n  0x24\n    /* \"#utility.yul\":278:279   */\n  0x00\n    /* \"#utility.yul\":271:286   */\n  revert\n    /* \"#utility.yul\":298:478   */\ntag_14:\n    /* \"#utility.yul\":346:423   */\n  0x4e487b7100000000000000000000000000000000000000000000000000000000\n    /* \"#utility.yul\":343:344   */\n  0x00\n    /* \"#utility.yul\":336:424   */\n  mstore\n    /* \"#utility.yul\":443:447   */\n  0x22\n    /* \"#utility.yul\":440:441   */\n  0x04\n    /* \"#utility.yul\":433:448   */\n  mstore\n    /* \"#utility.yul\":467:471   */\n  0x24\n    /* \"#utility.yul\":464:465   */\n  0x00\n    /* \"#utility.yul\":457:472   */\n  revert\n    /* \"#utility.yul\":484:804   */\ntag_15:\n    /* \"#utility.yul\":528:534   */\n  0x00\n    /* \"#utility.yul\":565:566   */\n  0x02\n    /* \"#utility.yul\":559:563   */\n  dup3\n    /* \"#utility.yul\":555:567   */\n  div\n    /* \"#utility.yul\":545:567   */\n  swap1\n  pop\n    /* \"#utility.yul\":612:613   */\n  0x01\n    /* \"#utility.yul\":606:610   */\n  dup3\n    /* \"#utility.yul\":602:614   */\n  and\n    /* \"#utility.yul\":633:651   */\n  dup1\n    /* \"#utility.yul\":623:704   */\n  tag_37\n  jumpi\n    /* \"#utility.yul\":689:693   */\n  0x7f\n    /* \"#utility.yul\":681:687   */\n  dup3\n    /* \"#utility.yul\":677:694   */\n  and\n    /* \"#utility.yul\":667:694   */\n  swap2\n  pop\n    /* \"#utility.yul\":623:704   */\ntag_37:\n    /* \"#utility.yul\":751:753   */\n  0x20\n    /* \"#utility.yul\":743:749   */\n  dup3\n    /* \"#utility.yul\":740:754   */\n  lt\n    /* \"#utility.yul\":720:738   */\n  dup2\n    /* \"#utility.yul\":717:755   */\n  sub\n    /* \"#utility.yul\":714:798   */\n  tag_38\n  jumpi\n    /* \"#utility.yul\":770:788   */\n  tag_39\n  tag_14\n  jump\t// in\ntag_39:\n    /* \"#utility.yul\":714:798   */\ntag_38:\n    /* \"#utility.yul\":535:804   */\n  pop\n    /* \"#utility.yul\":484:804   */\n  swap2\n  swap1\n  pop\n  jump\t// out\n    /* \"#utility.yul\":810:951   */\ntag_16:\n    /* \"#utility.yul\":859:863   */\n  0x00\n    /* \"#utility.yul\":882:885   */\n  dup2\n    /* \"#utility.yul\":874:885   */\n  swap1\n  pop\n    /* \"#utility.yul\":905:908   */\n  dup2\n    /* \"#utility.yul\":902:903   */\n  0x00\n    /* \"#utility.yul\":895:909   */\n  mstore\n    /* \"#utility.yul\":939:943   */\n  0x20\n    /* \"#utility.yul\":936:937   */\n  0x00\n    /* \"#utility.yul\":926:944   */\n  keccak256\n    /* \"#utility.yul\":918:944   */\n  swap1\n  pop\n    /* \"#utility.yul\":810:951   */\n  swap2\n  swap1\n  pop\n  jump\t// out\n    /* \"#utility.yul\":957:1050   */\ntag_17:\n    /* \"#utility.yul\":994:1000   */\n  0x00\n    /* \"#utility.yul\":1041:1043   */\n  0x20\n    /* \"#utility.yul\":1036:1038   */\n  0x1f\n    /* \"#utility.yul\":1029:1034   */\n  dup4\n    /* \"#utility.yul\":1025:1039   */\n  add\n    /* \"#utility.yul\":1021:1044   */\n  div\n    /* \"#utility.yul\":1011:1044   */\n  swap1\n  pop\n    /* \"#utility.yul\":957:1050   */\n  swap2\n  swap1\n  pop\n  jump\t// out\n    /* \"#utility.yul\":1056:1163   */\ntag_18:\n    /* \"#utility.yul\":1100:1108   */\n  0x00\n    /* \"#utility.yul\":1150:1155   */\n  dup3\n    /* \"#utility.yul\":1144:1148   */\n  dup3\n    /* \"#utility.yul\":1140:1156   */\n  shl\n    /* \"#utility.yul\":1119:1156   */\n  swap1\n  pop\n    /* \"#utility.yul\":1056:1163   */\n  swap3\n  swap2\n  pop\n  pop\n  jump\t// out\n    /* \"#utility.yul\":1169:1562   */\ntag_19:\n    /* \"#utility.yul\":1238:1244   */\n  0x00\n    /* \"#utility.yul\":1288:1289   */\n  0x08\n    /* \"#utility.yul\":1276:1286   */\n  dup4\n    /* \"#utility.yul\":1272:1290   */\n  mul\n    /* \"#utility.yul\":1311:1408   */\n  tag_44\n    /* \"#utility.yul\":1341:1407   */\n  0xffffffffffffffffffffffffffffffffffffffffffffffffffffffffffffffff\n    /* \"#utility.yul\":1330:1339   */\n  dup3\n    /* \"#utility.yul\":1311:1408   */\n  tag_18\n  jump\t// in\ntag_44:\n    /* \"#utility.yul\":1429:1468   */\n  tag_45\n    /* \"#utility.yul\":1459:1467   */\n  dup7\n    /* \"#utility.yul\":1448:1457   */\n  dup4\n    /* \"#utility.yul\":1429:1468   */\n  tag_18\n  jump\t// in\ntag_45:\n    /* \"#utility.yul\":1417:1468   */\n  swap6\n  pop\n    /* \"#utility.yul\":1501:1505   */\n  dup1\n    /* \"#utility.yul\":1497:1506   */\n  not\n    /* \"#utility.yul\":1490:1495   */\n  dup5\n    /* \"#utility.yul\":1486:1507   */\n  and\n    /* \"#utility.yul\":1477:1507   */\n  swap4\n  pop\n    /* \"#utility.yul\":1550:1554   */\n  dup1\n    /* \"#utility.yul\":1540:1548   */\n  dup7\n    /* \"#utility.yul\":1536:1555   */\n  and\n    /* \"#utility.yul\":1529:1534   */\n  dup5\n    /* \"#utility.yul\":1526:1556   */\n  or\n    /* \"#utility.yul\":1516:1556   */\n  swap3\n  pop\n    /* \"#utility.yul\":1245:1562   */\n  pop\n  pop\n    /* \"#utility.yul\":1169:1562   */\n  swap4\n  swap3\n  pop\n  pop\n  pop\n  jump\t// out\n    /* \"#utility.yul\":1568:1645   */\ntag_20:\n    /* \"#utility.yul\":1605:1612   */\n  0x00\n    /* \"#utility.yul\":1634:1639   */\n  dup2\n    /* \"#utility.yul\":1623:1639   */\n  swap1\n  pop\n    /* \"#utility.yul\":1568:1645   */\n  swap2\n  swap1\n  pop\n  jump\t// out\n    /* \"#utility.yul\":1651:1711   */\ntag_21:\n    /* \"#utility.yul\":1679:1682   */\n  0x00\n    /* \"#utility.yul\":1700:1705   */\n  dup2\n    /* \"#utility.yul\":1693:1705   */\n  swap1\n  pop\n    /* \"#utility.yul\":1651:1711   */\n  swap2\n  swap1\n  pop\n  jump\t// out\n    /* \"#utility.yul\":1717:1859   */\ntag_22:\n    /* \"#utility.yul\":1767:1776   */\n  0x00\n    /* \"#utility.yul\":1800:1853   */\n  tag_49\n    /* \"#utility.yul\":1818:1852   */\n  tag_50\n    /* \"#utility.yul\":1827:1851   */\n  tag_51\n    /* \"#utility.yul\":1845:1850   */\n  dup5\n    /* \"#utility.yul\":1827:1851   */\n  tag_20\n  jump\t// in\ntag_51:\n    /* \"#utility.yul\":1818:1852   */\n  tag_21\n  jump\t// in\ntag_50:\n    /* \"#utility.yul\":1800:1853   */\n  tag_20\n  jump\t// in\ntag_49:\n    /* \"#utility.yul\":1787:1853   */\n  swap1\n  pop\n    /* \"#utility.yul\":1717:1859   */\n  swap2\n  swap1\n  pop\n  jump\t// out\n    /* \"#utility.yul\":1865:1940   */\ntag_23:\n    /* \"#utility.yul\":1908:1911   */\n  0x00\n    /* \"#utility.yul\":1929:1934   */\n  dup2\n    /* \"#utility.yul\":1922:1934   */\n  swap1\n  pop\n    /* \"#utility.yul\":1865:1940   */\n  swap2\n  swap1\n  pop\n  jump\t// out\n    /* \"#utility.yul\":1946:2215   */\ntag_24:\n    /* \"#utility.yul\":2056:2095   */\n  tag_54\n    /* \"#utility.yul\":2087:2094   */\n  dup4\n    /* \"#utility.yul\":2056:2095   */\n  tag_22\n  jump\t// in\ntag_54:\n    /* \"#utility.yul\":2117:2208   */\n  tag_55\n    /* \"#utility.yul\":2166:2207   */\n  tag_56\n    /* \"#utility.yul\":2190:2206   */\n  dup3\n    /* \"#utility.yul\":2166:2207   */\n  tag_23\n  jump\t// in\ntag_56:\n    /* \"#utility.yul\":2158:2164   */\n  dup5\n    /* \"#utility.yul\":2151:2155   */\n  dup5\n    /* \"#utility.yul\":2145:2156   */\n  sload\n    /* \"#utility.yul\":2117:2208   */\n  tag_19\n  jump\t// in\ntag_55:\n    /* \"#utility.yul\":2111:2115   */\n  dup3\n    /* \"#utility.yul\":2104:2209   */\n  sstore\n    /* \"#utility.yul\":2022:2215   */\n  pop\n    /* \"#utility.yul\":1946:2215   */\n  pop\n  pop\n  pop\n  jump\t// out\n    /* \"#utility.yul\":2221:2294   */\ntag_25:\n    /* \"#utility.yul\":2266:2269   */\n  0x00\n    /* \"#utility.yul\":2221:2294   */\n  swap1\n  jump\t// out\n    /* \"#utility.yul\":2300:2489   */\ntag_26:\n    /* \"#utility.yul\":2377:2409   */\n  tag_59\n  tag_25\n  jump\t// in\ntag_59:\n    /* \"#utility.yul\":2418:2483   */\n  tag_60\n    /* \"#utility.yul\":2476:2482   */\n  dup2\n    /* \"#utility.yul\":2468:2474   */\n  dup5\n    /* \"#utility.yul\":2462:2466   */\n  dup5\n    /* \"#utility.yul\":2418:2483   */\n  tag_24\n  jump\t// in\ntag_60:\n    /* \"#utility.yul\":2353:2489   */\n  pop\n    /* \"#utility.yul\":2300:2489   */\n  pop\n  pop\n  jump\t// out\n    /* \"#utility.yul\":2495:2681   */\ntag_27:\n    /* \"#utility.yul\":2555:2675   */\ntag_62:\n    /* \"#utility.yul\":2572:2575   */\n  dup2\n    /* \"#utility.yul\":2565:2570   */\n  dup2\n    /* \"#utility.yul\":2562:2576   */\n  lt\n    /* \"#utility.yul\":2555:2675   */\n  iszero\n  tag_64\n  jumpi\n    /* \"#utility.yul\":2626:2665   */\n  tag_65\n    /* \"#utility.yul\":2663:2664   */\n  0x00\n    /* \"#utility.yul\":2656:2661   */\n  dup3\n    /* \"#utility.yul\":2626:2665   */\n  tag_26\n  jump\t// in\ntag_65:\n    /* \"#utility.yul\":2599:2600   */\n  0x01\n    /* \"#utility.yul\":2592:2597   */\n  dup2\n    /* \"#utility.yul\":2588:2601   */\n  add\n    /* \"#utility.yul\":2579:2601   */\n  swap1\n  pop\n    /* \"#utility.yul\":2555:2675   */\n  jump(tag_62)\ntag_64:\n    /* \"#utility.yul\":2495:2681   */\n  pop\n  pop\n  jump\t// out\n    /* \"#utility.yul\":2687:3230   */\ntag_28:\n    /* \"#utility.yul\":2788:2790   */\n  0x1f\n    /* \"#utility.yul\":2783:2786   */\n  dup3\n    /* \"#utility.yul\":2780:2791   */\n  gt\n    /* \"#utility.yul\":2777:3223   */\n  iszero\n  tag_67\n  jumpi\n    /* \"#utility.yul\":2822:2860   */\n  tag_68\n    /* \"#utility.yul\":2854:2859   */\n  dup2\n    /* \"#utility.yul\":2822:2860   */\n  tag_16\n  jump\t// in\ntag_68:\n    /* \"#utility.yul\":2906:2935   */\n  tag_69\n    /* \"#utility.yul\":2924:2934   */\n  dup5\n    /* \"#utility.yul\":2906:2935   */\n  tag_17\n  jump\t// in\ntag_69:\n    /* \"#utility.yul\":2896:2904   */\n  dup2\n    /* \"#utility.yul\":2892:2936   */\n  add\n    /* \"#utility.yul\":3089:3091   */\n  0x20\n    /* \"#utility.yul\":3077:3087   */\n  dup6\n    /* \"#utility.yul\":3074:3092   */\n  lt\n    /* \"#utility.yul\":3071:3120   */\n  iszero\n  tag_70\n  jumpi\n    /* \"#utility.yul\":3110:3118   */\n  dup2\n    /* \"#utility.yul\":3095:3118   */\n  swap1\n  pop\n    /* \"#utility.yul\":3071:3120   */\ntag_70:\n    /* \"#utility.yul\":3133:3213   */\n  tag_71\n    /* \"#utility.yul\":3189:3211   */\n  tag_72\n    /* \"#utility.yul\":3207:3210   */\n  dup6\n    /* \"#utility.yul\":3189:3211   */\n  tag_17\n  jump\t// in\ntag_72:\n    /* \"#utility.yul\":3179:3187   */\n  dup4\n    /* \"#utility.yul\":3175:3212   */\n  add\n    /* \"#utility.yul\":3162:3173   */\n  dup3\n    /* \"#utility.yul\":3133:3213   */\n  tag_27\n  jump\t// in\ntag_71:\n    /* \"#utility.yul\":2792:3223   */\n  pop\n  pop\n    /* \"#utility.yul\":2777:3223   */\ntag_67:\n    /* \"#utility.yul\":2687:3230   */\n  pop\n  pop\n  pop\n  jump\t// out\n    /* \"#utility.yul\":3236:3353   */\ntag_29:\n    /* \"#utility.yul\":3290:3298   */\n  0x00\n    /* \"#utility.yul\":3340:3345   */\n  dup3\n    /* \"#utility.yul\":3334:3338   */\n  dup3\n    /* \"#utility.yul\":3330:3346   */\n  shr\n    /* \"#utility.yul\":3309:3346   */\n  swap1\n  pop\n    /* \"#utility.yul\":3236:3353   */\n  swap3\n  swap2\n  pop\n  pop\n  jump\t// out\n    /* \"#utility.yul\":3359:3528   */\ntag_30:\n    /* \"#utility.yul\":3403:3409   */\n  0x00\n    /* \"#utility.yul\":3436:3487   */\n  tag_75\n    /* \"#utility.yul\":3484:3485   */\n  0x00\n    /* \"#utility.yul\":3480:3486   */\n  not\n    /* \"#utility.yul\":3472:3477   */\n  dup5\n    /* \"#utility.yul\":3469:3470   */\n  0x08\n    /* \"#utility.yul\":3465:3478   */\n  mul\n    /* \"#utility.yul\":3436:3487   */\n  tag_29\n  jump\t// in\ntag_75:\n    /* \"#utility.yul\":3432:3488   */\n  not\n    /* \"#utility.yul\":3517:3521   */\n  dup1\n    /* \"#utility.yul\":3511:3515   */\n  dup4\n    /* \"#utility.yul\":3507:3522   */\n  and\n    /* \"#utility.yul\":3497:3522   */\n  swap2\n  pop\n    /* \"#utility.yul\":3410:3528   */\n  pop\n    /* \"#utility.yul\":3359:3528   */\n  swap3\n  swap2\n  pop\n  pop\n  jump\t// out\n    /* \"#utility.yul\":3533:3828   */\ntag_31:\n    /* \"#utility.yul\":3609:3613   */\n  0x00\n    /* \"#utility.yul\":3755:3784   */\n  tag_77\n    /* \"#utility.yul\":3780:3783   */\n  dup4\n    /* \"#utility.yul\":3774:3778   */\n  dup4\n    /* \"#utility.yul\":3755:3784   */\n  tag_30\n  jump\t// in\ntag_77:\n    /* \"#utility.yul\":3747:3784   */\n  swap2\n  pop\n    /* \"#utility.yul\":3817:3820   */\n  dup3\n    /* \"#utility.yul\":3814:3815   */\n  0x02\n    /* \"#utility.yul\":3810:3821   */\n  mul\n    /* \"#utility.yul\":3804:3808   */\n  dup3\n    /* \"#utility.yul\":3801:3822   */\n  or\n    /* \"#utility.yul\":3793:3822   */\n  swap1\n  pop\n    /* \"#utility.yul\":3533:3828   */\n  swap3\n  swap2\n  pop\n  pop\n  jump\t// out\n    /* \"#utility.yul\":3833:5228   */\ntag_6:\n    /* \"#utility.yul\":3950:3987   */\n  tag_79\n    /* \"#utility.yul\":3983:3986   */\n  dup3\n    /* \"#utility.yul\":3950:3987   */\n  tag_12\n  jump\t// in\ntag_79:\n    /* \"#utility.yul\":4052:4070   */\n  0xffffffffffffffff\n    /* \"#utility.yul\":4044:4050   */\n  dup2\n    /* \"#utility.yul\":4041:4071   */\n  gt\n    /* \"#utility.yul\":4038:4094   */\n  iszero\n  tag_80\n  jumpi\n    /* \"#utility.yul\":4074:4092   */\n  tag_81\n  tag_13\n  jump\t// in\ntag_81:\n    /* \"#utility.yul\":4038:4094   */\ntag_80:\n    /* \"#utility.yul\":4118:4156   */\n  tag_82\n    /* \"#utility.yul\":4150:4154   */\n  dup3\n    /* \"#utility.yul\":4144:4155   */\n  sload\n    /* \"#utility.yul\":4118:4156   */\n  tag_15\n  jump\t// in\ntag_82:\n    /* \"#utility.yul\":4203:4270   */\n  tag_83\n    /* \"#utility.yul\":4263:4269   */\n  dup3\n    /* \"#utility.yul\":4255:4261   */\n  dup3\n    /* \"#utility.yul\":4249:4253   */\n  dup6\n    /* \"#utility.yul\":4203:4270   */\n  tag_28\n  jump\t// in\ntag_83:\n    /* \"#utility.yul\":4297:4298   */\n  0x00\n    /* \"#utility.yul\":4321:4325   */\n  0x20\n    /* \"#utility.yul\":4308:4325   */\n  swap1\n  pop\n    /* \"#utility.yul\":4353:4355   */\n  0x1f\n    /* \"#utility.yul\":4345:4351   */\n  dup4\n    /* \"#utility.yul\":4342:4356   */\n  gt\n    /* \"#utility.yul\":4370:4371   */\n  0x01\n    /* \"#utility.yul\":4365:4983   */\n  dup2\n  eq\n  tag_85\n  jumpi\n    /* \"#utility.yul\":5027:5028   */\n  0x00\n    /* \"#utility.yul\":5044:5050   */\n  dup5\n    /* \"#utility.yul\":5041:5118   */\n  iszero\n  tag_86\n  jumpi\n    /* \"#utility.yul\":5093:5102   */\n  dup3\n    /* \"#utility.yul\":5088:5091   */\n  dup8\n    /* \"#utility.yul\":5084:5103   */\n  add\n    /* \"#utility.yul\":5078:5104   */\n  mload\n    /* \"#utility.yul\":5069:5104   */\n  swap1\n  pop\n    /* \"#utility.yul\":5041:5118   */\ntag_86:\n    /* \"#utility.yul\":5144:5211   */\n  tag_87\n    /* \"#utility.yul\":5204:5210   */\n  dup6\n    /* \"#utility.yul\":5197:5202   */\n  dup3\n    /* \"#utility.yul\":5144:5211   */\n  tag_31\n  jump\t// in\ntag_87:\n    /* \"#utility.yul\":5138:5142   */\n  dup7\n    /* \"#utility.yul\":5131:5212   */\n  sstore\n    /* \"#utility.yul\":5000:5222   */\n  pop\n    /* \"#utility.yul\":4335:5222   */\n  jump(tag_84)\n    /* \"#utility.yul\":4365:4983   */\ntag_85:\n    /* \"#utility.yul\":4417:4421   */\n  0x1f\n    /* \"#utility.yul\":4413:4422   */\n  not\n    /* \"#utility.yul\":4405:4411   */\n  dup5\n    /* \"#utility.yul\":4401:4423   */\n  and\n    /* \"#utility.yul\":4451:4488   */\n  tag_88\n    /* \"#utility.yul\":4483:4487   */\n  dup7\n    /* \"#utility.yul\":4451:4488   */\n  tag_16\n  jump\t// in\ntag_88:\n    /* \"#utility.yul\":4510:4511   */\n  0x00\n    /* \"#utility.yul\":4524:4732   */\ntag_89:\n    /* \"#utility.yul\":4538:4545   */\n  dup3\n    /* \"#utility.yul\":4535:4536   */\n  dup2\n    /* \"#utility.yul\":4532:4546   */\n  lt\n    /* \"#utility.yul\":4524:4732   */\n  iszero\n  tag_91\n  jumpi\n    /* \"#utility.yul\":4617:4626   */\n  dup5\n    /* \"#utility.yul\":4612:4615   */\n  dup10\n    /* \"#utility.yul\":4608:4627   */\n  add\n    /* \"#utility.yul\":4602:4628   */\n  mload\n    /* \"#utility.yul\":4594:4600   */\n  dup3\n    /* \"#utility.yul\":4587:4629   */\n  sstore\n    /* \"#utility.yul\":4668:4669   */\n  0x01\n    /* \"#utility.yul\":4660:4666   */\n  dup3\n    /* \"#utility.yul\":4656:4670   */\n  add\n    /* \"#utility.yul\":4646:4670   */\n  swap2\n  pop\n    /* \"#utility.yul\":4715:4717   */\n  0x20\n    /* \"#utility.yul\":4704:4713   */\n  dup6\n    /* \"#utility.yul\":4700:4718   */\n  add\n    /* \"#utility.yul\":4687:4718   */\n  swap5\n  pop\n    /* \"#utility.yul\":4561:4565   */\n  0x20\n    /* \"#utility.yul\":4558:4559   */\n  dup2\n    /* \"#utility.yul\":4554:4566   */\n  add\n    /* \"#utility.yul\":4549:4566   */\n  swap1\n  pop\n    /* \"#utility.yul\":4524:4732   */\n  jump(tag_89)\ntag_91:\n    /* \"#utility.yul\":4760:4766   */\n  dup7\n    /* \"#utility.yul\":4751:4758   */\n  dup4\n    /* \"#utility.yul\":4748:4767   */\n  lt\n    /* \"#utility.yul\":4745:4924   */\n  iszero\n  tag_92\n  jumpi\n    /* \"#utility.yul\":4818:4827   */\n  dup5\n    /* \"#utility.yul\":4813:4816   */\n  dup10\n    /* \"#utility.yul\":4809:4828   */\n  add\n    /* \"#utility.yul\":4803:4829   */\n  mload\n    /* \"#utility.yul\":4861:4909   */\n  tag_93\n    /* \"#utility.yul\":4903:4907   */\n  0x1f\n    /* \"#utility.yul\":4895:4901   */\n  dup10\n    /* \"#utility.yul\":4891:4908   */\n  and\n    /* \"#utility.yul\":4880:4889   */\n  dup3\n    /* \"#utility.yul\":4861:4909   */\n  tag_30\n  jump\t// in\ntag_93:\n    /* \"#utility.yul\":4853:4859   */\n  dup4\n    /* \"#utility.yul\":4846:4910   */\n  sstore\n    /* \"#utility.yul\":4768:4924   */\n  pop\n    /* \"#utility.yul\":4745:4924   */\ntag_92:\n    /* \"#utility.yul\":4970:4971   */\n  0x01\n    /* \"#utility.yul\":4966:4967   */\n  0x02\n    /* \"#utility.yul\":4958:4964   */\n  dup9\n    /* \"#utility.yul\":4954:4968   */\n  mul\n    /* \"#utility.yul\":4950:4972   */\n  add\n    /* \"#utility.yul\":4944:4948   */\n  dup9\n    /* \"#utility.yul\":4937:4973   */\n  sstore\n    /* \"#utility.yul\":4372:4983   */\n  pop\n  pop\n  pop\n    /* \"#utility.yul\":4335:5222   */\ntag_84:\n  pop\n    /* \"#utility.yul\":3925:5228   */\n  pop\n  pop\n  pop\n    /* \"#utility.yul\":3833:5228   */\n  pop\n  pop\n  jump\t// out\n    /* \"contracts/loop-exercise.sol\":303:1200  contract ExpenseTracker {... */\ntag_11:\n  dataSize(sub_0)\n  dup1\n  dataOffset(sub_0)\n  0x00\n  codecopy\n  0x00\n  return\nstop\n\nsub_0: assembly {\n        /* \"contracts/loop-exercise.sol\":303:1200  contract ExpenseTracker {... */\n      mstore(0x40, 0x80)\n      callvalue\n      dup1\n      iszero\n      tag_1\n      jumpi\n      0x00\n      dup1\n      revert\n    tag_1:\n      pop\n      jumpi(tag_2, lt(calldatasize, 0x04))\n      shr(0xe0, calldataload(0x00))\n      dup1\n      0x3fb457e4\n      eq\n      tag_3\n      jumpi\n      dup1\n      0xa4df1f5a\n      eq\n      tag_4\n      jumpi\n      dup1\n      0xaf4afe0a\n      eq\n      tag_5\n      jumpi\n    tag_2:\n      0x00\n      dup1\n      revert\n        /* \"contracts/loop-exercise.sol\":848:1197  function getTotalExpenses(address _user) public view returns (uint) {... */\n    tag_3:\n      tag_6\n      0x04\n      dup1\n      calldatasize\n      sub\n      dup2\n      add\n      swap1\n      tag_7\n      swap2\n      swap1\n      tag_8\n      jump\t// in\n    tag_7:\n      tag_9\n      jump\t// in\n    tag_6:\n      mload(0x40)\n      tag_10\n      swap2\n      swap1\n      tag_11\n      jump\t// in\n    tag_10:\n      mload(0x40)\n      dup1\n      swap2\n      sub\n      swap1\n      return\n        /* \"contracts/loop-exercise.sol\":695:840  function addExpense(string memory _description, uint _amount) public {... */\n    tag_4:\n      tag_12\n      0x04\n      dup1\n      calldatasize\n      sub\n      dup2\n      add\n      swap1\n      tag_13\n      swap2\n      swap1\n      tag_14\n      jump\t// in\n    tag_13:\n      tag_15\n      jump\t// in\n    tag_12:\n      stop\n        /* \"contracts/loop-exercise.sol\":439:464  Expense[] public expenses */\n    tag_5:\n      tag_16\n      0x04\n      dup1\n      calldatasize\n      sub\n      dup2\n      add\n      swap1\n      tag_17\n      swap2\n      swap1\n      tag_18\n      jump\t// in\n    tag_17:\n      tag_19\n      jump\t// in\n    tag_16:\n      mload(0x40)\n      tag_20\n      swap4\n      swap3\n      swap2\n      swap1\n      tag_21\n      jump\t// in\n    tag_20:\n      mload(0x40)\n      dup1\n      swap2\n      sub\n      swap1\n      return\n        /* \"contracts/loop-exercise.sol\":848:1197  function getTotalExpenses(address _user) public view returns (uint) {... */\n    tag_9:\n        /* \"contracts/loop-exercise.sol\":910:914  uint */\n      0x00\n        /* \"contracts/loop-exercise.sol\":954:975  uint256 totalExpenses */\n      dup1\n        /* \"contracts/loop-exercise.sol\":991:997  uint i */\n      0x00\n        /* \"contracts/loop-exercise.sol\":986:1159  for (uint i=0; i<expenses.length; i++) ... */\n    tag_23:\n        /* \"contracts/loop-exercise.sol\":1003:1011  expenses */\n      0x00\n        /* \"contracts/loop-exercise.sol\":1003:1018  expenses.length */\n      dup1\n      sload\n      swap1\n      pop\n        /* \"contracts/loop-exercise.sol\":1001:1002  i */\n      dup2\n        /* \"contracts/loop-exercise.sol\":1001:1018  i<expenses.length */\n      lt\n        /* \"contracts/loop-exercise.sol\":986:1159  for (uint i=0; i<expenses.length; i++) ... */\n      iszero\n      tag_24\n      jumpi\n        /* \"contracts/loop-exercise.sol\":1071:1076  _user */\n      dup4\n        /* \"contracts/loop-exercise.sol\":1053:1076  expenses[i].user==_user */\n      0xffffffffffffffffffffffffffffffffffffffff\n      and\n        /* \"contracts/loop-exercise.sol\":1053:1061  expenses */\n      0x00\n        /* \"contracts/loop-exercise.sol\":1062:1063  i */\n      dup3\n        /* \"contracts/loop-exercise.sol\":1053:1064  expenses[i] */\n      dup2\n      sload\n      dup2\n      lt\n      tag_26\n      jumpi\n      tag_27\n      tag_28\n      jump\t// in\n    tag_27:\n    tag_26:\n      swap1\n      0x00\n      mstore\n      keccak256(0x00, 0x20)\n      swap1\n      0x03\n      mul\n      add\n        /* \"contracts/loop-exercise.sol\":1053:1069  expenses[i].user */\n      0x00\n      add\n      0x00\n      swap1\n      sload\n      swap1\n      0x0100\n      exp\n      swap1\n      div\n      0xffffffffffffffffffffffffffffffffffffffff\n      and\n        /* \"contracts/loop-exercise.sol\":1053:1076  expenses[i].user==_user */\n      0xffffffffffffffffffffffffffffffffffffffff\n      and\n      sub\n        /* \"contracts/loop-exercise.sol\":1050:1148  if(expenses[i].user==_user) {... */\n      tag_30\n      jumpi\n        /* \"contracts/loop-exercise.sol\":1114:1122  expenses */\n      0x00\n        /* \"contracts/loop-exercise.sol\":1123:1124  i */\n      dup2\n        /* \"contracts/loop-exercise.sol\":1114:1125  expenses[i] */\n      dup2\n      sload\n      dup2\n      lt\n      tag_31\n      jumpi\n      tag_32\n      tag_28\n      jump\t// in\n    tag_32:\n    tag_31:\n      swap1\n      0x00\n      mstore\n      keccak256(0x00, 0x20)\n      swap1\n      0x03\n      mul\n      add\n        /* \"contracts/loop-exercise.sol\":1114:1132  expenses[i].amount */\n      0x02\n      add\n      sload\n        /* \"contracts/loop-exercise.sol\":1097:1132  totalExpenses += expenses[i].amount */\n      dup3\n      tag_34\n      swap2\n      swap1\n      tag_35\n      jump\t// in\n    tag_34:\n      swap2\n      pop\n        /* \"contracts/loop-exercise.sol\":1050:1148  if(expenses[i].user==_user) {... */\n    tag_30:\n        /* \"contracts/loop-exercise.sol\":1020:1023  i++ */\n      dup1\n      dup1\n      0x01\n      add\n      swap2\n      pop\n      pop\n        /* \"contracts/loop-exercise.sol\":986:1159  for (uint i=0; i<expenses.length; i++) ... */\n      jump(tag_23)\n    tag_24:\n      pop\n        /* \"contracts/loop-exercise.sol\":1176:1189  totalExpenses */\n      dup1\n        /* \"contracts/loop-exercise.sol\":1169:1189  return totalExpenses */\n      swap2\n      pop\n      pop\n        /* \"contracts/loop-exercise.sol\":848:1197  function getTotalExpenses(address _user) public view returns (uint) {... */\n      swap2\n      swap1\n      pop\n      jump\t// out\n        /* \"contracts/loop-exercise.sol\":695:840  function addExpense(string memory _description, uint _amount) public {... */\n    tag_15:\n        /* \"contracts/loop-exercise.sol\":775:783  expenses */\n      0x00\n        /* \"contracts/loop-exercise.sol\":789:831  Expense(msg.sender, _description, _amount) */\n      mload(0x40)\n      dup1\n      0x60\n      add\n      0x40\n      mstore\n      dup1\n        /* \"contracts/loop-exercise.sol\":797:807  msg.sender */\n      caller\n        /* \"contracts/loop-exercise.sol\":789:831  Expense(msg.sender, _description, _amount) */\n      0xffffffffffffffffffffffffffffffffffffffff\n      and\n      dup2\n      mstore\n      0x20\n      add\n        /* \"contracts/loop-exercise.sol\":809:821  _description */\n      dup5\n        /* \"contracts/loop-exercise.sol\":789:831  Expense(msg.sender, _description, _amount) */\n      dup2\n      mstore\n      0x20\n      add\n        /* \"contracts/loop-exercise.sol\":823:830  _amount */\n      dup4\n        /* \"contracts/loop-exercise.sol\":789:831  Expense(msg.sender, _description, _amount) */\n      dup2\n      mstore\n      pop\n        /* \"contracts/loop-exercise.sol\":775:832  expenses.push(Expense(msg.sender, _description, _amount)) */\n      swap1\n      dup1\n      0x01\n      dup2\n      sload\n      add\n      dup1\n      dup3\n      sstore\n      dup1\n      swap2\n      pop\n      pop\n      0x01\n      swap1\n      sub\n      swap1\n      0x00\n      mstore\n      keccak256(0x00, 0x20)\n      swap1\n      0x03\n      mul\n      add\n      0x00\n      swap1\n      swap2\n      swap1\n      swap2\n      swap1\n      swap2\n      pop\n      0x00\n      dup3\n      add\n      mload\n      dup2\n      0x00\n      add\n      exp(0x0100, 0x00)\n      dup2\n      sload\n      dup2\n      0xffffffffffffffffffffffffffffffffffffffff\n      mul\n      not\n      and\n      swap1\n      dup4\n      0xffffffffffffffffffffffffffffffffffffffff\n      and\n      mul\n      or\n      swap1\n      sstore\n      pop\n      0x20\n      dup3\n      add\n      mload\n      dup2\n      0x01\n      add\n      swap1\n      dup2\n      tag_38\n      swap2\n      swap1\n      tag_39\n      jump\t// in\n    tag_38:\n      pop\n      0x40\n      dup3\n      add\n      mload\n      dup2\n      0x02\n      add\n      sstore\n      pop\n      pop\n        /* \"contracts/loop-exercise.sol\":695:840  function addExpense(string memory _description, uint _amount) public {... */\n      pop\n      pop\n      jump\t// out\n        /* \"contracts/loop-exercise.sol\":439:464  Expense[] public expenses */\n    tag_19:\n      0x00\n      dup2\n      dup2\n      sload\n      dup2\n      lt\n      tag_40\n      jumpi\n      0x00\n      dup1\n      revert\n    tag_40:\n      swap1\n      0x00\n      mstore\n      keccak256(0x00, 0x20)\n      swap1\n      0x03\n      mul\n      add\n      0x00\n      swap2\n      pop\n      swap1\n      pop\n      dup1\n      0x00\n      add\n      0x00\n      swap1\n      sload\n      swap1\n      0x0100\n      exp\n      swap1\n      div\n      0xffffffffffffffffffffffffffffffffffffffff\n      and\n      swap1\n      dup1\n      0x01\n      add\n      dup1\n      sload\n      tag_42\n      swap1\n      tag_43\n      jump\t// in\n    tag_42:\n      dup1\n      0x1f\n      add\n      0x20\n      dup1\n      swap2\n      div\n      mul\n      0x20\n      add\n      mload(0x40)\n      swap1\n      dup2\n      add\n      0x40\n      mstore\n      dup1\n      swap3\n      swap2\n      swap1\n      dup2\n      dup2\n      mstore\n      0x20\n      add\n      dup3\n      dup1\n      sload\n      tag_44\n      swap1\n      tag_43\n      jump\t// in\n    tag_44:\n      dup1\n      iszero\n      tag_45\n      jumpi\n      dup1\n      0x1f\n      lt\n      tag_46\n      jumpi\n      0x0100\n      dup1\n      dup4\n      sload\n      div\n      mul\n      dup4\n      mstore\n      swap2\n      0x20\n      add\n      swap2\n      jump(tag_45)\n    tag_46:\n      dup3\n      add\n      swap2\n      swap1\n      0x00\n      mstore\n      keccak256(0x00, 0x20)\n      swap1\n    tag_47:\n      dup2\n      sload\n      dup2\n      mstore\n      swap1\n      0x01\n      add\n      swap1\n      0x20\n      add\n      dup1\n      dup4\n      gt\n      tag_47\n      jumpi\n      dup3\n      swap1\n      sub\n      0x1f\n      and\n      dup3\n      add\n      swap2\n    tag_45:\n      pop\n      pop\n      pop\n      pop\n      pop\n      swap1\n      dup1\n      0x02\n      add\n      sload\n      swap1\n      pop\n      dup4\n      jump\t// out\n        /* \"#utility.yul\":7:82   */\n    tag_48:\n        /* \"#utility.yul\":40:46   */\n      0x00\n        /* \"#utility.yul\":73:75   */\n      0x40\n        /* \"#utility.yul\":67:76   */\n      mload\n        /* \"#utility.yul\":57:76   */\n      swap1\n      pop\n        /* \"#utility.yul\":7:82   */\n      swap1\n      jump\t// out\n        /* \"#utility.yul\":88:205   */\n    tag_49:\n        /* \"#utility.yul\":197:198   */\n      0x00\n        /* \"#utility.yul\":194:195   */\n      dup1\n        /* \"#utility.yul\":187:199   */\n      revert\n        /* \"#utility.yul\":211:328   */\n    tag_50:\n        /* \"#utility.yul\":320:321   */\n      0x00\n        /* \"#utility.yul\":317:318   */\n      dup1\n        /* \"#utility.yul\":310:322   */\n      revert\n        /* \"#utility.yul\":334:460   */\n    tag_51:\n        /* \"#utility.yul\":371:378   */\n      0x00\n        /* \"#utility.yul\":411:453   */\n      0xffffffffffffffffffffffffffffffffffffffff\n        /* \"#utility.yul\":404:409   */\n      dup3\n        /* \"#utility.yul\":400:454   */\n      and\n        /* \"#utility.yul\":389:454   */\n      swap1\n      pop\n        /* \"#utility.yul\":334:460   */\n      swap2\n      swap1\n      pop\n      jump\t// out\n        /* \"#utility.yul\":466:562   */\n    tag_52:\n        /* \"#utility.yul\":503:510   */\n      0x00\n        /* \"#utility.yul\":532:556   */\n      tag_97\n        /* \"#utility.yul\":550:555   */\n      dup3\n        /* \"#utility.yul\":532:556   */\n      tag_51\n      jump\t// in\n    tag_97:\n        /* \"#utility.yul\":521:556   */\n      swap1\n      pop\n        /* \"#utility.yul\":466:562   */\n      swap2\n      swap1\n      pop\n      jump\t// out\n        /* \"#utility.yul\":568:690   */\n    tag_53:\n        /* \"#utility.yul\":641:665   */\n      tag_99\n        /* \"#utility.yul\":659:664   */\n      dup2\n        /* \"#utility.yul\":641:665   */\n      tag_52\n      jump\t// in\n    tag_99:\n        /* \"#utility.yul\":634:639   */\n      dup2\n        /* \"#utility.yul\":631:666   */\n      eq\n        /* \"#utility.yul\":621:684   */\n      tag_100\n      jumpi\n        /* \"#utility.yul\":680:681   */\n      0x00\n        /* \"#utility.yul\":677:678   */\n      dup1\n        /* \"#utility.yul\":670:682   */\n      revert\n        /* \"#utility.yul\":621:684   */\n    tag_100:\n        /* \"#utility.yul\":568:690   */\n      pop\n      jump\t// out\n        /* \"#utility.yul\":696:835   */\n    tag_54:\n        /* \"#utility.yul\":742:747   */\n      0x00\n        /* \"#utility.yul\":780:786   */\n      dup2\n        /* \"#utility.yul\":767:787   */\n      calldataload\n        /* \"#utility.yul\":758:787   */\n      swap1\n      pop\n        /* \"#utility.yul\":796:829   */\n      tag_102\n        /* \"#utility.yul\":823:828   */\n      dup2\n        /* \"#utility.yul\":796:829   */\n      tag_53\n      jump\t// in\n    tag_102:\n        /* \"#utility.yul\":696:835   */\n      swap3\n      swap2\n      pop\n      pop\n      jump\t// out\n        /* \"#utility.yul\":841:1170   */\n    tag_8:\n        /* \"#utility.yul\":900:906   */\n      0x00\n        /* \"#utility.yul\":949:951   */\n      0x20\n        /* \"#utility.yul\":937:946   */\n      dup3\n        /* \"#utility.yul\":928:935   */\n      dup5\n        /* \"#utility.yul\":924:947   */\n      sub\n        /* \"#utility.yul\":920:952   */\n      slt\n        /* \"#utility.yul\":917:1036   */\n      iszero\n      tag_104\n      jumpi\n        /* \"#utility.yul\":955:1034   */\n      tag_105\n      tag_49\n      jump\t// in\n    tag_105:\n        /* \"#utility.yul\":917:1036   */\n    tag_104:\n        /* \"#utility.yul\":1075:1076   */\n      0x00\n        /* \"#utility.yul\":1100:1153   */\n      tag_106\n        /* \"#utility.yul\":1145:1152   */\n      dup5\n        /* \"#utility.yul\":1136:1142   */\n      dup3\n        /* \"#utility.yul\":1125:1134   */\n      dup6\n        /* \"#utility.yul\":1121:1143   */\n      add\n        /* \"#utility.yul\":1100:1153   */\n      tag_54\n      jump\t// in\n    tag_106:\n        /* \"#utility.yul\":1090:1153   */\n      swap2\n      pop\n        /* \"#utility.yul\":1046:1163   */\n      pop\n        /* \"#utility.yul\":841:1170   */\n      swap3\n      swap2\n      pop\n      pop\n      jump\t// out\n        /* \"#utility.yul\":1176:1253   */\n    tag_55:\n        /* \"#utility.yul\":1213:1220   */\n      0x00\n        /* \"#utility.yul\":1242:1247   */\n      dup2\n        /* \"#utility.yul\":1231:1247   */\n      swap1\n      pop\n        /* \"#utility.yul\":1176:1253   */\n      swap2\n      swap1\n      pop\n      jump\t// out\n        /* \"#utility.yul\":1259:1377   */\n    tag_56:\n        /* \"#utility.yul\":1346:1370   */\n      tag_109\n        /* \"#utility.yul\":1364:1369   */\n      dup2\n        /* \"#utility.yul\":1346:1370   */\n      tag_55\n      jump\t// in\n    tag_109:\n        /* \"#utility.yul\":1341:1344   */\n      dup3\n        /* \"#utility.yul\":1334:1371   */\n      mstore\n        /* \"#utility.yul\":1259:1377   */\n      pop\n      pop\n      jump\t// out\n        /* \"#utility.yul\":1383:1605   */\n    tag_11:\n        /* \"#utility.yul\":1476:1480   */\n      0x00\n        /* \"#utility.yul\":1514:1516   */\n      0x20\n        /* \"#utility.yul\":1503:1512   */\n      dup3\n        /* \"#utility.yul\":1499:1517   */\n      add\n        /* \"#utility.yul\":1491:1517   */\n      swap1\n      pop\n        /* \"#utility.yul\":1527:1598   */\n      tag_111\n        /* \"#utility.yul\":1595:1596   */\n      0x00\n        /* \"#utility.yul\":1584:1593   */\n      dup4\n        /* \"#utility.yul\":1580:1597   */\n      add\n        /* \"#utility.yul\":1571:1577   */\n      dup5\n        /* \"#utility.yul\":1527:1598   */\n      tag_56\n      jump\t// in\n    tag_111:\n        /* \"#utility.yul\":1383:1605   */\n      swap3\n      swap2\n      pop\n      pop\n      jump\t// out\n        /* \"#utility.yul\":1611:1728   */\n    tag_57:\n        /* \"#utility.yul\":1720:1721   */\n      0x00\n        /* \"#utility.yul\":1717:1718   */\n      dup1\n        /* \"#utility.yul\":1710:1722   */\n      revert\n        /* \"#utility.yul\":1734:1851   */\n    tag_58:\n        /* \"#utility.yul\":1843:1844   */\n      0x00\n        /* \"#utility.yul\":1840:1841   */\n      dup1\n        /* \"#utility.yul\":1833:1845   */\n      revert\n        /* \"#utility.yul\":1857:1959   */\n    tag_59:\n        /* \"#utility.yul\":1898:1904   */\n      0x00\n        /* \"#utility.yul\":1949:1951   */\n      0x1f\n        /* \"#utility.yul\":1945:1952   */\n      not\n        /* \"#utility.yul\":1940:1942   */\n      0x1f\n        /* \"#utility.yul\":1933:1938   */\n      dup4\n        /* \"#utility.yul\":1929:1943   */\n      add\n        /* \"#utility.yul\":1925:1953   */\n      and\n        /* \"#utility.yul\":1915:1953   */\n      swap1\n      pop\n        /* \"#utility.yul\":1857:1959   */\n      swap2\n      swap1\n      pop\n      jump\t// out\n        /* \"#utility.yul\":1965:2145   */\n    tag_60:\n        /* \"#utility.yul\":2013:2090   */\n      0x4e487b7100000000000000000000000000000000000000000000000000000000\n        /* \"#utility.yul\":2010:2011   */\n      0x00\n        /* \"#utility.yul\":2003:2091   */\n      mstore\n        /* \"#utility.yul\":2110:2114   */\n      0x41\n        /* \"#utility.yul\":2107:2108   */\n      0x04\n        /* \"#utility.yul\":2100:2115   */\n      mstore\n        /* \"#utility.yul\":2134:2138   */\n      0x24\n        /* \"#utility.yul\":2131:2132   */\n      0x00\n        /* \"#utility.yul\":2124:2139   */\n      revert\n        /* \"#utility.yul\":2151:2432   */\n    tag_61:\n        /* \"#utility.yul\":2234:2261   */\n      tag_117\n        /* \"#utility.yul\":2256:2260   */\n      dup3\n        /* \"#utility.yul\":2234:2261   */\n      tag_59\n      jump\t// in\n    tag_117:\n        /* \"#utility.yul\":2226:2232   */\n      dup2\n        /* \"#utility.yul\":2222:2262   */\n      add\n        /* \"#utility.yul\":2364:2370   */\n      dup2\n        /* \"#utility.yul\":2352:2362   */\n      dup2\n        /* \"#utility.yul\":2349:2371   */\n      lt\n        /* \"#utility.yul\":2328:2346   */\n      0xffffffffffffffff\n        /* \"#utility.yul\":2316:2326   */\n      dup3\n        /* \"#utility.yul\":2313:2347   */\n      gt\n        /* \"#utility.yul\":2310:2372   */\n      or\n        /* \"#utility.yul\":2307:2395   */\n      iszero\n      tag_118\n      jumpi\n        /* \"#utility.yul\":2375:2393   */\n      tag_119\n      tag_60\n      jump\t// in\n    tag_119:\n        /* \"#utility.yul\":2307:2395   */\n    tag_118:\n        /* \"#utility.yul\":2415:2425   */\n      dup1\n        /* \"#utility.yul\":2411:2413   */\n      0x40\n        /* \"#utility.yul\":2404:2426   */\n      mstore\n        /* \"#utility.yul\":2194:2432   */\n      pop\n        /* \"#utility.yul\":2151:2432   */\n      pop\n      pop\n      jump\t// out\n        /* \"#utility.yul\":2438:2567   */\n    tag_62:\n        /* \"#utility.yul\":2472:2478   */\n      0x00\n        /* \"#utility.yul\":2499:2519   */\n      tag_121\n      tag_48\n      jump\t// in\n    tag_121:\n        /* \"#utility.yul\":2489:2519   */\n      swap1\n      pop\n        /* \"#utility.yul\":2528:2561   */\n      tag_122\n        /* \"#utility.yul\":2556:2560   */\n      dup3\n        /* \"#utility.yul\":2548:2554   */\n      dup3\n        /* \"#utility.yul\":2528:2561   */\n      tag_61\n      jump\t// in\n    tag_122:\n        /* \"#utility.yul\":2438:2567   */\n      swap2\n      swap1\n      pop\n      jump\t// out\n        /* \"#utility.yul\":2573:2881   */\n    tag_63:\n        /* \"#utility.yul\":2635:2639   */\n      0x00\n        /* \"#utility.yul\":2725:2743   */\n      0xffffffffffffffff\n        /* \"#utility.yul\":2717:2723   */\n      dup3\n        /* \"#utility.yul\":2714:2744   */\n      gt\n        /* \"#utility.yul\":2711:2767   */\n      iszero\n      tag_124\n      jumpi\n        /* \"#utility.yul\":2747:2765   */\n      tag_125\n      tag_60\n      jump\t// in\n    tag_125:\n        /* \"#utility.yul\":2711:2767   */\n    tag_124:\n        /* \"#utility.yul\":2785:2814   */\n      tag_126\n        /* \"#utility.yul\":2807:2813   */\n      dup3\n        /* \"#utility.yul\":2785:2814   */\n      tag_59\n      jump\t// in\n    tag_126:\n        /* \"#utility.yul\":2777:2814   */\n      swap1\n      pop\n        /* \"#utility.yul\":2869:2873   */\n      0x20\n        /* \"#utility.yul\":2863:2867   */\n      dup2\n        /* \"#utility.yul\":2859:2874   */\n      add\n        /* \"#utility.yul\":2851:2874   */\n      swap1\n      pop\n        /* \"#utility.yul\":2573:2881   */\n      swap2\n      swap1\n      pop\n      jump\t// out\n        /* \"#utility.yul\":2887:3035   */\n    tag_64:\n        /* \"#utility.yul\":2985:2991   */\n      dup3\n        /* \"#utility.yul\":2980:2983   */\n      dup2\n        /* \"#utility.yul\":2975:2978   */\n      dup4\n        /* \"#utility.yul\":2962:2992   */\n      calldatacopy\n        /* \"#utility.yul\":3026:3027   */\n      0x00\n        /* \"#utility.yul\":3017:3023   */\n      dup4\n        /* \"#utility.yul\":3012:3015   */\n      dup4\n        /* \"#utility.yul\":3008:3024   */\n      add\n        /* \"#utility.yul\":3001:3028   */\n      mstore\n        /* \"#utility.yul\":2887:3035   */\n      pop\n      pop\n      pop\n      jump\t// out\n        /* \"#utility.yul\":3041:3466   */\n    tag_65:\n        /* \"#utility.yul\":3119:3124   */\n      0x00\n        /* \"#utility.yul\":3144:3210   */\n      tag_129\n        /* \"#utility.yul\":3160:3209   */\n      tag_130\n        /* \"#utility.yul\":3202:3208   */\n      dup5\n        /* \"#utility.yul\":3160:3209   */\n      tag_63\n      jump\t// in\n    tag_130:\n        /* \"#utility.yul\":3144:3210   */\n      tag_62\n      jump\t// in\n    tag_129:\n        /* \"#utility.yul\":3135:3210   */\n      swap1\n      pop\n        /* \"#utility.yul\":3233:3239   */\n      dup3\n        /* \"#utility.yul\":3226:3231   */\n      dup2\n        /* \"#utility.yul\":3219:3240   */\n      mstore\n        /* \"#utility.yul\":3271:3275   */\n      0x20\n        /* \"#utility.yul\":3264:3269   */\n      dup2\n        /* \"#utility.yul\":3260:3276   */\n      add\n        /* \"#utility.yul\":3309:3312   */\n      dup5\n        /* \"#utility.yul\":3300:3306   */\n      dup5\n        /* \"#utility.yul\":3295:3298   */\n      dup5\n        /* \"#utility.yul\":3291:3307   */\n      add\n        /* \"#utility.yul\":3288:3313   */\n      gt\n        /* \"#utility.yul\":3285:3397   */\n      iszero\n      tag_131\n      jumpi\n        /* \"#utility.yul\":3316:3395   */\n      tag_132\n      tag_58\n      jump\t// in\n    tag_132:\n        /* \"#utility.yul\":3285:3397   */\n    tag_131:\n        /* \"#utility.yul\":3406:3460   */\n      tag_133\n        /* \"#utility.yul\":3453:3459   */\n      dup5\n        /* \"#utility.yul\":3448:3451   */\n      dup3\n        /* \"#utility.yul\":3443:3446   */\n      dup6\n        /* \"#utility.yul\":3406:3460   */\n      tag_64\n      jump\t// in\n    tag_133:\n        /* \"#utility.yul\":3125:3466   */\n      pop\n        /* \"#utility.yul\":3041:3466   */\n      swap4\n      swap3\n      pop\n      pop\n      pop\n      jump\t// out\n        /* \"#utility.yul\":3486:3826   */\n    tag_66:\n        /* \"#utility.yul\":3542:3547   */\n      0x00\n        /* \"#utility.yul\":3591:3594   */\n      dup3\n        /* \"#utility.yul\":3584:3588   */\n      0x1f\n        /* \"#utility.yul\":3576:3582   */\n      dup4\n        /* \"#utility.yul\":3572:3589   */\n      add\n        /* \"#utility.yul\":3568:3595   */\n      slt\n        /* \"#utility.yul\":3558:3680   */\n      tag_135\n      jumpi\n        /* \"#utility.yul\":3599:3678   */\n      tag_136\n      tag_57\n      jump\t// in\n    tag_136:\n        /* \"#utility.yul\":3558:3680   */\n    tag_135:\n        /* \"#utility.yul\":3716:3722   */\n      dup2\n        /* \"#utility.yul\":3703:3723   */\n      calldataload\n        /* \"#utility.yul\":3741:3820   */\n      tag_137\n        /* \"#utility.yul\":3816:3819   */\n      dup5\n        /* \"#utility.yul\":3808:3814   */\n      dup3\n        /* \"#utility.yul\":3801:3805   */\n      0x20\n        /* \"#utility.yul\":3793:3799   */\n      dup7\n        /* \"#utility.yul\":3789:3806   */\n      add\n        /* \"#utility.yul\":3741:3820   */\n      tag_65\n      jump\t// in\n    tag_137:\n        /* \"#utility.yul\":3732:3820   */\n      swap2\n      pop\n        /* \"#utility.yul\":3548:3826   */\n      pop\n        /* \"#utility.yul\":3486:3826   */\n      swap3\n      swap2\n      pop\n      pop\n      jump\t// out\n        /* \"#utility.yul\":3832:3954   */\n    tag_67:\n        /* \"#utility.yul\":3905:3929   */\n      tag_139\n        /* \"#utility.yul\":3923:3928   */\n      dup2\n        /* \"#utility.yul\":3905:3929   */\n      tag_55\n      jump\t// in\n    tag_139:\n        /* \"#utility.yul\":3898:3903   */\n      dup2\n        /* \"#utility.yul\":3895:3930   */\n      eq\n        /* \"#utility.yul\":3885:3948   */\n      tag_140\n      jumpi\n        /* \"#utility.yul\":3944:3945   */\n      0x00\n        /* \"#utility.yul\":3941:3942   */\n      dup1\n        /* \"#utility.yul\":3934:3946   */\n      revert\n        /* \"#utility.yul\":3885:3948   */\n    tag_140:\n        /* \"#utility.yul\":3832:3954   */\n      pop\n      jump\t// out\n        /* \"#utility.yul\":3960:4099   */\n    tag_68:\n        /* \"#utility.yul\":4006:4011   */\n      0x00\n        /* \"#utility.yul\":4044:4050   */\n      dup2\n        /* \"#utility.yul\":4031:4051   */\n      calldataload\n        /* \"#utility.yul\":4022:4051   */\n      swap1\n      pop\n        /* \"#utility.yul\":4060:4093   */\n      tag_142\n        /* \"#utility.yul\":4087:4092   */\n      dup2\n        /* \"#utility.yul\":4060:4093   */\n      tag_67\n      jump\t// in\n    tag_142:\n        /* \"#utility.yul\":3960:4099   */\n      swap3\n      swap2\n      pop\n      pop\n      jump\t// out\n        /* \"#utility.yul\":4105:4759   */\n    tag_14:\n        /* \"#utility.yul\":4183:4189   */\n      0x00\n        /* \"#utility.yul\":4191:4197   */\n      dup1\n        /* \"#utility.yul\":4240:4242   */\n      0x40\n        /* \"#utility.yul\":4228:4237   */\n      dup4\n        /* \"#utility.yul\":4219:4226   */\n      dup6\n        /* \"#utility.yul\":4215:4238   */\n      sub\n        /* \"#utility.yul\":4211:4243   */\n      slt\n        /* \"#utility.yul\":4208:4327   */\n      iszero\n      tag_144\n      jumpi\n        /* \"#utility.yul\":4246:4325   */\n      tag_145\n      tag_49\n      jump\t// in\n    tag_145:\n        /* \"#utility.yul\":4208:4327   */\n    tag_144:\n        /* \"#utility.yul\":4394:4395   */\n      0x00\n        /* \"#utility.yul\":4383:4392   */\n      dup4\n        /* \"#utility.yul\":4379:4396   */\n      add\n        /* \"#utility.yul\":4366:4397   */\n      calldataload\n        /* \"#utility.yul\":4424:4442   */\n      0xffffffffffffffff\n        /* \"#utility.yul\":4416:4422   */\n      dup2\n        /* \"#utility.yul\":4413:4443   */\n      gt\n        /* \"#utility.yul\":4410:4527   */\n      iszero\n      tag_146\n      jumpi\n        /* \"#utility.yul\":4446:4525   */\n      tag_147\n      tag_50\n      jump\t// in\n    tag_147:\n        /* \"#utility.yul\":4410:4527   */\n    tag_146:\n        /* \"#utility.yul\":4551:4614   */\n      tag_148\n        /* \"#utility.yul\":4606:4613   */\n      dup6\n        /* \"#utility.yul\":4597:4603   */\n      dup3\n        /* \"#utility.yul\":4586:4595   */\n      dup7\n        /* \"#utility.yul\":4582:4604   */\n      add\n        /* \"#utility.yul\":4551:4614   */\n      tag_66\n      jump\t// in\n    tag_148:\n        /* \"#utility.yul\":4541:4614   */\n      swap3\n      pop\n        /* \"#utility.yul\":4337:4624   */\n      pop\n        /* \"#utility.yul\":4663:4665   */\n      0x20\n        /* \"#utility.yul\":4689:4742   */\n      tag_149\n        /* \"#utility.yul\":4734:4741   */\n      dup6\n        /* \"#utility.yul\":4725:4731   */\n      dup3\n        /* \"#utility.yul\":4714:4723   */\n      dup7\n        /* \"#utility.yul\":4710:4732   */\n      add\n        /* \"#utility.yul\":4689:4742   */\n      tag_68\n      jump\t// in\n    tag_149:\n        /* \"#utility.yul\":4679:4742   */\n      swap2\n      pop\n        /* \"#utility.yul\":4634:4752   */\n      pop\n        /* \"#utility.yul\":4105:4759   */\n      swap3\n      pop\n      swap3\n      swap1\n      pop\n      jump\t// out\n        /* \"#utility.yul\":4765:5094   */\n    tag_18:\n        /* \"#utility.yul\":4824:4830   */\n      0x00\n        /* \"#utility.yul\":4873:4875   */\n      0x20\n        /* \"#utility.yul\":4861:4870   */\n      dup3\n        /* \"#utility.yul\":4852:4859   */\n      dup5\n        /* \"#utility.yul\":4848:4871   */\n      sub\n        /* \"#utility.yul\":4844:4876   */\n      slt\n        /* \"#utility.yul\":4841:4960   */\n      iszero\n      tag_151\n      jumpi\n        /* \"#utility.yul\":4879:4958   */\n      tag_152\n      tag_49\n      jump\t// in\n    tag_152:\n        /* \"#utility.yul\":4841:4960   */\n    tag_151:\n        /* \"#utility.yul\":4999:5000   */\n      0x00\n        /* \"#utility.yul\":5024:5077   */\n      tag_153\n        /* \"#utility.yul\":5069:5076   */\n      dup5\n        /* \"#utility.yul\":5060:5066   */\n      dup3\n        /* \"#utility.yul\":5049:5058   */\n      dup6\n        /* \"#utility.yul\":5045:5067   */\n      add\n        /* \"#utility.yul\":5024:5077   */\n      tag_68\n      jump\t// in\n    tag_153:\n        /* \"#utility.yul\":5014:5077   */\n      swap2\n      pop\n        /* \"#utility.yul\":4970:5087   */\n      pop\n        /* \"#utility.yul\":4765:5094   */\n      swap3\n      swap2\n      pop\n      pop\n      jump\t// out\n        /* \"#utility.yul\":5100:5218   */\n    tag_69:\n        /* \"#utility.yul\":5187:5211   */\n      tag_155\n        /* \"#utility.yul\":5205:5210   */\n      dup2\n        /* \"#utility.yul\":5187:5211   */\n      tag_52\n      jump\t// in\n    tag_155:\n        /* \"#utility.yul\":5182:5185   */\n      dup3\n        /* \"#utility.yul\":5175:5212   */\n      mstore\n        /* \"#utility.yul\":5100:5218   */\n      pop\n      pop\n      jump\t// out\n        /* \"#utility.yul\":5224:5323   */\n    tag_70:\n        /* \"#utility.yul\":5276:5282   */\n      0x00\n        /* \"#utility.yul\":5310:5315   */\n      dup2\n        /* \"#utility.yul\":5304:5316   */\n      mload\n        /* \"#utility.yul\":5294:5316   */\n      swap1\n      pop\n        /* \"#utility.yul\":5224:5323   */\n      swap2\n      swap1\n      pop\n      jump\t// out\n        /* \"#utility.yul\":5329:5498   */\n    tag_71:\n        /* \"#utility.yul\":5413:5424   */\n      0x00\n        /* \"#utility.yul\":5447:5453   */\n      dup3\n        /* \"#utility.yul\":5442:5445   */\n      dup3\n        /* \"#utility.yul\":5435:5454   */\n      mstore\n        /* \"#utility.yul\":5487:5491   */\n      0x20\n        /* \"#utility.yul\":5482:5485   */\n      dup3\n        /* \"#utility.yul\":5478:5492   */\n      add\n        /* \"#utility.yul\":5463:5492   */\n      swap1\n      pop\n        /* \"#utility.yul\":5329:5498   */\n      swap3\n      swap2\n      pop\n      pop\n      jump\t// out\n        /* \"#utility.yul\":5504:5643   */\n    tag_72:\n        /* \"#utility.yul\":5593:5599   */\n      dup3\n        /* \"#utility.yul\":5588:5591   */\n      dup2\n        /* \"#utility.yul\":5583:5586   */\n      dup4\n        /* \"#utility.yul\":5577:5600   */\n      mcopy\n        /* \"#utility.yul\":5634:5635   */\n      0x00\n        /* \"#utility.yul\":5625:5631   */\n      dup4\n        /* \"#utility.yul\":5620:5623   */\n      dup4\n        /* \"#utility.yul\":5616:5632   */\n      add\n        /* \"#utility.yul\":5609:5636   */\n      mstore\n        /* \"#utility.yul\":5504:5643   */\n      pop\n      pop\n      pop\n      jump\t// out\n        /* \"#utility.yul\":5649:6026   */\n    tag_73:\n        /* \"#utility.yul\":5737:5740   */\n      0x00\n        /* \"#utility.yul\":5765:5804   */\n      tag_160\n        /* \"#utility.yul\":5798:5803   */\n      dup3\n        /* \"#utility.yul\":5765:5804   */\n      tag_70\n      jump\t// in\n    tag_160:\n        /* \"#utility.yul\":5820:5891   */\n      tag_161\n        /* \"#utility.yul\":5884:5890   */\n      dup2\n        /* \"#utility.yul\":5879:5882   */\n      dup6\n        /* \"#utility.yul\":5820:5891   */\n      tag_71\n      jump\t// in\n    tag_161:\n        /* \"#utility.yul\":5813:5891   */\n      swap4\n      pop\n        /* \"#utility.yul\":5900:5965   */\n      tag_162\n        /* \"#utility.yul\":5958:5964   */\n      dup2\n        /* \"#utility.yul\":5953:5956   */\n      dup6\n        /* \"#utility.yul\":5946:5950   */\n      0x20\n        /* \"#utility.yul\":5939:5944   */\n      dup7\n        /* \"#utility.yul\":5935:5951   */\n      add\n        /* \"#utility.yul\":5900:5965   */\n      tag_72\n      jump\t// in\n    tag_162:\n        /* \"#utility.yul\":5990:6019   */\n      tag_163\n        /* \"#utility.yul\":6012:6018   */\n      dup2\n        /* \"#utility.yul\":5990:6019   */\n      tag_59\n      jump\t// in\n    tag_163:\n        /* \"#utility.yul\":5985:5988   */\n      dup5\n        /* \"#utility.yul\":5981:6020   */\n      add\n        /* \"#utility.yul\":5974:6020   */\n      swap2\n      pop\n        /* \"#utility.yul\":5741:6026   */\n      pop\n        /* \"#utility.yul\":5649:6026   */\n      swap3\n      swap2\n      pop\n      pop\n      jump\t// out\n        /* \"#utility.yul\":6032:6565   */\n    tag_21:\n        /* \"#utility.yul\":6201:6205   */\n      0x00\n        /* \"#utility.yul\":6239:6241   */\n      0x60\n        /* \"#utility.yul\":6228:6237   */\n      dup3\n        /* \"#utility.yul\":6224:6242   */\n      add\n        /* \"#utility.yul\":6216:6242   */\n      swap1\n      pop\n        /* \"#utility.yul\":6252:6323   */\n      tag_165\n        /* \"#utility.yul\":6320:6321   */\n      0x00\n        /* \"#utility.yul\":6309:6318   */\n      dup4\n        /* \"#utility.yul\":6305:6322   */\n      add\n        /* \"#utility.yul\":6296:6302   */\n      dup7\n        /* \"#utility.yul\":6252:6323   */\n      tag_69\n      jump\t// in\n    tag_165:\n        /* \"#utility.yul\":6370:6379   */\n      dup2\n        /* \"#utility.yul\":6364:6368   */\n      dup2\n        /* \"#utility.yul\":6360:6380   */\n      sub\n        /* \"#utility.yul\":6355:6357   */\n      0x20\n        /* \"#utility.yul\":6344:6353   */\n      dup4\n        /* \"#utility.yul\":6340:6358   */\n      add\n        /* \"#utility.yul\":6333:6381   */\n      mstore\n        /* \"#utility.yul\":6398:6476   */\n      tag_166\n        /* \"#utility.yul\":6471:6475   */\n      dup2\n        /* \"#utility.yul\":6462:6468   */\n      dup6\n        /* \"#utility.yul\":6398:6476   */\n      tag_73\n      jump\t// in\n    tag_166:\n        /* \"#utility.yul\":6390:6476   */\n      swap1\n      pop\n        /* \"#utility.yul\":6486:6558   */\n      tag_167\n        /* \"#utility.yul\":6554:6556   */\n      0x40\n        /* \"#utility.yul\":6543:6552   */\n      dup4\n        /* \"#utility.yul\":6539:6557   */\n      add\n        /* \"#utility.yul\":6530:6536   */\n      dup5\n        /* \"#utility.yul\":6486:6558   */\n      tag_56\n      jump\t// in\n    tag_167:\n        /* \"#utility.yul\":6032:6565   */\n      swap5\n      swap4\n      pop\n      pop\n      pop\n      pop\n      jump\t// out\n        /* \"#utility.yul\":6571:6751   */\n    tag_28:\n        /* \"#utility.yul\":6619:6696   */\n      0x4e487b7100000000000000000000000000000000000000000000000000000000\n        /* \"#utility.yul\":6616:6617   */\n      0x00\n        /* \"#utility.yul\":6609:6697   */\n      mstore\n        /* \"#utility.yul\":6716:6720   */\n      0x32\n        /* \"#utility.yul\":6713:6714   */\n      0x04\n        /* \"#utility.yul\":6706:6721   */\n      mstore\n        /* \"#utility.yul\":6740:6744   */\n      0x24\n        /* \"#utility.yul\":6737:6738   */\n      0x00\n        /* \"#utility.yul\":6730:6745   */\n      revert\n        /* \"#utility.yul\":6757:6937   */\n    tag_74:\n        /* \"#utility.yul\":6805:6882   */\n      0x4e487b7100000000000000000000000000000000000000000000000000000000\n        /* \"#utility.yul\":6802:6803   */\n      0x00\n        /* \"#utility.yul\":6795:6883   */\n      mstore\n        /* \"#utility.yul\":6902:6906   */\n      0x11\n        /* \"#utility.yul\":6899:6900   */\n      0x04\n        /* \"#utility.yul\":6892:6907   */\n      mstore\n        /* \"#utility.yul\":6926:6930   */\n      0x24\n        /* \"#utility.yul\":6923:6924   */\n      0x00\n        /* \"#utility.yul\":6916:6931   */\n      revert\n        /* \"#utility.yul\":6943:7134   */\n    tag_35:\n        /* \"#utility.yul\":6983:6986   */\n      0x00\n        /* \"#utility.yul\":7002:7022   */\n      tag_171\n        /* \"#utility.yul\":7020:7021   */\n      dup3\n        /* \"#utility.yul\":7002:7022   */\n      tag_55\n      jump\t// in\n    tag_171:\n        /* \"#utility.yul\":6997:7022   */\n      swap2\n      pop\n        /* \"#utility.yul\":7036:7056   */\n      tag_172\n        /* \"#utility.yul\":7054:7055   */\n      dup4\n        /* \"#utility.yul\":7036:7056   */\n      tag_55\n      jump\t// in\n    tag_172:\n        /* \"#utility.yul\":7031:7056   */\n      swap3\n      pop\n        /* \"#utility.yul\":7079:7080   */\n      dup3\n        /* \"#utility.yul\":7076:7077   */\n      dup3\n        /* \"#utility.yul\":7072:7081   */\n      add\n        /* \"#utility.yul\":7065:7081   */\n      swap1\n      pop\n        /* \"#utility.yul\":7100:7103   */\n      dup1\n        /* \"#utility.yul\":7097:7098   */\n      dup3\n        /* \"#utility.yul\":7094:7104   */\n      gt\n        /* \"#utility.yul\":7091:7127   */\n      iszero\n      tag_173\n      jumpi\n        /* \"#utility.yul\":7107:7125   */\n      tag_174\n      tag_74\n      jump\t// in\n    tag_174:\n        /* \"#utility.yul\":7091:7127   */\n    tag_173:\n        /* \"#utility.yul\":6943:7134   */\n      swap3\n      swap2\n      pop\n      pop\n      jump\t// out\n        /* \"#utility.yul\":7140:7320   */\n    tag_75:\n        /* \"#utility.yul\":7188:7265   */\n      0x4e487b7100000000000000000000000000000000000000000000000000000000\n        /* \"#utility.yul\":7185:7186   */\n      0x00\n        /* \"#utility.yul\":7178:7266   */\n      mstore\n        /* \"#utility.yul\":7285:7289   */\n      0x22\n        /* \"#utility.yul\":7282:7283   */\n      0x04\n        /* \"#utility.yul\":7275:7290   */\n      mstore\n        /* \"#utility.yul\":7309:7313   */\n      0x24\n        /* \"#utility.yul\":7306:7307   */\n      0x00\n        /* \"#utility.yul\":7299:7314   */\n      revert\n        /* \"#utility.yul\":7326:7646   */\n    tag_43:\n        /* \"#utility.yul\":7370:7376   */\n      0x00\n        /* \"#utility.yul\":7407:7408   */\n      0x02\n        /* \"#utility.yul\":7401:7405   */\n      dup3\n        /* \"#utility.yul\":7397:7409   */\n      div\n        /* \"#utility.yul\":7387:7409   */\n      swap1\n      pop\n        /* \"#utility.yul\":7454:7455   */\n      0x01\n        /* \"#utility.yul\":7448:7452   */\n      dup3\n        /* \"#utility.yul\":7444:7456   */\n      and\n        /* \"#utility.yul\":7475:7493   */\n      dup1\n        /* \"#utility.yul\":7465:7546   */\n      tag_177\n      jumpi\n        /* \"#utility.yul\":7531:7535   */\n      0x7f\n        /* \"#utility.yul\":7523:7529   */\n      dup3\n        /* \"#utility.yul\":7519:7536   */\n      and\n        /* \"#utility.yul\":7509:7536   */\n      swap2\n      pop\n        /* \"#utility.yul\":7465:7546   */\n    tag_177:\n        /* \"#utility.yul\":7593:7595   */\n      0x20\n        /* \"#utility.yul\":7585:7591   */\n      dup3\n        /* \"#utility.yul\":7582:7596   */\n      lt\n        /* \"#utility.yul\":7562:7580   */\n      dup2\n        /* \"#utility.yul\":7559:7597   */\n      sub\n        /* \"#utility.yul\":7556:7640   */\n      tag_178\n      jumpi\n        /* \"#utility.yul\":7612:7630   */\n      tag_179\n      tag_75\n      jump\t// in\n    tag_179:\n        /* \"#utility.yul\":7556:7640   */\n    tag_178:\n        /* \"#utility.yul\":7377:7646   */\n      pop\n        /* \"#utility.yul\":7326:7646   */\n      swap2\n      swap1\n      pop\n      jump\t// out\n        /* \"#utility.yul\":7652:7793   */\n    tag_76:\n        /* \"#utility.yul\":7701:7705   */\n      0x00\n        /* \"#utility.yul\":7724:7727   */\n      dup2\n        /* \"#utility.yul\":7716:7727   */\n      swap1\n      pop\n        /* \"#utility.yul\":7747:7750   */\n      dup2\n        /* \"#utility.yul\":7744:7745   */\n      0x00\n        /* \"#utility.yul\":7737:7751   */\n      mstore\n        /* \"#utility.yul\":7781:7785   */\n      0x20\n        /* \"#utility.yul\":7778:7779   */\n      0x00\n        /* \"#utility.yul\":7768:7786   */\n      keccak256\n        /* \"#utility.yul\":7760:7786   */\n      swap1\n      pop\n        /* \"#utility.yul\":7652:7793   */\n      swap2\n      swap1\n      pop\n      jump\t// out\n        /* \"#utility.yul\":7799:7892   */\n    tag_77:\n        /* \"#utility.yul\":7836:7842   */\n      0x00\n        /* \"#utility.yul\":7883:7885   */\n      0x20\n        /* \"#utility.yul\":7878:7880   */\n      0x1f\n        /* \"#utility.yul\":7871:7876   */\n      dup4\n        /* \"#utility.yul\":7867:7881   */\n      add\n        /* \"#utility.yul\":7863:7886   */\n      div\n        /* \"#utility.yul\":7853:7886   */\n      swap1\n      pop\n        /* \"#utility.yul\":7799:7892   */\n      swap2\n      swap1\n      pop\n      jump\t// out\n        /* \"#utility.yul\":7898:8005   */\n    tag_78:\n        /* \"#utility.yul\":7942:7950   */\n      0x00\n        /* \"#utility.yul\":7992:7997   */\n      dup3\n        /* \"#utility.yul\":7986:7990   */\n      dup3\n        /* \"#utility.yul\":7982:7998   */\n      shl\n        /* \"#utility.yul\":7961:7998   */\n      swap1\n      pop\n        /* \"#utility.yul\":7898:8005   */\n      swap3\n      swap2\n      pop\n      pop\n      jump\t// out\n        /* \"#utility.yul\":8011:8404   */\n    tag_79:\n        /* \"#utility.yul\":8080:8086   */\n      0x00\n        /* \"#utility.yul\":8130:8131   */\n      0x08\n        /* \"#utility.yul\":8118:8128   */\n      dup4\n        /* \"#utility.yul\":8114:8132   */\n      mul\n        /* \"#utility.yul\":8153:8250   */\n      tag_184\n        /* \"#utility.yul\":8183:8249   */\n      0xffffffffffffffffffffffffffffffffffffffffffffffffffffffffffffffff\n        /* \"#utility.yul\":8172:8181   */\n      dup3\n        /* \"#utility.yul\":8153:8250   */\n      tag_78\n      jump\t// in\n    tag_184:\n        /* \"#utility.yul\":8271:8310   */\n      tag_185\n        /* \"#utility.yul\":8301:8309   */\n      dup7\n        /* \"#utility.yul\":8290:8299   */\n      dup4\n        /* \"#utility.yul\":8271:8310   */\n      tag_78\n      jump\t// in\n    tag_185:\n        /* \"#utility.yul\":8259:8310   */\n      swap6\n      pop\n        /* \"#utility.yul\":8343:8347   */\n      dup1\n        /* \"#utility.yul\":8339:8348   */\n      not\n        /* \"#utility.yul\":8332:8337   */\n      dup5\n        /* \"#utility.yul\":8328:8349   */\n      and\n        /* \"#utility.yul\":8319:8349   */\n      swap4\n      pop\n        /* \"#utility.yul\":8392:8396   */\n      dup1\n        /* \"#utility.yul\":8382:8390   */\n      dup7\n        /* \"#utility.yul\":8378:8397   */\n      and\n        /* \"#utility.yul\":8371:8376   */\n      dup5\n        /* \"#utility.yul\":8368:8398   */\n      or\n        /* \"#utility.yul\":8358:8398   */\n      swap3\n      pop\n        /* \"#utility.yul\":8087:8404   */\n      pop\n      pop\n        /* \"#utility.yul\":8011:8404   */\n      swap4\n      swap3\n      pop\n      pop\n      pop\n      jump\t// out\n        /* \"#utility.yul\":8410:8470   */\n    tag_80:\n        /* \"#utility.yul\":8438:8441   */\n      0x00\n        /* \"#utility.yul\":8459:8464   */\n      dup2\n        /* \"#utility.yul\":8452:8464   */\n      swap1\n      pop\n        /* \"#utility.yul\":8410:8470   */\n      swap2\n      swap1\n      pop\n      jump\t// out\n        /* \"#utility.yul\":8476:8618   */\n    tag_81:\n        /* \"#utility.yul\":8526:8535   */\n      0x00\n        /* \"#utility.yul\":8559:8612   */\n      tag_188\n        /* \"#utility.yul\":8577:8611   */\n      tag_189\n        /* \"#utility.yul\":8586:8610   */\n      tag_190\n        /* \"#utility.yul\":8604:8609   */\n      dup5\n        /* \"#utility.yul\":8586:8610   */\n      tag_55\n      jump\t// in\n    tag_190:\n        /* \"#utility.yul\":8577:8611   */\n      tag_80\n      jump\t// in\n    tag_189:\n        /* \"#utility.yul\":8559:8612   */\n      tag_55\n      jump\t// in\n    tag_188:\n        /* \"#utility.yul\":8546:8612   */\n      swap1\n      pop\n        /* \"#utility.yul\":8476:8618   */\n      swap2\n      swap1\n      pop\n      jump\t// out\n        /* \"#utility.yul\":8624:8699   */\n    tag_82:\n        /* \"#utility.yul\":8667:8670   */\n      0x00\n        /* \"#utility.yul\":8688:8693   */\n      dup2\n        /* \"#utility.yul\":8681:8693   */\n      swap1\n      pop\n        /* \"#utility.yul\":8624:8699   */\n      swap2\n      swap1\n      pop\n      jump\t// out\n        /* \"#utility.yul\":8705:8974   */\n    tag_83:\n        /* \"#utility.yul\":8815:8854   */\n      tag_193\n        /* \"#utility.yul\":8846:8853   */\n      dup4\n        /* \"#utility.yul\":8815:8854   */\n      tag_81\n      jump\t// in\n    tag_193:\n        /* \"#utility.yul\":8876:8967   */\n      tag_194\n        /* \"#utility.yul\":8925:8966   */\n      tag_195\n        /* \"#utility.yul\":8949:8965   */\n      dup3\n        /* \"#utility.yul\":8925:8966   */\n      tag_82\n      jump\t// in\n    tag_195:\n        /* \"#utility.yul\":8917:8923   */\n      dup5\n        /* \"#utility.yul\":8910:8914   */\n      dup5\n        /* \"#utility.yul\":8904:8915   */\n      sload\n        /* \"#utility.yul\":8876:8967   */\n      tag_79\n      jump\t// in\n    tag_194:\n        /* \"#utility.yul\":8870:8874   */\n      dup3\n        /* \"#utility.yul\":8863:8968   */\n      sstore\n        /* \"#utility.yul\":8781:8974   */\n      pop\n        /* \"#utility.yul\":8705:8974   */\n      pop\n      pop\n      pop\n      jump\t// out\n        /* \"#utility.yul\":8980:9053   */\n    tag_84:\n        /* \"#utility.yul\":9025:9028   */\n      0x00\n        /* \"#utility.yul\":8980:9053   */\n      swap1\n      jump\t// out\n        /* \"#utility.yul\":9059:9248   */\n    tag_85:\n        /* \"#utility.yul\":9136:9168   */\n      tag_198\n      tag_84\n      jump\t// in\n    tag_198:\n        /* \"#utility.yul\":9177:9242   */\n      tag_199\n        /* \"#utility.yul\":9235:9241   */\n      dup2\n        /* \"#utility.yul\":9227:9233   */\n      dup5\n        /* \"#utility.yul\":9221:9225   */\n      dup5\n        /* \"#utility.yul\":9177:9242   */\n      tag_83\n      jump\t// in\n    tag_199:\n        /* \"#utility.yul\":9112:9248   */\n      pop\n        /* \"#utility.yul\":9059:9248   */\n      pop\n      pop\n      jump\t// out\n        /* \"#utility.yul\":9254:9440   */\n    tag_86:\n        /* \"#utility.yul\":9314:9434   */\n    tag_201:\n        /* \"#utility.yul\":9331:9334   */\n      dup2\n        /* \"#utility.yul\":9324:9329   */\n      dup2\n        /* \"#utility.yul\":9321:9335   */\n      lt\n        /* \"#utility.yul\":9314:9434   */\n      iszero\n      tag_203\n      jumpi\n        /* \"#utility.yul\":9385:9424   */\n      tag_204\n        /* \"#utility.yul\":9422:9423   */\n      0x00\n        /* \"#utility.yul\":9415:9420   */\n      dup3\n        /* \"#utility.yul\":9385:9424   */\n      tag_85\n      jump\t// in\n    tag_204:\n        /* \"#utility.yul\":9358:9359   */\n      0x01\n        /* \"#utility.yul\":9351:9356   */\n      dup2\n        /* \"#utility.yul\":9347:9360   */\n      add\n        /* \"#utility.yul\":9338:9360   */\n      swap1\n      pop\n        /* \"#utility.yul\":9314:9434   */\n      jump(tag_201)\n    tag_203:\n        /* \"#utility.yul\":9254:9440   */\n      pop\n      pop\n      jump\t// out\n        /* \"#utility.yul\":9446:9989   */\n    tag_87:\n        /* \"#utility.yul\":9547:9549   */\n      0x1f\n        /* \"#utility.yul\":9542:9545   */\n      dup3\n        /* \"#utility.yul\":9539:9550   */\n      gt\n        /* \"#utility.yul\":9536:9982   */\n      iszero\n      tag_206\n      jumpi\n        /* \"#utility.yul\":9581:9619   */\n      tag_207\n        /* \"#utility.yul\":9613:9618   */\n      dup2\n        /* \"#utility.yul\":9581:9619   */\n      tag_76\n      jump\t// in\n    tag_207:\n        /* \"#utility.yul\":9665:9694   */\n      tag_208\n        /* \"#utility.yul\":9683:9693   */\n      dup5\n        /* \"#utility.yul\":9665:9694   */\n      tag_77\n      jump\t// in\n    tag_208:\n        /* \"#utility.yul\":9655:9663   */\n      dup2\n        /* \"#utility.yul\":9651:9695   */\n      add\n        /* \"#utility.yul\":9848:9850   */\n      0x20\n        /* \"#utility.yul\":9836:9846   */\n      dup6\n        /* \"#utility.yul\":9833:9851   */\n      lt\n        /* \"#utility.yul\":9830:9879   */\n      iszero\n      tag_209\n      jumpi\n        /* \"#utility.yul\":9869:9877   */\n      dup2\n        /* \"#utility.yul\":9854:9877   */\n      swap1\n      pop\n        /* \"#utility.yul\":9830:9879   */\n    tag_209:\n        /* \"#utility.yul\":9892:9972   */\n      tag_210\n        /* \"#utility.yul\":9948:9970   */\n      tag_211\n        /* \"#utility.yul\":9966:9969   */\n      dup6\n        /* \"#utility.yul\":9948:9970   */\n      tag_77\n      jump\t// in\n    tag_211:\n        /* \"#utility.yul\":9938:9946   */\n      dup4\n        /* \"#utility.yul\":9934:9971   */\n      add\n        /* \"#utility.yul\":9921:9932   */\n      dup3\n        /* \"#utility.yul\":9892:9972   */\n      tag_86\n      jump\t// in\n    tag_210:\n        /* \"#utility.yul\":9551:9982   */\n      pop\n      pop\n        /* \"#utility.yul\":9536:9982   */\n    tag_206:\n        /* \"#utility.yul\":9446:9989   */\n      pop\n      pop\n      pop\n      jump\t// out\n        /* \"#utility.yul\":9995:10112   */\n    tag_88:\n        /* \"#utility.yul\":10049:10057   */\n      0x00\n        /* \"#utility.yul\":10099:10104   */\n      dup3\n        /* \"#utility.yul\":10093:10097   */\n      dup3\n        /* \"#utility.yul\":10089:10105   */\n      shr\n        /* \"#utility.yul\":10068:10105   */\n      swap1\n      pop\n        /* \"#utility.yul\":9995:10112   */\n      swap3\n      swap2\n      pop\n      pop\n      jump\t// out\n        /* \"#utility.yul\":10118:10287   */\n    tag_89:\n        /* \"#utility.yul\":10162:10168   */\n      0x00\n        /* \"#utility.yul\":10195:10246   */\n      tag_214\n        /* \"#utility.yul\":10243:10244   */\n      0x00\n        /* \"#utility.yul\":10239:10245   */\n      not\n        /* \"#utility.yul\":10231:10236   */\n      dup5\n        /* \"#utility.yul\":10228:10229   */\n      0x08\n        /* \"#utility.yul\":10224:10237   */\n      mul\n        /* \"#utility.yul\":10195:10246   */\n      tag_88\n      jump\t// in\n    tag_214:\n        /* \"#utility.yul\":10191:10247   */\n      not\n        /* \"#utility.yul\":10276:10280   */\n      dup1\n        /* \"#utility.yul\":10270:10274   */\n      dup4\n        /* \"#utility.yul\":10266:10281   */\n      and\n        /* \"#utility.yul\":10256:10281   */\n      swap2\n      pop\n        /* \"#utility.yul\":10169:10287   */\n      pop\n        /* \"#utility.yul\":10118:10287   */\n      swap3\n      swap2\n      pop\n      pop\n      jump\t// out\n        /* \"#utility.yul\":10292:10587   */\n    tag_90:\n        /* \"#utility.yul\":10368:10372   */\n      0x00\n        /* \"#utility.yul\":10514:10543   */\n      tag_216\n        /* \"#utility.yul\":10539:10542   */\n      dup4\n        /* \"#utility.yul\":10533:10537   */\n      dup4\n        /* \"#utility.yul\":10514:10543   */\n      tag_89\n      jump\t// in\n    tag_216:\n        /* \"#utility.yul\":10506:10543   */\n      swap2\n      pop\n        /* \"#utility.yul\":10576:10579   */\n      dup3\n        /* \"#utility.yul\":10573:10574   */\n      0x02\n        /* \"#utility.yul\":10569:10580   */\n      mul\n        /* \"#utility.yul\":10563:10567   */\n      dup3\n        /* \"#utility.yul\":10560:10581   */\n      or\n        /* \"#utility.yul\":10552:10581   */\n      swap1\n      pop\n        /* \"#utility.yul\":10292:10587   */\n      swap3\n      swap2\n      pop\n      pop\n      jump\t// out\n        /* \"#utility.yul\":10592:11987   */\n    tag_39:\n        /* \"#utility.yul\":10709:10746   */\n      tag_218\n        /* \"#utility.yul\":10742:10745   */\n      dup3\n        /* \"#utility.yul\":10709:10746   */\n      tag_70\n      jump\t// in\n    tag_218:\n        /* \"#utility.yul\":10811:10829   */\n      0xffffffffffffffff\n        /* \"#utility.yul\":10803:10809   */\n      dup2\n        /* \"#utility.yul\":10800:10830   */\n      gt\n        /* \"#utility.yul\":10797:10853   */\n      iszero\n      tag_219\n      jumpi\n        /* \"#utility.yul\":10833:10851   */\n      tag_220\n      tag_60\n      jump\t// in\n    tag_220:\n        /* \"#utility.yul\":10797:10853   */\n    tag_219:\n        /* \"#utility.yul\":10877:10915   */\n      tag_221\n        /* \"#utility.yul\":10909:10913   */\n      dup3\n        /* \"#utility.yul\":10903:10914   */\n      sload\n        /* \"#utility.yul\":10877:10915   */\n      tag_43\n      jump\t// in\n    tag_221:\n        /* \"#utility.yul\":10962:11029   */\n      tag_222\n        /* \"#utility.yul\":11022:11028   */\n      dup3\n        /* \"#utility.yul\":11014:11020   */\n      dup3\n        /* \"#utility.yul\":11008:11012   */\n      dup6\n        /* \"#utility.yul\":10962:11029   */\n      tag_87\n      jump\t// in\n    tag_222:\n        /* \"#utility.yul\":11056:11057   */\n      0x00\n        /* \"#utility.yul\":11080:11084   */\n      0x20\n        /* \"#utility.yul\":11067:11084   */\n      swap1\n      pop\n        /* \"#utility.yul\":11112:11114   */\n      0x1f\n        /* \"#utility.yul\":11104:11110   */\n      dup4\n        /* \"#utility.yul\":11101:11115   */\n      gt\n        /* \"#utility.yul\":11129:11130   */\n      0x01\n        /* \"#utility.yul\":11124:11742   */\n      dup2\n      eq\n      tag_224\n      jumpi\n        /* \"#utility.yul\":11786:11787   */\n      0x00\n        /* \"#utility.yul\":11803:11809   */\n      dup5\n        /* \"#utility.yul\":11800:11877   */\n      iszero\n      tag_225\n      jumpi\n        /* \"#utility.yul\":11852:11861   */\n      dup3\n        /* \"#utility.yul\":11847:11850   */\n      dup8\n        /* \"#utility.yul\":11843:11862   */\n      add\n        /* \"#utility.yul\":11837:11863   */\n      mload\n        /* \"#utility.yul\":11828:11863   */\n      swap1\n      pop\n        /* \"#utility.yul\":11800:11877   */\n    tag_225:\n        /* \"#utility.yul\":11903:11970   */\n      tag_226\n        /* \"#utility.yul\":11963:11969   */\n      dup6\n        /* \"#utility.yul\":11956:11961   */\n      dup3\n        /* \"#utility.yul\":11903:11970   */\n      tag_90\n      jump\t// in\n    tag_226:\n        /* \"#utility.yul\":11897:11901   */\n      dup7\n        /* \"#utility.yul\":11890:11971   */\n      sstore\n        /* \"#utility.yul\":11759:11981   */\n      pop\n        /* \"#utility.yul\":11094:11981   */\n      jump(tag_223)\n        /* \"#utility.yul\":11124:11742   */\n    tag_224:\n        /* \"#utility.yul\":11176:11180   */\n      0x1f\n        /* \"#utility.yul\":11172:11181   */\n      not\n        /* \"#utility.yul\":11164:11170   */\n      dup5\n        /* \"#utility.yul\":11160:11182   */\n      and\n        /* \"#utility.yul\":11210:11247   */\n      tag_227\n        /* \"#utility.yul\":11242:11246   */\n      dup7\n        /* \"#utility.yul\":11210:11247   */\n      tag_76\n      jump\t// in\n    tag_227:\n        /* \"#utility.yul\":11269:11270   */\n      0x00\n        /* \"#utility.yul\":11283:11491   */\n    tag_228:\n        /* \"#utility.yul\":11297:11304   */\n      dup3\n        /* \"#utility.yul\":11294:11295   */\n      dup2\n        /* \"#utility.yul\":11291:11305   */\n      lt\n        /* \"#utility.yul\":11283:11491   */\n      iszero\n      tag_230\n      jumpi\n        /* \"#utility.yul\":11376:11385   */\n      dup5\n        /* \"#utility.yul\":11371:11374   */\n      dup10\n        /* \"#utility.yul\":11367:11386   */\n      add\n        /* \"#utility.yul\":11361:11387   */\n      mload\n        /* \"#utility.yul\":11353:11359   */\n      dup3\n        /* \"#utility.yul\":11346:11388   */\n      sstore\n        /* \"#utility.yul\":11427:11428   */\n      0x01\n        /* \"#utility.yul\":11419:11425   */\n      dup3\n        /* \"#utility.yul\":11415:11429   */\n      add\n        /* \"#utility.yul\":11405:11429   */\n      swap2\n      pop\n        /* \"#utility.yul\":11474:11476   */\n      0x20\n        /* \"#utility.yul\":11463:11472   */\n      dup6\n        /* \"#utility.yul\":11459:11477   */\n      add\n        /* \"#utility.yul\":11446:11477   */\n      swap5\n      pop\n        /* \"#utility.yul\":11320:11324   */\n      0x20\n        /* \"#utility.yul\":11317:11318   */\n      dup2\n        /* \"#utility.yul\":11313:11325   */\n      add\n        /* \"#utility.yul\":11308:11325   */\n      swap1\n      pop\n        /* \"#utility.yul\":11283:11491   */\n      jump(tag_228)\n    tag_230:\n        /* \"#utility.yul\":11519:11525   */\n      dup7\n        /* \"#utility.yul\":11510:11517   */\n      dup4\n        /* \"#utility.yul\":11507:11526   */\n      lt\n        /* \"#utility.yul\":11504:11683   */\n      iszero\n      tag_231\n      jumpi\n        /* \"#utility.yul\":11577:11586   */\n      dup5\n        /* \"#utility.yul\":11572:11575   */\n      dup10\n        /* \"#utility.yul\":11568:11587   */\n      add\n        /* \"#utility.yul\":11562:11588   */\n      mload\n        /* \"#utility.yul\":11620:11668   */\n      tag_232\n        /* \"#utility.yul\":11662:11666   */\n      0x1f\n        /* \"#utility.yul\":11654:11660   */\n      dup10\n        /* \"#utility.yul\":11650:11667   */\n      and\n        /* \"#utility.yul\":11639:11648   */\n      dup3\n        /* \"#utility.yul\":11620:11668   */\n      tag_89\n      jump\t// in\n    tag_232:\n        /* \"#utility.yul\":11612:11618   */\n      dup4\n        /* \"#utility.yul\":11605:11669   */\n      sstore\n        /* \"#utility.yul\":11527:11683   */\n      pop\n        /* \"#utility.yul\":11504:11683   */\n    tag_231:\n        /* \"#utility.yul\":11729:11730   */\n      0x01\n        /* \"#utility.yul\":11725:11726   */\n      0x02\n        /* \"#utility.yul\":11717:11723   */\n      dup9\n        /* \"#utility.yul\":11713:11727   */\n      mul\n        /* \"#utility.yul\":11709:11731   */\n      add\n        /* \"#utility.yul\":11703:11707   */\n      dup9\n        /* \"#utility.yul\":11696:11732   */\n      sstore\n        /* \"#utility.yul\":11131:11742   */\n      pop\n      pop\n      pop\n        /* \"#utility.yul\":11094:11981   */\n    tag_223:\n      pop\n        /* \"#utility.yul\":10684:11987   */\n      pop\n      pop\n      pop\n        /* \"#utility.yul\":10592:11987   */\n      pop\n      pop\n      jump\t// out\n\n    auxdata: 0xa26469706673582212200c11a707d461a3d9604356ced6a7b8bfcde3dcff352c3e56406cd1aa5203e3bc64736f6c63430008190033\n}\n",
				"bytecode": {
					"linkReferences": {},
					"object": "608060405234801561000f575f80fd5b505f60405180606001604052803373ffffffffffffffffffffffffffffffffffffffff1681526020016040518060400160405280600981526020017f47726f636572696573000000000000000000000000000000000000000000000081525081526020016032815250908060018154018082558091505060019003905f5260205f2090600302015f909190919091505f820151815f015f6101000a81548173ffffffffffffffffffffffffffffffffffffffff021916908373ffffffffffffffffffffffffffffffffffffffff16021790555060208201518160010190816100f7919061052b565b506040820151816002015550505f60405180606001604052803373ffffffffffffffffffffffffffffffffffffffff1681526020016040518060400160405280600e81526020017f5472616e73706f72746174696f6e0000000000000000000000000000000000008152508152602001601e815250908060018154018082558091505060019003905f5260205f2090600302015f909190919091505f820151815f015f6101000a81548173ffffffffffffffffffffffffffffffffffffffff021916908373ffffffffffffffffffffffffffffffffffffffff16021790555060208201518160010190816101eb919061052b565b506040820151816002015550505f60405180606001604052803373ffffffffffffffffffffffffffffffffffffffff1681526020016040518060400160405280600a81526020017f44696e696e67206f75740000000000000000000000000000000000000000000081525081526020016019815250908060018154018082558091505060019003905f5260205f2090600302015f909190919091505f820151815f015f6101000a81548173ffffffffffffffffffffffffffffffffffffffff021916908373ffffffffffffffffffffffffffffffffffffffff16021790555060208201518160010190816102df919061052b565b506040820151816002015550506105fa565b5f81519050919050565b7f4e487b71000000000000000000000000000000000000000000000000000000005f52604160045260245ffd5b7f4e487b71000000000000000000000000000000000000000000000000000000005f52602260045260245ffd5b5f600282049050600182168061036c57607f821691505b60208210810361037f5761037e610328565b5b50919050565b5f819050815f5260205f209050919050565b5f6020601f8301049050919050565b5f82821b905092915050565b5f600883026103e17fffffffffffffffffffffffffffffffffffffffffffffffffffffffffffffffff826103a6565b6103eb86836103a6565b95508019841693508086168417925050509392505050565b5f819050919050565b5f819050919050565b5f61042f61042a61042584610403565b61040c565b610403565b9050919050565b5f819050919050565b61044883610415565b61045c61045482610436565b8484546103b2565b825550505050565b5f90565b610470610464565b61047b81848461043f565b505050565b5b8181101561049e576104935f82610468565b600181019050610481565b5050565b601f8211156104e3576104b481610385565b6104bd84610397565b810160208510156104cc578190505b6104e06104d885610397565b830182610480565b50505b505050565b5f82821c905092915050565b5f6105035f19846008026104e8565b1980831691505092915050565b5f61051b83836104f4565b9150826002028217905092915050565b610534826102f1565b67ffffffffffffffff81111561054d5761054c6102fb565b5b6105578254610355565b6105628282856104a2565b5f60209050601f831160018114610593575f8415610581578287015190505b61058b8582610510565b8655506105f2565b601f1984166105a186610385565b5f5b828110156105c8578489015182556001820191506020850194506020810190506105a3565b868310156105e557848901516105e1601f8916826104f4565b8355505b6001600288020188555050505b505050505050565b610a10806106075f395ff3fe608060405234801561000f575f80fd5b506004361061003f575f3560e01c80633fb457e414610043578063a4df1f5a14610073578063af4afe0a1461008f575b5f80fd5b61005d60048036038101906100589190610392565b6100c1565b60405161006a91906103d5565b60405180910390f35b61008d60048036038101906100889190610554565b61018c565b005b6100a960048036038101906100a491906105ae565b61024e565b6040516100b893929190610648565b60405180910390f35b5f805f5b5f80549050811015610182578373ffffffffffffffffffffffffffffffffffffffff165f82815481106100fb576100fa610684565b5b905f5260205f2090600302015f015f9054906101000a900473ffffffffffffffffffffffffffffffffffffffff1673ffffffffffffffffffffffffffffffffffffffff1603610175575f818154811061015757610156610684565b5b905f5260205f209060030201600201548261017291906106de565b91505b80806001019150506100c5565b5080915050919050565b5f60405180606001604052803373ffffffffffffffffffffffffffffffffffffffff16815260200184815260200183815250908060018154018082558091505060019003905f5260205f2090600302015f909190919091505f820151815f015f6101000a81548173ffffffffffffffffffffffffffffffffffffffff021916908373ffffffffffffffffffffffffffffffffffffffff160217905550602082015181600101908161023d919061090b565b506040820151816002015550505050565b5f818154811061025c575f80fd5b905f5260205f2090600302015f91509050805f015f9054906101000a900473ffffffffffffffffffffffffffffffffffffffff16908060010180546102a09061073e565b80601f01602080910402602001604051908101604052809291908181526020018280546102cc9061073e565b80156103175780601f106102ee57610100808354040283529160200191610317565b820191905f5260205f20905b8154815290600101906020018083116102fa57829003601f168201915b5050505050908060020154905083565b5f604051905090565b5f80fd5b5f80fd5b5f73ffffffffffffffffffffffffffffffffffffffff82169050919050565b5f61036182610338565b9050919050565b61037181610357565b811461037b575f80fd5b50565b5f8135905061038c81610368565b92915050565b5f602082840312156103a7576103a6610330565b5b5f6103b48482850161037e565b91505092915050565b5f819050919050565b6103cf816103bd565b82525050565b5f6020820190506103e85f8301846103c6565b92915050565b5f80fd5b5f80fd5b5f601f19601f8301169050919050565b7f4e487b71000000000000000000000000000000000000000000000000000000005f52604160045260245ffd5b61043c826103f6565b810181811067ffffffffffffffff8211171561045b5761045a610406565b5b80604052505050565b5f61046d610327565b90506104798282610433565b919050565b5f67ffffffffffffffff82111561049857610497610406565b5b6104a1826103f6565b9050602081019050919050565b828183375f83830152505050565b5f6104ce6104c98461047e565b610464565b9050828152602081018484840111156104ea576104e96103f2565b5b6104f58482856104ae565b509392505050565b5f82601f830112610511576105106103ee565b5b81356105218482602086016104bc565b91505092915050565b610533816103bd565b811461053d575f80fd5b50565b5f8135905061054e8161052a565b92915050565b5f806040838503121561056a57610569610330565b5b5f83013567ffffffffffffffff81111561058757610586610334565b5b610593858286016104fd565b92505060206105a485828601610540565b9150509250929050565b5f602082840312156105c3576105c2610330565b5b5f6105d084828501610540565b91505092915050565b6105e281610357565b82525050565b5f81519050919050565b5f82825260208201905092915050565b8281835e5f83830152505050565b5f61061a826105e8565b61062481856105f2565b9350610634818560208601610602565b61063d816103f6565b840191505092915050565b5f60608201905061065b5f8301866105d9565b818103602083015261066d8185610610565b905061067c60408301846103c6565b949350505050565b7f4e487b71000000000000000000000000000000000000000000000000000000005f52603260045260245ffd5b7f4e487b71000000000000000000000000000000000000000000000000000000005f52601160045260245ffd5b5f6106e8826103bd565b91506106f3836103bd565b925082820190508082111561070b5761070a6106b1565b5b92915050565b7f4e487b71000000000000000000000000000000000000000000000000000000005f52602260045260245ffd5b5f600282049050600182168061075557607f821691505b60208210810361076857610767610711565b5b50919050565b5f819050815f5260205f209050919050565b5f6020601f8301049050919050565b5f82821b905092915050565b5f600883026107ca7fffffffffffffffffffffffffffffffffffffffffffffffffffffffffffffffff8261078f565b6107d4868361078f565b95508019841693508086168417925050509392505050565b5f819050919050565b5f61080f61080a610805846103bd565b6107ec565b6103bd565b9050919050565b5f819050919050565b610828836107f5565b61083c61083482610816565b84845461079b565b825550505050565b5f90565b610850610844565b61085b81848461081f565b505050565b5b8181101561087e576108735f82610848565b600181019050610861565b5050565b601f8211156108c3576108948161076e565b61089d84610780565b810160208510156108ac578190505b6108c06108b885610780565b830182610860565b50505b505050565b5f82821c905092915050565b5f6108e35f19846008026108c8565b1980831691505092915050565b5f6108fb83836108d4565b9150826002028217905092915050565b610914826105e8565b67ffffffffffffffff81111561092d5761092c610406565b5b610937825461073e565b610942828285610882565b5f60209050601f831160018114610973575f8415610961578287015190505b61096b85826108f0565b8655506109d2565b601f1984166109818661076e565b5f5b828110156109a857848901518255600182019150602085019450602081019050610983565b868310156109c557848901516109c1601f8916826108d4565b8355505b6001600288020188555050505b50505050505056fea26469706673582212200c11a707d461a3d9604356ced6a7b8bfcde3dcff352c3e56406cd1aa5203e3bc64736f6c63430008190033",
					"opcodes": "PUSH1 0x80 PUSH1 0x40 MSTORE CALLVALUE DUP1 ISZERO PUSH2 0xF JUMPI PUSH0 DUP1 REVERT JUMPDEST POP PUSH0 PUSH1 0x40 MLOAD DUP1 PUSH1 0x60 ADD PUSH1 0x40 MSTORE DUP1 CALLER PUSH20 0xFFFFFFFFFFFFFFFFFFFFFFFFFFFFFFFFFFFFFFFF AND DUP2 MSTORE PUSH1 0x20 ADD PUSH1 0x40 MLOAD DUP1 PUSH1 0x40 ADD PUSH1 0x40 MSTORE DUP1 PUSH1 0x9 DUP2 MSTORE PUSH1 0x20 ADD PUSH32 0x47726F6365726965730000000000000000000000000000000000000000000000 DUP2 MSTORE POP DUP2 MSTORE PUSH1 0x20 ADD PUSH1 0x32 DUP2 MSTORE POP SWAP1 DUP1 PUSH1 0x1 DUP2 SLOAD ADD DUP1 DUP3 SSTORE DUP1 SWAP2 POP POP PUSH1 0x1 SWAP1 SUB SWAP1 PUSH0 MSTORE PUSH1 0x20 PUSH0 KECCAK256 SWAP1 PUSH1 0x3 MUL ADD PUSH0 SWAP1 SWAP2 SWAP1 SWAP2 SWAP1 SWAP2 POP PUSH0 DUP3 ADD MLOAD DUP2 PUSH0 ADD PUSH0 PUSH2 0x100 EXP DUP2 SLOAD DUP2 PUSH20 0xFFFFFFFFFFFFFFFFFFFFFFFFFFFFFFFFFFFFFFFF MUL NOT AND SWAP1 DUP4 PUSH20 0xFFFFFFFFFFFFFFFFFFFFFFFFFFFFFFFFFFFFFFFF AND MUL OR SWAP1 SSTORE POP PUSH1 0x20 DUP3 ADD MLOAD DUP2 PUSH1 0x1 ADD SWAP1 DUP2 PUSH2 0xF7 SWAP2 SWAP1 PUSH2 0x52B JUMP JUMPDEST POP PUSH1 0x40 DUP3 ADD MLOAD DUP2 PUSH1 0x2 ADD SSTORE POP POP PUSH0 PUSH1 0x40 MLOAD DUP1 PUSH1 0x60 ADD PUSH1 0x40 MSTORE DUP1 CALLER PUSH20 0xFFFFFFFFFFFFFFFFFFFFFFFFFFFFFFFFFFFFFFFF AND DUP2 MSTORE PUSH1 0x20 ADD PUSH1 0x40 MLOAD DUP1 PUSH1 0x40 ADD PUSH1 0x40 MSTORE DUP1 PUSH1 0xE DUP2 MSTORE PUSH1 0x20 ADD PUSH32 0x5472616E73706F72746174696F6E000000000000000000000000000000000000 DUP2 MSTORE POP DUP2 MSTORE PUSH1 0x20 ADD PUSH1 0x1E DUP2 MSTORE POP SWAP1 DUP1 PUSH1 0x1 DUP2 SLOAD ADD DUP1 DUP3 SSTORE DUP1 SWAP2 POP POP PUSH1 0x1 SWAP1 SUB SWAP1 PUSH0 MSTORE PUSH1 0x20 PUSH0 KECCAK256 SWAP1 PUSH1 0x3 MUL ADD PUSH0 SWAP1 SWAP2 SWAP1 SWAP2 SWAP1 SWAP2 POP PUSH0 DUP3 ADD MLOAD DUP2 PUSH0 ADD PUSH0 PUSH2 0x100 EXP DUP2 SLOAD DUP2 PUSH20 0xFFFFFFFFFFFFFFFFFFFFFFFFFFFFFFFFFFFFFFFF MUL NOT AND SWAP1 DUP4 PUSH20 0xFFFFFFFFFFFFFFFFFFFFFFFFFFFFFFFFFFFFFFFF AND MUL OR SWAP1 SSTORE POP PUSH1 0x20 DUP3 ADD MLOAD DUP2 PUSH1 0x1 ADD SWAP1 DUP2 PUSH2 0x1EB SWAP2 SWAP1 PUSH2 0x52B JUMP JUMPDEST POP PUSH1 0x40 DUP3 ADD MLOAD DUP2 PUSH1 0x2 ADD SSTORE POP POP PUSH0 PUSH1 0x40 MLOAD DUP1 PUSH1 0x60 ADD PUSH1 0x40 MSTORE DUP1 CALLER PUSH20 0xFFFFFFFFFFFFFFFFFFFFFFFFFFFFFFFFFFFFFFFF AND DUP2 MSTORE PUSH1 0x20 ADD PUSH1 0x40 MLOAD DUP1 PUSH1 0x40 ADD PUSH1 0x40 MSTORE DUP1 PUSH1 0xA DUP2 MSTORE PUSH1 0x20 ADD PUSH32 0x44696E696E67206F757400000000000000000000000000000000000000000000 DUP2 MSTORE POP DUP2 MSTORE PUSH1 0x20 ADD PUSH1 0x19 DUP2 MSTORE POP SWAP1 DUP1 PUSH1 0x1 DUP2 SLOAD ADD DUP1 DUP3 SSTORE DUP1 SWAP2 POP POP PUSH1 0x1 SWAP1 SUB SWAP1 PUSH0 MSTORE PUSH1 0x20 PUSH0 KECCAK256 SWAP1 PUSH1 0x3 MUL ADD PUSH0 SWAP1 SWAP2 SWAP1 SWAP2 SWAP1 SWAP2 POP PUSH0 DUP3 ADD MLOAD DUP2 PUSH0 ADD PUSH0 PUSH2 0x100 EXP DUP2 SLOAD DUP2 PUSH20 0xFFFFFFFFFFFFFFFFFFFFFFFFFFFFFFFFFFFFFFFF MUL NOT AND SWAP1 DUP4 PUSH20 0xFFFFFFFFFFFFFFFFFFFFFFFFFFFFFFFFFFFFFFFF AND MUL OR SWAP1 SSTORE POP PUSH1 0x20 DUP3 ADD MLOAD DUP2 PUSH1 0x1 ADD SWAP1 DUP2 PUSH2 0x2DF SWAP2 SWAP1 PUSH2 0x52B JUMP JUMPDEST POP PUSH1 0x40 DUP3 ADD MLOAD DUP2 PUSH1 0x2 ADD SSTORE POP POP PUSH2 0x5FA JUMP JUMPDEST PUSH0 DUP2 MLOAD SWAP1 POP SWAP2 SWAP1 POP JUMP JUMPDEST PUSH32 0x4E487B7100000000000000000000000000000000000000000000000000000000 PUSH0 MSTORE PUSH1 0x41 PUSH1 0x4 MSTORE PUSH1 0x24 PUSH0 REVERT JUMPDEST PUSH32 0x4E487B7100000000000000000000000000000000000000000000000000000000 PUSH0 MSTORE PUSH1 0x22 PUSH1 0x4 MSTORE PUSH1 0x24 PUSH0 REVERT JUMPDEST PUSH0 PUSH1 0x2 DUP3 DIV SWAP1 POP PUSH1 0x1 DUP3 AND DUP1 PUSH2 0x36C JUMPI PUSH1 0x7F DUP3 AND SWAP2 POP JUMPDEST PUSH1 0x20 DUP3 LT DUP2 SUB PUSH2 0x37F JUMPI PUSH2 0x37E PUSH2 0x328 JUMP JUMPDEST JUMPDEST POP SWAP2 SWAP1 POP JUMP JUMPDEST PUSH0 DUP2 SWAP1 POP DUP2 PUSH0 MSTORE PUSH1 0x20 PUSH0 KECCAK256 SWAP1 POP SWAP2 SWAP1 POP JUMP JUMPDEST PUSH0 PUSH1 0x20 PUSH1 0x1F DUP4 ADD DIV SWAP1 POP SWAP2 SWAP1 POP JUMP JUMPDEST PUSH0 DUP3 DUP3 SHL SWAP1 POP SWAP3 SWAP2 POP POP JUMP JUMPDEST PUSH0 PUSH1 0x8 DUP4 MUL PUSH2 0x3E1 PUSH32 0xFFFFFFFFFFFFFFFFFFFFFFFFFFFFFFFFFFFFFFFFFFFFFFFFFFFFFFFFFFFFFFFF DUP3 PUSH2 0x3A6 JUMP JUMPDEST PUSH2 0x3EB DUP7 DUP4 PUSH2 0x3A6 JUMP JUMPDEST SWAP6 POP DUP1 NOT DUP5 AND SWAP4 POP DUP1 DUP7 AND DUP5 OR SWAP3 POP POP POP SWAP4 SWAP3 POP POP POP JUMP JUMPDEST PUSH0 DUP2 SWAP1 POP SWAP2 SWAP1 POP JUMP JUMPDEST PUSH0 DUP2 SWAP1 POP SWAP2 SWAP1 POP JUMP JUMPDEST PUSH0 PUSH2 0x42F PUSH2 0x42A PUSH2 0x425 DUP5 PUSH2 0x403 JUMP JUMPDEST PUSH2 0x40C JUMP JUMPDEST PUSH2 0x403 JUMP JUMPDEST SWAP1 POP SWAP2 SWAP1 POP JUMP JUMPDEST PUSH0 DUP2 SWAP1 POP SWAP2 SWAP1 POP JUMP JUMPDEST PUSH2 0x448 DUP4 PUSH2 0x415 JUMP JUMPDEST PUSH2 0x45C PUSH2 0x454 DUP3 PUSH2 0x436 JUMP JUMPDEST DUP5 DUP5 SLOAD PUSH2 0x3B2 JUMP JUMPDEST DUP3 SSTORE POP POP POP POP JUMP JUMPDEST PUSH0 SWAP1 JUMP JUMPDEST PUSH2 0x470 PUSH2 0x464 JUMP JUMPDEST PUSH2 0x47B DUP2 DUP5 DUP5 PUSH2 0x43F JUMP JUMPDEST POP POP POP JUMP JUMPDEST JUMPDEST DUP2 DUP2 LT ISZERO PUSH2 0x49E JUMPI PUSH2 0x493 PUSH0 DUP3 PUSH2 0x468 JUMP JUMPDEST PUSH1 0x1 DUP2 ADD SWAP1 POP PUSH2 0x481 JUMP JUMPDEST POP POP JUMP JUMPDEST PUSH1 0x1F DUP3 GT ISZERO PUSH2 0x4E3 JUMPI PUSH2 0x4B4 DUP2 PUSH2 0x385 JUMP JUMPDEST PUSH2 0x4BD DUP5 PUSH2 0x397 JUMP JUMPDEST DUP2 ADD PUSH1 0x20 DUP6 LT ISZERO PUSH2 0x4CC JUMPI DUP2 SWAP1 POP JUMPDEST PUSH2 0x4E0 PUSH2 0x4D8 DUP6 PUSH2 0x397 JUMP JUMPDEST DUP4 ADD DUP3 PUSH2 0x480 JUMP JUMPDEST POP POP JUMPDEST POP POP POP JUMP JUMPDEST PUSH0 DUP3 DUP3 SHR SWAP1 POP SWAP3 SWAP2 POP POP JUMP JUMPDEST PUSH0 PUSH2 0x503 PUSH0 NOT DUP5 PUSH1 0x8 MUL PUSH2 0x4E8 JUMP JUMPDEST NOT DUP1 DUP4 AND SWAP2 POP POP SWAP3 SWAP2 POP POP JUMP JUMPDEST PUSH0 PUSH2 0x51B DUP4 DUP4 PUSH2 0x4F4 JUMP JUMPDEST SWAP2 POP DUP3 PUSH1 0x2 MUL DUP3 OR SWAP1 POP SWAP3 SWAP2 POP POP JUMP JUMPDEST PUSH2 0x534 DUP3 PUSH2 0x2F1 JUMP JUMPDEST PUSH8 0xFFFFFFFFFFFFFFFF DUP2 GT ISZERO PUSH2 0x54D JUMPI PUSH2 0x54C PUSH2 0x2FB JUMP JUMPDEST JUMPDEST PUSH2 0x557 DUP3 SLOAD PUSH2 0x355 JUMP JUMPDEST PUSH2 0x562 DUP3 DUP3 DUP6 PUSH2 0x4A2 JUMP JUMPDEST PUSH0 PUSH1 0x20 SWAP1 POP PUSH1 0x1F DUP4 GT PUSH1 0x1 DUP2 EQ PUSH2 0x593 JUMPI PUSH0 DUP5 ISZERO PUSH2 0x581 JUMPI DUP3 DUP8 ADD MLOAD SWAP1 POP JUMPDEST PUSH2 0x58B DUP6 DUP3 PUSH2 0x510 JUMP JUMPDEST DUP7 SSTORE POP PUSH2 0x5F2 JUMP JUMPDEST PUSH1 0x1F NOT DUP5 AND PUSH2 0x5A1 DUP7 PUSH2 0x385 JUMP JUMPDEST PUSH0 JUMPDEST DUP3 DUP2 LT ISZERO PUSH2 0x5C8 JUMPI DUP5 DUP10 ADD MLOAD DUP3 SSTORE PUSH1 0x1 DUP3 ADD SWAP2 POP PUSH1 0x20 DUP6 ADD SWAP5 POP PUSH1 0x20 DUP2 ADD SWAP1 POP PUSH2 0x5A3 JUMP JUMPDEST DUP7 DUP4 LT ISZERO PUSH2 0x5E5 JUMPI DUP5 DUP10 ADD MLOAD PUSH2 0x5E1 PUSH1 0x1F DUP10 AND DUP3 PUSH2 0x4F4 JUMP JUMPDEST DUP4 SSTORE POP JUMPDEST PUSH1 0x1 PUSH1 0x2 DUP9 MUL ADD DUP9 SSTORE POP POP POP JUMPDEST POP POP POP POP POP POP JUMP JUMPDEST PUSH2 0xA10 DUP1 PUSH2 0x607 PUSH0 CODECOPY PUSH0 RETURN INVALID PUSH1 0x80 PUSH1 0x40 MSTORE CALLVALUE DUP1 ISZERO PUSH2 0xF JUMPI PUSH0 DUP1 REVERT JUMPDEST POP PUSH1 0x4 CALLDATASIZE LT PUSH2 0x3F JUMPI PUSH0 CALLDATALOAD PUSH1 0xE0 SHR DUP1 PUSH4 0x3FB457E4 EQ PUSH2 0x43 JUMPI DUP1 PUSH4 0xA4DF1F5A EQ PUSH2 0x73 JUMPI DUP1 PUSH4 0xAF4AFE0A EQ PUSH2 0x8F JUMPI JUMPDEST PUSH0 DUP1 REVERT JUMPDEST PUSH2 0x5D PUSH1 0x4 DUP1 CALLDATASIZE SUB DUP2 ADD SWAP1 PUSH2 0x58 SWAP2 SWAP1 PUSH2 0x392 JUMP JUMPDEST PUSH2 0xC1 JUMP JUMPDEST PUSH1 0x40 MLOAD PUSH2 0x6A SWAP2 SWAP1 PUSH2 0x3D5 JUMP JUMPDEST PUSH1 0x40 MLOAD DUP1 SWAP2 SUB SWAP1 RETURN JUMPDEST PUSH2 0x8D PUSH1 0x4 DUP1 CALLDATASIZE SUB DUP2 ADD SWAP1 PUSH2 0x88 SWAP2 SWAP1 PUSH2 0x554 JUMP JUMPDEST PUSH2 0x18C JUMP JUMPDEST STOP JUMPDEST PUSH2 0xA9 PUSH1 0x4 DUP1 CALLDATASIZE SUB DUP2 ADD SWAP1 PUSH2 0xA4 SWAP2 SWAP1 PUSH2 0x5AE JUMP JUMPDEST PUSH2 0x24E JUMP JUMPDEST PUSH1 0x40 MLOAD PUSH2 0xB8 SWAP4 SWAP3 SWAP2 SWAP1 PUSH2 0x648 JUMP JUMPDEST PUSH1 0x40 MLOAD DUP1 SWAP2 SUB SWAP1 RETURN JUMPDEST PUSH0 DUP1 PUSH0 JUMPDEST PUSH0 DUP1 SLOAD SWAP1 POP DUP2 LT ISZERO PUSH2 0x182 JUMPI DUP4 PUSH20 0xFFFFFFFFFFFFFFFFFFFFFFFFFFFFFFFFFFFFFFFF AND PUSH0 DUP3 DUP2 SLOAD DUP2 LT PUSH2 0xFB JUMPI PUSH2 0xFA PUSH2 0x684 JUMP JUMPDEST JUMPDEST SWAP1 PUSH0 MSTORE PUSH1 0x20 PUSH0 KECCAK256 SWAP1 PUSH1 0x3 MUL ADD PUSH0 ADD PUSH0 SWAP1 SLOAD SWAP1 PUSH2 0x100 EXP SWAP1 DIV PUSH20 0xFFFFFFFFFFFFFFFFFFFFFFFFFFFFFFFFFFFFFFFF AND PUSH20 0xFFFFFFFFFFFFFFFFFFFFFFFFFFFFFFFFFFFFFFFF AND SUB PUSH2 0x175 JUMPI PUSH0 DUP2 DUP2 SLOAD DUP2 LT PUSH2 0x157 JUMPI PUSH2 0x156 PUSH2 0x684 JUMP JUMPDEST JUMPDEST SWAP1 PUSH0 MSTORE PUSH1 0x20 PUSH0 KECCAK256 SWAP1 PUSH1 0x3 MUL ADD PUSH1 0x2 ADD SLOAD DUP3 PUSH2 0x172 SWAP2 SWAP1 PUSH2 0x6DE JUMP JUMPDEST SWAP2 POP JUMPDEST DUP1 DUP1 PUSH1 0x1 ADD SWAP2 POP POP PUSH2 0xC5 JUMP JUMPDEST POP DUP1 SWAP2 POP POP SWAP2 SWAP1 POP JUMP JUMPDEST PUSH0 PUSH1 0x40 MLOAD DUP1 PUSH1 0x60 ADD PUSH1 0x40 MSTORE DUP1 CALLER PUSH20 0xFFFFFFFFFFFFFFFFFFFFFFFFFFFFFFFFFFFFFFFF AND DUP2 MSTORE PUSH1 0x20 ADD DUP5 DUP2 MSTORE PUSH1 0x20 ADD DUP4 DUP2 MSTORE POP SWAP1 DUP1 PUSH1 0x1 DUP2 SLOAD ADD DUP1 DUP3 SSTORE DUP1 SWAP2 POP POP PUSH1 0x1 SWAP1 SUB SWAP1 PUSH0 MSTORE PUSH1 0x20 PUSH0 KECCAK256 SWAP1 PUSH1 0x3 MUL ADD PUSH0 SWAP1 SWAP2 SWAP1 SWAP2 SWAP1 SWAP2 POP PUSH0 DUP3 ADD MLOAD DUP2 PUSH0 ADD PUSH0 PUSH2 0x100 EXP DUP2 SLOAD DUP2 PUSH20 0xFFFFFFFFFFFFFFFFFFFFFFFFFFFFFFFFFFFFFFFF MUL NOT AND SWAP1 DUP4 PUSH20 0xFFFFFFFFFFFFFFFFFFFFFFFFFFFFFFFFFFFFFFFF AND MUL OR SWAP1 SSTORE POP PUSH1 0x20 DUP3 ADD MLOAD DUP2 PUSH1 0x1 ADD SWAP1 DUP2 PUSH2 0x23D SWAP2 SWAP1 PUSH2 0x90B JUMP JUMPDEST POP PUSH1 0x40 DUP3 ADD MLOAD DUP2 PUSH1 0x2 ADD SSTORE POP POP POP POP JUMP JUMPDEST PUSH0 DUP2 DUP2 SLOAD DUP2 LT PUSH2 0x25C JUMPI PUSH0 DUP1 REVERT JUMPDEST SWAP1 PUSH0 MSTORE PUSH1 0x20 PUSH0 KECCAK256 SWAP1 PUSH1 0x3 MUL ADD PUSH0 SWAP2 POP SWAP1 POP DUP1 PUSH0 ADD PUSH0 SWAP1 SLOAD SWAP1 PUSH2 0x100 EXP SWAP1 DIV PUSH20 0xFFFFFFFFFFFFFFFFFFFFFFFFFFFFFFFFFFFFFFFF AND SWAP1 DUP1 PUSH1 0x1 ADD DUP1 SLOAD PUSH2 0x2A0 SWAP1 PUSH2 0x73E JUMP JUMPDEST DUP1 PUSH1 0x1F ADD PUSH1 0x20 DUP1 SWAP2 DIV MUL PUSH1 0x20 ADD PUSH1 0x40 MLOAD SWAP1 DUP2 ADD PUSH1 0x40 MSTORE DUP1 SWAP3 SWAP2 SWAP1 DUP2 DUP2 MSTORE PUSH1 0x20 ADD DUP3 DUP1 SLOAD PUSH2 0x2CC SWAP1 PUSH2 0x73E JUMP JUMPDEST DUP1 ISZERO PUSH2 0x317 JUMPI DUP1 PUSH1 0x1F LT PUSH2 0x2EE JUMPI PUSH2 0x100 DUP1 DUP4 SLOAD DIV MUL DUP4 MSTORE SWAP2 PUSH1 0x20 ADD SWAP2 PUSH2 0x317 JUMP JUMPDEST DUP3 ADD SWAP2 SWAP1 PUSH0 MSTORE PUSH1 0x20 PUSH0 KECCAK256 SWAP1 JUMPDEST DUP2 SLOAD DUP2 MSTORE SWAP1 PUSH1 0x1 ADD SWAP1 PUSH1 0x20 ADD DUP1 DUP4 GT PUSH2 0x2FA JUMPI DUP3 SWAP1 SUB PUSH1 0x1F AND DUP3 ADD SWAP2 JUMPDEST POP POP POP POP POP SWAP1 DUP1 PUSH1 0x2 ADD SLOAD SWAP1 POP DUP4 JUMP JUMPDEST PUSH0 PUSH1 0x40 MLOAD SWAP1 POP SWAP1 JUMP JUMPDEST PUSH0 DUP1 REVERT JUMPDEST PUSH0 DUP1 REVERT JUMPDEST PUSH0 PUSH20 0xFFFFFFFFFFFFFFFFFFFFFFFFFFFFFFFFFFFFFFFF DUP3 AND SWAP1 POP SWAP2 SWAP1 POP JUMP JUMPDEST PUSH0 PUSH2 0x361 DUP3 PUSH2 0x338 JUMP JUMPDEST SWAP1 POP SWAP2 SWAP1 POP JUMP JUMPDEST PUSH2 0x371 DUP2 PUSH2 0x357 JUMP JUMPDEST DUP2 EQ PUSH2 0x37B JUMPI PUSH0 DUP1 REVERT JUMPDEST POP JUMP JUMPDEST PUSH0 DUP2 CALLDATALOAD SWAP1 POP PUSH2 0x38C DUP2 PUSH2 0x368 JUMP JUMPDEST SWAP3 SWAP2 POP POP JUMP JUMPDEST PUSH0 PUSH1 0x20 DUP3 DUP5 SUB SLT ISZERO PUSH2 0x3A7 JUMPI PUSH2 0x3A6 PUSH2 0x330 JUMP JUMPDEST JUMPDEST PUSH0 PUSH2 0x3B4 DUP5 DUP3 DUP6 ADD PUSH2 0x37E JUMP JUMPDEST SWAP2 POP POP SWAP3 SWAP2 POP POP JUMP JUMPDEST PUSH0 DUP2 SWAP1 POP SWAP2 SWAP1 POP JUMP JUMPDEST PUSH2 0x3CF DUP2 PUSH2 0x3BD JUMP JUMPDEST DUP3 MSTORE POP POP JUMP JUMPDEST PUSH0 PUSH1 0x20 DUP3 ADD SWAP1 POP PUSH2 0x3E8 PUSH0 DUP4 ADD DUP5 PUSH2 0x3C6 JUMP JUMPDEST SWAP3 SWAP2 POP POP JUMP JUMPDEST PUSH0 DUP1 REVERT JUMPDEST PUSH0 DUP1 REVERT JUMPDEST PUSH0 PUSH1 0x1F NOT PUSH1 0x1F DUP4 ADD AND SWAP1 POP SWAP2 SWAP1 POP JUMP JUMPDEST PUSH32 0x4E487B7100000000000000000000000000000000000000000000000000000000 PUSH0 MSTORE PUSH1 0x41 PUSH1 0x4 MSTORE PUSH1 0x24 PUSH0 REVERT JUMPDEST PUSH2 0x43C DUP3 PUSH2 0x3F6 JUMP JUMPDEST DUP2 ADD DUP2 DUP2 LT PUSH8 0xFFFFFFFFFFFFFFFF DUP3 GT OR ISZERO PUSH2 0x45B JUMPI PUSH2 0x45A PUSH2 0x406 JUMP JUMPDEST JUMPDEST DUP1 PUSH1 0x40 MSTORE POP POP POP JUMP JUMPDEST PUSH0 PUSH2 0x46D PUSH2 0x327 JUMP JUMPDEST SWAP1 POP PUSH2 0x479 DUP3 DUP3 PUSH2 0x433 JUMP JUMPDEST SWAP2 SWAP1 POP JUMP JUMPDEST PUSH0 PUSH8 0xFFFFFFFFFFFFFFFF DUP3 GT ISZERO PUSH2 0x498 JUMPI PUSH2 0x497 PUSH2 0x406 JUMP JUMPDEST JUMPDEST PUSH2 0x4A1 DUP3 PUSH2 0x3F6 JUMP JUMPDEST SWAP1 POP PUSH1 0x20 DUP2 ADD SWAP1 POP SWAP2 SWAP1 POP JUMP JUMPDEST DUP3 DUP2 DUP4 CALLDATACOPY PUSH0 DUP4 DUP4 ADD MSTORE POP POP POP JUMP JUMPDEST PUSH0 PUSH2 0x4CE PUSH2 0x4C9 DUP5 PUSH2 0x47E JUMP JUMPDEST PUSH2 0x464 JUMP JUMPDEST SWAP1 POP DUP3 DUP2 MSTORE PUSH1 0x20 DUP2 ADD DUP5 DUP5 DUP5 ADD GT ISZERO PUSH2 0x4EA JUMPI PUSH2 0x4E9 PUSH2 0x3F2 JUMP JUMPDEST JUMPDEST PUSH2 0x4F5 DUP5 DUP3 DUP6 PUSH2 0x4AE JUMP JUMPDEST POP SWAP4 SWAP3 POP POP POP JUMP JUMPDEST PUSH0 DUP3 PUSH1 0x1F DUP4 ADD SLT PUSH2 0x511 JUMPI PUSH2 0x510 PUSH2 0x3EE JUMP JUMPDEST JUMPDEST DUP2 CALLDATALOAD PUSH2 0x521 DUP5 DUP3 PUSH1 0x20 DUP7 ADD PUSH2 0x4BC JUMP JUMPDEST SWAP2 POP POP SWAP3 SWAP2 POP POP JUMP JUMPDEST PUSH2 0x533 DUP2 PUSH2 0x3BD JUMP JUMPDEST DUP2 EQ PUSH2 0x53D JUMPI PUSH0 DUP1 REVERT JUMPDEST POP JUMP JUMPDEST PUSH0 DUP2 CALLDATALOAD SWAP1 POP PUSH2 0x54E DUP2 PUSH2 0x52A JUMP JUMPDEST SWAP3 SWAP2 POP POP JUMP JUMPDEST PUSH0 DUP1 PUSH1 0x40 DUP4 DUP6 SUB SLT ISZERO PUSH2 0x56A JUMPI PUSH2 0x569 PUSH2 0x330 JUMP JUMPDEST JUMPDEST PUSH0 DUP4 ADD CALLDATALOAD PUSH8 0xFFFFFFFFFFFFFFFF DUP2 GT ISZERO PUSH2 0x587 JUMPI PUSH2 0x586 PUSH2 0x334 JUMP JUMPDEST JUMPDEST PUSH2 0x593 DUP6 DUP3 DUP7 ADD PUSH2 0x4FD JUMP JUMPDEST SWAP3 POP POP PUSH1 0x20 PUSH2 0x5A4 DUP6 DUP3 DUP7 ADD PUSH2 0x540 JUMP JUMPDEST SWAP2 POP POP SWAP3 POP SWAP3 SWAP1 POP JUMP JUMPDEST PUSH0 PUSH1 0x20 DUP3 DUP5 SUB SLT ISZERO PUSH2 0x5C3 JUMPI PUSH2 0x5C2 PUSH2 0x330 JUMP JUMPDEST JUMPDEST PUSH0 PUSH2 0x5D0 DUP5 DUP3 DUP6 ADD PUSH2 0x540 JUMP JUMPDEST SWAP2 POP POP SWAP3 SWAP2 POP POP JUMP JUMPDEST PUSH2 0x5E2 DUP2 PUSH2 0x357 JUMP JUMPDEST DUP3 MSTORE POP POP JUMP JUMPDEST PUSH0 DUP2 MLOAD SWAP1 POP SWAP2 SWAP1 POP JUMP JUMPDEST PUSH0 DUP3 DUP3 MSTORE PUSH1 0x20 DUP3 ADD SWAP1 POP SWAP3 SWAP2 POP POP JUMP JUMPDEST DUP3 DUP2 DUP4 MCOPY PUSH0 DUP4 DUP4 ADD MSTORE POP POP POP JUMP JUMPDEST PUSH0 PUSH2 0x61A DUP3 PUSH2 0x5E8 JUMP JUMPDEST PUSH2 0x624 DUP2 DUP6 PUSH2 0x5F2 JUMP JUMPDEST SWAP4 POP PUSH2 0x634 DUP2 DUP6 PUSH1 0x20 DUP7 ADD PUSH2 0x602 JUMP JUMPDEST PUSH2 0x63D DUP2 PUSH2 0x3F6 JUMP JUMPDEST DUP5 ADD SWAP2 POP POP SWAP3 SWAP2 POP POP JUMP JUMPDEST PUSH0 PUSH1 0x60 DUP3 ADD SWAP1 POP PUSH2 0x65B PUSH0 DUP4 ADD DUP7 PUSH2 0x5D9 JUMP JUMPDEST DUP2 DUP2 SUB PUSH1 0x20 DUP4 ADD MSTORE PUSH2 0x66D DUP2 DUP6 PUSH2 0x610 JUMP JUMPDEST SWAP1 POP PUSH2 0x67C PUSH1 0x40 DUP4 ADD DUP5 PUSH2 0x3C6 JUMP JUMPDEST SWAP5 SWAP4 POP POP POP POP JUMP JUMPDEST PUSH32 0x4E487B7100000000000000000000000000000000000000000000000000000000 PUSH0 MSTORE PUSH1 0x32 PUSH1 0x4 MSTORE PUSH1 0x24 PUSH0 REVERT JUMPDEST PUSH32 0x4E487B7100000000000000000000000000000000000000000000000000000000 PUSH0 MSTORE PUSH1 0x11 PUSH1 0x4 MSTORE PUSH1 0x24 PUSH0 REVERT JUMPDEST PUSH0 PUSH2 0x6E8 DUP3 PUSH2 0x3BD JUMP JUMPDEST SWAP2 POP PUSH2 0x6F3 DUP4 PUSH2 0x3BD JUMP JUMPDEST SWAP3 POP DUP3 DUP3 ADD SWAP1 POP DUP1 DUP3 GT ISZERO PUSH2 0x70B JUMPI PUSH2 0x70A PUSH2 0x6B1 JUMP JUMPDEST JUMPDEST SWAP3 SWAP2 POP POP JUMP JUMPDEST PUSH32 0x4E487B7100000000000000000000000000000000000000000000000000000000 PUSH0 MSTORE PUSH1 0x22 PUSH1 0x4 MSTORE PUSH1 0x24 PUSH0 REVERT JUMPDEST PUSH0 PUSH1 0x2 DUP3 DIV SWAP1 POP PUSH1 0x1 DUP3 AND DUP1 PUSH2 0x755 JUMPI PUSH1 0x7F DUP3 AND SWAP2 POP JUMPDEST PUSH1 0x20 DUP3 LT DUP2 SUB PUSH2 0x768 JUMPI PUSH2 0x767 PUSH2 0x711 JUMP JUMPDEST JUMPDEST POP SWAP2 SWAP1 POP JUMP JUMPDEST PUSH0 DUP2 SWAP1 POP DUP2 PUSH0 MSTORE PUSH1 0x20 PUSH0 KECCAK256 SWAP1 POP SWAP2 SWAP1 POP JUMP JUMPDEST PUSH0 PUSH1 0x20 PUSH1 0x1F DUP4 ADD DIV SWAP1 POP SWAP2 SWAP1 POP JUMP JUMPDEST PUSH0 DUP3 DUP3 SHL SWAP1 POP SWAP3 SWAP2 POP POP JUMP JUMPDEST PUSH0 PUSH1 0x8 DUP4 MUL PUSH2 0x7CA PUSH32 0xFFFFFFFFFFFFFFFFFFFFFFFFFFFFFFFFFFFFFFFFFFFFFFFFFFFFFFFFFFFFFFFF DUP3 PUSH2 0x78F JUMP JUMPDEST PUSH2 0x7D4 DUP7 DUP4 PUSH2 0x78F JUMP JUMPDEST SWAP6 POP DUP1 NOT DUP5 AND SWAP4 POP DUP1 DUP7 AND DUP5 OR SWAP3 POP POP POP SWAP4 SWAP3 POP POP POP JUMP JUMPDEST PUSH0 DUP2 SWAP1 POP SWAP2 SWAP1 POP JUMP JUMPDEST PUSH0 PUSH2 0x80F PUSH2 0x80A PUSH2 0x805 DUP5 PUSH2 0x3BD JUMP JUMPDEST PUSH2 0x7EC JUMP JUMPDEST PUSH2 0x3BD JUMP JUMPDEST SWAP1 POP SWAP2 SWAP1 POP JUMP JUMPDEST PUSH0 DUP2 SWAP1 POP SWAP2 SWAP1 POP JUMP JUMPDEST PUSH2 0x828 DUP4 PUSH2 0x7F5 JUMP JUMPDEST PUSH2 0x83C PUSH2 0x834 DUP3 PUSH2 0x816 JUMP JUMPDEST DUP5 DUP5 SLOAD PUSH2 0x79B JUMP JUMPDEST DUP3 SSTORE POP POP POP POP JUMP JUMPDEST PUSH0 SWAP1 JUMP JUMPDEST PUSH2 0x850 PUSH2 0x844 JUMP JUMPDEST PUSH2 0x85B DUP2 DUP5 DUP5 PUSH2 0x81F JUMP JUMPDEST POP POP POP JUMP JUMPDEST JUMPDEST DUP2 DUP2 LT ISZERO PUSH2 0x87E JUMPI PUSH2 0x873 PUSH0 DUP3 PUSH2 0x848 JUMP JUMPDEST PUSH1 0x1 DUP2 ADD SWAP1 POP PUSH2 0x861 JUMP JUMPDEST POP POP JUMP JUMPDEST PUSH1 0x1F DUP3 GT ISZERO PUSH2 0x8C3 JUMPI PUSH2 0x894 DUP2 PUSH2 0x76E JUMP JUMPDEST PUSH2 0x89D DUP5 PUSH2 0x780 JUMP JUMPDEST DUP2 ADD PUSH1 0x20 DUP6 LT ISZERO PUSH2 0x8AC JUMPI DUP2 SWAP1 POP JUMPDEST PUSH2 0x8C0 PUSH2 0x8B8 DUP6 PUSH2 0x780 JUMP JUMPDEST DUP4 ADD DUP3 PUSH2 0x860 JUMP JUMPDEST POP POP JUMPDEST POP POP POP JUMP JUMPDEST PUSH0 DUP3 DUP3 SHR SWAP1 POP SWAP3 SWAP2 POP POP JUMP JUMPDEST PUSH0 PUSH2 0x8E3 PUSH0 NOT DUP5 PUSH1 0x8 MUL PUSH2 0x8C8 JUMP JUMPDEST NOT DUP1 DUP4 AND SWAP2 POP POP SWAP3 SWAP2 POP POP JUMP JUMPDEST PUSH0 PUSH2 0x8FB DUP4 DUP4 PUSH2 0x8D4 JUMP JUMPDEST SWAP2 POP DUP3 PUSH1 0x2 MUL DUP3 OR SWAP1 POP SWAP3 SWAP2 POP POP JUMP JUMPDEST PUSH2 0x914 DUP3 PUSH2 0x5E8 JUMP JUMPDEST PUSH8 0xFFFFFFFFFFFFFFFF DUP2 GT ISZERO PUSH2 0x92D JUMPI PUSH2 0x92C PUSH2 0x406 JUMP JUMPDEST JUMPDEST PUSH2 0x937 DUP3 SLOAD PUSH2 0x73E JUMP JUMPDEST PUSH2 0x942 DUP3 DUP3 DUP6 PUSH2 0x882 JUMP JUMPDEST PUSH0 PUSH1 0x20 SWAP1 POP PUSH1 0x1F DUP4 GT PUSH1 0x1 DUP2 EQ PUSH2 0x973 JUMPI PUSH0 DUP5 ISZERO PUSH2 0x961 JUMPI DUP3 DUP8 ADD MLOAD SWAP1 POP JUMPDEST PUSH2 0x96B DUP6 DUP3 PUSH2 0x8F0 JUMP JUMPDEST DUP7 SSTORE POP PUSH2 0x9D2 JUMP JUMPDEST PUSH1 0x1F NOT DUP5 AND PUSH2 0x981 DUP7 PUSH2 0x76E JUMP JUMPDEST PUSH0 JUMPDEST DUP3 DUP2 LT ISZERO PUSH2 0x9A8 JUMPI DUP5 DUP10 ADD MLOAD DUP3 SSTORE PUSH1 0x1 DUP3 ADD SWAP2 POP PUSH1 0x20 DUP6 ADD SWAP5 POP PUSH1 0x20 DUP2 ADD SWAP1 POP PUSH2 0x983 JUMP JUMPDEST DUP7 DUP4 LT ISZERO PUSH2 0x9C5 JUMPI DUP5 DUP10 ADD MLOAD PUSH2 0x9C1 PUSH1 0x1F DUP10 AND DUP3 PUSH2 0x8D4 JUMP JUMPDEST DUP4 SSTORE POP JUMPDEST PUSH1 0x1 PUSH1 0x2 DUP9 MUL ADD DUP9 SSTORE POP POP POP JUMPDEST POP POP POP POP POP POP JUMP INVALID LOG2 PUSH5 0x6970667358 0x22 SLT KECCAK256 0xC GT 0xA7 SMOD 0xD4 PUSH2 0xA3D9 PUSH1 0x43 JUMP 0xCE 0xD6 0xA7 0xB8 0xBF 0xCD 0xE3 0xDC SELFDESTRUCT CALLDATALOAD 0x2C RETURNDATACOPY JUMP BLOCKHASH PUSH13 0xD1AA5203E3BC64736F6C634300 ADDMOD NOT STOP CALLER "
				},
				"gasEstimates": {
					"creation": {
						"codeDepositCost": "515200",
						"executionCost": "infinite",
						"totalCost": "infinite"
					},
					"external": {
						"addExpense(string,uint256)": "infinite",
						"expenses(uint256)": "infinite",
						"getTotalExpenses(address)": "infinite"
					}
				},
				"methodIdentifiers": {
					"addExpense(string,uint256)": "a4df1f5a",
					"expenses(uint256)": "af4afe0a",
					"getTotalExpenses(address)": "3fb457e4"
				}
			},
			"storageLayout": {
				"storage": [
					{
						"astId": 12,
						"contract": "contracts/loop-exercise.sol:ExpenseTracker",
						"label": "expenses",
						"offset": 0,
						"slot": "0",
						"type": "t_array(t_struct(Expense)8_storage)dyn_storage"
					}
				],
				"types": {
					"t_address": {
						"encoding": "inplace",
						"label": "address",
						"numberOfBytes": "20"
					},
					"t_array(t_struct(Expense)8_storage)dyn_storage": {
						"base": "t_struct(Expense)8_storage",
						"encoding": "dynamic_array",
						"label": "struct ExpenseTracker.Expense[]",
						"numberOfBytes": "32"
					},
					"t_string_storage": {
						"encoding": "bytes",
						"label": "string",
						"numberOfBytes": "32"
					},
					"t_struct(Expense)8_storage": {
						"encoding": "inplace",
						"label": "struct ExpenseTracker.Expense",
						"members": [
							{
								"astId": 3,
								"contract": "contracts/loop-exercise.sol:ExpenseTracker",
								"label": "user",
								"offset": 0,
								"slot": "0",
								"type": "t_address"
							},
							{
								"astId": 5,
								"contract": "contracts/loop-exercise.sol:ExpenseTracker",
								"label": "description",
								"offset": 0,
								"slot": "1",
								"type": "t_string_storage"
							},
							{
								"astId": 7,
								"contract": "contracts/loop-exercise.sol:ExpenseTracker",
								"label": "amount",
								"offset": 0,
								"slot": "2",
								"type": "t_uint256"
							}
						],
						"numberOfBytes": "96"
					},
					"t_uint256": {
						"encoding": "inplace",
						"label": "uint256",
						"numberOfBytes": "32"
					}
				}
			},
			"userdoc": {
				"kind": "user",
				"methods": {},
				"version": 1
			}
		}
	}
}